S0110000786E63702D6C65645F332E73333736
S3150800400050F30020615E0208195C02081D5C020874
S31508004010A70A0A0100410008040803AC60674701C3
S315080040200000000000000000000000000000000082
S315080040300000000000000000000000000000000072
S315080040400000000000000000FFFFFFFFFFFFFFFF6A
S31508004050FFFFFFFF007007080000000000000000D7
S31508004060FFFFFFFFFFFFFFFFFF000000000000004B
S315080040700000000000000000000000000000000032
S31508004080F0FF002000000000F0FF0020F0FF0020F5
S3150800409050F300200F6802087C600208F0E900204F
S311080040A088140020000008080000012019
S3150800410050F30020615E0208ED5E0208F15E0208C7
S31508004110F55E0208F95E0208FD5E0208000000006E
S31508004120000000000000000000000000095F02080F
S315080041300D5F020800000000195F0208579C00087E
S31508004140255F0208315F0208355F0208415F0208F1
S31508004150455F0208495F0208555F0208615F020869
S31508004160655F0208695F02086D5F0208715F0208F1
S315080041707D5F0208895F0208955F0208995F020859
S315080041809D5F0208A95F0208B55F0208C15F0208C1
S315080041902DE9F84F8046DFF87C902422FF21484617
S315080041A000F08BF8DFF870B04FF4A572FF2158467F
S315080041B000F083F824250024184EDFF864A01AF8C6
S315080041C004001849375D095D401C00EBD0704010AB
S315080041D001B11930C01C00FB07F2134830F814105F
S315080041E0124800F086F8012F1CBF2BF814507D19D1
S315080041F0641C242CE3DB0E4824234FF4805240F23F
S31508004200D65100F076F849464046BDE8F44F00F02E
S31508004210E3BB00BFECF60020A0F50020FC61020815
S31508004220D8610208B46102086C6102087C60020861
S3150800423098600208814233D210441144401E491E38
S3150800424010E011F8013900F80139121F11F8013987
S3150800425000F8013911F8013900F8013911F8013966
S3150800426000F8013992B2042AEBDA93B2002B1EBF8A
S3150800427011F8013900F80139521EF6D1704711F8C4
S31508004280013B00F8013B121F11F8013B00F8013B06
S3150800429011F8013B00F8013B11F8013B00F8013B1E
S315080042A092B2042AEBDA93B2002B1EBF11F8013B37
S315080042B000F8013B521EF6D17047130003D00A4698
S315080042C0194601F01FBA704710B500E0521E93B2A6
S315080042D023B100F005F8F9D0181B10BD002010BD59
S315080042E010F8013B11F8014BA34270472F4908709B
S315080042F070470EB430B52D490446087820B301F04E
S315080043006AFA08B301F093FD012001F0FAFDFF28CF
S31508004310054619D001F0EAFD022101F06CFA0146C2
S31508004320284601F0E9FD03AB22462946204802F05B
S31508004330C6F930B1284601F0D9FA10B1042000F0C8
S315080043400BF8284601F047FE30BC5DF810FB0C223E
S3150800435000211848FFF7B1BF164931F81020521C42
S3150800436021F8102070470CB480B502AA02F00FFBA2
S3150800437001BC5DF80CFB0D4A1178A1B9010018BF04
S31508004380012810D0042818BF05280CD0312818BFDA
S31508004390332808D037281EBF3B284FF6FF718842BE
S315080043A001D001207047002070470000BFFF0020A1
S315080043B0F3610008ACF80020302818BF322806D070
S315080043C034281CBF3628382801D000207047012021
S315080043D07047000030B5DFF8445ADFF8444A2B88A6
S315080043E02468C01A04EB4004002004E034F81030B6
S315080043F021F81030401C9042F8DB002030BDDFF871
S315080044001C3ADFF81C1A1A880968801A01EB400161
S31508004410022002F0E1BBF8B504460F461646DFF85F
S31508004420005AF0B208B34FF6FF70ADF8000000204E
S3150800443017F8011BC3B2401C0DF80310761EC1B253
S31508004440022902DAF1B20029F2D1DFF8D0E92868A8
S31508004450BEF800301FFA84FCACEB030300F014FF2F
S31508004460641C0100DDD000F0E6BB0120F2BDF8B502
S3150800447004460D461646F0B288B1012200F010F83F
S31508004480641C0020C2B2401C1DF80230761EC7B25A
S31508004490022F05F8013BEEDAF1B20029F2D1F1BD9F
S315080044A06946A0B296E70146DFF87809DFF8782969
S315080044B0405C525CDFF8B43B595C09B102F599726D
S315080044C040EAC21080B2704710B5DFF85839DFF8F5
S315080044D0A02B1C5C012C02D102EB400010BD32F867
S315080044E01000091802EB410010BD70B590B00546E2
S315080044F00C464FF6FF7604E0A8B2FFF780FF203D92
S315080045002035A9B28C420FD320226946A8B2FFF7FC
S3150800451061FF002082B23DF81230B342ECD1401C54
S3150800452081B22029F6DBEBE710B070BD38B504463A
S3150800453061882088FFF7D9FF0121DFF8383BA17190
S31508004540DFF8901C228818780D88821802EB45023D
S31508004550921DA28031BD10B5DFF81C4B2046FFF72F
S31508004560E5FF04F10800FFF7E1FF04F11000FFF78B
S31508004570DDFFDFF8640C04F10801446004F1100261
S315080045808160C26010BD2DE9F0430446DFF8E40AF5
S315080045900778B946B9F1060F85B003DD4FF43771D0
S315080045A000F001FB0021A1717A1C208892B201A9B2
S315080045B0FFF710FFBDF804104FF6FF76B14218BF9B
S315080045C0002910D00DF10408711A38F8190088422C
S315080045D009D101254D454DDA38F8150048B1BDF821
S315080045E00410884215D02046FFF7A0FF05B0BDE8A5
S315080045F0F083DFF8881C0A88208805FB0221411809
S31508004600711805FB020089B280B2FFF76EFF02201F
S31508004610A0716D1CDEE720883818C01C00F02EF843
S31508004620BDF80200000B4845DDD120883818401D2A
S3150800463000F024F8BDF80210BDF80200711A000A4D
S3150800464001F0FF018842CED10320A0710122208803
S315080046503F187F1C6946B8B2FFF7BCFEBDF80000DC
S31508004660FF2802D10421A171C0E7B042BED00028BC
S31508004670B9D1BBE7A0790228CDD1B7E701220DF160
S31508004680020180B2A6E6F8B5DFF8EC69DFF8485B08
S31508004690002006F1080106F11002B071B073B0757A
S315080046A0A960EA606E603046FFF76DFF06F1080004
S315080046B0FFF769FF06F11000FFF765FFB179B07BD8
S315080046C0DFF85C47042908D100220428ADF8002049
S315080046D04CD1FFF740FF0120F2BDB17D04282ED151
S315080046E000200429ADF80000F3D03046FFF71EFF7E
S315080046F006F11000FFF71AFF2068DFF878393789C6
S3150800470000F081F8040047D10320B073B07903287C
S3150800471051D1B07B032802D1B07D01286AD0B07987
S31508004720012851D1B07B03285BD1B07D012818BF81
S315080047300328CED106F1080006F110015EE004292F
S3150800474032D10020ADF800003046FFF7EFFE06F143
S315080047500800FFF7EBFE2068DFF81839378A00F003
S3150800476052F8040018D10320B0751DE0B07D042866
S31508004770AFD006F10800FFF7D9FE06F11000FFF7E3
S31508004780D5FE2068DFF8EC38378800F03CF80400DE
S3150800479002D10320B0710AE0204602F0A6FA1CB145
S315080047A04FF4747100F0FFF9B0790328AED1B07BED
S315080047B00128AED1B0E70228B1D1B07B032804BFE7
S315080047C0B07D012885D1B5E7032804BFB07B012851
S315080047D0F8D1B07D03280BD106F110003146083612
S315080047E00CE0022812BF0128B07D0328EAD1F3E7BE
S315080047F00228E7D1304606F1080110366860EE60F7
S31508004800A9600020F2BD1C78E719DFF81046238856
S315080048107F1CFF1A0122694600EB470002F016BA10
S315080048202DE9FE4F0646DFF84C08DFF8548ADFF814
S31508004830549A0F460178ADF80810012234880C19ED
S31508004840641DFFF72DFEDFF88C19BDF80000B1F8DE
S3150800485000A0641C000AADF8000050451CBF0121E9
S31508004860397000251AE0401CC1B2514514D25FFACE
S3150800487080FB39F81B10BDF806209142F3D1C0B26F
S31508004880FFF711FEBDF804304FF680721040134052
S31508004890984208BF08F80B506D1CADB2BDF8000071
S315080048A0854206DA022201A9FFF7FBFDA41C0020B7
S315080048B0DAE70020D14601E0401C80B2484517DA05
S315080048C018F800108142F7D00120387010E021F85E
S315080048D015A00DE00128DFF89817F8D0BBF17F0F77
S315080048E031F8150008BF4FF0000B834421F81BA0D0
S315080048F0A1B27088C01E88424FF6FF7A28DB00F006
S3150800490066F8BDF80200FF25504521D0601C00F06E
S31508004910B9FDBDF80200BDF80610AAEB00029142E7
S3150800492013D104F1030A040A00F07F0BBDF8000056
S3150800493084420ADA002000E0401C484518DA18F8D4
S315080049400010A142F8D1C5B212E0012038700DE07E
S31508004950B4807088A1B2884208D300F038F8BDF850
S315080049600200641C5045F4D001213970BDE8F78F68
S315080049703088BDF80830181800EB4400801D012265
S3150800498001A980B2FFF726FDBDF80400C0F3C710E1
S31508004990401C00EBD0700AEB60047088A1B2884214
S315080049A0D3D3FF2DA4D0DFF87C04405DBBF17F0F85
S315080049B014BF59460021814286DABDF80210DFF895
S315080049C0AC26535D0906C90F994283D07CE70122BC
S315080049D00DF10201A0B2FDE4F8B58DF80000DFF88C
S315080049E0281BDFF83804DFF8EC470288DFF888066A
S315080049F002800B884380DFF87C361D782188DFF833
S31508004A009C3BDFF89C4BAA1802EB4102921D828060
S31508004A10002282711A880281AA1802EB41022388B1
S31508004A20DFF8804B4381921D828100228273DFF872
S31508004A30783B1A880282AA1802EB4101891D23884D
S31508004A40DFF89447818243820021817502F0A8F934
S31508004A50002851D12070FFF716FE9DF80010084374
S31508004A6018BF01208DF80000012260680388ED1840
S31508004A70AD1CA11CA8B2FFF7ADFC9DF800000028EC
S31508004A803DD16068DFF8E8656946FFF7C9FEDFF8DB
S31508004A90940B0588A0688179032922D16946FFF716
S31508004AA0BFFE6168DFF87C23002010E0DFF82437BA
S31508004AB01F88B84202DA135C012B07D136F810308A
S31508004AC00F88BB4224BF4F889F420AD2401CA84287
S31508004AD0ECDB02208871A1686068E2686160A26008
S31508004AE0E06000204FF6FF7200E0401CA84206DA9C
S31508004AF036F810109142F8D101208DF80000607840
S31508004B0028B1012100208DF80010607002E09DF8A0
S31508004B100000B8B14D2002F0E8F86088401C6080BB
S31508004B20E068FFF703FD9DF8000000F051F838B182
S31508004B3000F085F820B19DF8000000F09FFA08B94A
S31508004B400120F2BD0020F2BDF8B50D46DFF8841647
S31508004B5017467F2F0A8808BF00271E4695423EBF84
S31508004B60B04B595D8F42044604D2AF4A535D9E420C
S31508004B7000D11CB940F2646100F015F839462846A0
S31508004B80FFF7A2FCDFF8281B0388485D28B1194601
S31508004B90284600F09FFC2060F1BD324621461846A3
S31508004BA0BDE8F84063E40FF6443002F001B938B5C1
S31508004BB0044608461146FFF787FC984D0388DFF838
S31508004BC0F41A28880A681B1A02EB4302226031BDD0
S31508004BD0F8B5DFF80416924DDFF8A866002814BF6A
S31508004BE0C8688868DFF88C14048808780419A41D36
S31508004BF0A4B2002701E0A41C7F1CDFF8D8050188B1
S31508004C008F4216DAF8B2FFF74EFCADF80000A3B2F1
S31508004C1036F81700DFF8A0CABCF800E0ADF80200C5
S31508004C20A3EB0E032868022200F02FFB0100E2D056
S31508004C3001E00120F2BD02F058F80020F2BD2DE98E
S31508004C40F84FDFF89005DFF890250188744C84B09A
S31508004C500025ADF80810D168DFF818240E881078FA
S31508004C60BDF80810861906EB4106B61DB6B200E077
S31508004C706D1CBDF80800854280F2C4804FF0000A1A
S31508004C8078E0BDF802105FFA8AF00143ADF8021029
S31508004C904FF6FF72BDF8020060490F88BDF8001094
S31508004CA0121AADF804204FF6FF732068F21B761C23
S31508004CB0994200EB4200B6B21DD100F0BEF80100E1
S31508004CC02BD12068F71B012201A900EB470001F050
S31508004CD0BDFF010021D1B61CB6B25348DFF8DC1976
S31508004CE0A8F80060425D51F825103046FFF793FB9F
S31508004CF0002838D18FE04C49495D491C01EBD17138
S31508004D004FEAC15900F099F8010006D12068F31B53
S31508004D10012201A900F0BAFA010079D1B61CB6B28F
S31508004D20D249A8F80060485D002845D0DFF8A824D5
S31508004D3010780021039128B103AA6946A8B202F0A7
S31508004D4033F805E0BDF80010E8B200F0C3FB0390A5
S31508004D50F71B20684FEA196203A900EB470001F028
S31508004D6075FF010054D1DFF85819485D8619B6B2A7
S31508004D700AF1010A2B494F5D5FFA8AF0B842BFF47F
S31508004D8077AF5FFA8AF1E8B2FFF79EFB8046B7492C
S31508004D90B8F80000ADF80000485DC00140EA0520FB
S31508004DA0012FADF802007FF46CAFBDF8020040F0A9
S31508004DB07F00ADF802006BE74FF000085FFA88FB4A
S31508004DC0BBEB196FCFDADFF8101408780028BDF8A6
S31508004DD0000004D100F02AF8FFF7FCFA03E000F01F
S31508004DE025F801F0DFFF2068B344ABEB0703012287
S31508004DF00DF1060100F04AFA010008BF08F10108A2
S31508004E00DCD005E0DFF8D003C1688E80012002E01F
S31508004E1001F06BFF00202AE300000000FE6502088F
S31508004E2050F30020FC610208D8610208411CADF865
S31508004E30001001220DF10601704701220DF1020151
S31508004E4001F004BF2DE9F34F85B000218DF803105A
S31508004E504FF00C09BDF81810DFF86858DFF860380D
S31508004E60DFF864685B5C298835684C0891FBF9F9BA
S31508004E700393A1444D4528BFDB1808D2182691FB99
S31508004E80F6F1641AA54203D303EB53039BB20393CB
S31508004E900025D14CADF806008DF8042000E06D1C05
S31508004EA0CC4801888D4280F2CD80002686E001221A
S31508004EB002A91FFA88F0FFF78DFAA368DFF8F8E76A
S31508004EC09B88049800689B44BEF80030ABEB03034C
S31508004ED0012202A900F0DAF9010008F1010858D107
S31508004EE00AF1010A5FFA8AFBBBEB176FDFDB38E0D2
S31508004EF05A5DBDF806308DF80220D318ADF8063095
S31508004F0001235A4A8DF80330505DC30143EA05234D
S31508004F10BAF1010FADF8003040F08A80BDF80020E4
S31508004F2042F07F02ADF800208A88D21C8A800028C9
S31508004F30DFF88017049100F082804146E8B200F05D
S31508004F40C9FAA368DFF870E702903A0E04989F88BA
S31508004F50BEF800300068FB1A02A900F097F90100B4
S31508004F6017D1BDF80000A368DFF848774FF6FF7140
S31508004F70091AADF808100122DFF83C179B88B1F82A
S31508004F80008038689B1EA3EB080302A900F07EF98F
S31508004F90010065D1A3689B883868DB1EA3EB08036C
S31508004FA000F072F901005BD1A1688888A9F80000B1
S31508004FB08A889DF8020082188A80761CF1B2DFF88A
S31508004FC00C0710F805A05145BFF469AFE8B2FFF722
S31508004FD07BFA8146DFF8F806475DBDF81800B9F890
S31508004FE000807F1C07EBD777FF05854202BF9DF837
S31508004FF00410F0B28842E0D060680188884524BF72
S3150800500040884045D9D3BDF806100398814225DA71
S31508005010DFF8AC36A16813F805C088884A8860446A
S31508005020C01C8242BFF664AF01216170452017E0BB
S31508005030BDF80030F2B21343ADF8003074E74FF014
S31508005040000A4FE79DF8030040B9606802218171A4
S315080050506068A168E2686160A260E060012002E021
S3150800506001F043FE002007B0BDE8F08FB4610208E6
S31508005070A0F500204D66020860F400202DE9FE4FD9
S315080050805FEA0009544DDFF84C26DFF8287692F8D7
S3150800509000A014BFE868A868012201884D48008866
S315080050A00291C0F1FF0101F0FF0141EA0021ADF8CC
S315080050B00210029CDFF8001638680E885444631DF7
S315080050C09B1B0DF1020100F0E1F801005AD140F6F0
S315080050D0227040EA0A30ADF80200E31C38689B1BD0
S315080050E001220DF1020100F0D1F801004AD1386819
S315080050F0A31C9B1B0122A91C00EB430001F0A6FD83
S3150800510001003FD1601CA0EB06085FEA09004FF6D4
S31508005110FE7B07D0FF21ADF8021000F05FF8010012
S3150800512030D109E06868008801226946FFF752F91C
S31508005130BDF80000012802D1ADF800B002E0411E1A
S31508005140ADF800104FF6FF72BDF80000121AADF860
S315080051500420A41B3868012201A900EB440001F0D1
S3150800516075FD01000ED1029C5046A0F1010A80B2DD
S3150800517090B11FFA8AF338681B199B1B00F084F854
S315080051800100F1D001F0B1FD0020BDE8FE8FA9684D
S31508005190032088710120F8E7B9F1000FF7D0E96814
S315080051A0032088716868FFF7C1F9A868FFF7BEF998
S315080051B0EA686868A968AA60A8606960E8606A60C1
S315080051C00020ADF80200E96000F008F80100D9D126
S315080051D0E0E7000012660208B8F8002001223868E5
S315080051E00DF1020100EB480001F030BDFEB50446A2
S315080051F0DFF8CC04455CA08866882F18FF1CBE42E1
S31508005200134605DADFF8D02401215170452030E035
S31508005210C01CDFF8BC24A08080B2525C1946FFF798
S31508005220FAF848B3DFF89004DFF888740688A3888C
S315080052303868DB1E9B1B012202A900F027F8010033
S3150800524017D1BDF808004FF6FF71091AADF800101E
S315080052500122A38838689B1E9E1B00F0E5F9010011
S3150800526007D10898A1880180A0882D18A58001205B
S31508005270FEBD01F03AFD0020FEBD0000FA650208F9
S31508005280ECF600206C6102080122694600EB430037
S3150800529001F0DCBC2DE9F84F84B0054689469046F6
S315080052A01C4601F088FEDFF8342413888DF8045074
S315080052B00127ADF80830B8F17F0F9DF80410BDF846
S315080052C00800039508BF4FF000088DF80540814295
S315080052D03FBFDFF8F813039A8B5C984507D2DFF8CF
S315080052E0F0138B5C9C4202D1B9F1000F03D140F652
S315080052F0D901FFF758FC9DF804004146FFF7E4F88A
S3150800530001250646DFF8D8038179B6F800A00229F8
S315080053101FBF817B0229807D022802D1432001F02C
S31508005320E4FC039ADFF88813885C002833D09DF8DC
S315080053300400514600F0CEF8D9F80010814257D043
S31508005340AAF1030000F09EF8DFF88C53DDF80CC0D4
S315080053506C68DFF86C33628813F80C10A088D21ECC
S31508005360521A824207DB30B1A86801888A45A4BF71
S315080053704088504572DBE8688179AC68022938D1E3
S31508005380442001F0B2FCE8688179012931D0452032
S3150800539001F0ABFC53E09DF805404FF0000B21E00F
S315080053A00BEBDB700AEB600000F044F909EB0B002D
S315080053B019F80B10407801EB0020611E8B4507D1C8
S315080053C0BDF8001001F0FF0100F0FF00ADF8001075
S315080053D080B2BDF8001088420BF1020018BF002504
S315080053E05FFA80FBA345DBDB002D8DF80540A7D0CF
S315080053F03DE0A8688179012915D10020FFF7E8FB6F
S31508005400002834D00020FFF739FE00282FD0B148F5
S31508005410BDF8083000789DF8041000EB4300C01D65
S31508005420424680B205E003290FD19DF80410424692
S315080054300020FFF707FD10B100F01CF8B8B9384690
S31508005440471EC0B2002810D111E002290CBF40F651
S31508005450C81140F6CA11FFF7A6FB08E000F00AF8E3
S3150800546028B93846471EC0B200287FF444AF05B0B5
S31508005470BDE8F08F0096BDF806309DF804104A4640
S315080054802046B3E601220DF1060180B2FEF7A2BF5F
S315080054907CB505460026192401226946A8B2FEF7FE
S315080054A099FFBDF800006D1C30B14FF47F41401ADA
S315080054B007D0FF3803D006E0B61C641EECD170B2E4
S315080054C076BD761CFBE7BDF80000C0B200B9761CB5
S315080054D0F643F4E738B50C4600217D4B0091694642
S315080054E01D5C2A4620466D1CFEF7C1FF05EBD575E7
S315080054F004EB6504A0B2FFF7CBFF002848BFC04302
S31508005500009940B2401832BD08660208F8B5734AD9
S31508005510138804467348254630F815609C4202D223
S315080055206349485D18B940F68321FFF73CFB684993
S315080055304D5D681C00EBD07006EB6007B8B2FFF74C
S31508005540A7FF32281BD2BFB2DFF86CE1DFF864C1CF
S3150800555007EB6007C20747BF0023ADF800304FF4DA
S315080055607F42ADF80020BEF80000DCF800303F1A94
S315080055700122694603EB470001F068FB60B131463A
S315080055802046FFF7A7FF00902B46401C00907F227D
S3150800559069462046FFF77EFEF1BD00000A6602084E
S315080055A00C660208106602080E660208F8B505467B
S315080055B048480678344621464C1EC9B2288802292E
S315080055C021DBE3B200F035F8BDF800000028F2D080
S315080055D0454829880288384FE6B206FB021188B288
S315080055E0FEF70DFF0020ADF80000012231482D8896
S315080055F03B8800687619F61A00F016F801000ED0F6
S3150800560001F073FB0BE0FEF7FAFE0120A871334A9E
S3150800561029881088761806EB4006B61DAE80E0B2DB
S31508005620F2BD000014660208694600EB460001F068
S315080056300DBB18180122694680B2FEF7CBBE284872
S315080056408179022908D0817B022908BF083003D056
S31508005650817D022901D11030A8E7002070477CB56A
S3150800566004461C48067800250BE02088F3B2FFF7AD
S31508005670E0FFBDF8000000281EBF4FF6FF71884204
S315080056806D1C3046461EC0B20028EED1E8B276BD83
S3150800569013488179022908D0817B022908BF08307E
S315080056A003D0817D022901D11030D8E70020704748
S315080056B0B461020850F30020FE650208706402080F
S315080056C0CC600208F6650208C8600208FC61020898
S315080056D0D86102084D660208B8F80020126602086A
S315080056E060F40020A0F50020FA65020873696D2DA4
S315080056F0656570726F6D322D696E7465726E616C58
S315080057002E63000062F30F2262F31F42401810F066
S31508005710030308D0C91A1FD3DB0748BF00F8012DB9
S3150800572028BF20F8022D130030B414461546103948
S3150800573028BF20E93C00FAD8490728BF20E90C0011
S3150800574048BF40F8042D890028BF20F8022D48BF1D
S3150800575000F8012D30BC7047C91818BF00F8012D94
S31508005760CB0728BF00F8012D7047000080B5984880
S315080057700021416041708170A52101700120FEF76A
S31508005780B5FDFEF7E4FD00F002F8002002BD80B585
S315080057909348016841F080710160012091490860D1
S315080057A00020914901F014FD9049914A02200860B1
S315080057B000209049086090489049016001211160D5
S315080057C0844A8F49116040F2014101654FF48030E7
S315080057D08C49086001BD8148006800281EBF7E48C4
S315080057E00068002805D07E480068000E00F0010019
S315080057F0704700207047D12202704170090A8170F3
S3150800580081490A78C270501C0870042070472DE937
S31508005810F14F82B0DFF8F48100900026D8F8000036
S315080058200099405C451D01F036FDEDB201904FF63A
S31508005830FF7A19E0B11E9DF80800C9B200F06BFDA9
S315080058400746514601F09EFD82465E46FFB24FEA84
S31508005850C90007FA00F0044309F10109B9F1040F78
S3150800586017D34FF060400460FFF7B5FFF6B298B360
S31508005870AE4231DA01F00FFD0199401A80B2B0F557
S31508005880FA7F29D84FF0604000680128ECD100243F
S31508005890A146F0B210B95B270126D7E706F1010B3E
S315080058A00128F6B204D1D8F800000099475CCCE785
S315080058B0E91E884208BF5746C7D0A91E884208BFB6
S315080058C04FEA1A27C1D0691E884208BF5D27BCD097
S315080058D0AE42AFD10027B9E74FF4C87001F03DFCDE
S315080058E0AE420CBF00200120BDE8FE8F474909687B
S315080058F0095C042928BFFFF78ABF012070472DE9F4
S31508005900F04D334D6E78300060D001F0C4FC83460C
S315080059103146002000F0E2FB0446FF2CA04602D1E7
S315080059200020687052E0202EB4BF3746202700F0CA
S31508005930DDFA6860AF70DFF8D8A004E0404600F0F2
S31508005940D5FA6860AF706878C8B101F0A4FCA0EB1E
S315080059500B0080B2B0F5FA7F11D8A8780028F2D1EA
S31508005960F61BF0B200286E70EDD0DAF8000010F8D9
S315080059700880F6B2202EB4BF37462027DEE7F6B2F7
S31508005980002E04BF6878002818D1A878B0B91F4837
S315080059900068005D851EE9B2204600F064FD122805
S315080059A008D1E9B2204600F072FC2146122001F027
S315080059B095F806E0204600F0DFFF02E00020687058
S315080059C0A8702046BDE8F04D00F005BBBDE8F08D97
S315080059D0F0FF0020800E00E034000040100004E0D4
S315080059E0FCED00E0040004E020A10700F00004E05C
S315080059F0000E00E0040304E0B00F00E055CEACC58D
S31508005A000D00010000E100E0AFFF002078F3002060
S31508005A1080F300207047000038B50446607800EB34
S31508005A204000204400F110056878207100F05EFA05
S31508005A30A9780844A060A9782A788B18212B08DB56
S31508005A40494208441F30E060A978287820390818A8
S31508005A5003E01044401EE0600020287031BD38B5D0
S31508005A600446607800EB4002224402F110052A78C9
S31508005A70B2B1DFF84C0421790068405C207100F06F
S31508005A8035FAA0602978212904DB1F30E0602878E0
S31508005A90203803E00844401EE0600020287031BD2D
S31508005AA0DFF8202432F81110401C90FBF1F201FBBC
S31508005AB012006070E078401CE070A078401EA0706C
S31508005AC0A07818B12046BDE83240A5E7A06031BDF0
S31508005AD02DE9F84304460D469046994600F0E5F947
S31508005AE0002837D12646DFF8E013DFF8E003895DA2
S31508005AF0012902D0022920D02CE000F02DF800213F
S31508005B00B9803980798001F051FCDFF8C40300F0D0
S31508005B1023F80021B98039807980DFF8B8239155B8
S31508005B2001F044FC4B4642462946204601B0BDE8F2
S31508005B30F04301F05FBCBDE8F28300F00DF80021E8
S31508005B40B97039707970F970FF2139710021B9601F
S31508005B50F960D8E72120EEE750F8267001F0EABF91
S31508005B602DE9F8438146DFF868034C4650F824507F
S31508005B700E46484600F099F908B101203DE0DFF8E5
S31508005B805473DFF85483385D68B138F814006988AF
S31508005B90884208D101F0CEFF3D5D0021395501F05C
S31508005BA005FC284629E0484601F02FFEA88800286B
S31508005BB01EBFDFF8280330F81490B9F1000F1BD088
S31508005BC001F0B8FF69882944897931704FF6FF7664
S31508005BD0698800F080F86980A9887118A98001F0A1
S31508005BE0E5FB385D30B138F81400B04204BF2888A8
S31508005BF028F81400002000E02620BDE8F2838088FB
S31508005C00DFF8C03233F81110891A884201DA012008
S31508005C107047002070472DE9F8430D46AA49095CEC
S31508005C2001298046164602D0022934D050E0A749F9
S31508005C3051F82070AA4931F81090002415E001F0B7
S31508005C4079FFB98801B90124B9F1000F0AD03A8859
S31508005C5029783A449171398800F03DF83980B98835
S31508005C60491CB98001F0A2FB6D1C3046461EC0B225
S31508005C7060B1002241463846FFF7C1FF0028DED151
S31508005C8014B1404601F0FCFB222022E0404601F018
S31508005C90F7FB00201DE03146284600F01FFAFF28D2
S31508005CA0054613D08F4909680B5C002229464046F1
S31508005CB000F017F8044601F03DFF0646284600F0B6
S31508005CC08AF9304601F072FB204602E0182000E00F
S31508005CD00120BDE8F283491C91FBF9F209FB121178
S31508005CE070472DE9F84F0D46FF2D814616469A4610
S31508005CF00BD05FEA0A0068D0C8467348704C10F8A3
S31508005D000800012806D0022821D001205EE020687C
S31508005D10455D203EF6B2202EF9DAC6F120005FFA7C
S31508005D208AF8C1B2884588BF8846284600F0DEF85A
S31508005D30811942464846FFF76EFF2068455DAAEB83
S31508005D40080A00265FFA8AF00028E6D13AE05F489A
S31508005D5050F8287001F0EEFEB9788DF8001097F823
S31508005D6003B001F023FB574830F818809DF800006F
S31508005D70584440450ADBBBF1000F02D000F057F843
S31508005D8004E0222022E02068455D203EF6B2202E5F
S31508005D90F9DA284600F011F9387800EB400038188F
S31508005DA000F810AF457086703878401C90FBF8F103
S31508005DB008FB1100387001F0BDFEB978491CB970AE
S31508005DC001F0F4FA484601F05BFB0020BDE8F28FCB
S31508005DD00CB438B504460D4601F081FB04AB2A46DF
S31508005DE02146414800F06BFC2046374A3749125C89
S31508005DF0012A02D0022A04D00AE051F8200080883D
S31508005E0002E051F82000807810B1204601F038FBF6
S31508005E1032BC00205DF80CFB914205D2294B33F8C1
S31508005E2010000818801A00E0881AC0B270472DE9D9
S31508005E30F84F0024DFF88C80DFF89090DFF888A010
S31508005E401AF8040002282BD159F82450E87838B3F8
S31508005E5001F070FE8346EE780020E87032466978D5
S31508005E60E0B2FFF7D9FF0746584601F09FFA14E05B
S31508005E7001F060FE834607EB47002818761E407C33
S31508005E8000F0A9F8584601F091FA38F81410781C71
S31508005E9090FBF1F201FB1207FFB2F0B20028E7D13E
S31508005EA0641C042CCCDBBDE8F18F042805DA06490E
S31508005EB0095C481E8041C00F7047012070470000EA
S31508005EC080F30020F06002080061020854F3002005
S31508005ED064F3002000F8002004F800200C61020892
S31508005EE00461020878F3002005750008DFF820171A
S31508005EF00A6802EB40107047DFF818271368195430
S31508005F0070472DE9F0415FEA000831D001F012FE32
S31508005F10DFF80427DFF804171678DFF80457FF239D
S31508005F20FE2E19D10027DFF8FC66DFF8FCC61770CD
S31508005F3034782C7007E07C1C0EF80740DCF800E08B
S31508005F400EF80730E7B23478D1F800E0A742F2DB62
S31508005F500EEB040606F8013C2E7846450AD201F0F7
S31508005F6025FA0520FEF7F8F900211B2001F00DFFA0
S31508005F70FF2020E0A6EB08062E701578DFF8AC6641
S31508005F801778D6F800E001240EF80740A8F10108B2
S31508005F90D1F800C01CF8074014705FFA88F4002C8A
S31508005FA0EED1DFF870260CF8073000211368595532
S31508005FB001F0FCF92846BDE8F08110B5044601F069
S31508005FC0B9FDDFF8681609680A5D521C0A55BDE86E
S31508005FD0104001F0EBB9F8B5044600F031F8054673
S31508005FE001F0A8FDDFF83036DFF83476DFF82CC686
S31508005FF0DFF838E601E02C46FF25FF2C1CD02246A8
S315080060000FE0DCF80010895C0026A6543C78641C76
S315080060103C70FF29DCF800601C78B4541A70EAD08A
S315080060200A46DEF800108C5C661E8E54DEF80040C8
S31508006030A15C11F07F0FE4D0BDE8F24001F0B6B9DB
S3150800604010B5DFF8E8150A68145C210605D5DFF8EF
S31508006050C02513684001185C10BDFF2010BDB0B5FF
S3150800606004460D46FFF7ECFFFF2818BFFFF7B3FFFE
S315080060702846FF28DFF8B47504D13868015D01F0B9
S315080060807F0105E0FFF799FF3868015D41F080015F
S3150800609001556401DFF8780501680D55B0BD0EB4E9
S315080060A030B504460120FFF72CFFDFF864150A68AF
S315080060B0FF2802EB40110ED0DFF8582513681C5450
S315080060C003AA002304E052F8045B01F8015B5B1C99
S315080060D0DDB2A542F7D330BC5DF810FB7CB50446AB
S315080060E00D4605F11F000004400DC0B2FFF709FF79
S315080060F0FF2806460DD0DFF81C0501688D553CB112
S31508006100012000902B4600223146204600F002F876
S31508006110304676BDF3B5054681B0DFF8F804016868
S315080061201E469DF80830CC5C1746F019844203DAFF
S315080061304FF4B77100F0DFF830000CD0089C3946F0
S3150800614002A800F0DCF802469DF8081000943346D1
S31508006150284600F001F8F7BD2DE9F047089DDFF85D
S31508006160BC64DFF8ACA48046894614461F460DE099
S315080061702900224612BF414601464046FEF75AF814
S3150800618030683F1BA04410F809900024F8B268B1A3
S31508006190DAF8000000EB49131819FBB2E1182029B8
S315080061A0B2BFFCB2C4F12004E4B2E1E7BDE8F0876F
S315080061B02DE9FC410746DFF85C0488460168CC5D9A
S315080061C015461E462919CBB2A34206DB28000DD078
S315080061D0C9B2384600F05BF808B1182007E0009607
S315080061E02B46224639464046FFF794FF0020BDE875
S315080061F0F6810123DCE70A4600E0521C1378002BDF
S31508006200FBD1521A0123D2B2D2E72DE9F0418046DA
S3150800621001F11F0402F11F00E404C004240E000E5D
S3150800622004B9012400B9012084422AD0DFF8EC53CE
S3150800623019DA001BC0B2FFF764FE0746FF2808BF3D
S3150800624000201FD0641E00F01FF82E68305CFF285F
S3150800625004D000F019F8305CFFF7BDFE00F014F822
S3150800626029680F540DE08A420BD2411EC9B200F0CC
S315080062700CF804462868005DFFF7ADFE2968FF2084
S3150800628008550120BDE8F081E1B2404610E070B53E
S31508006290DFF88063336805460C46595D2246FFF7EA
S315080062A0B4FF18B130684455002070BD182070BD81
S315080062B004E0DFF868231368185C491ECAB2002A8E
S315080062C0F7D1704731B50C46DFF848130A68155CF4
S315080062D0AC4203D340F2052100F00DF8214668468A
S315080062E000F00DF8DFF828139DF800300A6802EB75
S315080062F04311084432BD0FF2383000F059BD38B5A5
S3150800630004460D46C9042078090EFFF7D1FF207010
S3150800631005F01F0032BD80B5FFF7D4FF007802BD37
S3150800632010B51446FFF7CEFF047010BDF8B5DFF8B8
S31508006330E45204462868065DFF2C03D140F2252165
S31508006340FFF7D9FF06F11F01C904080EFFF7D9FDAB
S31508006350FF28074609D02868C65500960023224616
S315080063600021384600F0B4F83846F2BDF8B50546BF
S315080063700E4617460120FFF7C4FDFF28044610D035
S31508006380DFF88C023246066806EB44163B462021A7
S31508006390701900F00FF82D18DFF8780201680D550E
S315080063A02046F2BD0CB480B502AAFFF7DFFF02BC97
S315080063B05DF80CFB2DE9F04781464F4600248846D8
S315080063C015469A460CE0F6B23419444542DA324686
S315080063D03846FDF72FFFBF19641E641C6D1CE4B216
S315080063E0444537DA2878A8B3312818BF32280ED1A1
S315080063F05AF8041B07F8011B3228EED1641CE4B2D4
S31508006400A045A4BF091207F8011BE6DA22E03428E2
S315080064100ED1211D5AF8040B88451BDB3870020A79
S31508006420010C000E7A70B970F8703F1DE41CD4E7B1
S31508006430A0F133035AF8041B072B38BFA0F1300626
S31508006440C1D3A0F14103072B34BFA0F137065AF890
S31508006450046BB8E7A7EB0901C8B2BDE8F0876E4937
S31508006460FE200870704770B500F02DF8064600F05B
S3150800647004F800EB062080B270BD294620464AE79C
S31508006480E0B58DF804200123120A8DF80520009343
S315080064900A460146022301A8FFF73CFE07BDF8B5E8
S315080064A000F011F80602FFF7E8FF8619E91CC9B2E1
S315080064B0FFF7E4FF0702AD1CE9B2FFF7DFFFC719D4
S315080064C006EB0740F2BD0D46691C0446C9B222E731
S315080064D0FDB5089C20000D461E461BD1F7BD4C4B4A
S315080064E09DF804001B6803EB4010C2F12002D2B2EB
S315080064F0BA42B8BF174681199DF8000003EB40134E
S315080065003A465819FDF796FEE41B7D19BE19A0B246
S3150800651000B9F7BDA9B26846FFF7F1FE0546B1B264
S3150800652001A8FFF7ECFE0646B542A7B2B4BF32464D
S315080065302A46D4E770B504460D4601F0FBFA3A4AF6
S3150800654023781268FF2B08BF555503D013441E78CD
S3150800655056551D702570BDE8704000F027BF38B548
S31508006560044601F0E7FA2178FF22FF2908BFFF2534
S3150800657007D02D4B1B685D5C8D420EBF22705A5D9D
S315080065805A5400F013FF284632BDF8B504460D46A6
S3150800659001F0D0FA21780026FF2913D0224B1B6878
S315080065A00A46012603E08F420CD03A46761C9F5CC9
S315080065B0AF42F8D1DF5D9F54A94203D18A4208BF92
S315080065C0FF22227000F0F2FEF0B2F2BD0078FF283A
S315080065D001D1012070470020704710B5044602E03B
S315080065E0FFF7F9FC2046FFF7BAFFFF28F8D110BDE0
S315080065F030B50D4B00781C68255C954203D02846BB
S31508006600255C9542FBD121541868425430BD0000E0
S3150800661074F3002078F3002051F5002080F3002061
S3150800662031F5002030F5002084F300207CF30020AB
S315080066307061636B65742D6275666665722E63009C
S3150800664070B51346104402E0A4192C705B1EDCB228
S315080066504CB101F00F060909451E0A2E2846B4BF9B
S3150800666030243724F0E7104470BDF0B5002341B15B
S31508006670002806D501232D21B0F1004F117018BF4F
S315080066804042002100248B4D55F82470002601E075
S31508006690C01B761CB842FBD2F7B20FB90F0005D063
S315080066A0DBB206F13001D1545B1C0121641C092CB4
S315080066B0EADBDBB23030D054581CC0B2F0BD2DE94D
S315080066C0F24F80468AB007A80190154603A89B4654
S315080066D003AE002700248DF800000BE001240546D0
S315080066E00198864205D300F0DCF800284FD100F067
S315080066F0CEF86D1C9DF800002978301A0A000BD0D8
S31508006700252903D014B906F8011BE9E7002C14BFA4
S3150800671000246D1C29780A0000F0AF80B1F125022B
S3150800672016D00B3A092A40F28980283A7DD00A3ACF
S3150800673012D0521E41D0521E5FD0083A5DD0121FA9
S315080067403ED0D21E3CD0921E57D0D21E6DD0C7E77F
S31508006750252006F8010BC3E7DBF8000002904FF08E
S31508006760000A0BF1040000F1040BD0F80090CA45AA
S31508006770B6D2029810F80A1002223046FFF760FFD8
S3150800678006460198864205D300F08BF800287AD190
S3150800679000F07DF8A9F1010082453CBF202006F8EB
S315080067A0010B0198864205D300F07BF800286AD1D0
S315080067B000F06DF80AF1010AD9E75BF8040BC8E79F
S315080067C05BF8049B00F067F800285CD100F05FF8DE
S315080067D04FF0000A01E00AF1010A5FFA8AFA19F88D
S315080067E00A000028F7D19DF8280052464946C047B6
S315080067F0002848D15744FFB272E76C290AD16A7853
S315080068005BF8040B752A0EBF00210121642A07D103
S315080068106D1C05E075295BF8040B0CBF00210121EE
S315080068203246FFF722FF36185AE75BF8041B0222A6
S31508006830C9B23046FFF704FF064651E76A780124D5
S31508006840782A18BF582AF8D16D1C0024681E3229E8
S3150800685004D15BF8040B042281B2EAE734297FF4F9
S315080068603DAF5BF8049B04224FEA19413046FFF717
S31508006870E7FE04221FFA89F1DCE700F00CF810B9EC
S31508006880F019C0B200E000200BB0BDE8F08FF71990
S31508006890FFB203AE704706469DF82800F2B203A978
S315080068A040479DF80000361A9DF82800F2B203A961
S315080068B0404700002865020870B5FFF7ABF8AF4CF3
S315080068C02046FFF783FED8B92046FFF748FEFF2883
S315080068D0044615D0AA480168085D851EE9B2204617
S315080068E0FFF7C1FD0646E9B22046FFF7D0FC214670
S315080068F0304600F0F3F82046BDE87040FFF76BBB62
S3150800690070BD03460A469BA10420FFE70CB480B578
S3150800691002AA00F03CF801BC5DF80CFB0A0003462D
S3150800692002D095A11120F1E77047000080B586B026
S3150800693001F09CFB602204920021924A0092672390
S3150800694005910393029101910246002391A101202A
S31508006950FFF7DCFF8C48817902884379039102921C
S3150800696001930179C3788278009142208CA1FFF7C0
S31508006970CDFF07B000BD000010B5044621467F488C
S31508006980FFF7D8FD2046BDE81040FFF716BB2DE9F6
S31508006990F04F85B005460F469046FDF7ECFC0024FF
S315080069A0F0B9FEF718FFD8B10120FFF7AAFAFF28B9
S315080069B0824615D00021FFF79FFA294601A8FEF75F
S315080069C01AFF054687BB00F083F830B95046FEF734
S315080069D08DFF10B10420FDF7BFFC5046FFF7FBFA08
S315080069E005B0BDE8F08F8DF8041001251BE064485A
S315080069F058F8046B006810F80A90F2B2FF2A12D011
S31508006A00F1B210F801B00BEB0901C9B25046FFF715
S31508006A103EFC0028E1D1CDF800B00023F2B2494689
S31508006A205046FFF755FD7F1C38780028CBD0A0F1DB
S31508006A3030010A2904D20A2101FB0404303CF2E79A
S31508006A4000F046F80028C8D139780025422901A85F
S31508006A500ED044291AD0462925D057290DD06229A7
S31508006A60C5D066292AD06C2925D0702926D0BAE740
S31508006A7058F8040B8DF80400B7E758F8041B8DF88E
S31508006A80041002250904090E4170CCE758F8041BC6
S31508006A908DF804100B0A0A0C090E437082708DF8E3
S31508006AA007100425BFE758F8041B5046FFF7A3FB59
S31508006AB00028B8D091E758F8044BB4E758F8041BF7
S31508006AC0E2B25046FFF795FB002808BF0024F0E71E
S31508006AD02A4601A95046FFF78CBB00002DE9F04372
S31508006AE0122885B080460D4609D03A281CD04FF6A4
S31508006AF0FE71884204BF284600F0EFF832E02048CD
S31508006B00224E01684F5DFF2D2CD0F8B22128B4BF64
S31508006B103C4620242846FFF7E9F9E1B200F014FDC7
S31508006B203068455D203FEEE701F030FB814601F015
S31508006B3084FF064602F07AFA074602F074FA04461B
S31508006B4001F073FF12490B6817A1CDF810900246A1
S31508006B500C480390588802900196009723463B20DC
S31508006B60FFF7D4FE2946404605B0BDE8F043FDF7D9
S31508006B7023BC0000574600006C70000056F5002044
S31508006B8078F30020A0FB00200066020880F30020AE
S31508006B90E4FA0020424238704242424257424200DA
S31508006BA042424242574200005742425757387042C3
S31508006BB0000000004048018A40F6A772914204BFCF
S31508006BC0408A10F47F4F03D1022801DB0120704769
S31508006BD000207047000000002DE9F84F83468946DB
S31508006BE0364EDFF8D08000F0A5FF376805463068D6
S31508006BF040084000306002F003FB5FF0010088F8AF
S31508006C000000FFF7D7FF20B940F20F112CA000F0C3
S31508006C10CFF82948D0F828A049464BF48070D047C9
S31508006C200446376002F0ECFA284600F0BFFB002065
S31508006C3088F8000024A50CB1285D04E049464BF409
S31508006C400070D047285CBDE8F28F00002DE9F84FA8
S31508006C5081468A464FEA4208184D00F06BFF2E68B7
S31508006C600746286840084000286002F0C9FAFFF77E
S31508006C70A1FF20B94FF4AA7111A000F099F80E48A7
S31508006C80D0F824B00023424651464846D847044621
S31508006C902E6002F0B5FA384600F088FB0AA70CB158
S31508006CA0385D05E04346002251464846D847385CD9
S31508006CB0BDE8F28FC1FF00200000080894ED00E04F
S31508006CC0666C6173682E6300000202024B4B4647EE
S31508006CD0704700207047002070477047019870473A
S31508006CE070477047702002F0AFBA70B50446433853
S31508006CF01F4D08D0401E012809D9801E01280ED92B
S31508006D00C01F33D02BE0BDE87040FEF798BCFEF7F5
S31508006D10BFFC20B1FEF793FC0028FBD170BD154ED1
S31508006D20307818BB012030700020FDF731FA442C6A
S31508006D3012D00CD3462C05D00ED3472C07D140F6DB
S31508006D40010001E040F6020002F07EFD04E040F298
S31508006D501511284600F02CF80020307070BD284622
S31508006D60BDE8704040F2271100F022B870BD00005F
S31508006D709C650208B5FF0020002070470120704777
S31508006D800120704770470020704700207047012097
S31508006D9070470120704700207047704702F001B91C
S31508006DA000207047012070477047000042DE704798
S31508006DB038B504460D4600F0FEF800F0BBFE29463D
S31508006DC02046FFF79EFD2B4622466B490120FEF71B
S31508006DD0FFFF29462046BDE83440E7E767482DE926
S31508006DE0F047674D01682E1D4FF420687165016AEA
S31508006DF0B16564490968F165416A3166816A7166F7
S31508006E00C16AB166016BF166806B306796F834002B
S31508006E1040074CBFF46BB46B02F04CFD0022F264E1
S31508006E208442594A014624BFA2F1200AA2452746B0
S31508006E30316505F18C03DFF854C1DFF854E118D346
S31508006E40A0693064E4697464746DC4F30804062C9C
S31508006E5013D1704511D360450FD200884DF64264B0
S31508006E60A0420AD13068586040F20178706898608C
S31508006E7003E000273764776407464648814202D212
S31508006E80014600E0091D0846904203D20C68B4F199
S31508006E90CD3FF7D04049081AB0640021002005EB21
S31508006EA08004401C0628A167F9D3002003E0C0B27D
S31508006EB005EB8004A167974222D252F8041D71455A
S31508006EC0F9D36145F7D2CC07F5D5002405EB84093B
S31508006ED0D9F87890894502D0641C062CF6D3062C7E
S31508006EE0E9D1002814BF401E0520E0E7716F002491
S31508006EF005EB8402641CD76F9767052CF8D31960D5
S31508006F000146481EC9B20029F0D1706DC0F30800C9
S31508006F1002280AD0032815D0042816D0052817D029
S31508006F20062818D00C281CD01EE01C4801688907C2
S31508006F3048BF40F602181CD40068C00719D540F2AD
S31508006F40025816E040F6012813E040F6022810E041
S31508006F5040F603280DE0B8F5206F0AD140F604285C
S31508006F6007E040F6052804E018B1242838BF40F6A3
S31508006F7007284046BDE8F0872C61020804ED00E0CA
S31508006F800000002000E300E050F300207C600208C7
S31508006F90904100089800002050F300201CA00040F3
S31508006FA002F05FBD2448012181604EF6BE21416092
S31508006FB00121016070472149012008607047A52812
S31508006FC005D11D484DF6AD6141600221016070474B
S31508006FD01948006810F0010018BF0120704780B5F5
S31508006FE0174910200860BFF34F8FBFF36F8F1548FE
S31508006FF015490078154A03000BD003280CBF00205A
S315080070000120106040F651000860002000F0B4F836
S3150800701006E0022010604FF40060086002F0E4FC0D
S315080070200B48072101600121016410200949086005
S31508007030002002BD0000000000600040086000401B
S3150800704080E100E0ACFF00200C6000400800004032
S3150800705014A0004000E100E070477047002010B51A
S3150800706002F0C7FE40F68C2188426A4C04DA206892
S3150800707040F00800206010BD216821F00801216059
S3150800708010BD38B5644D2988044600F061F89DF8AE
S3150800709000109DF80100FF2902BFFF2804200021E7
S315080070A0220018BF801CC2B2082A5C4A136823F45F
S315080070B06073A8BF0720C0B243EAC013136008294B
S315080070C01068A8BF0721C00841EAC00111605449E9
S315080070D00C7031BD80B55348018800F039F8BDF809
S315080070E000004FF6FF71884204D14FF4E162ADF813
S315080070F0002004E00A2190FBF1F1ADF80010484A9F
S31508007100107810B34448018802237F220DF102004B
S3150800711002F0B2FE9DF80300BDF80030FF2808BF54
S315080071200420811CC9B20829A8BF0721C1F12F0272
S3150800713002EBD272C0F12F00521000FB0320C1F1FE
S315080071402F01B0FBF1F0ADF80000BDF8000002BD5C
S3150800715002237F22684602F08FBE33490A68032855
S3150800716009D34B6D43F001034B650B689B1AC3F3B8
S3150800717013038342F9D3704710B5040004D110BD38
S315080071804FF47A70FFF7E9FF2046441E80B20028C4
S31508007190F6D110BD2549087868B9C878072818BFF8
S315080071A0092814D0032818BF112810D013281CBF8B
S315080071B015280B280BD01E48016841F4807202601E
S315080071C0C80504D45FF038011DA0FFF7F1BD70476C
S315080071D020B1012809D0032818D019E0154800293C
S315080071E01ABF17220260016010E039B1124800EB9D
S315080071F05100B0FBF1F0B0F1011F01D32020704718
S315080072000E4900F001024A604008086000207047F5
S315080072102120704700BC00401C6602081800004088
S31508007220C2FF00201E66020838200040960708089C
S3150800723038400040100004E000366E0168C800407F
S315080072407573625F6572726F722E6300010007D4F0
S31508007250012200F01F01434B8A40400943F82020D1
S31508007260704701000BD4012200F01F013E4B8A40F3
S31508007270400943F82020BFF34F8FBFF36F8F704745
S315080072803A480168CA0705D539490B685B1C0B6083
S3150800729001210160704780B500F008F880B202BD90
S315080072A080B500F003F80002000C02BD38B500F006
S315080072B041FC30490C684D6800F078F845EA04400E
S315080072C032BD10B5294C206810F0060F06D000F024
S315080072D057F80620284A206001211170BDE81040A1
S315080072E0CEE72DE9F84304460025206810B902F0D8
S315080072F02BFE33E000F01EFC81460420FFF7B1FFA9
S3150800730020681D4E194F10F1010F1CBF401C20604C
S31508007310FFF7CCFF216880461848414489B241608E
S31508007320022122684244120C0260357039603964C1
S315080073300420FFF78BFF484600F038F8012003F0D9
S31508007340F6F801213964307838B9FFF7AFFF2168BC
S31508007350081A40448525206000E025602846BDE8D7
S31508007360F283000000E100E080E100E014A00040A4
S31508007370C8F8002010600040C0FF002018600040D8
S31508007380704700000A46090241EA12214840C0F344
S315080073900311484080EA003041010206C9B2D20E04
S315080073A041EA0221484080B27047000080F3118804
S315080073B070470000012800D0704780B500F0ECF84F
S315080073C0DFF81C07DFF81C27016C41F4C04141F0C7
S315080073D0080101644FF6FF71016020211160016CFC
S315080073E041F4C0610164DFF80007016841F021013A
S315080073F0016001BD70B50446200015461E4603D13E
S31508007400BDE87040FEF7B2B9012C37D113293CBF4D
S31508007410DFF8D806415C08096422504301F00F01E1
S315080074200B2903D2884006E00A2250430A46511E19
S31508007430D2B20B2AF8D201460120FFF7C9FE010095
S315080074401DD1300907280CBF00200220012D08BFD6
S3150800745040F0180003D0022D08BF40F0080006F0DF
S315080074600F010229DFF8881628BF40F0040088605B
S3150800747001200860FFF79EFF002070BD212070BD27
S3150800748038B5040013D1DFF86C060468608828B1A3
S3150800749040F26721DFF86006FFF78AFCA188C9B2C7
S315080074A0A01DFFF73BFA0020A080208031BD0128EF
S315080074B002BFDFF83C06006801280FD100F03AFB4E
S315080074C00546DFF83806016841F4C05141F0040169
S315080074D00160012000F065FA28464FE231BD012817
S315080074E00FD1DFF81C06016811F00C0FF9D181697C
S315080074F04906FCD5DFF80406DFF8082601681140BE
S31508007500016070470B4680B51146020004D1184643
S31508007510FFF704FA002002BD012802BFDFF8E805DC
S315080075208269012A07D0212002BDC2685207FCD50C
S3150800753013F8012B02600A46511ED2B2002AF4D172
S31508007540C1684906FCD5E5E770B5DFF8C025DFF860
S31508007550C03512680FE0158810F8014B1544AC7158
S3150800756014881D88641C94FBF5F605FB16441480E4
S315080075709488641C94800C46611EE4B25CB19488BD
S31508007580DFF894552D886D1EAC42E4DBBDE87040EB
S315080075902321002085E270BD2DE9F041DFF86C1546
S315080075A0DFF8783551F82010DFF8744500255D605E
S315080075B01D819D7210208A1D2063226000261F8867
S315080075C002EB5700A0F1010CC4F804C0A06007EB59
S315080075D0020CACF1010CC4F80CC0B1F804C0BC45EF
S315080075E03BD00F88B3F8028007EB020E474539BF38
S315080075F0C4F800E00125C4F808E00126B1F802C085
S315080076000F889CFBF8FEBEF1000F18BF4FF0010E65
S3150800761097FBF8F707B101275FFA8EFEFFB2BE4562
S3150800762006D0C44527BF012058720120187209E008
S31508007630898888450FD330000FBF6D1C012018724A
S315080076409872761CF6B2EDB20DB1012020633EB1F8
S315080076500220206304E02260A0600120187258729C
S31508007660BDE8F0812DE9F84F8146B9F1010F77D1D0
S31508007670DFF8A424DFF8AC5432F81940DFF88C247C
S3150800768052F829204FF4C063194214D05688B6EB35
S31508007690540F02D26B6ADB0709D4B6EB540F02D338
S315080076A06B6A9B0703D46B6D5B085B006B654FF6D3
S315080076B0FF13194054D04FEA440E941D6B6AEE6AC4
S315080076C02F6BDFF86484DFF864A400941FFA87FB45
S315080076D010240027AC620907B6B24FF6FF7CDFF824
S315080076E03C443ED5696B696B696B696B13F4707FB3
S315080076F037D127200AF80900617A207A084221D171
S315080077001088618888420ED29388C918081A908012
S315080077106088108051886088814213D29188401809
S31508007720908017800EE0918823885918081A90804F
S31508007730178060885188814204D3918840189080C8
S31508007740608810809088218888421ABF108828F897
S31508007750190028F819C06760A772012020726072A4
S3150800776051E0D90509D517883146B9423CBF278863
S315080077707918714598BF8E46242799050CD529682E
S31508007780009F5944C91B1788B9423CBF27887918F6
S31508007790714598BF8E462427590609D5314616885D
S315080077A0B1423CBF26887118714598BF8E46252779
S315080077B019060CD52968009B5944C91A1388994299
S315080077C03CBF23885918714598BF8E4625272188BE
S315080077D0BEFBF1F301FB13E11180138851888B423C
S315080077E03CBF2588EB18591A91800AF809709188C8
S315080077F0238899421ABF118828F8191028F819C041
S31508007800BDE8F24FC8E6BDE8F18F2DE9F843054615
S31508007810012D40F08E80BD49DFF8042351F825106C
S31508007820136BD2F820C0566ABC4CBB4FB4F804E0C0
S315080078301FFA8CF9CE4519D0ACEB0E0EB1F80480C0
S315080078401FFA8EFEF044A1F80480B1F80080C64401
S3150800785037F815809EFBF8F908FB19EEA1F800E049
S31508007860A4F804C04FF0010C84F808C01FFA86F883
S31508007870B4F806C0C44517D0A6EB0C0EB1F804C080
S315080078801FFA8EFEF444A1F804C0B1F800C037F818
S315080078901550F4449CFBF5F705FB17C50D80E680EB
S315080078A0012565720025A57266888F88BE4240D379
S315080078B08D8815B90125012611E04D8895FBF6F549
S315080078C005B101250F887F1EBFB297FBF6F606B1F4
S315080078D00126EFB2F6B2B74228D185F00106A77A9B
S315080078E087F001073D4003F0010787F001073D4295
S315080078F00BD08D1D1560258801EB55056D1D55604E
S315080079000025A580257201251563F6B276B19B0779
S315080079100CD4238801EB5305AD1D19449560491D08
S31508007920D1600021E180617202211163BDE8F24352
S3150800793001E0BDE8F18338B5714C0546E06A00F010
S315080079406100202819D100F0F5F87049724A51F8FB
S31508007950251032F815204988B1EB520F02D2236858
S31508007960DB0705D4B1EB520F06D32168890703D587
S31508007970E16A41F00101E16200E031BDBDE8324053
S31508007980FFF714BD01280AD16248C168012904D14C
S315080079900068800900F00100704700207047012048
S315080079A07047012800D07047F8B5524951F8206051
S315080079B0B078E8B9B068D8B140F2CB514E48FFF775
S315080079C0F7F915E0B1683960F16879604FF400613C
S315080079D0016004203862E07AFF2818BFFEF7FBFA38
S315080079E03079E072FEF7E9FA01213046FEF737F8FA
S315080079F0B0784A4C4E4F10B3B06810B93046FEF70F
S31508007A000BF8396A3648490702D4F9694907D9D5BE
S31508007A10396A090713D4F969090710D4B168B96036
S31508007A20F168F9604FF48051016008203862207BC4
S31508007A30FF2818BFFEF7CFFA30792073D2E7E07A2D
S31508007A40FF25FF2808D0396A490705D4F969490787
S31508007A5002D4FEF7C0FAE572207BFF2808D0396AFF
S31508007A60090705D4F969090702D4FEF7B4FA25739C
S31508007A70F1BD10B51A480168026C02EA01040460F7
S31508007A8046F22970044203D0A1B20120FFF7EAFDAD
S31508007A9041F6D600044203D0BDE81040012080E735
S31508007AA010BD30B5194A214C52F82020255C1E4BD2
S31508007AB025B9128823F81020215430BD33F8103028
S31508007AC013802154138851888B4205D2124C34F8FE
S31508007AD01000401A181800E0581A908030BD0000AF
S31508007AE008A8004000E100E05CC8004014650208F0
S31508007AF054C8004054F300200C65020848A800400A
S31508007B0030C80040FBE7FFFF3CC8004064F3002094
S31508007B100C61020848C80040F86002084CF40020CE
S31508007B2000C8004008C8004004F8002000F80020FB
S31508007B3010C80040EFF31180602181F31188704767
S31508007B4038B58048804C0068206060604822002173
S31508007B50FCF7B3FB7D4A2168107808704FF6FF7171
S31508007B60206800224180027323685A730B2220681A
S31508007B70827303232268D3734FF6FE732068038249
S31508007B80418202F017FD2168087602F013FD21688C
S31508007B90487602F00FFD21686D4B88766D4821689E
S31508007BA00278CA766C4920680A6840F8282F1D783A
S31508007BB005716A4822680168116331BD10B501F084
S31508007BC032FA614C6168897B884203D0084601F025
S31508007BD022FA50B901F02AFA616891F90F10884221
S31508007BE005D0084601F026FA08B1012010BD6068E4
S31508007BF0008A00F01DFF6068408A00F021FF606877
S31508007C00017B01290CBF0120002000F0F8FE0020AE
S31508007C1010BD10B5524C0020207003F093F920B91E
S31508007C202046BDE8104003F0E5B972E080B50020B3
S31508007C3000F015F828B1002000F005F808B100207A
S31508007C4002BDFF2002BD40480168487B02281CBFD0
S31508007C501128432801D101207047002070473A486F
S31508007C600168087B01281CBF0228032801D10120CE
S31508007C70704700207047002070477020704700202A
S31508007C8070473849087070477047002070470120D0
S31508007C90704770470020704700207047704770474C
S31508007CA00020704780B50020FFF7CDFF20B10020E7
S31508007CB0FFF7D5FF00B1012002BD80B50020FFF710
S31508007CC0C2FF08B1002002BDFF2002BD80B500201A
S31508007CD0FFF7B9FF30B11C4801680A7B032A01DAAD
S31508007CE0002002BDFF2002BD10B5040000F005808B
S31508007CF040F27D1158A0FFF75BF81A49087808B9D1
S31508007D00702010BD0F49104B0A68482044431019CB
S31508007D105860BDE8104051E70B484168088A70472B
S31508007D2009484168488A7047074909684A690260EC
S31508007D30C97E017170470449096802684A61007979
S31508007D40C8767047B0F30020E4FA0020A9FF0020A7
S31508007D5039F5002047F50020B4F30020B8F30020D9
S31508007D60D4FA002073F500207047002070470020E1
S31508007D70704702F0A4BE7047002818BF03F05CBA2B
S31508007D80704703F002BD03F02ABE82B08DF80010DA
S31508007D90DDE9002311461A4602B003F08BBE33B55F
S31508007DA085B005468DF8042000F082F90446284679
S31508007DB000F08EF97CB10028BDF818000FD100F04C
S31508007DC039FA8DF80000FF2804BF00218DF800104D
S31508007DD0CDF808D016E0A8B106A8029012E000F087
S31508007DE029FA8DF80000FF2804BF00218DF800103D
S31508007DF09DF80000BDF818108DF80C0003AAADF820
S31508007E000E100292DDE901010A460146284603F0F2
S31508007E1051FE07B030BD000073B582B00446154662
S31508007E2000F046F90646204600F052F92EB120B970
S31508007E3003A98DF80050019105E04FF4057100BFC4
S31508007E4005A0FEF7B5FFDDE900010A460146204612
S31508007E5003F030FE7FBD0000656D6265722D6D759D
S31508007E606C74692D6E6574776F726B2D7374756299
S31508007E702E63000038B503F0E7FEEFF30880001F15
S31508007E806E494FF0CD3201E040F804298842FBD212
S31508007E906B4A6C4892B20021FCF70FFA012001F0F8
S31508007EA00FFE0020FFF7EDF8674C206840F0080049
S31508007EB02060FFF777F8FFF7D1F800F020F80D8873
S31508007EC005604D88456088881060C88850600889B4
S31508007ED018604889586000F054F8206820F01000AF
S31508007EE0206003F04AFF01F081FEFFF759F8BDE86C
S31508007EF03140FFF774B840F2016001F0A5BC58495B
S31508007F0053480A78C2604B78524AD360524B8978F4
S31508007F10D96054497047F0B50F249D0004FA05F559
S31508007F201668284212D0002505EB830720FA07F7C2
S31508007F30FF0708D5AF0004FA07F731F813C0BE43A8
S31508007F4007EA0C073E436D1C042DEDD31660F0BD01
S31508007F50F0B5FF25DE00B540146828420FD000258D
S31508007F6005EBC30620FA06F7FE0705D50126AE403F
S31508007F70CF5CB4433E4034436D1C082DF0D31460E7
S31508007F80F0BD2DE9F84300210A2003F03BFF03F07A
S31508007F90DBFF354C2068A0B100262C4FDFF8B090E7
S31508007FA000F033F8761C032EFAD3DFF8B0800026EB
S31508007FB0002700F038F800F030F8761C7F1C032FF5
S31508007FC0F7D3BDE8F1832DE9F84300210B2003F030
S31508007FD019FF03F0C5FF244C2068A0B10026204FE6
S31508007FE0DFF86C9000F011F8761C032EFAD3DFF850
S31508007FF074800026002700F016F800F00EF8761CAC
S315080080007F1C032FF7D3BDE8F18309EB462000F167
S315080080100C022068334639469AE7761C2068F3B284
S315080080202A1D414677E709EB47252068F3B22A4619
S31508008030414670E7032004F04FB80000F0E900203D
S31508008040F01300009800002000BC004004F4002053
S3150800805000B0004000B2004000B40040F8F3002031
S31508008060F4F30020E8F3002008F4002010B503F02C
S315080080702BFE044603F02CFEC0B208B9012C07D12A
S31508008080072C11D8DFE804F004100608080A0C0EBD
S31508008090002010BD092010BD022010BD032010BD10
S315080080A00B2010BD062010BD44F0800010BD000056
S315080080B020B5002164A2CBB2D35C834205D0491C0B
S315080080C0CDB2082DF7D3002020BD012020BD000029
S315080080D020B500215EA2CBB2D35C834205D0491CF1
S315080080E0CDB2082DF7D3002020BD012020BD53486E
S315080080F001684888704751480168081D70474F480D
S315080081000168C87E70474D490A68D076704738B509
S315080081104A4C4B4D2168487302284A4915D12068B4
S31508008120027B042A1CBF084602F064FF2068007B15
S3150800813003281EBF0428284602F05CFF2068416910
S31508008140C80054BF9024BC2410E000200870287092
S3150800815003F0E3FF2068007B032818BF042802D138
S3150800816003F0EDFF01E004F042FB9124204604F001
S315080081709DFB50B9234613222FA10320FCF7F3F8E1
S315080081802046BDE83240FFF7FEBD31BD2B480168E9
S31508008190487B00F00F007047284801684A7B02F0C8
S315080081A00F02022A01D1012070470020704770B5DE
S315080081B0224D2E680C46FFF7EFFF20B9707B032887
S315080081C001D0932070BDF07B2070002161702A6871
S315080081D0907BA070002070BD10B5002300E05B1CEA
S315080081E0DCB28C4205D210F8014B9442F7D000203D
S315080081F010BD012010BD082104F084BB0F4801689A
S31508008200487B01281CBF3128332801D1012070473B
S315080082100020704710B5044600F00CFF010002D19B
S3150800822006490A68D47310BD04480168887B7047FC
S31508008230012070470020704742420000E4FA0020FF
S31508008240ACFC00207CFA00200001020304051D2076
S315080082500203040508090A0BDFF80419087848B16F
S31508008260DFF800090179012904BF4079042801D102
S3150800827001207047002070470FF694114008085CEB
S315080082807047010604D502464FF6F83000EAC200E8
S315080082907047491C800189B2B0FBF1F080B2B0F595
S315080082A0807F2CBF0020C0F1FF00C0B2704738B5F0
S315080082B0DFF8B818C878012801D1002032BDDFF8E8
S315080082C0B848607868B1E578087945192079854213
S315080082D0A8BF054602F06EF9012202FA05F5691EE5
S315080082E0084061790818C0B232BD2DE9F047C207C7
S315080082F0044605D54FF4D9710FF60410FEF758FD5C
S31508008300DFF87858286DC10748BF8C2000F19480A3
S31508008310DFF85828DFF8606851780020107049B9EE
S31508008320307838B16078A96F400900F0010041F053
S31508008330010103E0A96F490800204900A9675071A7
S31508008340DFF820787078B979DFF83488DFF8349860
S3150800835098B1002313710129286D40F0040028659F
S3150800836007D14FF6FF70C9F800004FF40071C8F83E
S315080083700010FFF79CFF82460CE0286D20F00400F1
S31508008380012928654FF0000A04D100F084FA642018
S31508008390FEF7E3FEA86F20F00800A8671421E96439
S315080083A0C5F848A0707830B1B879002801BFA86C24
S315080083B000280121A964B0790028286D14BF40F06F
S315080083C0080020F008002865FFF746FF28B1D9F80D
S315080083D0400040F00800C9F84000202028626C6080
S315080083E02C60042168687F30686029624FF4E06475
S315080083F0DFF89407046006E004F08EFA18B101F07D
S31508008400A3FDFFF797FBDFF88407016801F0030176
S315080084100329F1D0C8F80040286D40F0010028650E
S31508008420707810B90021252003E0B87918B9002121
S31508008430232003F0E7FC0020BDE8F087DFF85007AB
S31508008440DFF85027DFF85037002141608160016866
S3150800845021F0020101604FF00070106001211970CF
S315080084607047332800D2704710B5B0F5002F0CD2EC
S31508008470DFF824470021217001F08AFA02E0012082
S3150800848002F026F820780028F9D010BD2DE9F84F1B
S31508008490DFF8F086DFF8D476D8F80010D8F8400070
S315080084A0DFF8D86608401FFA80FAC8F800A078787E
S315080084B0002840F001815FEACA70DFF8E046DFF87D
S315080084C0B89651D53568306C716C41EA0041B9608F
S315080084D099F8000000283ED0687882063BD501232B
S315080084E03B700021282003F08DFCFFF7B5FE00281D
S315080084F03AD01920FEF731FEDFF8A4B64FF4404013
S31508008500CBF82800DBF800100091E06E40F400502C
S31508008510E066E06E40F48050E0662978B868490164
S31508008520B8310D1804F0CFFC2D1AC5F31300FFF768
S3150800853098FFE06E80098001E066E16EBDF80000F4
S315080085400143E16648F260700021CBF82810E06626
S31508008550F988216008E000212B2003F053FCB96854
S315080085600022002004F07BFE5FEA0A610ED5387807
S3150800857030B1002139700022B968402004F06FFE3E
S31508008580D8F83C0020F48050C8F83C005FEA4A61FD
S315080085900CD5787850B97979272003F033FC04F0A4
S315080085A092FC01460022892004F059FE5FEACA605F
S315080085B06BD5DFF8B0552879012804BFA8790128BA
S315080085C028D10021232003F01DFCFFF7FCFC306FA7
S315080085D040F0010030670021A9714FF0000A04F04D
S315080085E0A3F90A20FEF7B9FD4FF6FF70DFF89025CC
S315080085F0C8F800004FF4E06111600923B366012052
S31508008600B064B16F41F00801B167306D40F0010008
S3150800861030653AE03879401C3871C0B299F80210D2
S31508008620884225D2FFF743FE8346BBF10101894103
S31508008630C90F242003F0E6FB2879012802D100F0AF
S31508008640FDF803E00021232003F0DCFBB06F20F0E7
S315080086500800B0671421B166C6F848B04FF4007038
S31508008660DFF81C150860326D42F0010232650CE035
S31508008670787850B97979262003F0C4FB04F023FCF6
S31508008680014600228D2004F0EAFD5FEA0A7013D540
S31508008690FFF7E2FD48B12068F88001212160D8F88B
S315080086A0400020F00800C8F8400099F8010018B109
S315080086B00021252003F0A6FB5FEA8A600ED520215B
S315080086C03162787850B97979272003F09BFB04F05A
S315080086D0FAFB01460022882004F0C1FD787840B1F3
S315080086E01AF4407F05D100212B2003F08BFB0120D3
S315080086F0B870BDE8F18FDFF8B00400887047DFF87E
S31508008700681420B1086840F44040086070470A6859
S3150800871022F440420A6070477CB5054600F047FCE3
S31508008720DFF88804DFF84844DFF838640021016080
S315080087301522E260092101651F22426001210166B6
S31508008740DFF86404008800F0B2FA04F013F904F0C4
S3150800875089FF00F03DF93089606171892161FFF771
S31508008760E9F9616841F040016160FEF71FFE707823
S3150800877000F0F9F8B07800F00DF9DFF83404007865
S3150800878000F03DF9DFF82C0490F9000000F052FCE7
S31508008790307800F0AAF996F9030000F0B5F9DFF889
S315080087A01804018800F0D1F9BDF80000C105DFF80A
S315080087B00C1448BF00200870DFF80404007800F0A5
S315080087C0FDFB28B14FF485610FF23440FEF7F0FA4D
S315080087D0012D09D12068C10715D500F02FF8002111
S315080087E02C2003F00FFB0EE06DB92068C1070AD4F0
S315080087F0FFF7E9FB206840F001002060C820FEF77B
S31508008800ACFC0020B071F120DFF87853286440F200
S31508008810F911E96303F0F4FAFFF771FF04F084F83D
S315080088202068C10707D54FF6FF70DFF85413286094
S315080088304FF4E0620A6001F016FA73BD70B5DFF80E
S315080088408453DFF820432E68A079012822D0FFF749
S3150800885071F9B6B2DFF830232E604FF4E06111608B
S31508008860DFF840130B6A5B085B000B620A68520864
S3150800887052000A600B6843F002030B604A6A42F032
S3150800888001024A620121A171FEF790FDBDE8704020
S31508008890FFF777BB70BD70B5DFF8C852A87950B33B
S315080088A0FFF791FBFFF746F90446DFF81C13DFF8DC
S315080088B0C462012008600021306D40F00100306577
S315080088C0A97104F031F820203060316B41F00201C3
S315080088D03163F06D40F00800F0652046FEF766FD4E
S315080088E00A20FEF73AFCA749A54B4FF6FF70086029
S315080088F04FF4E0621A6070BD9A48807970479948CB
S315080089000179012900D0704780B5FFF797FFBDE8C8
S31508008910044000212C2003F075BA9248007970476C
S3150800892080B5022801DB012002BD8E4908718979CC
S31508008930884209D010B9FFF7AEFF05E0FFF77EFFC2
S3150800894000212C2003F05EFA002002BD9F48006833
S31508008950800200149A3801B211F1800FB8BF6FF087
S315080089607F0040B2704710B50446FFF7E3F8984910
S315080089700A68002C04D042F012020A60012103E0C2
S3150800898022F012020A600021764A517049E07548C1
S315080089904078704738B50446FFF7CCF8054604F02A
S315080089A0E2FB58B921008A4804D0026842F08002E6
S315080089B0026003E0016821F0800101606948847063
S315080089C02846BDE83240FEF7F1BC66488078704715
S315080089D0804A53781078804900EB03230B6090781F
S315080089E0D37800EB03234B601079537900EB03230C
S315080089F08B609079D37900EB0323CB60704710B571
S31508008A000446FFF797F82200714904D00B6843F033
S31508008A1020030B6003E00A6822F020020A6064491A
S31508008A200C70BDE81040FEF7C1BC4E48008970477F
S31508008A304C496A4A0881106070474A48408970471D
S31508008A404849674A48811060704766480078704709
S31508008A505448816A41F0020181620122026070472E
S31508008A60504800210160826A22F002028262502088
S31508008A70FEF773BB10B55C485C4902690A8001249D
S31508008A80C3695B4A4B80D36C8B80002101614549E1
S31508008A908B6A43F002038B620C60C4610023436255
S31508008AA003624CF25D03D36448F20203116841F491
S31508008AB0004111604FF400420260036010BD80B5AA
S31508008AC0FFF7CEFF48484FF40041016000224849AD
S31508008AD002600B68454A23F400430B609388CB6415
S31508008AE0118801615288C26101BD0200204904D083
S31508008AF00B6843F002030B6003E00A6822F00202E7
S31508008B000A6018490870704738B57F2804460AD1A4
S31508008B10384C218800F019F8BDF80000C10554BF8B
S31508008B2004466FF04A04FFF705F8054604F01BFBF8
S31508008B3028B960B29A3080052F49000C08600948A8
S31508008B40C4702846FEF732FC31BD02237F226846F0
S31508008B5001F092B9034890F903007047000000003D
S31508008B60DCFF002012F5002040A00040F8FA0020A3
S31508008B708020004030200040CCF400201020004027
S31508008B8000E100E004A0004080E100E0A8200040E9
S31508008B9010E000E004ED00E0DDFF00206410004076
S31508008BA0E41000406020004088F400205C1000407B
S31508008BB0DBFF00207CF400203C660208C8FF00208A
S31508008BC057F500201C100040281000400C100040EB
S31508008BD084200040A0FB00209820004094200040FC
S31508008BE09020004076F500201810004084FF0020F1
S31508008BF0C01000404066020854100040704700004C
S31508008C007068792D636F6D6D6F6E2E6300000000BE
S31508008C10FEF7C801DFF8003533F81000024022FAE3
S31508008C2001F07047F0B50FF2B054DFF8F03434F8BD
S31508008C301050DFF8E4449D60114034F81050954315
S31508008C402943D96002261E6000271F6024F81010E9
S31508008C5058680028FCD1F0BDDFF8C434DFF8C41426
S31508008C601878DFF8C42408B150780FE0125612F1CC
S31508008C70090F02DA30230B607047C86D38B1C86D2A
S31508008C8040F24A32B2FBF0F080B2C01E086070476C
S31508008C90E0B5DFF8980401880A2300F068F8BDF803
S31508008CA006104FF6FF720D20FFF7BCFF07BDF8B59B
S31508008CB0B0F5004F0546DFF870641AD1DFF8704446
S31508008CC02188022300F053F8BDF80000000AFF28A7
S31508008CD001D0010000D118207070BDF80000000610
S31508008CE0C00E10281CBF001D00F0A4F9BDF80050E6
S31508008CF0ED43DFF82C44607810B10021617006E07E
S31508008D00B189A8B24140CA0744BF01206070A8B221
S31508008D10C0F34007DFF81C04B58105F001060168B9
S31508008D2041F40041016031460FF2D14010F81110AC
S31508008D3009074FF44052090C0220FFF773FF30462B
S31508008D4004F09CFC2D064022B9010B20AD0EFFF75E
S31508008D5069FF05F001053D432570FFF77DFF607843
S31508008D6018B1FFF795FF002060700020F2BD7F2242
S31508008D70684601F081B804F0A8B92DE9F84FDFF884
S31508008D80BC53287886B0A0F10B0104900391CAB2AF
S31508008D9004230E21684603F051F99DF90000DFF817
S31508008DA0A0130A788DF80800012A9DF801008DF8AD
S31508008DB007009DF902008DF806009DF803008DF85E
S31508008DC0050004D16878441EA441E40F00E001249C
S31508008DD004F07FF980469DF90200039EDFF8589358
S31508008DE008F10A07A8F10A0BB842B6BF83454FF047
S31508008DF0010A4FF0000A012000FA06F69DF8010064
S31508008E00010603D4B9F80220324201D04FF0010A14
S31508008E1004F0A8FC9DF80300010609D4B9F804205B
S31508008E20324205D19DF90000B842B8BF834502DB3E
S31508008E304FF0010B01E04FF0000B4AEA04005BEA31
S31508008E40000000F09F80BF48BF4F0168BF4849082F
S31508008E5001F001018DF80410016801F4E061059143
S31508008E604FF4E060BA4908600020FFF73EFE00F0C4
S31508008E70FAFE9CB1687848B100F08FF849084900B5
S31508008E80016001201070FEF768F907E0386840F4C1
S31508008E9000503860396821F480513960A848017853
S31508008EA001290FD1002C1ABF68780028FFF78BF824
S31508008EB000F073F841F00101016000201070642091
S31508008EC0FEF74BF92CB1687818B9049880B204F00B
S31508008ED080FC687838B1396821F48051396038687F
S31508008EE040F400503860F643BAF1000F0AD004F097
S31508008EF05FFDB9F802108DF8010031408DF8028047
S31508008F00A9F80210BBF1000F0AD004F0FEFDB9F86B
S31508008F1004108DF803000E408DF80080A9F804604F
S31508008F209DF900009DF90810884202BF9DF80100CE
S31508008F309DF8071088420BD19DF902009DF906108D
S31508008F40884202BF9DF803009DF80510884206D0A6
S31508008F50039904236A46C9B20E2003F096F80598C9
S31508008F607A49086003F0E0FC9DF80400FFF7BDFDB0
S31508008F7000F039FF687828B148F2607139606420DA
S31508008F80FEF7EBF89DF8010004F078FC9DF8030065
S31508008F9004F0B6FD07B0BDE8F08F6A48684A016874
S31508008FA0704780B5FFF7E7FEBDE80140E5E6E2E673
S31508008FB0A0F10B01102928BFFF20704770B50546A0
S31508008FC0A0F10B06FFF798FC0446A5F10B00102844
S31508008FD001D38A2070BD5F4881680A0702D40068F9
S31508008FE0C10701D58C2070BD54485B4905700A68D5
S31508008FF00C2A0ED05EA0594BB6B230F8262093F94B
S3150800900000008218CA61FFF7B8FE012C08BFFFF7F7
S3150800901015FC002070BD10B50446FFF7ACFE2046CF
S31508009020BDE81040CAE74548007870473E4890F9C1
S31508009030000070472DE9F8410646202516F12B0F4A
S3150800904085B049DB464C21881423FFF790FEBDF80E
S3150800905010004FF6FF71884203D0400448BF012430
S3150800906007D43F2200211020FFF7D4FD002480F00A
S31508009070200506F12B022F2A2B483A491AD2132229
S315080090804BA300E0521E5FFA82F813F91870BE422D
S31508009090F8DB03EB4802032756780E60002613F820
S315080090A01810017000218846C4B1BDF810104FF69B
S315080090B0BF7229E0092E0FDA825D0A600670142352
S315080090C029480188FFF753FE4FF4C0514FF48076C4
S315080090D04FF080082827E7E78B201AE04FF4605204
S315080090E000F044F84FF4E062314600F03FF8802281
S315080090F0414600F03BF8791988B24028A8BF3F21BD
S3150800910081F020013F2289B200F030F8FFF7A4FD74
S31508009110002006B0BDE8F081FCF80020E810004009
S31508009120C9FF0020641000407CF400201A6602087B
S315080091302E6602081C10004062FF002057F500202A
S3150800914018F5002080200040D010004000E100E023
S3150800915080E100E060200040AC100040C8FF00201D
S3150800916016660208C0100040186602080B2059E56A
S31508009170AA2129005523290000252800AA26270008
S3150800918055282700002A2600AA2B2600552D25003B
S31508009190002F2400AA302400553223000034220070
S315080091A0AA3522005537210000392000AA3A2000A6
S315080091B0D500E601EC02EF03F204F405F506F7071D
S315080091C0F808F909FA0AFB0BFC0DFD0FFE11FF134F
S315080091D000160119021C031F1000110020003000A0
S315080091E04000410050006000700080009000A00020
S315080091F0B000C000D000E000F0000000000001034D
S31508009200BFF35F8FBFF34F8FBFF36F8F70470000B9
S31508009210DFF81C060168491C016011F8010D70474A
S3150800922038B50446DFF80856084629682246FBF78B
S3150800923001F82A6822442A6031BDDFF8F425014680
S31508009240106801441160704710B5DFF8E815DFF8BB
S31508009250E8350A681C68141BDC2CB8BF107008684F
S31508009260421C0A6010BD10B50446C0B2FFF7ECFFF9
S31508009270200A51E0DFF8B8150868401C0860401E4F
S315080092800A680078521C0A6012F8011D00EB0120DA
S3150800929080B2704710B5044680B2FFF7E4FF200C91
S315080092A065E010B5FFF7E6FF00F06AF804EB00404A
S315080092B010BD70B5DFF87C55DFF87C351E680246B0
S315080092C028681446861BA619DD2EB8BFFAF7B2FF22
S315080092D028682044286070BD38B500F061F8FFF7AB
S315080092E0C9FF2081DFF848552868401C286010F916
S315080092F0011DA1722A68521C2A6012F8010DE0723B
S3150800930000F048F82073FFF7B5FFE08100F0D7F9C1
S31508009310FFF7C7FF606131BDBDE8104094E738B577
S3150800932000F02EF82080FFF7A5FF608000F02AF8ED
S31508009330207100F039F86071FFF79CFFE080FFF7B5
S3150800934099FF208100F026F8A07231BD10B500F013
S3150800935014F8A078E0E710B500F012F8208000F0C5
S31508009360C9F8A07010BD10B500F004F86088BDE813
S31508009370104078E70446207866E70446208872E7B6
S31508009380044677E7DFF8A8542868401C2860401E82
S31508009390007870472868401C2860401E007870478F
S315080093A00446214608203BE72968491C296011F82C
S315080093B0010D704738B500F0E6F8A070FFF75AFFC0
S315080093C02080211D00F0DDF8FFF7E4FF00B1012041
S315080093D0E07000F001F831BD2868401C2860401E86
S315080093E0007820732968491C296011F8010D6073FB
S315080093F0704710B50446214600F093F82069BDE889
S31508009400104047E710B50446214600F08CF8FFF7F0
S3150800941048FF206110BD10B5FFF7B2FF208010BDD0
S3150800942010B50446FFF7C6FF04F1100000F027F850
S3150800943004F11C0100F0A5F8FFF71CFFA084FFF754
S3150800944019FFE08404F1280200F011F8117003688E
S315080094505B1C036013F8011D517000F00AF8917047
S3150800946003685B1C036013F8010DD07010BDDFF8AC
S31508009470C0030168491C0160491E0978704710B588
S315080094800446FFF70EFF2060FFF70BFF6060FFF74B
S31508009490F1FE208110BD10B500F011F8A088FFF785
S315080094A0E2FEE088FFF7DFFE2089FFF7DCFE608931
S315080094B0FFF7D9FEA089FFF7D6FEA07B2CE7044666
S315080094C02068E7E610B50446FFF7EBFE2060FFF7D5
S315080094D0D1FEA080FFF7CEFEE080FFF7CBFE20810D
S315080094E0FFF7C8FE6081FFF7C5FEA08100F002F80D
S315080094F0A07310BDDFF838030168491C016011F834
S31508009500010D704710B5FFF7DAFF2079FFF79CFECB
S31508009510611D00F006F804F11501BDE810401020A1
S31508009520C7E61020C5E610207AE610B50446207A6C
S31508009530FFF78AFE207A30B92068FFF7ABFE20686D
S31508009540FFF7A8FE04E0022802D1214600F002F83F
S31508009550607AE1E60820ACE638B500F014F8207227
