S02300006275696C642F64656275672F7369373278785F776865656C64656D6F2E7333370E
S113000000040020690B0000650B0000650B000074
S1130010650B0000650B0000650B0000650B00001C
S1130020650B0000650B0000650B0000650B00000C
S1130030650B0000650B0000650B0000650B0000FC
S1130040650B0000C110000099540000650B00000E
S1130050650B0000650B0000E1100000195500005D
S1130060650B0000650B0000650B000041410000BA
S1130070853B0000650B0000650B0000650B00006C
S1130080650B0000650B0000650B0000650B0000AC
S1130090650B000010B5064C2378002B07D1054BE7
S11300A0002B02D0044800E000BF0123237010BDE0
S11300B0D004002000000000D8710000044B10B5EB
S11300C0002B03D00349044800E000BF10BDC04624
S11300D000000000D4040020D871000040229202E5
S11300E09A1A92467047C046174B002B00D1134B07
S11300F09D46FFF7F3FF00218B460F461348144A31
S1130100121A05F018FF0E4B002B00D098470D4B28
S1130110002B00D098470020002104000D000D485A
S1130120002802D00C4800E000BF05F0D7FE2000F4
S1130130290005F0F7FA05F0BBFEC04600000800F0
S1130140000000000000000000040020D004002093
S1130150800E0020000000000000000010B5002008
S113016001230422082101F081FF002010BD0000BA
S113017010B50121034801F077FA03F06DFDFFF794
S1130180EDFF10BD0082040010B50121014801F00B
S11301906BFA10BD00820400F0B589B002AD019283
S11301A02A0004000E00144B83CB83C283CB83C28A
S11301B001211248276801F057FA6068012101F013
S11301C053FA617B207B0023042201F04FFF0422B9
S11301D0617A207A002301F049FF019B380029004D
S11301E02B82049602F042FE0A230020A27B120214
S11301F013437B6509B0F0BDD067000000820400A2
S113020070B50C0006688D18AC4201D1002070BD99
S11302102178300002F074FE0134F5E720230168F0
S11302200A691A42FCD0704713B5040003F03CFB82
S1130230217B490005F07EFB01230193002301008B
S1130240024A0093024803F0C7FA16BD55020000A3
S1130250EC0400200822014B1A607047CC60004077
S1130260F7B580260C4DF6002E610400407B03F0A8
S1130270D1FC6B46991D0423084F022238000B80E1
S1130280FFF7BEFF3800FFF7C9FFA07B03F0C2FCF5
S11302906E610020FEBDC0460060004000040020E6
S11302A070B504000121134801F0DEF9A1680022B1
S11302B01148FFF771FF0023042218000A2101F0FE
S11302C0D5FE042205200023032101F0CFFE2100E6
S11302D00A4B25C925C31A000B68200013600122AC
S11302E0074B1A70FFF7A0FF2000FFF7B9FF0020AB
S11302F070BDC04600820400000400200C050020EC
S113030008050020F0B587B003930379160002882E
S1130310244F5343DB1002938023DB003B61040032
S1130320407B0D0003F076FC04AB991D01230136DC
S1130330B6B2320201361343360202221A480B8047
S1130340FFF75EFFB3B200260193039B16489E425B
S11303500AD1FFF763FFA07B03F05CFC802300203D
S1130360DB007B6107B0F0BD2900029AFFF748FF6C
S1130370029BED18039B013BB34210D0FF23019A6B
S1130380134304AA911D084802220B80FFF738FF8B
S1130390019B01360133FF339BB20193D5E7034B35
S11303A0EFE7C0460060004000040020FFFF0000AB
S11303B0034B04481B785A1E93415B421840704714
S11303C0080500200C05002030B585B06846020001
S11303D0044B32CB32C21B681360FFF761FF05B0D8
S11303E030BDC046E867000030B51D00042387B067
S11303F001AC63806B461A700293012321802100B3
S113040023810495238200F005FE002801D0FF23F8
S11304102B7007B030BD10B588B003AC218001212A
S1130420618002A94B700223238101AB0693002350
S11304300A7004912100238200F0ECFD08B010BD85
S1130440F0B585B0019302AB07331400E322050035
S11304500E00FFF7C9FF02ABDB790700FE20DB07C4
S11304601AD42300E12231002800FFF7D4FF02232D
S11304700400E32231002800FFF7CDFF02AB204344
S1130480E2220743073331002800FFF7ADFF02AB38
S1130490DB79019A3843137005B0F0BDF0B585B02F
S11304A002ABDD1D002314002B70C1222B000600BB
S11304B00F00FFF799FFFE222B78D20100931B0255
S11304C013403900C2220190238030002B00FFF733
S11304D08BFF21882B7802000B430549FD205B1814
S11304E02380009BDB0901D00198104305B0F0BDC7
S11304F000C0FFFFF7B56B46DE1D3300C9220D00B7
S11305000400FFF771FF01223378290093430700A9
S1130510C83220003370FFF77EFF33002900C42265
S113052007432000FFF760FF01223378074313439A
S113053029002000C3323370FFF76DFF3843FEBD3E
S1130540F7B56B46DE1D3300C9220D000400FFF72A
S11305504BFF03223378290093431A000123200020
S11305601343C9223370FFF756FF33002900C42216
S11305702000FFF739FF072233780700934329004F
S11305802000BD323370FFF746FF3843FEBD012221
S113059000B589B003AB5A8001AA049200221980E5
S11305A002A906911A8119001A8200F033FD09B0DC
S11305B000BDF0B58FB000930CAB9D1D0023070068
S11305C00E002B701400FFF7E2FF2B00C422310051
S11305D001903800FFF708FF0F22019B310003430D
S11305E001932B78380093431A0002231343C42247
S11305F02B70FFF710FF019B212503430B93002C65
S113060003D00025012C00D127350CABDC1D2A00BA
S1130610230031003800FFF713FFCA22310023788A
S113062001903800FFF7F7FE6A1C230031000290A6
S11306303800FFF705FFCB22310023780390380000
S1130640FFF7E9FEAA1C2300310004903800FFF7ED
S1130650F7FECC223100237805903800FFF7DBFE4B
S1130660EA1C2300310006903800FFF7E9FECE2291
S11306703100237807903800FFF7CDFE2A1D2300B0
S1130680310008903800FFF7DBFECF2231002378D9
S113069009903800FFF7BFFE6A1D230031000A905D
S11306A03800FFF7CDFED022050031002378380052
S11306B0FFF7B1FE0B9A019B31001343029A1343D7
S11306C0039A1343049A1343059A1343069A134354
S11306D0079A1343089A1343099A13430A9A134334
S11306E01D43CD220E2305433800FFF794FE0CABC7
S11306F0C4223100054306333800FFF775FE0F228C
S11307000CAB9B79310093431A00042313430CAAC6
S113071093710543C4223800FFF77DFE0CAB0543FB
S1130720C422310038000633FFF75EFE05430CABEC
S11307309B797F2B10D831003800149AFFF7AEFE56
S1130740009B0543002B12D131003800FFF7D2FE85
S1130750054328000FB0F0BD002DECD10CABC42232
S1130760310038000633FFF73FFE0500DFE7009B4A
S1130770012BEED131003800FFF7E2FEE8E7030079
S113078010B5002805D17D204843642105F05CF9AB
S113079010BD0020012BFBD17D3048430A21F5E731
S11307A0F8B505000E001700FFF7F1FE0400002F56
S11307B006D131002800FFF79DFE04432000F8BD58
S11307C0012FFBD131002800FFF7BAFEF5E7F7B59A
S11307D00D000400FFF7DBFE6B46DE1D330029002D
S11307E00700C4222000FFF7FFFD0A233278290006
S11307F013430743C42220003370FFF70CFEFF238A
S11308002900C622074320003370FFF704FE922319
S11308102900C722074320003370FFF7FCFD330093
S11308202900C92207432000FFF7DEFD01233278A7
S1130830290013430743C92220003370FFF7EBFD5F
S113084033002900C42207432000FFF7CDFD022214
S113085033780743934329002000C2323370FFF7F3
S1130860DAFD3843FEBD0000F0B585B004000D008C
S11308700192FFF78CFE02AB5F1D3B000600C42211
S113088029002000FFF7B0FD0F223B782900934395
S11308901A000223064313432000C4223B70FFF7CF
S11308A0BAFD0023CD22290006432000FFF7B3FD43
S11308B03B00C322290006432000FFF795FD0723D0
S11308C03A7829009A43063B13430643C322200087
S11308D03B70FFF7A0FD3B00C42229000643200023
S11308E0FFF782FD07233A7829009A43033B134319
S11308F00643C42220003B70FFF78DFD02ABC122EA
S11309002900064306332000FFF76EFD02ABDF1D0E
S11309103B00C222290006432000FFF765FD2900A1
S113092006432000FFF7E6FD02AB9C790643E3098A
S11309301BD0FE202402C001044038780C49044333
S1130940E410230063430B48584305F07DF8050089
S113095009486421604305F077F8084B2D18ED1819
S1130960019B1D60300005B0F0BDFD26FAE7C046CE
S1130970A086010081FEFFFFDE3E000008BBFBFFF6
S1130980F0B585B004000D0000920193FFF7FFFD60
S113099002ABDE1D330029000700C4222000FFF74C
S11309A023FD0F23327829009A430D3B1343074359
S11309B0C42220003370FFF72EFD330029001D22CE
S11309C007432000FFF73CFD00220743FA200F21D4
S11309D0B25680004243D3170B409B18009A1B1158
S11309E029001380200033001E22FFF729FD002177
S11309F00743FA20715680004143CA175205530D2C
S1130A005B18019ADB121B18290020001380FFF7E2
S1130A1071FD384305B0F0BDF0B585B004000D009C
S1130A2000920193FFF7B3FD02AB5F1D3B0006008C
S1130A30C42229002000FFF7D7FC0F223B782900AD
S1130A4093431A000223064313432000C4223B703D
S1130A50FFF7E1FC0023CD22290006432000FFF725
S1130A60DAFC3B00C322290006432000FFF7BCFC4C
S1130A7007233A7829009A43063B13430643C322CB
S1130A8020003B70FFF7C7FC3B00C422290006434B
S1130A902000FFF7A9FC07233A7829009A43033B77
S1130AA013430643C42220003B70FFF7B4FC02AB9F
S1130AB0C1222900064306332000FFF795FC02AB50
S1130AC0DF1D3B00C222290006432000FFF78CFCF7
S1130AD0290006432000FFF70DFD02AB9C79064375
S1130AE0E30924D0FE202402C001044038781149CF
S1130AF00443E410230063430F48584304F0A4FF65
S1130B0005000E486421604304F09EFF0C4B281836
S1130B10C018019BFA2143431800009B8900C018A8
S1130B2004F092FF0A9B1860300005B0F0BDFD266A
S1130B30FAE7C046A086010081FEFFFFDE3E00000A
S1130B4008BBFBFF0300054A05491068C3188B4224
S1130B5001D81360704701204042FBE710040020D5
S1130B6000200020FEE7000010B500F09BF8054BC4
S1130B700549064A8B4201D3FFF7B6FA01CA01C3FD
S1130B80F8E7C04600040020D0040020E071000013
S1130B900048704700366E01264B2749DA6A10B5C3
S1130BA00A40802189018A4225D01ED8802109016A
S1130BB08A4229D080218020490100028A421CD027
S1130BC0E022D868D20010408022920090422AD0BD
S1130BD01CD8002829D00138FF38421E9041174AFA
S1130BE040421040164A801807E08021C9048A4216
S1130BF0E6D1144801E0144A10681968C903490F82
S1130C00013104F097FE10BD104AF5E7C0229200AE
S1130C1090420CD00E4A8018421E90410D4A404228
S1130C2010400D4ADFE70D48E7E70D48E5E70D48BA
S1130C30E3E7C04600800C40003C0004C04A9BFF30
S1130C4040B5640000366E011C0400201804002026
S1130C5000FCFFFFC090BFFE406F4001C0D8A7005A
S1130C60804F1200809FD50010B5FFF795FF0F222B
S1130C70034B5B681340D840024B186010BDC0465C
S1130C8000800C4014040020044B10B51860044B81
S1130C90DB6A1B0501D5FFF7E7FF10BD1804002030
S1130CA000800C40014A024B9A607047000000002B
S1130CB000ED00E0802000027047FA2080007047B9
S1130CC0014B18687047C0461C04002042680300AA
S1130CD010B52220002A01D01868904710BD42693F
S1130CE0030010B5FF20002A01D01868904710BDFA
S1130CF0C36810B5002B01D00068984710BD036984
S1130D0010B5002B01D00068984710BD70B50400E1
S1130D100D0000280FD001281AD002281BD0032868
S1130D201BD004281BD03F23052805D00D490E48AD
S1130D3000F0EEFA03E00D4BEB40DB07F6D5242080
S1130D4044430B4BE41820680123E840184070BD6D
S1130D50D323DB01F0E7074BEEE7F023ECE7F023C6
S1130D609B01E9E7B5030000F867000007070000EE
S1130D701C6000401FEF00000E4B01001878002398
S1130D8070B50D4DDAB2904211D99E00AA5914687B
S1130D9062798A420CD12278022A09D02079FFF79D
S1130DA0B5FF434258412070A85904F059FD70BD65
S1130DB00133E7E7576E00005404002013B5040024
S1130DC00121114800F050FC0023012261792079AF
S1130DD001F04CF961792079FFF798FF43425841BB
S1130DE0A3792070022B0DD100F042F960790749F4
S1130DF000F058F90123617920790A0001930093E6
S1130E0001F0C8F8002016BD00820400790D00002E
S1130E1000787047037810B50400022B15D041798F
S1130E200079FFF773FFA279012A14D10300581E39
S1130E30834140206188404249000B4303430949F0
S1130E409BB28B4202D12270638010BD064A93424A
S1130E50FAD10022F7E7002AF7D143425841207023
S1130E60F3E7C046E0FF0000DFFF0000037810B5A1
S1130E70022B03D100234380FFF7A0FF10BD0378AA
S1130E8013B50400022B10D08379022B0BD100215F
S1130E90407900F007F90023617920790A00019371
S1130EA0009301F077F80223237013BDF0B504001A
S1130EB087B0002803D12C214C4800F029FA0121E5
S1130EC04B4800F0D1FB4B4B22689A4227D10121B9
S1130ED0494800F0C9FB01230A226179207901F015
S1130EE0C5F801230A22E179A07901F0BFF80927A6
S1130EF00126637925790193002D16D0012D39D06F
S1130F00022D3AD0032D3AD0042D3AD03F23052D9B
S1130F100CD0F9213948890000F0FAF90AE042219D
S1130F20324800F0F5F907B0F0BD354B019AD340D3
S1130F303342EED03300019A642093402422554377
S1130F40304AAD182B6002F065FE63792579019370
S1130F50002D19D0012D3ED0022D3FD0032D3FD0BE
S1130F60042D3FD03F23052D0FD02749234800F0FF
S1130F70CFF90EE0D323DB01D8E7244BD6E7F023E7
S1130F80D4E7F0239B01D1E71D4B019AD3403342B0
S1130F90EBD03300019A64209340242255431C4A29
S1130FA0013FAD182B6002F035FE002FA1D10323C1
S1130FB0227A2068120213438363022302AAFF33B6
S1130FC01380236911000493E3680393237D13734F
S1130FD001F038F9A7E7D323DB01D6E70B4BD4E7BD
S1130FE0F023D2E7F0239B01CFE7C0462568000039
S1130FF04081040000A0004000B20400F867000033
S11310000707000014600040130400001FEF0000F5
S11310101060004070B5040001F0C6FA054D0128C7
S113102002D1013D002D00D170BD200001F034F942
S1131030F5E7C046E193040070B504000125002CD7
S113104000D170BD220000202A4203D10130520891
S11310502028F9D12A0082409443044A81008A5806
S1131060002AECD0C0B29047E9E7C0461C05002036
S113107010B5062000F080FE002805D0C0214022D3
S1131080074B49005A501A60012000F075FE0028F1
S113109005D0C0210222024B49005A501A6010BDEB
S11310A000E100E070B504000D0000F05DFE034BAC
S11310B0A400E55000F05CFE70BDC0461C05002095
S11310C0054B10B55A6998691040044A10401862DB
S11310D0FFF7B2FF10BDC046FC600040555500004C
S11310E0054B10B55A6998691040044A10401862BB
S11310F0FFF7A2FF10BDC046FC600040AAAA000092
S1131100030070B50800161E0CD1194A194C5D6B0A
S1131110A34217D1062829D804F0F8FB07151F218C
S1131120282823001026144AF0E71449FE200B68EF
S1131130C00103407F20096801400B43B3402A40AB
S11311401343636370BD0D49FE200B6809681B0CD3
S1131150C00149020340490EEFE70949E6E708499F
S1131160F2E77F21074B1B680B40E7E70023E5E725
S11311708080FFFF00200040FFFF8080B481E00FEB
S1131180B881E00FBC81E00F1B4B70B505000C006B
S1131190984204D0D4211948890000F0B9F80223F8
S11311A06B6000222800A178FFF7AAFF23786278F9
S11311B01B0712051343E27812011343227912022A
S11311C01343A279002A02D0802252041343E27905
S11311D0002A01D0042213436279002A01D002229A
S11311E01343227A002A01D001221343A278120465
S11311F01343EB6070BDC046002000405C680000F3
S1131200FA2370B5DB010400984200D21C000C4B99
S11312109C4200D91C00002903D10A4800F04EFB6F
S11312200100651E6D182800210004F083FB0023D3
S1131230A5425B41C01A7F2800D97F20C0B270BD8F
S1131240405DC6004081040070B5224B05000C00CF
S11312500E79984204D0BD211F48490000F058F887
S1131260002E1FD131001D48FFF7CAFF06000A23D4
S11312706B606278237812011B061343A278E0782E
S11312801343FE220004D20310400343FE2036021F
S1131290C001627906403343002A01D00822134377
S11312A02B6070BD00210D48FFF7AAFFB04204D99E
S11312B086210948FF3100F02BF8FA200021C001F3
S11312C0FFF79EFFB042D2D2C3210348490000F089
S11312D01FF8CCE7002000405C680000405DC600B9
S11312E010B5002805D1074800F0E8FA002800D11D
S11312F00130054B0549C01804F01CFB0138C0B28D
S113130010BDC046408104003F420F0040420F0020
S1131310FEE7012383401800704700008023421E2B
S113132010B51B0204009A4203D305490548FFF790
S1131330EFFF200004F074FC1F23181A10BDC046F0
S1131340350C000088680000034B5A6DD20702D4A4
S11313501A6D0242FCD1704700800C40E0228021CB
S11313601A4BD2005B6910B5134089008B421FD021
S11313700BD8002B26D080225200934224D014484C
S11313801449FFF7C5FF002011E0C02189008B42FA
S113139003D09342F3D1104809E012200F4BDB6CC9
S11313A01B0E984280410E4B18400E4BC01810BDC6
S11313B012200A4BDB6C1B0E984280410A4B1840EA
S11313C00A4BF3E70A48F2E70A48F0E700800C40CA
S11313D0B4680000C2120000406F4001B081E00F09
S11313E0400D030040420F0080E5F9FFC0CF6A00C2
S11313F0809FD500C0D8A70009490A4B10B5002228
S11314004C68984205D9084B0132984201D90632FA
S1131410224007204B68834313434B6010BDC046F2
S113142000000C400024F4000048E80170B5064BAD
S1131430064CE56BE363FFF7ABFBFFF7DDFF002D25
S113144001D00023E36370BD711B000000000C4059
S113145070B5054C054BE56BE363FFF7CDFF002D3D
S113146001D00023E36370BD00000C40711B000039
S113147003000006000F013810B50C2833D804F01F
S113148045FA0732320D3232121D2932323215003A
S1131490164B1868C003400F013010BD134B9868F9
S11314A00F23184007E0114B5868F9E70F4B5868B1
S11314B0C005C00F0130FFF72CFFEEE70C4A934242
S11314C002D10A4B986EEBE70A490B48FFF720FF5D
S11314D00120E2E7094A934203D1044B186F032326
S11314E0DFE70749F1E70749EFE7C04600800C4012
S11314F08006120056180000B468000090071A0015
S11315006F1800007618000003000006000F013871
S113151010B50C000C2800D987E004F0F7F9078611
S1131520861D86863C516E8686863000013C072CDB
S113153003D93F493F48FFF7EBFEFFF777FF3E4AE9
S11315403E491368A4030B401C431460FFF78CFB53
S11315500021FFF77DFF11E080224B1E9200934291
S113156003D337493348FFF7D3FE2000FFF7D6FEF5
S11315700F21314A93688B430343936010BD0800E5
S1131580FFF7CCFE2C4A2F495368013800020B4068
S113159018435060F2E780224B1E9200934203D31B
S11315A029492448FFF7B4FEFFF740FF2000FFF766
S11315B0B5FE0F21204A53688B4303435360C5E7AC
S11315C0224A934214D180231B02994203D9204911
S11315D01848FFF79DFE0420FFF7B6FE2000FFF732
S11315E09DFE0F21144A936E8B4303439366C5E714
S11315F018491048FFF78CFEC0E7174A934212D1EE
S1131600082903D915490B48FFF782FE4020FFF74C
S11316109BFE2000FFF782FE0321074A136F8B43D2
S113162003431367AAE70E49E3E70E49E1E7C0461F
S1131630A3180000B468000000800C40FF3FFEFFC8
S1131640B6180000FFFEFFFFCC1800008006120051
S1131650EA1800002519000090071A002E1900004E
S11316604B1900005119000070B504000005000F6B
S113167001380E00092823D804F048F9052A272246
S11316802215181B221F0020134DE403E40E00282A
S113169001D0FFF759FE0122A240A6402B689343D4
S11316A01E432E6010E001200C4DEEE710200C4D7F
S11316B0EBE780200B4D4000E7E700200A4DE4E70C
S11316C00A490B48FFF724FE70BD0020094DDCE7F2
S11316D00020094DD9E7C04608800C4058800C40D2
S11316E060800C4064800C4078800C40D719000066
S11316F0B468000040800C4044800C400F23184024
S1131700013810B5062864D804F000F904213144E6
S113171063695100334B344ADB6A02201340802250
S1131720920193420BD00BD88022001812019342ED
S113173005D0802201305201934200D1023810BDFD
S113174080220520D2049342F9D10630F7E7032121
S1131750244A936A0B40013B022B02D8234AD05CF3
S1131760EDE7936A0120DB03E9D50B30E7E70C22B0
S11317701C4902208B6A1340082BE0D004309342AA
S1131780DDD00338042BDAD08B6A0238DB02D6D5DD
S11317901000D4E73022134B03209B6A1340102B14
S11317A0CDD0203B1800434258410130C7E7E02226
S11317B00C4BD202DB6A0320134080229202934234
S11317C0BDD080220730D2029342B8D0084A98187C
S11317D0E9E708480849FFF79BFD0020AFE7072029
S11317E0ADE7C04600800C40003C00040C690000DA
S11317F00000FFFFB4680000271F000070B5284DEB
S11318000400A84206D0274B984203D02649274813
S1131810FFF77EFD2000FFF771FF0600AC420ED0FB
S1131820204B9C4216D0214C21492000FFF770FD2B
S1131830032E2FD8300004F069F83115181B1D4B06
S1131840986A032318400138022818D804F05EF877
S11318500A0D1000174A906A0007800F04F056F82A
S11318600C020508FFF726FA70BDFFF729FAFBE71B
S1131870FFF7FAF94008F7E700209C42F4D10D4B3A
S1131880986A1023AC4200D00433D840ECD0FFF760
S113189014FAE9E720000849FFF73AFD0020E3E7DE
S11318A002001E00030020003A150000B468000086
S11318B06915000000800C4094150000F822030014
S11318C09021920370B51340040049038B4246D023
S11318D018D88022D202934236D00BD8002B63D082
S11318E080229202934237D031493248FFF710FDEB
S11318F0002033E0304A9B18304A1342F4D1FFF7FA
S11319002DFD2BE0802189038B422ED00BD8D022D1
S1131910520393422BD0F02252039342E4D128483D
S1131920FFF76CFF1AE0982189038B4226D093427B
S1131930DAD1FFF799F905002000FFF799FD0100BE
S1131940280003F0F7FF09E0FFF726F91D4B9B6819
S11319500F221340D84001E0FFF786F970BD184804
S1131960FFF74CFF174B9B6EF2E71748D8E7164872
S1131970FFF744FF134B03221B6FEAE71348FFF7FB
S1131980BDFE02380828B3D803F0B6FF0508B2B28A
S1131990B2B2B20E0B00FFF793F9DFE7FFF78AF953
S11319A0DCE70B4B1868D9E7FFF7F6F8D6E7C04633
S11319B0071B0000B46800000000F2FFFFFFFDFFFA
S11319C002001E0000800C400300200007332600A4
S11319D02404002070B5060004282AD8174B03F00D
S11319E095FF031D20232600DC6AE4B21120FFF7D3
S11319F085FE0500052801D1FFF718FD104A3602BF
S1131A00D368DB0ADB0233431C43D460052D14D1B5
S1131A10FFF72AF90021FFF71BFD0EE0DC6A240A18
S1131A20E3E7DC6A240CE0E7DC6A240EDEE71C6BE7
S1131A30DBE704490448FFF76BFC70BDB081E00F9D
S1131A4000800C4071230000B468000010B504004D
S1131A501120FFF753FE042803D10C490C48FFF76B
S1131A6057FC08230B490C4A0B620B681340E278BD
S1131A701343627852021343227892001343A278EC
S1131A80501E8241D20113430B6010BD0F2500008C
S1131A90B468000000800C4070F9FFFF70B50600C8
S1131AA01120FFF72BFE022803D10E490E48FFF741
S1131AB02FFC80230D4D9B002B6233787178B47812
S1131AC09B078904DB0FE4020C435B031C4300F017
S1131AD043F92B68064A5C4014405C402C6000F0DB
S1131AE03FF970BDCD250000B468000000800C40B3
S1131AF000380C00014B18807047C04620040020B9
S1131B0010B5052807D80D4B4400002908D10C4A0C
S1131B10125B1A6203E00B490B48FFF7F9FB10BD97
S1131B200A49095C0A48005B1862002AF7D00123BD
S1131B308B4008490A681A42FCD0F0E700800C4048
S1131B402269000074260000B46800000F690000D8
S1131B50166900002C800C4070B50F250540681EE6
S1131B600C00062800D9BCE003F0D0FE0430306B32
S1131B70BBBB8900881E0A2821D803F0C7FE2206B1
S1131B8025162020202020181B00012003250122D7
S1131B901100FFF7B5FFFFF749FC534B5D62FFF7F8
S1131BA063F80021FFF754FC70BD0320EFE7052024
S1131BB00500ECE74D494E48FFF7AAFBF4E74D4911
S1131BC0F9E700200425E2E70220F1E7481E0B288C
S1131BD02CD803F09BFE2D131B2B2B232B2B2B2BF1
S1131BE02B06012200234049886A022D23D1424C4E
S1131BF012042040034313438B62D5E701220020E3
S1131C001100FFF77DFF00220223ECE701221100FF
S1131C101000FFF775FF00220123E4E70421374A8F
S1131C2013680B43136000220323DCE73449C2E743
S1131C3000221300D7E712059B001343314A0240E8
S1131C40D9E7022905D0032910D0012915D1002490
S1131C5004E0012200201100FFF752FF3021224A44
S1131C602401936A8B431C4394629DE70122110073
S1131C701000FFF745FF0124F0E723499BE7032900
S1131C8011D00A291DD0022929D1012200201100D6
S1131C90FFF736FF4022144B5A6280225202D96A5F
S1131CA01142FCD080E7012211001000FFF728FF49
S1131CB060220D4B5A6280229202D96A1142FCD0F2
S1131CC072E7012205201100FFF71AFF8022064B5C
S1131CD05A628022D202D96A1142FCD064E70B49CD
S1131CE069E70B4967E7C04600800C40E81F000025
S1131CF0B4680000ED1F0000FCFFFEFF40800C40B4
S1131D0096200000F3FFEFFFC72000003021000001
S1131D102622000070B504000D00002803D00A49F3
S1131D200A48FFF7F5FA640001341F2C03D9912106
S1131D300748FFF7EDFA0123A340A540054A1168BF
S1131D4099432943116070BD1F280000B468000046
S1131D50E068000078800C40EFF3108072B67047A2
S1131D60002800D162B67047EFF3108072B6704756
S1131D7010B5FFF7F5FF10BD70B5C5B20400142D02
S1131D8003D907490748FFF7C3FA1F2364091D4015
S1131D90054BA400E3580120EB40984370BDC046B6
S1131DA01F0300002E69000000E100E0F8B50123E4
S1131DB0562280210F4C104FE56FFF321D400F4B10
S1131DC0C900E3673B680E4E1A40DB0A0B4013431D
S1131DD033620C4B1978052902D01120FFF7BCFEA1
S1131DE03B68DB0701D402233362002D01D00023BA
S1131DF0E367F8BD08800C409C0500200E580000E5
S1131E0000800C40A0050020054B10B5DA6A054B94
S1131E1011201A60FFF772FC034B187010BDC04606
S1131E2000800C409C050020A005002070477047EE
S1131E3070477047F8B5041E01D0FFF7E5FF04238F
S1131E40114A124F11690B4313613D68104B1D4039
S1131E50104BDD67FFF7EAFFFFF7E9FFFFF77CFFB1
S1131E60060004F0ADFC3000FFF77AFFFFF7E1FF56
S1131E70FFF7DEFF3D60002C02D0FFF797FFF8BDAF
S1131E80FEF7F2FEFBE7C04600ED00E000E100E0F3
S1131E9094A3F7FF04E100E070B505000E00140000
S1131EA01F2903D991210548FFF732FA0123B340D2
S1131EB0B4402A689A4322432A6070BDE068000057
S1131EC070B504000D0000280FD0012819D0022895
S1131ED01AD003281AD004281AD03F23052805D085
S1131EE00D490E48FFF714FA03E00D4BEB40DB07F6
S1131EF0F6D501232420AB4044430A4AA4182361A5
S1131F0070BDD323DB01F1E7074BEFE7F023EDE7E7
S1131F10F0239B01EAE7C04613040000F8670000C1
S1131F2007070000006000401FEF000070B50400C8
S1131F300D00002810D001281AD002281BD0032835
S1131F401BD004281BD03F23052806D0F9210D48B7
S1131F508900FFF7DDF903E00B4BEB40DB07F5D518
S1131F6001232420AB404443084AA418636170BD94
S1131F70D323DB01F1E7064BEFE7F023EDE7F02392
S1131F809B01EAE7F86700000707000000600040D3
S1131F901FEF0000F7B5009308AB1F7809AB1B785F
S1131FA004001500019300280FD0012836D0022820
S1131FB037D0032837D0042837D03F23052805D04D
S1131FC0BF212148FFF7A4F903E0204BCB40DB07F6
S1131FD0F6D5072D2CD8AE00B440FFF7BDFE210086
S1131FE00724B4401A4B1A6851400C4054401C60FA
S1131FF0FFF7B6FE2900009A1648FFF74DFF3A0096
S113200029001548FFF748FF0123AB40134A290074
S113201013621348019AFFF73FFFF7BDD323DB0197
S1132020D4E7104BD2E7F023D0E7F0239B01CDE7B0
S11320302E00083EB600FFF78FFEB44007210A4B7E
S1132040B1401A685440D0E75B69000007070000FC
S113205000610040086100400C610040FC600040E9
S1132060106100401FEF000004610040F8B5040057
S11320700D0016001F00002810D0012832D00228BD
S113208033D0032833D0042833D03F23052806D087
S11320901E212248FF31FFF73BF903E0204BEB40C0
S11320A0DB07F5D5002E05D029002000002F23D012
S11320B0FFF706FF242363431A4A9B18072D1ED8F3
S11320C00F21A80081405A688A43310081400A43A5
S11320D05A60002E05D129002000002F1BD0FFF7E5
S11320E0EFFEF8BDD323DB01D9E70F4BD7E7F0238D
S11320F0D5E7F0239B01D2E7FFF718FFDAE72900C1
S11321000F200839890088409A688243300088404B
S113211002439A60DDE7FFF709FFE2E75B6900002D
S113212007070000006000401FEF0000F8B50F0033
S1132130060014001D001021002A2FD003232F4A6B
S11321401D40036813400360FFF706FEC021326898
S11321502B02534089000B4053403360FFF700FECD
S1132160002F06D1264B9E421DD12648FFF7A6FB21
S1132170070033689B071CD5032D04D0224BAA000B
S1132180D3589F4204D8AF2120484900FFF7C0F834
S11321901F4B595D6143002910D170211B48FF3149
S11321A0FFF7B6F8F8BD2A211848FF31FFF7B0F859
S11321B0DFE7032DE7D0174BAA00E1E7A000C043F7
S11321C04018C01903F0B6FB441E0AD576210F4807
S11321D0FF31FFF79DF8BB210C484900FFF798F841
S11321E003E080239B009C42F5D233689B0702D511
S11321F0002C00D101343461D4E7C046FFFCFFFF5A
S113220000A0004000B20400C0690000886900001A
S1132210CC690000B4690000084B70B504000D00DF
S1132220984204D090210648FF31FFF771F801234A
S1132230216899432943216070BDC04600A0004035
S113224088690000114B70B504000D00984204D059
S1132250D2210F484900FFF75BF8002363630D4B5D
S1132260200023630123697822684B4002215B002C
S11322708A43134323602B7BAA686968FFF756FFE0
S113228029782000FFF7C8FF70BDC04600A00040B9
S113229088690000FFFF0100F0B5AF4A85B08242B3
S11322A000D16DE1FC21AD48FF31FFF731F8042086
S11322B0404205B0F0BD790500D40CE1FE2109E1EE
S11322C00298082800D94BE103F02AFB09002700F3
S11322D062007800A000B700EB0011013701002E66
S11322E001D000201870002D01D05C801971019973
S11322F048880988C4060AD50620090A0140EA303C
S1132300014301201870516250600120D1E7FE247E
S113231021408007F5D50120F2E7802007420AD04A
S1132320002D01D05C801971802111637939FF3946
S1132330198002232AE04020074207D10122002EFF
S11323402FD1002DE1D05C801971DEE71063019874
S11323504088C60609D5002D01D05C801971022180
S11323601970019B1B785362CFE7800700D4FEE00D
S1132370002D01D05C801971072119701B79019916
S1132380DB00CB181B89012BBFD107335360BCE79B
S113239080200742C4D14020074204D10222002EEB
S11323A0CFD01A70CDE71063019801264788052025
S11323B00290B80700D47FE003207CE0002E01D017
S11323C003201870002D01D05C8019710199488890
S11323D00988C40617D50624090A2140EA34214392
S11323E040070AD5012001431879019CC000201838
S11323F00089012801D1073050600420187001239E
S11324005360516281E7FE242140E9E780200742BE
S113241086D14020074203D10422002E91D0C0E788
S1132420106301984088400700D4A0E0002D01D03B
S11324305C80197107221A7067E7019FC800BC46C7
S1132440844467463F890390A74219D8019C01310F
S1132450658804242F0027403800C9B2254200D0E3
S113246088E00127033C2C403D4204D05880197178
S1132470082119705DE7012900D87FE05C80F6E748
S1132480002E01D005201870002D00D0197101997B
S113249003980F187968601C095D58805162062200
S11324A0C9E78020074200D03AE74020074271D0B4
S11324B0012610633B380290C020976AC00007428F
S11324C000D1FDE6002D01D05C801971B90500D45E
S11324D0F1E6FD215970092119700021516301228F
S11324E09A56012A00D1597001201856E1E6002EAF
S11324F001D007201870002D01D05C801971B90635
S113250000D402E719790198C900411808895C8848
S1132510D569A04203D94968661C5E800D55598867
S11325208842A5D904235360012800D8EDE6013878
S1132530814200D0E9E6DB1828E7002E01D008200C
S11325401870002D01D05C801971802149000F4260
S113255000D1DAE61163BEE700A0004088690000FC
S1132560002D01D05C8019710D491980B5E7012651
S11325700520A0E7012500242E001DE701259BE787
S11325800025084B2E009968187801915C88197908
S1132590029091E7002E00D1D3E6062201E7C0465F
S11325A009FBFFFFA405002070B5204C06000D00B8
S11325B0A0420BD0D7211E488900FEF7A9FE002DAA
S11325C006D00420404270BDE36920E0002905D113
S11325D018491748FEF79CFEA642F2D1A368DB0710
S11325E001D5202363606B889A0702D52A89002AC3
S11325F0E7D05B0702D52B8A002BE2D08022002192
S11326000D4B52001A6019719D60C0236360E3682A
S11326101342D9D1094B05482363FC23626BDB00C9
S113262013436363FFF738FECDE7C04600A00040C4
S1132630886900005D030000A4050020FFFF01007D
S11326400122802070B5124B124C4003E363A3684F
S1132650114E9343A360FFF731F9104B256D984257
S113266009D90B230E49584303F064F92E40013075
S11326700643266570BD37230949584303F05AF9C8
S113268080230130354028435B0218432065F1E77D
S1132690711B000000000C40C0FFFEFF804F1200C1
S11326A0809698000121034B9A688A439A6000221D
S11326B0DA63704700000C40012110B5094A0A4B47
S11326C0DC690C4205D0002A01D1032008E0013A5C
S11326D0F6E7002AF9D01861D960D8698008084063
S11326E0404210BD8096980000000C40F8B50500EB
S11326F00C1E24D0144A154B12689A4203D814496C
S11327001448FEF705FE002301260227124A990009
S11327106958013391610821D1601049D069304270
S113272006D0002902D10320404209E00139F5E72F
S11327300029F8D0D169394203D19C42E7D1002065
S1132740F8BD0220F0E7C046140400203F420F0009
S1132750ED030000D069000000000C408096980052
S1132760F0B5274D85B0EB6B03909BB20293254BDC
S11327700191EB63039B16009B0703D02249234876
S1132780FEF7C6FDB30703D021492048FEF7C0FD7C
S113279001230027AA68B6081343AB60BE420FD1D9
S11327A01A481C49FEF7B4FD30000122AB6893437C
S11327B0AB60029B002B01D00023EB6305B0F0BD9E
S11327C0039BBC001C192000FFF776FF0028ECD106
S11327D08022A3059B0DD200D31A9B08F41B9C42B4
S11327E000D91C0021000198FFF780FF0028DCD1EC
S11327F0019B3F19A4001B190193BE42E0D8D4E702
S113280000000C40711B00003A040000D069000075
S11328103D0400004A04000070B5254C254BE56BCF
S11328200600E363ADB2830504D096212248C900B3
S1132830FEF76EFD0122A3681343A3602661E260E4
S1132840E3695B0709D5A3689343A360002D01D016
S11328500023E3630120404229E00223E360174B95
S1132860E169114201D0002B0FD1E6690221300049
S1132870012208400E420AD0A3689343A360002DAE
S113288001D00023E3630220E5E7013BE8E7002BE6
S113289007D1A1689143A160002D00D0E363032018
S11328A0D9E7A3689343A360002D00D0E06370BD13
S11328B000000C40711B0000D06900008096980055
S11328C010B5FFF74DFF10BDC36ADB0702D4036BDD
S11328D01942FCD170470000094B70B504000D008B
S11328E0984203D0A4210748FEF712FD0323216870
S11328F0200099430D430121FFF7E6FF256070BDD9
S113290000600840FC690000F7B52B4B040015007B
S11329100091984240D0832149002848FEF7F8FCF2
S11329202668032733003B4001933E4206D0012131
S11329302000FFF7C9FF3300BB43236002270421B3
S11329402000FFF7C1FF009B062163612000FFF711
S1132950BBFF390020006760FFF7B6FF0123636007
S1132960009BAB4209D039002000FFF7ADFF0621E0
S113297020006561FFF7A8FF676003253100200090
S11329802940FFF7A9FF019B002B04D02900200058
S1132990FFF79AFF2660F7BD8026009B7602B342BC
S11329A004D3852105484900FEF7B2FCB542B7D3EC
S11329B00C21FF31B1E7C04600600840FC6900000B
S11329C0104B70B505000E001400984204D0742119
S11329D00D48FF31FEF79CFC002E07D0012E0CD0D1
S11329E0CD2109484900FEF793FC05E01022EB6B6A
S11329F0240193431C43EC6370BDEB6B034AA402B4
S1132A001340F7E700600840FC690000FFFBFFFF8C
S1132A104C4BF7B504000D00984200D181E04A49BF
S1132A204A48FEF775FC4A4BE97CE7182B7DE26BBC
S1132A309B010B434749BF0A0A401343E3632B7BC3
S1132A405A1E93416A7BDB00002A01D004221343FF
S1132A50AA7B002A01D010221343EA7B002A02D069
S1132A608022520013432A7C002A02D08022920042
S1132A7013436A7C92021A43AB7C0192022B2AD83C
S1132A801E1E00D10336019BB60333432026019357
S1132A9023680021B343334323603800FFF73AF936
S1132AA02B789A1E012A1ED8019A01211A4320006C
S1132AB00192FFF709FF012120002660FFF704FFC0
S1132AC001213800FFF726F9AB68636102236360D4
S1132AD0019B2360F7BD0026032BD4D01E491B485D
S1132AE0FEF716FCCFE723689B0706D0019B012164
S1132AF01E4320002660FFF7E7FE20222368200003
S1132B0093432360AA686968FFF7FEFE2B78002BC5
S1132B10E0D001212000FFF7D7FE2B78019A134360
S1132B20D7E780264B687602B34203D30B490748A4
S1132B30FEF7EEFBAB68B34200D274E78321890051
S1132B406EE7C0460060084007020000FC69000010
S1132B5000A0F7BF38FEFFFF690200000B0200006F
S1132B60F8B505000E0014001F00052804D99B21A8
S1132B7008484900FEF7CCFB0722FC213F0614401D
S1132B8089033C430E40044B04353443AD00EC5000
S1132B90F8BDC046296A000000C00C4070B50D4D58
S1132BA00D4E1540041D00290CD1052804D9F2212D
S1132BB00A48FF31FEF7ACFB802252051543A400FE
S1132BC0355170BD0528FAD9F8210448FF31FEF7C4
S1132BD09FFBF4E707003F0000C00C40296A000097
S1132BE010B50A430021FFF7D9FF10BD70B50400EA
S1132BF00D00012803D9A4210848FEF789FB2B0EF8
S1132C0003D0A9210548FEF783FB002C04D0012C36
S1132C1001D1034B1D6070BD024BFBE7556A0000F8
S1132C200C0008400800084042780378002A01D0CC
S1132C30022213438278002A01D004221343014A5A
S1132C401360704700000840F0B52E4B05000C00DF
S1132C5087B0984209D02C4B984206D02B4B98420F
S1132C6003D09A212A48FEF753FB23789C46002B75
S1132C7001D102336B6000236B62E278A378120403
S1132C800092A2791B0692020192E2791202029248
S1132C90227A03926278511E8A4192010492627AE6
S1132CA0511E8A41D2010592A77AE67A7A1E97418B
S1132CB0207B2179721E9641421E90414A1E914109
S1132CC062797F01541EA241009C36012343039C78
S1132CD0C0002343019C49032343029C120723435E
S1132CE0049C2343059C23431F4363463E433043D4
S1132CF001430A432A60002B01D001236B6007B013
S1132D00F0BDC0460000014000040140000801403D
S1132D10816A0000F8B5234B06000D0014009842A8
S1132D2009D0214B984206D0204B984203D0EA2187
S1132D301F48FEF7EDFA022D03D9EB211C48FEF7DC
S1132D40E7FA237862789B0612061343A279E7799F
S1132D501343A278207A12041343E278617A1203AF
S1132D601343227903359202134362792D0112022F
S1132D7013439C467A1E9741421E90414A1E91413C
S1132D80A27AE47A531E9A41634624077F052343BB
S1132D903B4300050901034392000B431343AB512A
S1132DA0F8BDC04600000140000401400008014095
S1132DB0816A000070B505000C00161E04D1A22122
S1132DC00B488900FEF7A4FA002C03D10948FEF74A
S1132DD075FD0400601E710002F0ACFD064B040298
S1132DE01C4203D005490248FEF792FA6C6170BD9B
S1132DF0AF6A0000408104000700E0FFA502000064
S1132E0070B5134D0400A84206D0124B984203D06B
S1132E1011491248FEF77CFA114B124AE360002371
S1132E2023606260104AA3606361E364A264636523
S1132E30AC4202D0074A944200D123650023A36523
S1132E40AC4202D0034A944200D1E36570BDC0464F
S1132E5000C0004000C400402E040000AF6A00001F
S1132E60AA0E000005100000F91F0000214B70B5E8
S1132E7004000D00984207D01F4B984204D0D6217D
S1132E801E488900FEF744FA2000FFF7B9FF01212C
S1132E902A8A23681143AA7B0B43501E8241920263
S1132EA0134323602B7D2268591E8B415B07134318
S1132EB02360AB7C002B03D01023EA7C1343A3656F
S1132EC080232A7B5B01134363602000AA6869683E
S1132ED0FFF770FF6B7B002B01D01023E3606B7D49
S1132EE0002B04D0802322685B02134323602B78D9
S1132EF0E36070BD00C0004000C40040AF6A000041
S1132F00402302691A42FCD0416370471F234211D7
S1132F1018401E3B834003499200505803435350CA
S1132F207047C046BC050020044A03001268012013
S1132F30002A02D00020024A1A607047CC0D0020FB
S1132F40B0050020F0B505000C4804680120002CF1
S1132F5013D00B4CAE1827880330BE420DDC6788B3
S1132F60CE18BE4209DC0130002A06D0002B04D062
S1132F700020A580E18022816381F0BDCC0D00207A
S1132F80B0050020F0B585B003933F4B01261B68C4
S1132F90002B0AD03D4A0B9ED38852899A1892B2CC
S1132FA05B1802929FB2002E02D1300005B0F0BD32
S1132FB0029ABBB29A4265D9344B1D892D1AB54287
S1132FC000D935009B883C01C018314B761BE418AE
S1132FD0039B80B25A1E93415B42DBB20093072DE0
S1132FE022D84519002B17D1A84217D20723012153
S1132FF003409940C208A35C01308B43A35480B2C0
S1133000F2E707230121034099400B00C208A15CA9
S113301001300B43A35480B2A842F2D33800FFF727
S113302075FF01370020BEE7C3080722E418072311
S1133030024018420DD0063B93402078DBB2591E63
S1133040014000985B4203400B43083A2370AD18DB
S11330500134EB08019309D01A002000009902F012
S11330606AFF07231D40D9D0019BE4180123AB401C
S11330702178DBB25A420A400099013B0B401343CA
S11330802370CBE7042690E7CC0D0020B005002088
S1133090CC05002037B50024114D2B68A34204D180
S11330A0FDF792F9041E02D0012420003EBDFDF775
S11330B07FF928600028F7D001880A4B19804288DC
S11330C09C805A805A814A43DC80198120000192F5
S11330D02300220021000094FFF754FFE5E7C046D7
S11330E0CC0D0020B0050020F8B5002301251A00FE
S11330F01A4E34681A49D718086841888F4208D391
S1133100002B23D110220021300002F014FF0020F4
S113311017E001210C4209D05B181F20D118640864
S11331200142E7D1A90074580135E3E7002B0BD025
S113313011018C460B496144FDF7E4F8031E01D0EC
S11331400720F8BD7A1CE8E70132E6E7054C1101D7
S11331500919FDF7D7F80028D4D0F1E7BC05002001
S1133160CC0D0020CC050020030010B50520002B59
S113317006D000211A68080053881288FFF7E2FE7F
S113318010BD73B504000520002C13D02000656821
S1133190FFF7EAFF00280DD124682B0A26896189EC
S11331A02A0C7143EDB20191DBB20100D2B2009559
S11331B0FFF7E8FE76BD020010B50520002A0DD009
S11331C0D36898B2136999B2936952690133013291
S11331D05B1A121A9BB292B2FFF7B4FE10BDF8B597
S11331E004000520002C1DD000291BD00F688D6819
S11331F00138AF4216DA4E68CB689E4212DA0138C3
S1133200002F0FDB002E0DDB226811888D4209DAB6
S11332105288934206DA2000E76026616561A36163
S1133220FFF7C9FFF8BD000030B50500052487B0DD
S113323000281CD0002343600E4B836001A8FFF7D5
S113324073FE041E13D1019B02901A880390013A65
S11332502B6004925B882800013B02A90593FFF7C9
S1133260BEFF041E03D12800034900F02AF9200000
S113327007B030BDFFFFFF00E06A0000F7B50700AC
S11332800D0016000524002812D00C3000F02DF893
S1133290043C00280CD0BF68B1B23B0A3A0CFFB220
S11332A00194DBB2D2B2A8B20097FFF76BFE040020
S11332B02000FEBDF7B50E0017001C0005250028F0
S11332C011D00C3000F011F8043D00280BD0230A73
S11332D0220CE4B20195DBB2D2B2B9B2B0B200941E
S11332E0FFF750FE05002800FEBD030010B50028BE
S11332F00FD01C6800208C420BDC9C688C4208DBDD
S11333005968914205DCDB68D10FD81793424841D4
S1133310C0B210BDF0B589B006930EAB1B780400A3
S1133320059205200793002C24D00B00203B033882
S11333305E2B1FD82200283212788BB282421BD116
S11333400A263A2903D00136303B202915D1238C93
S11333500220B3420ED9E369069F0493002301932C
S1133360069BA21DFB1AD27F9BB29A4207D80198F2
S11333704342584109B0F0BD203B9EB2E7E7E31C4D
S1133380DB7F012B05D0022B1CD0049AB3009B5881
S113339001E0049B9B5D0293002303936B469D898C
S11333A0631DDB7FAB4211D82200631D0832DB7F33
S11333B0D27F9B189D422DDB231DDB7F0137F6183E
S11333C0B6B2CDE7049A73009B5AE4E70122029B4C
S11333D0134213D0039A059B200099183A00FFF773
S11333E04DFF0128C6D843425841019B1B18019345
S11333F0029B5B080293039B0133CEE7079B002BE0
S1133400F6D0059B039A200099183A006368FFF7E9
S113341051FFE6E7079B002B0DD0059B3A00591995
S113342020006368FFF746FF0128A3D843425841B0
S1133430019B1B1801930135ADB2B5E7F0B587B018
S113344003930CAB40CB05001B780C0005200593BF
S1133450002D12D0002910D02B0028331B780338FC
S1133460002B0AD08B1804930023039F0293049B20
S11334709C4204D102984342584107B0F0BD2178E0
S11334800A2908D1AB1DDB7F039F9E19EB1DDB7F4F
S11334909E190134EBE7059B3A00009328003300A2
S11334A0FFF738FF0128E8D8434258412A00029B1D
S11334B008321B1802936B1DDB7FD27F9B18FF1809
S11334C0E7E7030010B50520002B07D01C331800D4
S11334D01022002903D102F02EFD052010BD02F0B8
S11334E021FD0020FAE700207047000007B5042200
S11334F0054901A802F016FD0448FDF7C5FB01A823
S1133500FEF7A4FA00200EBD106E000000366E0116
S113351013B50323002401A8437004708470FEF7DC
S1133520BDFA6420FEF7E6FA200016BD0F2305223B
S1133530F0B59C46FF26402752420320330010403A
S1133540C00083403C00DB438440D1B210060ED45B
S1133550C0250D48910889000918AD004859034059
S11335601C434C510132152AE7D10020F0BD6046BE
S1133570014008390548890889000918C8690340C9
S11335801C43CC61EEE7C04600E100E000ED00E042
S113359030B500250F4C41612368AB4209D120604E
S11335A0836014E0891A9A681D004161002A06D0DC
S11335B013005A698A42F5D9002D09D01A00130064
S11335C0A8608360002B02D05A69511A596130BD3A
S11335D02060F6E7E80D002010B500F05FFA0B4B11
S11335E00B4C19682368C31A002901D0002B01D1A0
S11335F0206010BD4A699A4204D3D21A00234A615A
S11336008968F1E79B1A0022F9E7C046E80D00201B
S1133610D40D002070B50F4B0F4D1C682B68022091
S11336205B69E41800F04AFA200000F075FA002300
S113363002200A492A680B70D488044202D001236C
S11336400B7070BD9268002AFBD054691B19012BC2
S1133650F2D9F6E7D40D0020E80D0020DC0D00209F
S113366070B50400160004AA0D0002CA2661216088
S11336700021107806AA12882071A160E360E2801C
S113368000F00CFA8019A061002D09D1E36865618E
S1133690002B02D0200021689847002E12D035005C
S11336A0FEF762FB0600FFF797FF29002000FFF7F3
S11336B06FFF054B1B68A34201D1FFF7ABFF30003E
S11336C0FEF756FB002070BDE80D0020030000212A
S11336D010B50E4C2268002A11D09A420CD19A6877
S11336E0002910D08A609A68101E0BD05B6951695A
S11336F00020CB18536105E011009268EBE702202B
S1133700002BECD010BD2260EDE7C046E80D002090
S113371070B5FEF729FB144E05003478002C1ED139
S1133720124B1C60124B1C60124B1C8000F086F97B
S1133730012000F0C3F900F01DFA0F4B021E1860BF
S113374004D12800FEF714FB232070BD23000B488E
S11337500B4902F083FA0B4B1860012333702800E5
S1133760FEF706FB0020F0E7D00D0020E80D002056
S1133770D40D0020DE0D0020E40D002018FCFFFF16
S1133780E7030000D80D0020F7B505002224002827
S11337900FD0FEF7E9FA0600FFF71EFF0D4F2800D1
S11337A03B680193FFF792FF041E04D03000FEF73C
S11337B0DFFA2000FEBD019A3B68AA4204D1002B27
S11337C004D0FFF727FFF1E7002BEFD1022000F030
S11337D08FF9EBE7E80D0020F0B587B004930CAB4C
S11337E01B78040005930DAB0D00160022201F88E2
S11337F0002C0DD02000FFF7C7FF059B2A00019382
S1133800049B29000093200033000297FFF728FF50
S113381007B0F0BD70B505000C002220002D10D0BB
S113382000290ED000230B70FEF79EFA0121084BED
S11338301B68002B02D02278002A03D0FEF798FAE6
S1133840002070BDAB4201D12170F2E79B68F0E724
S1133850E80D0020F0B589B004930EAB1B78160078
S113386005930FAB1F88002302AA04000D00222039
S1133870D3759C4215D017339B1819002000FFF70D
S1133880C9FF02ABDB7D0220002B0AD1059B2A0075
S11338900193049B29000093200033000297FFF753
S11338A0DFFE09B0F0BD0000014B18687047C04648
S11338B0E40D00200B4B02001B6810B521200C0006
S11338C093420DD3084B18680023190002F0E6F95F
S11338D0FA220023920002F0C1F901302060002096
S11338E010BDC046D80D0020E40D0020F0B5040042
S11338F087B0C3070CD54C4A138801339BB213809D
S1133900FFF76AFE494B1B68002B01D0FFF782FECC
S1133910A3071CD5FEF728FA002706003D00FFF791
S11339205BFE424B1C68002C02D06369002B10D054
S113393000223F4B1A70012D02D1022F00D11D70BD
S1133940002C5DD0FFF766FE3000FEF711FA07B0D9
S1133950F0BD230021791A79914200D91C009B689B
S1133960002B02D05A69002AF4D03000FEF700FA86
S11339702669002E48D000230096019300F08EF8AB
S1133980A3690199C61AF2178A4241D1009A964254
S11339903ED92269D318A36101232269002A21D0C8
S11339A0002B1FD1F31704960593049A059B009EE0
S11339B0019FB61A9F4102960397039B002B03DADB
S11339C01C491D48FDF7A4FCFEF7CEF90700029937
S11339D02000FFF7DDFDA369226938009B18A3616D
S11339E0FEF7C6F9E368E7880135002B02D0200012
S11339F021689847FEF7B8F90600FFF7EDFD90E758
S1133A00022000F075F89FE7002200230092019342
S1133A10FEF7AAF907002000FFF758FE3800FEF76A
S1133A20A7F90023B9E7C046DE0D0020E80D002009
S1133A30E00D002002040000146E000013B5134CC6
S1133A400322134901A802F06DFA20000121FDF7B9
S1133A505BFD01212000FDF707FE00246B466A464A
S1133A609C71012301A81371FFF7DEF80721094BAC
S1133A70DA698A43DA61802299615C607A31064BA3
S1133A805201FF315A501A6013BDC046800612001D
S1133A90546E00000000084000E100E0054A064BB7
S1133AA051681B781069C00701D5516801331806A5
S1133AB00843704700000840F00D002001220A4925
S1133AC00240830704D41300CA691343CB617047CF
S1133AD0064B1878002803D0042088610020187051
S1133AE004231343F0E7C0460000084028040020E4
S1133AF0012201001140830705D40B000449CA695F
S1133B009A43CA61704704230B4302490A70F5E7DC
S1133B10000008402804002010B50400FFF7BEFF91
S1133B20124B1A69124B520706D41A68121A032A46
S1133B3002D81A68824214D1221A022A00D8C41C5C
S1133B40013C1C601A68101A80225204904209D267
S1133B50196801200902090AFFF748F80220FFF753
S1133B60ADFF10BD0220FFF7C3FFFAE700000840D5
S1133B70EC0D002010B50248FDF7A0FE10BDC046B4
S1133B8080061200F8B5FEF7EFF806000120184F82
S1133B9000243D6905421AD08022164B52041C7839
S1133BA02406A418624254411A78E4B21218D2B21C
S1133BB01A70114A11681B781B06C91A80235B040A
S1133BC0994204D2FFF712F80220FFF777FF6B0740
S1133BD001D502231C4305231D40BD61002C02D0E6
S1133BE02000FFF783FE3000FEF7C2F8F8BDC046A0
S1133BF000000840F00D0020EC0D002010B500F08E
S1133C0047F800F071F800F077F800F079F800F068
S1133C1078F810BD10B50400FDF726F8FA218900E4
S1133C204C4301F087FE0100064801F083FE0100C9
S1133C30200001F07FFE032802D9800800F008F874
S1133C4010BDC04640420F0000000000000000000C
S1133C50013800D0FCE770477047000010B504211C
S1133C601120FDF779FF01210648FDF7FDFC022133
S1133C700548FDF771FF05480221FDF76DFF00209F
S1133C8010BDC046D0233E0002001E0003002000E9
S1133C9001220F4B10B51A640E4BDB6C1B0E812BEB
S1133CA007D80D4B0D4A0E491A600E4A13680B4093
S1133CB01360FFF73BFCFCF767FAFFF717FCFFF70D
S1133CC027FCFFF7CBFFFFF70EFCFCF751FA10BD02
S1133CD000000C40B081E00F18600C4005000004A7
S1133CE0FFFFFFFEE4800C4010B5FDF7C1F900F0C2
S1133CF009F800F015F810BD10B5FFF709FD10BD67
S1133D007047704710B501210348FDF7ADFC034827
S1133D10FDF7CCF810BDC046008204002C0400203E
S1133D2010B50348FCF7D2FF0248FCF7CFFF10BDE3
S1133D30586E0000706E000037B5002501242A007B
S1133D4029002300019502200094FEF723F9019530
S1133D5000952300220021000220FEF71BF937BD45
S1133D6037B500250124094B2A001D7029002300C2
S1133D70019502200094FEF70DF90095230022001E
S1133D80210002200194FEF705F937BDF10D002052
S1133D9013B500220124094B11001C7002202300DA
S1133DA001940094FEF7F6F823002200210002207B
S1133DB001940094FEF7EEF813BDC046F10D002007
S1133DC070B5064D62212800FCF701FD6421040052
S1133DD02800FCF7FCFC204370BDC04600A0004056
S1133DE070B5074D002228006221FCF7D9FC00229F
S1133DF0040064212800FCF7D3FC204370BDC046B6
S1133E0000A00040F0B5C34B91B01A78002A01D14C
S1133E1001321A70C04C2378002B03D000F00CFB45
S1133E200023237000230E240FAD1A006221BB4827
S1133E300095FCF7BEFB0CABE418002306001A0047
S1133E406421B6480094FCF7B4FB0643069600D000
S1133E505BE10023E95E3000FCF791FC0023E15EA6
S1133E600C900698FCF78BFC0023EF5E0D90380055
S1133E700023E65E02F018F80400300002F014F8A3
S1133E80FA239B00844245DA7B433100180001F099
S1133E90DBFD12230390002E00DD2423012507936C
S1133EA00A3B0293029B6D4205930493049B079A79
S1133EB093423ADB002D22DA380001F0F5FF0400CA
S1133EC0300001F0F1FFFA239B00844200DA9BE00A
S1133ED07B433100180001F0B7FD0290002E00DD95
S1133EE09FE012230827059304970397039B059AE1
S1133EF0934200DA9DE0002D01DA0A256D4206980E
S1133F000D9A431E98410C992B00C0B200F092FC0C
S1133F1011B0F0BD73433900180001F095FD092379
S1133F200390002FBADD1B23B8E7049B013313D1A0
S1133F302321002000F0DEFA23210890012000F064
S1133F40D9FA0990049B00205C1CE4B2210000F023
S1133F50D1FA21000A9012E00599002000F0CAFA73
S1133F6005990890012000F0C5FA049B0990232BC1
S1133F70E8D10021080000F0BDFA00210A900120D8
S1133F8000F0B8FA029B0B901A2B01D0082B22D117
S1133F90FA2308989B005843099901F055FDFA2328
S1133FA004000A989B0058430B9901F04DFD039BB4
S1133FB00100A3421DDB834201DDA3421CD1039B0C
S1133FC00A25181B0A23091B584301F03DFD059BD4
S1133FD05D43451910E0FA2309989B00584308995A
S1133FE001F032FDFA2304000B989B0058430A9910
S1133FF0DBE7039B8342E2DA049B01335BB2049365
S1134000059B0133059351E773433900180001F010
S11340101BFD0290002F08DC0923012705937F4232
S113402062E724231A2705935EE71B2311270593D0
S11340305AE7039B013313D12321002000F05AFADD
S113404023210790012000F055FA0600039B00206D
S11340505C1CE4B2210000F04DFA2100089012E04B
S11340600499002000F046FA04990790012000F01A
S113407041FA039B0600232BE8D10021080000F03D
S113408039FA00210890012000F034FA04001A2FB4
S113409001D0082F22D1FA2307989B0031005843FE
S11340A001F0D2FCFA232100060008989B00584333
S11340B001F0CAFC029B0100B3421BDC834201DA1B
S11340C0B3421AD1029B0A25981B0A23891B584321
S11340D001F0BAFC049B5D4345190EE0FA20800010
S11340E07043079901F0B0FC0600FA208000604399
S11340F00899DDE7029B8342E4DD039B01335BB255
S11341000393049B01330493F0E600250D950C956D
S1134110F5E6C0464E0E0020500E002000A00040E0
S113412010B500210448FDF79FFA00210348FDF76C
S11341309BFAFFF701FE10BD000A1E000062040096
S1134140014B9A691A62704700600840F0B5434B0E
S1134150434D1B7887B0DFB2002B3BD16C46FFF791
S11341602FFEFFF7FDFD01213E48FDF77DFA0121F9
S11341703D48FDF779FA22003C4B43CB43C243CB85
S113418043C2012239002800FEF71AFC012228004C
S11341901100FEF715FC21002800FEF739FC082267
S11341A00C200424324B1A601A601A601A60E96801
S11341B0C9B20F293CD1C021002202208903FEF795
S11341C00FFDC021012203208903FEF709FD01230D
S11341D0224A1370274E284C3378002B06D02378BC
S11341E0002B38D1FFF7D4FD00233370237800244B
S11341F0A34210D0214B01341A681B682240E340CB
S11342002340D1B2D8B2002A02D00234E41AE4B274
S1134210014300D10424ED68FFF7D2FD431E984109
S11342200F3D220069B2C0B200F094FB07B0F0BDAC
S113423059688143596011005F68794001407940B1
S1134240596059680143596021005F687940014011
S113425079405960ABE7FFF783FDC5E74E0E0020B8
S113426000600840000A1E0000620400886E00001E
S113427000C00C40530E0020F10D0020646000408B
S1134280F0B589B0FFF79CFD01F026FB0521112054
S1134290FDF762FC0320FDF79DFB01215348FDF768
S11342A0E3F901215248FDF7DFF90023C0211A0088
S11342B002208903FEF754FCC02101AE0023012231
S11342C003208903FEF74CFC0C220021300001F08E
S11342D032FE012403230227464D32000021280028
S11342E0B37077703472FEF715FD32002100280098
S11342F0B77004AEFEF70EFD0D220021300001F070
S11343001AFE03233100347074703372B4720526BC
S11343102800FEF799FC6E62FFF73AFD364A1378DF
S1134320DFB2002B16D1354B1B78002B14D002239F
S1134330147039006B602E48FDF796F939002B484C
S1134340FDF792F9FFF7F8FCFFF74AFD2C4B1F70BD
S11343502A4B1F7009B0F0BD2A4B2B4F1B78002B42
S113436002D13B78002B12D06B6A6E62042B26D9E3
S1134370601E0124062806D801F0C8FA2B35333113
S11343802F2D1F00012400231E4A13703B70FFF7DA
S113439017FD431E98412100C0B200F087F9194B64
S11343A01B78002BBAD13B78002BB7D10421174AD4
S11343B013698B43136130BFB0E70824E3E7A01E01
S11343C008240628DFD801F097FADD040E0C0A0849
S11343D006000224D7E70724D5E70624D3E73400F0
S11343E0D1E70424CFE70324CDE7C04600620400EC
S11343F000020400000001404F0E0020520E002075
S11344004E0E0020530E0020510E002000ED00E05F
S113441037B50D0014000190FEF712F92420FE2395
S1134420684300191B0580000422C01801A9FEF787
S113443047FAFEF737F937BDF0B50024250089B0F7
S113444003AB1C7001F048FA264B1C700A22264963
S11344506A4303A801F078FD03A800F0AFFD214BE7
S11344601A78002A3AD000221A70954207D1FEF732
S1134470E7F8FE200005FEF7CFF9FEF713F902ABCB
S11344800093002362211A000A271848FCF791F8C8
S113449000236F441A000600642114480097FCF7B7
S11344A088F86B462A00002106430820185EFFF7AF
S11344B0AFFF2A0001210023F85E0135FFF7A8FFB2
S11344C03443242DC2D1002C04D12A0001210848F0
S11344D0FFF79EFF01F008FA09B0F0BD0120FDF7D7
S11344E0A9FCBCE7530E0020A06E000000A0004011
S11344F0CC07000024234343084A59181268084B88
S11345009A4206D1FE2389001B05C9180023C85E00
S11345107047044B4900C85EFAE7C0462001E00F2B
S1134520CC070000AA6E000037B50025154C1649CB
S1134530226820001388019552885B0852081E3AAD
S113454000921C3B0F22FEF779FF2268200013889B
S1134550019552885B0852080F3A00920B490F22CA
S1134560283BFEF76BFF22682000138801955288D0
S11345705B0852080532009205490F22323BFEF7D0
S11345805DFF37BDF40D00203A6F0000426F00005C
S11345904D6F0000F7B50F001600050001F0F4FCA4
S11345A000210200064804682388019164885B089E
S11345B06408A41B2900DB1B0094FEF73FFFF7BD32
S11345C0F40D0020F7B506000C001A4D0A00010096
S11345D02800FEF753FE731C2200190028000093E4
S11345E0FEF74CFE731E1900671C2200280001937D
S11345F0013CFEF743FE3A0031002800FEF73EFE80
S1134600310022002800FEF739FE3A002800009904
S1134610FEF734FE220028000199FEF72FFE3A002F
S113462028000199FEF72AFE280022000099FEF7CF
S113463025FEF7BDF40D00200822014B1A607047D7
S1134640CC60004037B50020FEF724FD002800D0E0
S1134650FEE7114D2800FEF7E7FD041E00D0FEE73B
S113466028000E49FEF72DFF0D4B0422AB600321F9
S1134670230005206C60FDF7F9FCFFF715F978219C
S113468001F058F923000100064A019400940648F9
S1134690FFF7E0F837BDC046F40D0020E06A0000E3
S11346A0FFFFFF0039460000200E0020F0B53C4C0F
S11346B0050087B020000191FEF763FD002D05D0B1
S11346C0FFF732FFFEF710FD07B0F0BD661D354958
S11346D0083402A801F038FCE17FF77F02A87F18B4
S11346E001F052FC47433C22790802A8FFF752FF2D
S11346F02D4902A801F028FCE17FF77F02A87F186A
S113470001F042FC47432D22790802A8FFF742FF3B
S1134710264902A801F018FCF07FE47F041902A8DE
S113472001F032FC60430A244108232202A8FFF767
S113473031FF019A644262431E323C211C4852B24A
S1134740FFF728FF142238211A48FFF723FF0A2213
S113475038211948FFF71EFF2A0038211748FFF7B0
S113476019FF220038211648FFF714FF14223821BC
S113477014485242FFF70EFF1E22382112485242BB
S1134780FFF708FF2822382110485242FFF702FFA2
S1134790322238210E485242FFF7FCFE92E7C0460F
S11347A0F40D0020596F0000636F0000716F00006A
S11347B07F6F0000826F00008E6F00009C6F00000E
S11347C0AA6F0000B86F0000C66F0000D26F00002F
S11347D0DB6F000070B50F21050001F035F90F21E2
S11347E00400280001F016FA0D00104B104E1B684F
S11347F0721A18885988D27B7357400852B24908F4
S1134800002C06D1C018891A49B240B2FFF7DAFE6B
S113481070BD012C02D18018C918F5E7022C02D111
S1134820C01A5118F0E7801AC91AEDE7F40D0020F8
S11348308E710000F0B5070085B042480E001500E7
S11348401C00FEF79EFC002F05D0FFF76DFEFEF75F
S11348504BFC05B0F0BDFA213000890001F0F4F8FA
S113486001F022FBFA2107008900300001F0D2F99F
S1134870080001F019FB642101F0E6F83A00030096
S11348803149684601F060FB002E02DA2D236A46A6
S113489013710A222A216846FFF77CFEFA212800B8
S11348A0890001F0D1F801F0FFFAFA21060089002D
S11348B0280001F0AFF9080001F0F6FA642101F0D4
S11348C0C3F8320003002149684601F03DFB002D86
S11348D002DA2D236A46137100222A216846FFF763
S11348E059FE22001A49684601F02EFB0A222821AB
S11348F068465242FFF74EFE0621200001F0A4F85C
S11349000F3006000F25B54214DD87235B009C425F
S11349109DDD20000F380621FF3801F095F80024B2
S11349200500AC4200DD92E720000134FFF752FF9E
S113493064B2F6E73B2D02DC2800FFF74BFF01359C
S11349406DB2E0E7F40D0020E56F0000F36F0000A6
S113495001700000F0B53E4F050089B038000C002E
S11349601600FEF70EFC002D05D0FFF7DDFDFEF767
S1134970BBFB09B0F0BD374904A801F0E5FA0C22ED
S1134980282104A8FFF706FE200001F08DFA324921
S1134990020004A801F0D8FA002C02DA2D2304AA9C
S11349A093710022232104A8FFF7F4FD002EDED02A
S11349B032002A4904A801F0C7FA14221E215242E7
S11349C004A8FFF7E7FD264B01935B000393002344
S11349D002933B6801991C885B88019A5B08DDB2ED
S11349E00F23591A039B64081278C95CE4B2012EA0
S11349F01AD1611848B204005119AD1A49B26DB206
S1134A00FFF7E0FD029B002B03D029002000FFF7F5
S1134A10D9FD029B0133DAB25BB20293019B0133ED
S1134A200193082AD5D1A2E7022E07D1A018A41A0F
S1134A3040B264B2691849B20D00E1E7032E01D116
S1134A40611AD7E7A018A41A40B264B2691AF2E74F
S1134A50F40D00200D70000018700000227000009A
S1134A608E710000F0B5434C85B0070020000E00A5
S1134A701500FEF786FB322220213F48FFF78AFD0E
S1134A80232228213D48FFF785FD002F08D000226E
S1134A9028213B48FFF77EFDFEF726FB05B0F0BD5D
S1134AA03849002E00D13849684601F04DFA631D9B
S1134AB0D87F23000833DE7F8619684601F064FA44
S1134AC07043142241086846FFF764FD052237212C
S1134AD02E48FFF75FFDFA212800890000F0B4FF9B
S1134AE001F0E2F9FA2106008900280001F092F8A9
S1134AF0080001F0D9F9642100F0A6FF244983B22B
S1134B00B2B2684601F020FA002D02DA2D236A467B
S1134B101370651D0834E87FE67F8619684601F046
S1134B2033FA0A227043524241086846FFF732FDC5
S1134B301849684601F008FAE87FE67F8619684656
S1134B4001F022FA28227043524241086846FFF7D6
S1134B5021FD1149684601F0F7F9E87FE47F041963
S1134B60684601F011FA3222604352424108684615
S1134B7090E7C046F40D00202B7000003470000054
S1134B803F7000004A700000567000006170000021
S1134B90707000007A70000088700000F0B5224D3B
S1134BA087B0040028000E00FEF7EBFA3222202121
S1134BB01E48FFF7EFFC232228211D48FFF7EAFCDB
S1134BC014222C211B48FFF7E5FC002C08D00022FE
S1134BD028211948FFF7DEFCFEF786FA07B0F0BD7E
S1134BE0FA213000890001F015F8080001F05CF9A1
S1134BF0642100F029FFFA2107008900300000F049
S1134C0023FF0E4902003B0001A801F09DF96B1D32
S1134C100835D87FED7F451901A801F0B5F968433F
S1134C202200410801A8D5E7F40D00202B700000F4
S1134C3034700000917000003F7000009D7000000F
S1134C40F0B5214D85B0070028000E001400FEF7D2
S1134C5098FA322220211D48FFF79CFC00223421BF
S1134C601B48FFF797FC2322002F2AD03421194830
S1134C70FFF790FC142234211748FFF78BFC1749E7
S1134C80002E00D11649684601F05EF96B1D083507
S1134C90D87FED7F4519684601F076F90F22684305
S1134CA0524241086846FFF775FC002C05D02322C8
S1134CB018210C485242FFF76DFCFEF715FA05B0B7
S1134CC0F0BD28210848D8E7F40D00202B7000001F
S1134CD0AE700000BC700000CA700000D770000005
S1134CE0DC700000E070000034700000F0B53A4C55
S1134CF085B0050020000E00FEF743FA3222202181
S1134D003648FFF747FC232234213548FFF742FC9D
S1134D100F2238213348FFF73DFCFA213000890087
S1134D2000F092FE01F0C0F8FA210700890030007B
S1134D3000F070FF080001F0B7F8642100F084FE71
S1134D403A0003002849684601F0FEF8002E02DA12
S1134D502D236A461370661D0834F07FE77FC71958
S1134D60684601F011F97843002241086846FFF7CC
S1134D7011FC25221D49684601F0E6F8F07FE77F23
S1134D80C719684601F000F91422784352424108D9
S1134D906846FFF7FFFB28000A2100F051FE2800B7
S1134DA08FB20A2100F0C6FD3B0082B2104968466A
S1134DB001F0CAF8F07FE47F0419684601F0E4F8D2
S1134DC023226043524241086846FFF7E3FBFEF7A3
S1134DD08BF905B0F0BDC046F40D00202B70000027
S1134DE0E770000061700000F570000001710000C0
S1134DF00F710000F0B5344E8BB0070030000D0089
S1134E00FEF7BFF9322220213048FFF7C3FB2322EB
S1134E1028212F48FFF7BEFB0F2238212D48FFF72A
S1134E20B9FB1422282152422B48FFF7B3FBFA2185
S1134E303800890000F008FE01F036F86421039080
S1134E40380000F001FE01F02FF80A2100F0E2FE24
S1134E5005AC0B002000039A204901F075F8002FDF
S1134E6001DA2D232370771D0836FB7F0396F67F26
S1134E7020009E1901F088F84643002220007108A2
S1134E80FFF788FB0A21280000F054FD0A210600E0
S1134E90280000F0D5FD33002522009120001049A0
S1134EA001F052F8039BF87FDD7F4519200001F0E3
S1134EB06BF823226843524241082000FFF76AFB43
S1134EC0FEF712F90BB0F0BDF40D00202B700000BA
S1134ED0177100006170000022710000F57000007D
S1134EE02D710000F0B52E4C85B0060020000D0099
S1134EF0FEF747F9322220212A48FFF74BFB2322F1
S1134F002C212948FFF746FB0F2238212748FFF7B9
S1134F1041FBFA213000890000F096FD00F0C4FF47
S1134F2064210700300000F08FFD00F0BDFF0A216E
S1134F3000F070FE3A000B0068461D4901F004F8C9
S1134F40002E02DA2D236A461370661D0834F07FA2
S1134F50E77FC719684601F017F878430022410833
S1134F606846FFF717FB14222C2112485242FFF720
S1134F7011FB2A001049684600F0E6FFF07FE47F49
S1134F800419684601F000F82322604352424108A4
S1134F906846FFF7FFFAFEF7A7F805B0F0BDC04674
S1134FA0F40D00202B7000003F71000061700000C0
S1134FB0F57000004B7100001F700000F0B52C4C20
S1134FC087B006002000651DFEF7DBF80834294988
S1134FD001A800F0B9FFE87FE77FC71901A800F036
S1134FE0D3FF78433722410801A8FFF7D3FA2249B7
S1134FF001A800F0A9FFE87FE77FC71901A800F026
S1135000C3FF78432B22410801A8FFF7C3FA1B49C9
S113501001A800F099FFE87FE77FC71901A800F015
S1135020B3FF78431922410801A8FFF7B3FAE87FD8
S1135030E77FC719300000F0A7FF7843002241083A
S11350403000FFF7A7FA0E4901A800F07DFFE87FC2
S1135050E47F041901A800F097FF2D226043524217
S1135060410801A8FFF796FAFEF73EF807B0F0BD35
S1135070F40D002057710000667100007271000089
S1135080807100007FB51A4C1A4D2378DEB2002BD4
S113509004D1FEF7A5FE01232E702370164B1A7857
S11350A0002A06D02A78002A1DD101322A70002253
S11350B01A700E266E4400232A78602100960F4849
S11350C0FBF777FA04000023F15E2878FBF757FB1F
S11350D02978631E9C414B1E99410200C9B2E0B27B
S11350E0FFF7C0FC7FBD012AE1D10022DEE7C04604
S11350F04E0E00203C0E0020530E002000A0004065
S1135100F0B51D4E1D4D33781D4C85B0002B0BD1D1
S1135110FEF766FE00F0E8FB2B0022006021194830
S1135120FBF72EFC0123337003AF0022AB5E15485E
S11351300021625E60210097FBF76EFC041E12D111
S11351400425039E3A0060210E48FBF78DFB013DC8
S1135150039BEDB20400F618002DF3D105213000B5
S113516000F072FC0390631E9C410399E0B2FFF7C8
S113517015FD05B0F0BDC0464E0E00203E0E0020C9
S1135180400E002000A00040F0B51D4C85B02378EF
S1135190002B0FD1FEF724FE00F0A6FB01226021B4
S11351A01848FBF7FDFA1023174A51690B43536162
S11351B0012323700E270125144B6F441C68002221
S11351C02B0060210F480097FBF7F3F90022431EE0
S11351D0984124092C40C6B2944209D10023F85EB8
S11351E000F062FEBA239B01984200DC251CEAB25F
S11351F0300012B2E1B2FFF723FD05B0F0BDC046A6
S11352004E0E002000A00040FC600040886000407A
S11352101021054A10B5536904488B43536150313A
S11352200022FBF7BDFA10BDFC60004000A0004066
S113523070B52D4E86B03378DDB2002B2CD1FEF73D
S1135240CFFD00F051FB01212848FCF70DFA1F2384
S113525001AC2800E37025706570A5702571657137
S1135260FCF73EF82900E0702148FBF7C9FF210054
S113527020712048FBF7E8FF0922290003A800F069
S11352805AFE6A4604231B48137403A9023B937312
S1135290FBF77AFF012333708025052300200124C6
S11352A0144A6D02546091682942FCD0516A013B52
S11352B0DBB24018002BF5D1052100F03BFB84B292
S11352C00D480E49604300F035FB0D4B0B49C518E2
S11352D0FA208000604300F0B7FB290080B2FFF79A
S11352E005FD06B070BDC0464E0E002000A20400AD
S11352F0C0CF6A0000200040EC9F0000FF0F0000B8
S11353000AB0FFFFF0B5574F8BB03B78DDB2002BEE
S113531049D1FEF765FD00F0E7FA29002800FFF700
S113532069FD01215048FCF79FF901214F48FCF722
S11353309BF9C0212B00042201208903FDF710FCF6
S11353400C2229006846012400F0F5FD6B4603AEEB
S11353500C22290030009C709C711C7200F0EBFD43
S11353606A46290042487470B470B4713472FDF70F
S1135370D1FC3200210006AE3D48FDF7CBFC0D22E6
S11353802900300000F0D7FD0323C0210422F3716B
S1135390384B49003470747035485A5031001A60E3
S11353A0FDF752FC3C7011230420314A9361D1680B
S11353B00B43D360304B19698143196130BF1969BC
S11353C08143196130BF19698143196130BF0024D9
S11353D02A4E05212500B446294F1E6986431E61C5
S11353E030BF3E68AD1966463668A419254E367836
S11353F0002E03D10139C9B20029EED11121D3689D
S11354008B43D3609161002E0BD01F4B1B68DB06CE
S1135410DE0F002B1FDB1D483100FFF7EBFC0BB048
S1135420F0BDFA2080002100684300F083FA0521D2
S11354300600280000F07EFA05210500200000F097
S113544079FA010085420AD81148684300F072FADB
S11354500E4BC018E0E7FA260E48B600DCE70D480C
S1135460DAE7C0464E0E0020006204000002040089
S11354700000014000E100E000ED00E0440E0020E7
S1135480480E0020420E0020886000400AB0FFFF52
S1135490EC9F0000F64F00000B4B01211A6910002D
S11354A008400A4204D0094A117011229A617047D7
S11354B0D206FAD5054A596B1070054A1160596C29
S11354C0044A1160F1E7C04600000140420E00208A
S11354D0440E0020480E0020022310B50A4C00217F
S11354E063600A48FCF7C0F83122E3689343E36041
S11354F0074B2D3ADA67BFF34F8FBFF36F8F00214D
S11355000448FCF7B1F810BD00000140000204009B
S113551004E100E000620400054B1A69D20604D5D8
S11355205A6B5A6B596B034A118010229A61704767
S1135530000401404C0E0020F0B5574F8DB03B786D
S1135540DEB2002B42D131003000FFF7CBFCFEF776
S113555047FC00F0C9F90123022204210320FCF7CF
S113556085FD01214D48FCF77FF801214C48FCF7EB
S11355707BF8C021012405AD3300042201208903F6
S1135580FDF7EEFA0C223100280000F0D4FC2A00CA
S1135590310044486C70AC70AC71EC712C7208AD85
S11355A0FDF7B8FB0D223100280000F0C4FC0323F2
S11355B0C0218022AB713C4B49002C706C7039487F
S11355C05A5029001A60FDF73FFB3C7005230193F4
S11355D00023344D02931022C721AA61EB684900CD
S11355E01343324AEB60042013698343136130BFD1
S11355F02F48304B0688F3189BB28B42F3D8012313
S113560008AF04241169A143116130BF0488590013
S11356100133CC53082BF4D11022EB68702193434F
S1135620EB603000AA6100F085F983B20393B88877
S11356303100C0183823584300F006FA38230C38D8
S1135640039A0402F88831008018584300F0FCF9EA
S113565038230C380001039A044338893100801838
S1135660584300F0F1F9029B0C3804431C19A3B20F
S11356700293019B013BDBB20193002BABD1029857
S1135680052100F057F981B20A200B4BCB1858437F
S1135690FFF728FC0DB0F0BD4E0E002000620400A0
S11356A0001204000004014000E100E000ED00E00D
S11356B04C0E002077F1FFFF00F8FFFF012310B527
S11356C01A0004210320FCF7D1FC022230210A4BEA
S11356D05A60DA688A43DA608022084BDA67BFF3DB
S11356E04F8FBFF36F8F00210548FBF7BDFF0021EB
S11356F00448FBF7B9FF10BD0004014004E100E0D9
S11357000012040000620400012806D8034B1B7831
S1135710002B02D10122024B1A7070474F0E002059
S1135720510E0020F0B5032685B0FEF767FA01217B
S11357304348FBF799FF434A0021936A022033430D
S1135740936201231A00FCF791FC01230124002534
S11357501A0019000220FCF789FC23002A00290002
S1135760022001950094FCF715FC2300220021007F
S1135770022001950094FCF70DFC334F2000390002
S1135780FBF790FC39002800FBF78CFC2B0022006F
S113579004213000FCF76AFC0422230011003000CD
S11357A001950094FCF7F6FB21002848FBF75CFF09
S11357B002212748FCF7D0F9FDF7AAFFFA2003A934
S11357C08000FEF777F80200A84206D1030001909A
S11357D0009003991F48FEF73DF8FEF733FF1E4B78
S11357E01A78D0B2082A28D800F090F8050F1215BC
S11357F0181B1E212400FEF743FD184B1B78002BB9
S1135800EDD10120FCF716FBE9E7FEF7FBFAF4E71C
S1135810FEF79CFCF1E7FFF735FCEEE7FFF770FCC1
S1135820EBE7FFF7B1FCE8E7FFF702FDE5E7FFF779
S113583069FDE2E7FFF780FEDFE700221A70DCE78C
S113584000820400FC60004009570000D0233E00A1
S113585002001E00540E00204F0E0020530E0020A4
S1135860174B70B50400174E984209D1FBF737FA6D
S1135870012805D1144D2B78002B0BD1134B187034
S1135880B44206D12000FBF72AFA012801D1104BBB
S1135890187070BD2B78012B06D13000FBF71FFA6E
S11358A0012801D10B4BEAE700232B70FEF738FCEB
S11358B0FFF7AEFCFFF710FEFFF700FFE0E7C0467E
S11358C0586E0000706E00004F0E0020520E002033
S11358D0530E0020500E002010B50248FBF708FAC2
S11358E010BDC046706E000010B50248FBF707FA01
S11358F010BDC046706E000002B4714649084900EC
S1135900095649008E4402BC7047C04602B4714631
S113591049084900095C49008E4402BC7047C046EE
S113592003B47146490840004900095A49008E44AD
S113593003BC7047002243088B4274D303098B4293
S11359405FD3030A8B4244D3030B8B4228D3030C4B
S11359508B420DD3FF22090212BA030C8B4202D3ED
S11359601212090265D0030B8B4219D300E0090A15
S1135970C30B8B4201D3CB03C01A5241830B8B421E
S113598001D38B03C01A5241430B8B4201D34B0307
S1135990C01A5241030B8B4201D30B03C01A52416C
S11359A0C30A8B4201D3CB02C01A5241830A8B42F1
S11359B001D38B02C01A5241430A8B4201D34B02DA
S11359C0C01A5241030A8B4201D30B02C01A52413E
S11359D0CDD2C3098B4201D3CB01C01A52418309F2
S11359E08B4201D38B01C01A524143098B4201D32C
S11359F04B01C01A524103098B4201D30B01C01A57
S1135A005241C3088B4201D3CB00C01A52418308D0
S1135A108B4201D38B00C01A524143088B4201D3FD
S1135A204B00C01A5241411A00D20146524110465D
S1135A307047FFE701B5002000F0F0F802BDC04652
S1135A400029F7D076E7704703460B437FD4002242
S1135A5043088B4274D303098B425FD3030A8B42FE
S1135A6044D3030B8B4228D3030C8B420DD3FF2268
S1135A70090212BA030C8B4202D31212090265D036
S1135A80030B8B4219D300E0090AC30B8B4201D3E9
S1135A90CB03C01A5241830B8B4201D38B03C01A30
S1135AA05241430B8B4201D34B03C01A5241030BA7
S1135AB08B4201D30B03C01A5241C30A8B4201D358
S1135AC0CB02C01A5241830A8B4201D38B02C01A03
S1135AD05241430A8B4201D34B02C01A5241030A7A
S1135AE08B4201D30B02C01A5241CDD2C3098B425F
S1135AF001D3CB01C01A524183098B4201D38B01DC
S1135B00C01A524143098B4201D34B01C01A52417E
S1135B1003098B4201D30B01C01A5241C3088B42C3
S1135B2001D3CB00C01A524183088B4201D38B00AE
S1135B30C01A524143088B4201D34B00C01A524150
S1135B40411A00D201465241104670475DE0CA0F27
S1135B5000D04942031000D34042534000229C46E7
S1135B6003098B422DD3030A8B4212D3FC228901F1
S1135B7012BA030A8B420CD3890192118B4208D3C7
S1135B80890192118B4204D389013AD0921100E029
S1135B908909C3098B4201D3CB01C01A524183093D
S1135BA08B4201D38B01C01A524143098B4201D36A
S1135BB04B01C01A524103098B4201D30B01C01A95
S1135BC05241C3088B4201D3CB00C01A524183080F
S1135BD08B4201D38B00C01A5241D9D243088B4265
S1135BE001D34B00C01A5241411A00D20146634608
S1135BF052415B10104601D34042002B00D549426C
S1135C00704763465B1000D3404201B5002000F0AA
S1135C1005F802BD0029F8D016E770477047C04662
S1135C201C2101231B04984201D3000C10391B0AC8
S1135C30984201D3000A08391B09984201D300098C
S1135C40043902A2105C40187047C04604030202E3
S1135C50010101010000000000000000002B11D12F
S1135C60002A0FD1002900D1002802D00021C94305
S1135C70080007B4024802A14018029003BDC046C0
S1135C809DFFFFFF03B4684601B5029800F034F8A5
S1135C90019B9E4602B00CBC7047C046F0B5CE4690
S1135CA0474680B5070099463B0C9C4613041B0CE1
S1135CB01D000E0061460004140C000C45434B43C8
S1135CC060436143C0182C0C20188C46834203D9CE
S1135CD080235B029846C444494679437243030CCB
