S024000044796E616D69634D756C746970726F746F636F6C537769746368536F632E733337F7
S3150000000028CA0320A142030045BE0100C13C0300EB
S31500000010A70A02020002000004180FAC606747013D
S3150000002000000000000000000000000000000000CA
S3150000003000000000707D03000000000000000000CA
S315000000400000000000000000FFFFFFFFFFFFFFFFB2
S31500000050FFFFFFFFFFFFFFFFFFFFFFFFFFFFFFFFAA
S3150000006000700F000000000000000000FFFFFFFF0F
S31500000070FFFFFFFF1C000000000000000000000062
S315000000800000000000000000F0FF0320F0FF032046
S3150000009028CA0320D6D80300BA420300C8C00320EA
S311000000A0381100200000100000000000D5
S3150000020028CA0320A142030045BE0100C13C0300E9
S31500000210995F0200C53C0300C93C030000000000D2
S31500000220000000000000000000000000931800001D
S31500000230CD3C03009F0C0000AF1C0000FB3000000B
S31500000240A160020057F00200DD740000D53C0300F7
S3150000025019EB020093F002005DF002005FF002006D
S3150000026059F002009F0C03000D0F0300737A020081
S31500000270393B0200D53C0300D53C0300433F030055
S31500000280D53C0300D53C03001B0F0300D53C0300FF
S31500000290D53C0300D53C0300D53C0300D53C030008
S315000002A0D53C0300D53C0300D53C0300D53C0300F8
S315000002B095F002005BF0020015D20200C5F00200C4
S315000002C0D53C03004D410300D53C0300D53C03005B
S315000002D0D53C0300D53C0300D53C0300D53C0300C8
S315000002E0D53C0300D53C0300D53C0300D53C0300B8
S315000002F0D53C0300D53C0300D53C0300D53C0300A8
S31500000300D53C0300D53C0300000000000012034862
S31500000310016830BF41F000410160704700BF4C31B9
S315000003200E40000080B5002000F0EDFA012002BD6D
S315000003301E482DE9F04100688189007D091A14469E
S315000003409846CE1E0027002506E0B2B2B9B2404656
S3150000035000F02AFDFF1C6D1CE8B2A042F5D3002078
S3150000036000F0D1FA0120BDE8F0812DE9F8430F4EE7
S3150000037030688189007D091A90469946CF1E00246F
S31500000380002509E000F014F8E41C00F011F8A41CA4
S3150000039000F00EF8E41C6D1CE8B24045F2D330685C
S315000003A0002100F0F2FA0120BDE8F28324D90320EF
S315000003B0BAB2A1B2484600F0F7BC704780B501F06A
S315000003C08EF8FF2805D0032803D2DFF8A817085CAB
S315000003D002BD002002BD10B50268DFF89C17138825
S315000003E00B8054884C8052790A7103681A794A71D5
S315000003F04FF48A53CB80026893799A06DFF87C27FC
S3150000040044BF4FF48B53CB801378816939B9C088C8
S31500000410DFF86C17088003F0FD03137010BD43F07E
S315000004200203137016228169DFF85847204601F04F
S31500000430D1F90022227010BD80B5002001F02FFAFC
S31500000440FF2001F0A5F801F038FA00F028FD024679
S315000004500121DFF8200701F004FADFF81C37DFF886
S315000004602827DFF82807522101F0DFFA01F091FB77
S3150000047001F01EFC01F043FD01F054FE02F0FBFD0D
S3150000048002F03AFE02F03AFEBDE8014000F0DEBDA1
S31500000490704780B502F011FF20B904F09FF908B942
S315000004A004F03CFA04F091FABDE8014004F09CBA6D
S315000004B070B5034600204FF6FF72DFF8D44634F8D5
S315000004C0305095420ED09D4209D1B3F57C4F0ADBE0
S315000004D004EBC0056E888E4205D00D0003D0401C8B
S315000004E080B2ECE7104670BD10B50446FFF7E0FF9A
S315000004F0DFF8A0160B884FF6FF72904203D1224612
S31500000500DFF8941606E0DFF8881601EBC000DFF886
S315000005108C164268BDE81040184604F0B0BADFF801
S315000005208006006800B1008A70471CB5DFF87416B3
S315000005300446087800283CD004F07AFB0246DFF82F
S315000005406816022004F09BFA2068418800914379DE
S31500000550A289DFF85816022004F091FA022004F06E
S3150000056049FA20B12068218A4088FFF7BDFFE07B69
S3150000057028B1228ADFF83816022004F080FAE07CDF
S31500000580DFF830160090A0680278A37C022004F001
S3150000059076FA217DA289A468521A012392B22144D7
S315000005A0022004F05DFBBDE81C40B0A1022004F06F
S315000005B060BA13BD10B504462168487900F08FFF74
S315000005C0FF281DD0DFF8F01501EB0010217F027B1C
S315000005D08A4215D1226840881188884206D04FF693
S315000005E0FF7399420CD1B0F5004F09DA2079022841
S315000005F018BF032806D11189507904F0A1F908B96A
S31500000600002010BDA07B0028204602D004F0BEFBCF
S3150000061001E004F0EBFB00B1012010BD7CB51446EF
S31500000620227855074CBF052203229342DFF88C55EA
S3150000063004D200922A46DFF8881533E0089E069A0F
S3150000064030603171F280B460B381207800F001002F
S31500000650B0732178890801F00101F1730121207836
S315000006603175C00800F001007075F07B30B11A4694
S31500000670204600F099FB317D891C31753082307D32
S31500000680B389411C3175205CB074481CC9B2307501
S31500000690615CF174C4B2A34209D2C0B200902A468A
S315000006A0DFF82015022004F0E4F9002076BD079853
S315000006B0B06104F0ACFE3077012076BD2DE9F14F34
S315000006C084B00F4692460E9EDDF83C80DFF8F85463
S315000006D0DFF8F8149B462846202204F097FF02957F
S315000006E0CDF8048000965B46049852463946FFF7DB
S315000006F095FF00240028DFF8A8946AD0C9F80050B6
S31500000700A87CDFF8CC1408702846FFF70EFF2846B1
S31500000710FFF761FE284604F0CDFF38BBB8F1000FA5
S3150000072026D1042F18BF052F03D0022F18BF032F81
S3150000073001D1012200E000222868E9880191012107
S31500000740438800930388E87C00F021F9A0B128686B
S315000007508179880610D4DFF87C44012121700022BB
S315000007607E21284600F0D3F800202070012430E0D6
S3150000077098F8140081072CD528684179FF2924D1DF
S315000007800026DFF8F48300F08AFBF1B2814220D222
S31500000790F0B200F0A6FE0746F0B200F084FB90B17E
S315000007A0286841882A8A384600F0DDFD58B1284677
S315000007B0FFF711FE2868477188F804702846FFF78E
S315000007C0F9FE00B10124761CDDE72846FFF7F2FEAC
S315000007D0044600F065FA16220021DFF8A80301F0AE
S315000007E040F80020C9F8000005B02046BDE8F08FAB
S315000007F0DFF8E4130878401C0870FFE700F07F007C
S315000008007047DFF878130A78002814BF42F0010217
S3150000081002F0FE020A707047DFF8C01308707047D6
S3150000082080B1DFF8B8130978012904D1018841F0B5
S31500000830400101807047022904D102884FF6BF713A
S315000008400A400280704778B1DFF894130A78012ACB
S3150000085004D1DFF8902313780B7001E0022A03D14C
S31500000860017841F010010170704700005D00000042
S31500000870FEB5C24D2B78D90701D50020FEBDDFF8A5
S315000008802013BD4C096871B109688A79960603D5AB
S31500000890E28842F02002E28089794A0603D5E1889F
S315000008A041F04001E180B94A11784E07C84947BF77
S315000008B00F78D7700E7856709B0709D5B248018815
S315000008C0B04805F054F9297801F0FD012970FEBD04
S315000008D0AB4B1D8829464FF6FC76B14208DA0190EB
S315000008E000922246A8480388002005F02BFBFEBD97
S315000008F000901346A44802882146284605F0F1FADE
S31500000900FEBD0020B4E70146A5480068002270B588
S3150000091004460E462079002818BF012815460BD13B
S31500000920A0680178CA0601D5300005D0A07B002852
S3150000093004BFE07C0B2801D1002070BD924A002143
S315000009401180607DE17B00280CBF0820002011B9D2
S3150000095000F0BDF906E040F0040000F0B8F9208A86
S3150000096000F0C4F9A07C00F0B2F90B2000F0AFF95A
S31500000970E07C00F0ACF9304600F0A9F92046FFF71C
S315000009802AFD2846BDE8704072E70022BFE770B531
S315000009901D46954B8F4E1C78012C01D0337813B130
S315000009A00020307070BD0B0002D10AB1002070BD6E
S315000009B0002C1EBF049C4FF657439C4206D00346AC
S315000009C00A462146284603F0ADFF00B1012070BD5E
S315000009D00000000038B5D2885224950648BF492445
S315000009E0550548BF083C150548BF083C1204034698
S315000009F048BFA41E0846032B4FF6FD710ED8DFE84C
S31500000A0003F00902060BC0B205F092FE02E0C0B286
S31500000A1006F0A4F8014601E0641EE4B2084603F0BD
S31500000A20A0FF241AE0B232BD42540844120A4270B2
S31500000A3070470844110A0270130C120E417083703D
S31500000A40C270704770B505460C00164608BF0020F8
S31500000A5003D02178FF2902D1FF20287070BD2046DF
S31500000A6000F0C4F9864288BF06463246611C681CFF
S31500000A7000F0B0FE2E7070BD70B50C00054616462F
S31500000A8003D100206870297070BD2078FF2804BF4C
S31500000A906078FF2802D12870687070BD204600F08B
S31500000AA0AAF9864288BF06463246A11CA81C00F059
S31500000AB091FE2E70360A6E7070BD2DE9F041541EFF
S31500000AC00BB3042A46DC0023002698465FFA88F515
S31500000AD0954225D2651B002814BF10F805C04FF0BB
S31500000AE0000C571EA7EB08074D5DFF000CFA07FC2C
S31500000AF005FA07F74CEA03033E4308F10108E5E768
S31500000B00AE4224DB5B1CDDB2954223D2651B002876
S31500000B100CBF0026465D4D5DB542F1DA01201AE0B4
S31500000B20042A10DAD5000120D2006D1E00FA02F266
S31500000B30524243FA05F1CC0748BF134346FA05F083
S31500000B40C00748BF16439E42E8DBB34202DA4FF0C5
S31500000B50FF3000E00020BDE8F0810021234A01E0DB
S31500000B60891CC9B2535C8342FAD350184078704747
S31500000B700000000000D903203CD803208EFF03208C
S31500000B8066FC032028D9032054FF032048D80320FD
S31500000B908465030058FF0320D0640300E864030063
S31500000BA024D90320D2D40320F0640300F8640300A0
S31500000BB0186503002465030064D7032060650300FD
S31500000BC0446503006865030004D90320C465030077
S31500000BD0D6D403208AFF0320D7D403208BFF03201B
S31500000BE08CFF03208DFF0320D5D40320E46503008A
S31500000BF0283808288041C00F704710B500F009F862
S31500000C00FF2801D1A32010BD002104F830100020D8
S31500000C1010BD0446084600F062BC38B500F00BF87B
S31500000C20FF2801D1A32032BD294604EBC000BDE850
S31500000C30344000F0DEBF04460846154600F04FBCBF
S31500000C4040B11C280BD01D280CD01E2818BF1F2809
S31500000C5005D009E00B39102906D2002070471B2960
S31500000C60FBDB01E00929F8DB8A20704710F0E00081
S31500000C7011D0802806D0A02806D0C02806D0E028AB
S31500000C8006D007E01C2070471D2070471E207047C5
S31500000C901F207047FF20704700F01F007047704705
S31500000CA080B54C490020087006F0B2F94A4A108017
S31500000CB052220021494800F0D4FD4949002008800D
S31500000CC00C22BDE808400021464800F0CABD10B518
S31500000CD043490A88522A07DA404CA054521C0A801B
S31500000CE092B2A018401E10BD002010BD38B50546B2
S31500000CF0C0B2FFF7ECFF0446280AFFF7E8FF002C16
S31500000D0018BF002801D0204632BD002032BDF8B5FC
S31500000D100746C0B2FFF7DBFF06463804000EFFF7B2
S31500000D20D6FF05463802000EFFF7D1FF0446380EFF
S31500000D30FFF7CDFF002E18BF002D05D0002C18BFE1
S31500000D40002801D03046F2BD0020F2BDF8B5244D92
S31500000D502B880C462646F718522F0CDA1F4F0146F1
S31500000D602246F81800F036FD2B88E4182C80A4B231
S31500000D70A41B3819F2BD0020F2BD30B50446002090
S31500000D80CD18AA4208DA30BD51FA83F222445B1E1E
S31500000D9012F8015C05EB0020DAB2002AF4D130BD6E
S31500000DA00423EAE70323E8E780B50223FFF7E5FF1C
S31500000DB080B202BD034691420B4800D3704710B57E
S31500000DC05C5CFF2C08BF00240C19641CA242A8BF5F
S31500000DD0581810BD8EFF032066FC032048D8032058
S31500000DE054FF03203CD8032056FF03200078FF2839
S31500000DF008BF0020704780B502220021FFF7D4FF0C
S31500000E004FF6FF72904208BF002002BDF0B5DFF832
S31500000E108419DFF884490A68DFF8801988B003A8C6
S31500000E200260D1E9002704A8D4E90056C0E90027EA
S31500000E3006ABDFF86C19C3E9005601A80A68DFF8AB
S31500000E406449DFF864192568026002AB03200024B8
S31500000E5008701D6000940021DFF8500906AE03AC4F
S31500000E60DFF84C29655C02EB011204AC157036F80C
S31500000E701130538034F81130938002AC01AB655CBD
S31500000E8095715C5C00EBC405956001251DF8014079
S31500000E901473491C02295573E1DD08B0F0BDDFF873
S31500000EA0080900787047DFF8081901EB0010407B4D
S31500000EB000F001007047412818BF422803D043289C
S31500000EC018BF442801D101207047002070474128EF
S31500000ED018BF422801D101207047002070474328DF
S31500000EE018BF442801D10120704700207047F8B58B
S31500000EF015461E46069A079B044600F04DFA60B159
S31500000F00042100F0D3FB070007D0204600F0CCFCFC
S31500000F10324629462046B84794E0F1BD2DE9FC4704
S31500000F2014001CBF0A9D002D814688461F461FD00F
S31500000F30F7B128780C9B0107618820794CBF4022C5
S31500000F40802200F029FA98B1082100F0AFFB824612
S31500000F5070B10B9E207900F0A7FC019600953B46E8
S31500000F60224641464846D047BDE8F34700F0A5BCB7
S31500000F70BDE8F387F8B51646069C1A46054623468D
S31500000F8000F00AFAD0B121000BD1022100F08EFB4D
S31500000F90040013D0284600F087FC31462846A047B7
S31500000FA00BE0102100F082FB070007D0284600F076
S31500000FB07BFC224631462846B84743E0F1BD2DE981
S31500000FC0F8439046089C1A460646234600F0E4F984
S31500000FD008B9862016E000259CB9202100F066FBA2
S31500000FE0814670B10B9F0A9C099D304600F05CFC5F
S31500000FF0009723462A4641463046C847054600F034
S315000010005CFC2846BDE8F283F8B50446A56820785E
S3150000101000F04AFC002611E02868F1B21422514380
S3150000102047182078398803F07CFC0121384600F007
S315000010303DFB01001CBF20788847761C2979F0B259
S315000010408842E9D3BDE8F14000F037BC38B500244A
S31500001050DFF854570AE0DFF85807210600EB115075
S31500001060427BD10748BFFFF7CFFF641C2978E0B267
S315000010708842F0D331BD7CB5069D96781C462B0080
S3150000108008BFD378412E18BF422E06D0432E09D171
S315000010909A1E92B2FFF7F0FC16E05A1ED2B2FFF784
S315000010A0D1FC11E0442EF3D034B92C0004D0D27810
S315000010B0954201D2892076BD00291A4602D100F058
S315000010C0D0FB01E000F086FB002076BD10B50023C2
S315000010D001E0001D5B1C9CB28C4204D20488944241
S315000010E0F7D1408810BD002010BDDFF8C816401AA1
S315000010F00C2290FBF2F292B20021DFF8BC06E5E783
S315000011000288B2F57C4FA8BF00F002B80846ECE7AB
S31500001110DFF8A816401A142290FBF2F292B20021D0
S31500001120DFF89C06D2E710B50C460188628891422A
S315000011300DD1037B2279134209D0B1F57C4F04DB34
S31500001140FFF7E6FF2189884201D1012010BD00206A
S3150000115010BD10B514460A88E3889A420AD102885F
S31500001160B2F57C4F04DAFFF7CBFF2189884201D123
S31500001170012010BD002010BD2DE9F74F82B00446B6
S3150000118098460025002704E08068C1886D187F1CFA
S31500001190FFB2DFF814160A78974280F0A880DFF8CD
S315000011A01006237800EB071002789A42ECD181688A
S315000011B00091407BC107EAD5002603E0B9F80A0092
S315000011C02D18761C00990A79F0B29042DFD20A688F
S315000011D05FFA86FC142010FB0CFC02EB0C0921467E
S315000011E04846FFF7A0FF0028E8D04FF0000B09E0C3
S315000011F09AF8040010F0300F04BF9AF803002D1877
S315000012000BF1010BB9F808101FFA8BF08842D8D2FF
S31500001210D9F804001FFA8BF20C214A4300EB020AAC
S31500001220224651464846FFF794FF0028E0D027465D
S315000012300398544600B104602079810611D5DFF881
S315000012407405002105E00279930644BFC278891827
S315000012500C30A042F7D3DFF86C0589B200EB010B26
S3150000126004E0DFF86415ADB201EB050B0E9E049D9C
S315000012703046CEB121464846FFF742FF0246238854
S315000012807988387803F047FBAA46E0B12079C10691
S3150000129024D5002E2146484617D0FFF731FF00F02F
S315000012A02AF803F051FB23E015B321464846FFF721
S315000012B027FF024623887988387803F02AFBDA4626
S315000012C00028AB46E2D17E2012E0FFF719FFE17855
S315000012D0019100F010F803F035FB09E0CDF800802D
S315000012E03346224651465846FFF7C5FE00E08620A3
S315000012F005B0BDE8F08F0095034679883878224618
S3150000130070472DE9F8430446884616469946002557
S315000013102179E8B2884221D22068EAB214235A43DE
S3150000132087183888404517D131000AD0802E03D15E
S31500001330397B0A0605D40FE0402E0DD1397B4A06CB
S315000013400AD5B0F57C4F0CDB3846FFF7E1FE484581
S3150000135018BF5FEA090004D06D1CD9E70020BDE87C
S31500001360F2833846FBE780B5134607E080B513469F
S31500001370402204E080B51346802200E0002200F0FF
S315000013800BF800B1012002BD80B500234022F6E72C
S3150000139080B500238022F2E770B50C4615461E463E
S315000013A000F09DF8FF2801D1002070BD2146DFF82E
S315000013B0004404EB0010334680682A46BDE87040BE
S315000013C09FE770B50C4615461E46002100F02FF823
S315000013D0032800DAEAE7002070BD1346402201E048
S315000013E00022FAE72DE9F84F82468B469046994649
S315000013F0FFF7D2FF002608B9FF2016E00027DFF826
S31500001400B043DFF8A4532978F8B288420CD2000121
S31500001410205C504508D04B4642465946FFF7D1FF5F
S3150000142000B1761C7F1CEEE7F0B2BDE8F28F70B516
S315000014300022DFF87C33DFF870532E78D4B2B44242
S315000014400BD224011D5D854205D10D0007D01C4439
S31500001450647BE50703D4521CEDE7FF2070BDD0B2D4
S3150000146070BD80B50021FFF7E2FFFF2801D1002003
S3150000147002BD00F061F8407B00F0010002BD70B5CE
S315000014800E4604460021FFF7D2FFFF2801D10020B7
S3150000149070BDDFF81C1301EB00153200687B00F00D
S315000014A0010114BF40F001000020B142687314D05E
S315000014B076B12846FFF7A8FD0FE0006814225143D5
S315000014C00844027B0188D209204600F0E3FB761C23
S315000014D0A8680279F1B29142EFD3012070BD0121D3
S315000014E0A5E7DFF8CC120001085C7047F8B50C469A
S315000014F0FFF7F5FF01460020FF291FBFDFF8B022E6
S3150000150002EB01118968002915D0002214270D79F4
S31500001510D3B2AB420ED20B68D6B27E433344451CDF
S315000015201B7B260001D11B0600E05E0648BF28464D
S31500001530521CECE7C0B2F2BD9D4901EB00107047AA
S31500001540F8B50C461546FFF7CAFF01460022FF29EB
S315000015501CD000234FF0140C01E0521C5B1C944875
S3150000156000EB0116DFB2B0680679B7420ED200680A
S315000015701CFB07F73844067B15B1760602D4EDE767
S315000015803706EBD5D6B2A642E7D1F2BD0020F2BDB2
S31500001590002109E010B50446012100F005F82046B7
S315000015A0BDE8104004F085B82DE9F84F86B08146B5
S315000015B003F02DFF7C49DFF8F8A10A780590049224
S315000015C04FF0000B07E00AEB0010017B0598814203
S315000015D00FD00BF1010B04995FFA8BF0884246DAC3
S315000015E0B9F1FF0FEFD04846FFF779FFFF28834692
S315000015F03DD000273FE00328ACBFA26804F10802F3
S31500001600012000900023002101A8FFF7B5FD761CFC
S315000016102989B0B288422DD26868B2B20C214A43F9
S3150000162084182379D906F2D41AF808208DF80420F4
S315000016302988ADF80610207941064CBF802140214B
S315000016408DF8081028462188ADF80A102146FFF7C4
S3150000165057FDADF80C002179E0784A07CBD5A26892
S315000016600328CDDB1268CBE7B9F1FF0FB1D007B085
S31500001670BDE8F08F7F1C4FEA0B604FEA10580AF165
S315000016800800F9B250F8080002799142ECD20168DC
S31500001690FBB214204343CD1840F22D112A898A4209
S315000016A0A8BF05F04DFF0026B2E7704730B5047BB2
S315000016B0012200230C4205D1002030BD144218BF80
S315000016C05B1C5200D5B28D42F8D30069DBB250F8EC
S315000016D0230030BD3D49401A8003020C00213C48DE
S315000016E0F4E42DE9FE4F00270028487D4FF001085D
S315000016F006D008B9022407E0012804D1012403E03A
S3150000170008B9082400E004240C9D0E980D9EDDF80F
S315000017103CB0ADF80020B9468A460193ADF830508A
S315000017208DF83800294800EB8905BDF800002988A6
S31500001730814224D1E978214221D0A9789DF8380048
S3150000174081421CD3E9789AF80F00CA0608D5B0B1D1
S315000017502846FFF7BFFFBAF81010814201D00EE00D
S3150000176068B9BB4513D0BDF8300087420FDA01983F
S31500001770A978C1557F1C3288521C3280BFB209F14C
S315000017800109B9F1320FCDDB4046BDE8FE8F4FF0BF
S315000017900008F9E7E0560300E4560300EC560300A0
S315000017A0F8560300F456030085FF0320F85903009A
S315000017B064D70320E8570300145A030008590300AE
S315000017C0105A0300C4D7032094D703201C570300E4
S315000017D0E457030070B5814224D210441144401EE0
S315000017E0491E10E011F8013900F80139121F11F8ED
S315000017F0014900F8014911F8015900F8015911F899
S31500001800016900F8016993B2042BEBDA93B2002B5D
S315000018101EBF11F8013900F80139521EF6D170BD0C
S3150000182000F00DF893B2042BFADA93B2002B1EBF28
S3150000183011F8013B00F8013B521EF6D170BD11F8BC
S31500001840013B00F8013B121F11F8014B00F8014B58
S3150000185011F8015B00F8015B11F8016B00F8016BF0
S315000018607047130003D00A46194605F089BE704733
S3150000187010B5034600E0521E90B218B100F003F80E
S31500001880F9D0001B10BD13F8010B11F8014BA04253
S315000018907047FEE70C490D4808600020704700B10C
S315000018A0702070470020704780B500F013F8FF28BD
S315000018B001D1A32002BD002002BD00207047704761
S315000018C000BF0348007870479CD80320F2B8030095
S315000018D064D7032080B5FFF702FEFF2818BF00205B
S315000018E002BD00210170704700F091B92DE9F24F59
S315000018F0022940F39580190005D0BDF8001005298E
S31500001900F7DB42F004028246012618008AF800201E
S3150000191005D08AF8013003261B0A8AF802304FF0F8
S31500001920000B0A9CFEF764FF0AF80600761CB0B2AC
S31500001930761C0AF80040DDF8309007E0BAB241465E
S315000019405044FFF747FFBE190BF1010B0B985FFAE6
S315000019508BF1405C002865D0002500247328A04642
S3150000196034DC4C2859F8048B1CBF5328622811D14B
S3150000197059F8047B4C2806D1BDB24FF6FF7085425C
S3150000198036D0022434E0532832D1FDB2FF2D2FD0B9
S3150000199001242DE06C2804D14046FFF72CFA871C61
S315000019A026E0732804D14046FFF720FA471C1FE0C3
S315000019B0A0F130010A2938BFA0F1300718D3A0F1F1
S315000019C0410107292CD2A0F1370711E0002775281D
S315000019D008BF01240AD0762808BF022406D078283A
S315000019E008BF032402D077281AD1042459F8045BCF
S315000019F0B9B2BDF8000011FA86F10919884205DA74
S31500001A000EE00AF80050761C2D0A641EE1B2002989
S31500001A10B0B2F6D1B9B2002996D0B8F1000F8DD187
S31500001A20002000E0B0B2BDE8F28F10B5454C206052
S31500001A304548018045490A60454A136010BD7FB597
S31500001A400C4608A9009202913F4D3E4E0193024674
S31500001A50298830680023FFF749FF3C493C4B0A6858
S31500001A6010804FF48A5219684C80CA8004B070BD49
S31500001A7038B5364C2568298803463248026834480A
S31500001A80006801B0BDE8304004F088BA0020EFE7F6
S31500001A907FB500F02BF804F0CEF904B070BD00233A
S31500001AA0F6E77CB50192294D264A2E681468009403
S31500001AB0274C3388226804F045FA76BD0022F0E709
S31500001AC038B500F003F804F00CFA32BD00911F4C53
S31500001AD01C490B6825681E492A88096870477FB526
S31500001AE000F004F804F012FA04B070BD00910293FD
S31500001AF00192164C134925680B68154E2A883168E1
S31500001B0070470023EBE70021DAE7F8B50D4D0F4FDC
S31500001B102E6884B00A9C03963E6835880194029527
S31500001B200B4C26687588009504F06CFA05B0F0BD7C
S31500001B30074800687047064A1368187110684171B3
S31500001B407047000030D803204AFC032034D8032015
S31500001B5038D8032070B5044616460D463046FFF7C2
S31500001B60A3FE002020703046A847BDE87040FFF76E
S31500001B70A4BE01223D493E48ECE701223D493E48CC
S31500001B80E8E702223B493D48E4E7F22239493C486E
S31500001B90E0E780B5012005F055FE3A4805F0E6FD80
S31500001BA03949087001BD80B505F060FE012805D0F1
S31500001BB035480078BDE8024005F0C3BD01BDF0B56B
S31500001BC0002400E0641C314D2E88E3B2B3420ED2ED
S31500001BD0E7B20C252E4B6F433B441E78864201BF6D
S31500001BE05D888D421E799642ECD11846F0BD0020E4
S31500001BF0F0BD80B519B905F025FD002002BDB1F193
S31500001C00004F02D205F028FDF7E7022002BDB1F52C
S31500001C10000F3CBF0902FFF7ECBF0220704770B50A
S31500001C2005461E46FFF7CBFF04000ED02846FFF7F9
S31500001C3018FC50B1A0683146FFF7DBFF28B90598BC
S31500001C400499A0716171002070BD022070BD1CB5A1
S31500001C5000931346049C01940022FFF7E0FF16BD93
S31500001C6080B500230093FFF7F2FF02BD3B40020060
S31500001C70F4D603207D410200FCD6032004D70320BE
S31500001C800CD70320E051030083FF0320A2D40320D6
S31500001C9050CA032080B5FFF792FF20B1806800216B
S31500001CA00170002002BD022002BD0022F2E7FEE71D
S31500001CB036E0DFF818010178022901DB01207047C0
S31500001CC00020704738B5DFF8045104462878A04252
S31500001CD003D0214602F050FE2C7031BD10B5DFF85E
S31500001CE0F040207860B900F01BF805F0DBFD01211B
S31500001CF0217028B10288B2F5817F24BF007D207053
S31500001D00207810BDDFF8C4100978012803D1012915
S31500001D10D8BF022002DD10B9012900DDD2E77047E5
S31500001D202A480178022900DB704710B505F0A6FDA8
S31500001D3002462849284C012002F09BFE0120FFF7AD
S31500001D40E1FF2078FF281BD105F0ACFDB8B1408833
S31500001D500006400E00F0010020701822FF211F48E7
S31500001D60FFF77FFD207801280AD1FFF7B7FF052886
S31500001D7006DBBDE81040D921194805F0E9BD207001
S31500001D8010BD80B5FFF7CCFFBDE8014005F08ABD68
S31500001D9070B504460D461646FFF7C2FF0420FFF74E
S31500001DA091FF32462946204605F0AEFD044600F076
S31500001DB003F8204670BD8146022083E780B5FFF711
S31500001DC0AFFFBDE8014005F0AEBD0000B5FF032042
S31500001DD0B6FF0320C08E0300DCD4032000F50320E9
S31500001DE0B48E030080B5AF49022002F042FEFF2008
S31500001DF0FFF7D0FBFF2002F090FDFF2002F090FDE0
S31500001E0005F04AF800F07BF802F0CDFDA649002067
S31500001E10088001BDF8B500F0A0F8009800F00100B8
S31500001E2005B000BD18B587B001A9684605F0BEFA31
S31500001E309E4C9DF80F00A0700822BDF80C00208073
S31500001E4001A9201DFFF7C6FC9DF814009849607390
S31500001E502046097800290CBF0022964A06F0E2F9CE
S31500001E6091490020088008B010BD80B5684605F08D
S31500001E70A7FA932809D1904801680A788DF80020BE
S31500001E80012A04BF02218DF800109DF8000002BD52
S31500001E9070B590B004460D4616462C22002105A8C2
S31500001EA0FFF7DFFC8DF81640ADF8146006A802F0C7
S31500001EB057FD01A806F084FF0198ADF83A00FFF738
S31500001EC0D4FF8DF83C0000F04BF8294605A806F033
S31500001ED0EEFA04469DF83C00784A7949009023467C
S31500001EE0012002F0C6FD200004D16F48018841F4AC
S31500001EF080710180204610B070BD06F07FBFF8B536
S31500001F00012006F07EFF6F4806F091FF6E4806F04E
S31500001F1091FF00F022F80098C1071CD56B490220FA
S31500001F2002F0A7FD644801680878012808BF02206E
S31500001F3006F00AFC022006F068FF00F00EF8009892
S31500001F4040F080000090684606F045FF00F008F873
S31500001F50032002F0AFFC05B000BD684606F030BFB6
S31500001F6078B58FB005A85A49282203F04FFB05F033
S31500001F7053F808B100201BE001A802F08CFC040015
S31500001F80544D554E03D000903246544B0BE005A8F5
S31500001F9002F008FD05A901A806F0A2FB040006D080
S31500001FA0009032464E4B2946022002F062FD204642
S31500001FB010B070BD10B53C4C208840F400702080F5
S31500001FC002F00CFC034622884649012002F051FD2E
S31500001FD002F004FC01280CBF0124002406F076FF61
S31500001FE028B102464049022002F043FD00E024B138
S31500001FF006F0BAFEBDE81040F4E610BD38B52A4C2E
S315000020002E4A2388394984B00546009301202B4681
S3150000201002F02FFD2088810504D5912D40D1FFF7D0
S31500002020E1FE3DE010F08F0F26D0902D02D1FFF794
S31500002030F9FE35E0912D33D0029001952C482D4BB9
S31500002040254A2D490090022002F013FD2078010652
S3150000205026D404F0E1FF03280AD128480178042990
S3150000206006DA491C01700120002101F037FC17E057
S31500002070022007F0BCFB13E0FFF76FFF902D0FD196
S315000020800098C1070CD54208520000920021019128
S315000020900291ADF80C10684606F09DFE07F041FE71
S315000020A005B030BD5C4603000AF90320DCD50320E9
S315000020B0BBFA0320DCD603209CD803200848030083
S315000020C078460300008810020070EF052C460300D6
S315000020D0B0460300D8460300EC460300F44603006E
S315000020E00C470300244703006047030090470300A2
S315000020F0F8470300E0470300C0470300E3FE032060
S3150000210080B5FFF7FAFEBDE8024000F0FE0006F0DB
S3150000211078BE80B5FFF7F1FEBDE8024040F0010051
S3150000212006F06FBE1CB5DFF8B44A0A22002120462D
S31500002130FFF797FB60220021DFF8C80CFFF791FB41
S31500002140A0206080052120208DF80410009001ABAE
S3150000215010222121F22007F022FE13BDDFF87C1A9F
S31500002160002000B508704FF0FF3187B000230491BE
S315000021708DF818000021039002900191009304AAA3
S3150000218008F091FB07B000BD18B5DFF8504A207A79
S31500002190C10787B012D54FF0FF32002104928DF8A7
S315000021A0181008F007FF0020002100232072039179
S315000021B002900190009304AA08F075FBDFF8481C12
S315000021C00020087008B010BD80B5FFF7C7FFDFF824
S315000021D03C1C0020087001BD2DE9F04700F0010805
S315000021E0C0F34204894692460609450900F0C3F841
S315000021F006F0010605F0010526D1DFF8E07938780A
S3150000220020B109F01EFAF98888421DD1B8F1000FF5
S3150000221018D009F016FAF880A021012038707980CC
S315000022207C70E2077D7146BF4FF47A7101FB09F1BC
S31500002230DFF8DC1BDFF8D40B05F00EFA26B187F8C1
S3150000224004A001E0FFF78AFF0120BDE8F087002027
S3150000225070472DE9F34F8FB00746DDF88490154699
S31500002260984600F084F8780A00F0030AC7F3411094
S315000022708DF818000024F80A00F0070BDFF8940B1D
S3150000228038400828DFF8A00B01680A7908BFA14684
S31500002290042A08BF01242B001A9D08BF0AAB05B902
S315000022A00AAD1F9E06B90AAE109ACDF8008007F057
S315000022B0070107A809F07EFA002854D0DFF86C1B46
S315000022C0012002F0DCFB00F056F84CD1BAF1010F08
S315000022D049D09DF82400C0B1022844D1002208212B
S315000022E007A802F0C9FA00283DD107F018001828FF
S315000022F039D0ABF10500022835D39DF8180068B92E
S31500002300F8060BD47CBB85202BE0079858B310F158
S31500002310070FEAD310F1010F25D1E6E71E9A2098A0
S315000023201C991B9B049201900091CDF81490039682
S31500002330029507A99DF81820384609F0C0FD38B166
S31500002340DFF89808417888070DD5FFF707FF0AE000
S31500002350380708D509F0D1FAFF2808BF002C02D1AA
S315000023608920FEF7D0FA012011B0BDE8F08F0AA847
S31500002370142109F053BEDFF8B00A01680A685079E3
S31500002380F22870472DE9F0438FB081468846169CA7
S3150000239016461D46FFF7EBFF04B90AACFFF7EBFF45
S315000023A04ED1189F179A2946199DF02F49D0F32F21
S315000023B061D1002200298DF8242007923CD109F032
S315000023C0B3FF80453AD1DFF8405ADFF81048287845
S315000023D010B1207A810764D504F020FE0B3840F056
S315000023E0100004AA01238DF8100000210192009329
S315000023F003910291F32307AA012008F054FA012061
S31500002400207204F00BFE06F10B0188420BD001206E
S315000024100B3600FA06F10022032008F012FD207A9E
S3150000242000F0FD0002E0207A40F00200207241F246
S315000024308831284605F010F9012033E0FFF7A4FEA5
S315000024402FE019F007008DF8180008BF049101D09D
S3150000245000F02BF809F068FF804503D100F02FF853
S31500002460F0231AE00020002100230390029101903E
S31500002470009304AA13E0F72F03DAA7F1B003102B99
S315000024800FD219F003008DF8180008BF049101D08F
S3150000249000F00BF800F013F83B4604AA012008F000
S315000024A002FA00200FB0BDE8F08302218DF8181063
S315000024B08DF819202146082204A8FFF78BB90020C1
S315000024C000216A1C0390029101922B7800937047B9
S315000024D0002070472DE9F04704468846626892B2AC
S315000024E000214046FEF7A0FA207C08F1020520B93B
S315000024F0A26800F0A2F82D1D07E0022805D10822E7
S3150000250004F1080100F09FF80835207C022804BF7A
S31500002510607C05F8010B6168880403D5A28A00F087
S3150000252097F8AD1C606841040ED5A07D05F8010B37
S315000025300021A26900F082F82D1D102204F11C0171
S3150000254000F081F8103505E0800603D5A26900F099
S3150000255074F82D1D207941064FF00C0A0ED500F0B7
S315000025605EF800F061F805D100F06BF800F06EF847
S3150000257000F04EF87F1CF9B20229F2DB6068C10553
S3150000258017D500F04CF8FAB204F12C011AFB02F24E
S315000025908E183378022B08D1728800F059F8AD1CDA
S315000025A0B28800F055F800F033F87F1CF9B2022922
S315000025B0E9DB04F14400017805F8011B227902F0F9
S315000025C01802182A1CBF407805F8010B626810042F
S315000025D003D5120C00F03CF8AD1C6068C10312D59F
S315000025E000F01DF800F020F809D100F02AF800F0FC
S315000025F02DF899F800000A30AD1C89F800007F1C00
S31500002600F9B20229EEDBA5EB080188B2BDE8F08736
S3150000261099F80000401CAD1C89F80000704700279F
S31500002620A94605F8017B7047FAB204F12C011AFBA2
S3150000263002F28E183378032B704700212846FEF7E6
S31500002640F8B90822B11C2846FFF7C4B808357289C4
S3150000265000212846FEF7E8B92DE9F84FB6B00F4637
S3150000266000F00701C0F3C1008DF8041000909346F6
S31500002670984607A8FFF77CFEDFF8AC170968002626
S315000026800025BBF1000F087908BF0DF11C0B0028CF
S315000026904DD109684879F2283CD10FA9E8B209F072
S315000026A0B8F8002836D19DF83C00FF2818BF761CE4
S315000026B06D1CE8B20428F0DD9DF80001DFF84459EE
S315000026C0DFF84499DFF844A90690F4B2009860BB9D
S315000026D09DF80410CDF800803A465B460CA809F038
S315000026E069F8002800F07F800CA809F0E8F8FF28B8
S315000026F0064622D000200122FF2305900490039273
S3150000270002930194009000F074F80FA9304609F086
S3150000271080F800286BD1288809EB00010FA8FFF785
S31500002720D9FE2988401828805BE0009801285AD1F4
S315000027309DF80001F6B2B04209D30021059104913B
S3150000274003918B22069902910194009247E00020A2
S315000027500590002106980491FF22039202900194AD
S31500002760009100F046F800279DF800B10024B84615
S315000027700FA95FFA88F009F04CF8002837D19DF8C8
S315000027803C00FF2815D07F1CFAB2934511D221A92F
S315000027900FA8FFF79FFE06462888811952290ED2F8
S315000027A0324621A94844FFF715F8288836182E80A6
S315000027B0641C08F101085FFA88F10429D8DD89F85C
S315000027C00640FEF79EF874280DD100200590039070
S315000027D0002106980491FFB202900197009100F043
S315000027E008F8FEF78EF8012037B0BDE8F08F00201C
S315000027F0FAE753460B2221210120FFF720B92DE9E4
S31500002800F04F0024F22808BF2129A7B04FF0000A94
S315000028104DD1112A02BF802B3098002847D1DDF810
S31500002820C480B8F1050F42DD1120FEF75FFADFF82C
S31500002830D457DFF8D4972E88361DB6B2B346002794
S315000028406946F8B208F0E5FF30BB9DF80000FF28A6
S315000028500FD012A96846FFF73DFE044630198045A1
S315000028601CDB224612A909EB0600FEF7B3FFA619E8
S31500002870B6B27F1CF8B20528E2DB5FEA0A00A6EBD7
S315000028800B060ED10020FEF722FA4320FEF71FFAB0
S31500002890B0B2FEF72BFA06E0002009E04FF0890AF5
S315000028A0EBE7FEF714FA288836182E800124204616
S315000028B027B0BDE8F08F2DE9F04FC84E8BB03078C9
S315000028C068B10A93187A002804BF1B68002B06D04B
S315000028D0199CE02C18BFE22C01D0179B0BB10120EC
S315000028E018E1DDF874901C9DDDF868A0DDF85480D1
S315000028F0149F8DF824208DF82510834609F014FDC9
S315000029000690CDF820A09DF8251018980791029002
S31500002910CDF814909DF824100A9804950394019715
S3150000292000910246437A01684BEA071040EA881490
S3150000293044F4006008F0E5FEFFF7FAF80446F220DA
S3150000294020716071052009F01DFE707910B100F04C
S3150000295012F80DE09DF82400A0F10C05E088A572A0
S3150000296040F00200E0800A980BF090FA00F08CF834
S3150000297000F03AF9B3E7F1880020FFF79FB82DE998
S31500002980F84F1C468AB00546207A002804BF236803
S31500002990002B77D030B9236813F1070F02D313F158
S315000029A0010F6FD102280AD10023D8B2205C18B9D2
S315000029B05B1CDEB2082EF8DBDBB2082B62D0169861
S315000029C000285FD1179E237A300018BF43F0080312
S315000029D07E2D159818BF7F2D03D143F4007300B1E7
S315000029E00420149DDFF8F491DDF868A0DDF870800E
S315000029F0DDF874B08DF824202F0143EA801347F4E4
S31500002A0000673B4399F80500ADF826300F4698B1AC
S31500002A1009F08AFC00F03EF8002E14BF20200520A5
S31500002A2009F0B0FDFFF784F800F0DAF80020B9F8F5
S31500002A300610FFF743F823E009F076FC00F02AF8C9
S31500002A40FFF776F800F0CCF89DF82410A1F10C05FC
S31500002A50C188857241F00201C1804EB17F0907F03D
S31500002A600607C7F103077F073F0E2037B8B200E01D
S31500002A70052009F087FD20460BF008FA00F004F85F
S31500002A8000F0B2F8012045E00146EAB24FF6FD70CB
S31500002A90FFF737B80690CDF820A00797CDF814B009
S31500002AA0CDF81080019522469DF864001899039090
S31500002AB002919DF824000090637A2168BDF82600F3
S31500002AC008F01FBE01E0000000BF2DE9F84F8AB0F4
S31500002AD0DDF854E0DDF858C0DDF85080179FDDF8CA
S31500002AE06090199EDDF868A01B9D1C9CDDF874B0F3
S31500002AF0CDF808C0CDF804E0CDF824B008940795C9
S31500002B00CDF818A00596CDF810900397CDF8008063
S31500002B10FFF735FF0BB0BDE8F08F2DE9F84F2F4ECC
S31500002B208AB03478002C1EBF347A04F00304012CDA
S31500002B3052D008257E281598149CDDF860B0DDF883
S31500002B406480DDF868A0DDF874908DF8242008BF55
S31500002B504FF40275800140EA041040F400602843F7
S31500002B60ADF826000F461C9D707968B109F0DCFBB4
S31500002B7000F03DF8FEF7DCFF00F032F8202009F007
S31500002B8001FDFFF7F8FE25E01E4609F0CDFB00F03B
S31500002B902EF8FEF7CDFF00F023F87F0907F00607B1
S31500002BA09DF82410C7F103077F07A1F10C04C18823
S31500002BB041F002013F0E8472C1802037B8B209F09D
S31500002BC0E1FC30460BF062F90146E2B24FF6FD70C9
S31500002BD0FEF797FF00F008F801209BE72CF1032091
S31500002BE0F221017141717047002009F0CBBC0690BB
S31500002BF0CDF820A00797CDF814900495CDF80C8059
S31500002C00CDF808B0019400239DF82400009000221E
S31500002C10BDF82600002108F074BD2DE9F84F9AB0E2
S31500002C2091462B980246FF2A0C461F4600F0E58087
S31500002C304821DFF8DC334A4319680D1D091DAB58DE
S31500002C4043F400738B5008A943F48063AB5008F03B
S31500002C50E0FD002840F0D180079700213E7A4FF032
S31500002C600C0808A808FB01F2104490F82C00002874
S31500002C7014BF032846F0080603D0022808BF46F012
S31500002C802006491C0229ECDB9DF82400299DDDF86D
S31500002C909CA001062499259848BF46F0100646EAEE
S31500002CA0811646EA0026E02D46F4A04618BFE12D1F
S31500002CB0B6B203D1DFF85C23107820B15FEA0A00D0
S31500002CC018BF46F400668DF81890289F01B94F4644
S31500002CD0DDF8B4B0DDF8B09009F026FB0594049059
S31500002CE0CDF80CB0CDF808900195009764090798C7
S31500002CF0437A016804F006040246C4F10304304630
S31500002D00640708F0C1FC240E2034ADF800409DF89D
S31500002D101850DDF81C9000244FF6FC7B08A808FB31
S31500002D2004F1471807F12C063078002818BF03284D
S31500002D3018D1FEF7FDFEFFF753FF5FEA0A0014BF46
S31500002D402020052009F01EFC7089584506DB07F196
S31500002D502E0009F075FA5845B8BF70817189FFF7E2
S31500002D600BFE1FE002281FD1FEF7E2FEFFF738FF39
S31500002D70A5F10907877200F04FF85FEA0A0014BF51
S31500002D80BDF80000052009F0FDFBB0884FF6FF7185
S31500002D90884204BF48460BF079F801467088FAB2BB
S31500002DA0FEF77DFEFFF720FF641C022CB6DB9DF8C4
S31500002DB02400010621D5FEF7BBFEFFF711FF857241
S31500002DC0BAF1000F00F028F814BFBDF80000052086
S31500002DD009F0D8FB0998810448BFBDF8348003D4B4
S31500002DE048460BF053F8804648460BF04FF82A4603
S31500002DF04146FEF754FEFFF7F7FE01201BB0BDE883
S31500002E00F08F000038F10320A0F1032098F1032091
S31500002E100071020008000200C18841F00201C18071
S31500002E209DF86410C172704724D90320E076030030
S31500002E30012070472DE9F84F064676480C46017A80
S31500002E40C8079EB0154603D59DF8B410E32972D184
S31500002E509DF8A0000B93002802BF6E490878002851
S31500002E6010D1184608F02BFDFF280BD00CA908F04E
S31500002E70D0FC00285FD10D9841045CD49DF8460033
S31500002E80002858D1002E18BF7C2E8DF8286005D05A
S31500002E907F2E50D15F49087800284CD05D498DF8C7
S31500002EA02A408DF829500878299C2A9D2B9EDDF80A
S31500002EB0B090DDF8B8A02F9FDDF8C080DDF8C4B073
S31500002EC0002863D0280003D000F079F8FFF7F3FC60
S31500002ED09DF828007F2804BF9DF8A000032805D18F
S31500002EE09DF8B40000F05DF8032145E09DF8B400BC
S31500002EF0E02836D02AD3E2281ED002D3E32820D0F9
S31500002F0024E09DF8A0100B9B9DF829200091E1205C
S31500002F100590CDF824B09DF82A109DF82800CDF82C
S31500002F2020800797CDF818A0CDF81090039602954B
S31500002F300194FFF7C7FD31E000F043F8FFF7C4FD49
S31500002F402CE000F03EF8FFF7E8FD27E09DF828109A
S31500002F507C2909D1A0F1E4020C2A24BFB03810283C
S31500002F6018D200F02CF80EE07F2913D19DF8B4009A
S31500002F709DF8A01000F015F800910B9B9DF82920F4
S31500002F809DF82A107E20FFF7FAFC07E09DF8B400B2
S31500002F90E22803D000F013F8FFF73FFE1FB0BDE8AC
S31500002FA0F08FCDF824B0CDF820800797CDF818A083
S31500002FB00590CDF8109003960295019470479DF800
S31500002FC0B4009DF8A010059000910B9B9DF8292058
S31500002FD09DF82A109DF82800CDF824B0CDF8208061
S31500002FE00797CDF818A0CDF8109003960295019496
S31500002FF0704728B90748017AC80748BFFFF7C4B821
S315000030007047000054FF032048D80320EC760300E5
S31500003010F8D103202CF10320912800D0704780B509
S3150000302000F04BF918B9BDE801400BF057B801BDE7
S3150000303080B5A0B080787D22694604F006F90100CB
S315000030401CBF694602F05DFC21B000BD38B50A46DA
S31500003050014610460BF060F9FF28044601D11820FE
S3150000306032BD012201210CF081F8054620460BF005
S31500003070D0F8284632BD80B502F044FBBDE80240D8
S31500003080012010B5040014BF084800200CF040F9D8
S3150000309050B1002CBDE8104014BF054A054A03464E
S315000030A00549022001F0E5BC10BD0000B073030025
S315000030B098730300A47303006C73030038B50CF017
S315000030C08FFA0CF094FA78B101F05DFC60B1094C0E
S315000030D0207804F06FFB0546207804F0ACFB3DB188
S315000030E0BDE8314001F04EBCBDE831400CF0CEBA2F
S315000030F031BD000083FF03207047FEE780B55222F2
S3150000310000214F48FEF7ADFBBDE808408FE0FEB555
S31500003110054601F0F9FA0646284601F005FB9DF83A
S3150000312000102A464FF6FF7416B3019B1B78212A1E
S315000031301EDA4220022B434E09DA4343F01830F8D8
S315000031401230A34214D05B1C20F8123010E00FD1CD
S31500003150002306EB420700FB03F637F806E0A64518
S315000031601CBF0EF1010E27F806E05B1C022BF2DBFA
S31500003170354F334E37F8123036F812C09C45804131
S31500003180C043C00FA4451CBF0CF1010C26F812C0A9
S31500003190092D18BF0B2D0AD1B6F814C0BF8A01EB52
S315000031A00C0EBE45AEBFB7826144B1820CE01D2D48
S315000031B00AD1B6F83AC07F8F01EB0C0EBE45BDBFF3
S315000031C0491E61447187778736F81210994203D3F6
S315000031D010B9284601F0CFFB00201C49C6B28A5D13
S315000031E0AA4204D0401CC6B2112EF7DBF7BD112E41
S315000031F015DA02F00EF90546154801788D4203DB13
S31500003200DD21144804F0A4FB222013494543481944
S3150000321030F81610A1421CBF491C20F81610F7BD45
S31500003220522200210648FEF71CBB000000BF5222B6
S31500003230FF210548FEF715BB034A22F81010704718
S3150000324038F5032004F603208CF50320C09703000D
S31500003250EBD40320B0970300E0F50320DFF8A41AAF
S31500003260C873704710B5DFF8A04A2068427B112A60
S3150000327004D0B021DFF8940A04F06AFB20684121EB
S31500003280417310BD80B5022002F0C9F802F0D0F8F3
S31500003290DFF8741ADFF86C0A0A68137B042B03D173
S315000032A0017C491D017404E04FF47A71183004F072
S315000032B0D3F9BDE8014002F0BCB8DFF84C0A01685A
S315000032C0487B33281CBF4328532801D1012070476F
S315000032D0002070472DE9FF410CF0ECF909F032F9B6
S315000032E0002851D0DFF81C4A00202076DFF8200A9B
S315000032F001790C3001F05AF8607D18B10CF06EFBC4
S315000033000020607500212173002500F03FF80DF0C4
S3150000331038FB0CF021FADFF8FC89DFF8EC69DFF8FE
S315000033205C7B3978E8B288422ED202F081F83068A8
S3150000333041884FF6FF72914218BF012007D1002243
S315000033400821001D01F098FA401E8041C00F94F834
S31500003350281001F00101014212D030684188ADF811
S3150000336008100822011D6846FEF734FA0A230A22CD
S3150000337001F062F802230B22414600200DF0FEFC0C
S3150000338002F057F86D1CCCE7BDE8FF8110B5DFF8F9
S3150000339078090068017B032918BF042906D14188F2
S315000033A04FF6FF72914208BF032008D001F0CBF917
S315000033B0044601F0CCF9214603F05FFB022001F040
S315000033C0CEF90DF08BFD00F0BDFEBDE810400DF00E
S315000033D003BB38B5DFF82C49DFF82C59E073002120
S315000033E04FF6FF7001F003F92968487B032818BFE0
S315000033F000281ED0332818BF432814D101F09AF8AC
S315000034002868017B032918BF042906D103214173CB
S31500003410E07BBDE8324002F072B8E07B02F06FF864
S31500003420BDE83140B2E721204873BDE8314005F0E0
S31500003430A9BD31BD10B5DFF8D018DFF8C8480A6855
S31500003440002050734FF6FE7008F072FF4FF6FF70C3
S3150000345008F076FF01F06EF8E07BBDE8104002F060
S315000034604EB8000070B506463346182201F064F8DF
S31500003470DFF89008DFF89028002180F820107025EA
S315000034801368197B032918BF042911D000253100C0
S3150000349008BF05750CD0FF2E02D10121017507E08A
S315000034A00122B4000275641C2102203004F0D4F815
S315000034B000F048FE284670BDDFF84808007D7047DA
S315000034C0DFF84018002081F82000CBE738B50D461C
S315000034D088B00446686907901622297C0691E88917
S315000034E00590297B0491E87A0390032095F90A1048
S315000034F002912B890BA10193009523460DF06BFEDB
S3150000350001200CF0BDFA287B00280CBF4FF6FE7098
S3150000351008F00AFF2B46224609B0BDE830400146B6
S31500003520012092E0424238705742424257424400DC
S315000035302DE9F041DFF8D0570E4629688046487BD2
S31500003540002814461F464BD1200049D0042C47DCE6
S31500003550DFF82C0901780B2942D101F06BFF002816
S315000035603ED101F069FF08B1042C39DB387B032812
S3150000357016D14FF6FE718E4214D1012C08BF0026DB
S3150000358010D0022C2CD108F0CFFE4FF6FC718842E9
S3150000359002DA08F0C9FE01E00DF055FE064601E02C
S315000035A0012C1DD0B8F1000F0CD0387B03280CBFBE
S315000035B0012100212046012C18BF00200EF086F8BC
S315000035C0010026D13946304600F09EFE010020D18A
S315000035D001F02AFF01F00FFF20B101F02DFF08B125
S315000035E0702016E02868407B332818BF532803D084
S315000035F0DFF8101700208873204600F05AFEDFF827
S315000036008418087820B101F017FF08B90FF0C5F942
S315000036100020BDE8F08138B50446DFF8E8560822F8
S315000036202146281DFEF7D6F8207B0328A8BF0020D8
S315000036309421E9732870DFF8D01628780A680028E4
S315000036400CBF01203120507331BD10B51C46FFF769
S315000036506FFF01002BD1207B0328204602D1BDE855
S3150000366010408AE0FFF7D7FFDFF89806DFF89846A4
S31500003670002181814FF001032068817B480905D133
S31500003680DFF8800C027803FA01F108E001F01F016F
S3150000369040F0180003FA01F1052241EAC061052055
S315000036A007F0CFFB010002D022680021517310BD44
S315000036B0F8B586B006460C4617461D46082204F1A4
S315000036C00C016846FEF786F82189ADF808108DF8DA
S315000036D00A70002221788DF80B108DF80C206B46AD
S315000036E032464FF6FE710120FFF722FF01000AD194
S315000036F06846FFF790FF204600F007F8010004BF78
S31500003700DFF800164D7507B0F0BD38B5DFF8F8558F
S3150000371004462868007B032818BF042806D1E079F0
S31500003720C10744BF94F905000FF0B2F92868217863
S31500003730817301F03AFE2968DFF8240C0A7B825C6B
S31500003740218960890FF07FFC040004D09420FFF7E4
S3150000375040FE204632BDDFF8AC459420E0730220DF
S3150000376001F05CFE00F004F803202074002032BD56
S31500003770C82104F1180003F06FBF10B504460022FB
S31500003780082101F079F808B1012010BD08F0CCFD40
S3150000379000224FF6FF7100F0E5FD217C204600F087
S315000037A005FE6269E189207C0DF0C8FBDFF858054B
S315000037B001680A7B012A08BF0EF022FDFFF7E6FD2D
S315000037C0002010BD7CB5DFF8405529680446487BCB
S315000037D0002802BFDFF8A81608780B2801D0702051
S315000037E076BD0CF056F9DFF81C652CB10222214695
S315000037F006F12800FDF7EEFF684600F0D0FE08B19E
S31500003800932076BD9DF80030142200F095FE00F05E
S3150000381017FE010061D19DF8000000F04AFD2868FE
S31500003820007B012818BF022807D0032818BF0428E8
S3150000383038D1002000F0FCFEA0B300F018FE286886
S31500003840007B032814BF04280FF0CBFCFFF79EFD76
S3150000385001200FF0E7FC01003FD12868007B032818
S3150000386018BF04280ED196F828108A0708D5052215
S31500003870DFF84C18012000F045F801002CD076BD89
S31500003880032801D0042827D1DFF8884402230B221D
S31500003890214601200DF072FA207841071CD50CF064
S315000038A053F819E0296813204873002272734FF009
S315000038B001022868817B480908BF02FA01F107D096
S315000038C001F01F0140F0180002FA01F141EAC0615F
S315000038D00522072007F0B5FA002076BD10E00000AB
S315000038E038B504461046032818BF04280D4601D0F3
S315000038F0022032BD00F0DDFC29462046BDE83840F6
S31500003900FF2200BF2DE9FC418046DFF8FC0300687A
S315000039100D46017B0129164640D0477B022F07D072
S31500003920032F3BD15FEA080102D1007D810735D420
S31500003930332000F014FF0BF0BDFE15F0784F12BFD8
S315000039400522DFF8C00902782946052007F079FA32
S315000039500446A8B9DFF8AC73387301200CF090F870
S3150000396008F0EAFC78805FEA080014BF0220012014
S315000039703870381D00F02AFE00207873BE7302E00E
S31500003980384600F0ECFE5FEA08003146284602D0D1
S315000039900FF06AFC03E00FF066FC00E0702401946F
S315000039A0009543465FF02C0203A103200DF013FCA3
S315000039B02046BDE8F6810000424244420000000075
S315000039C038B504460AF0B0FB054620460FF073FCF6
S315000039D02C1820460FF08CFD4FF6FF510140204673
S315000039E0BDE834400FF08BBDFEB5054608F09CFCE3
S315000039F0C54C06462068007B032818BF042806D15C
S31500003A00E879C10744BF95F905000FF041F8216830
S31500003A102878887301F0C9FC6889002100F0E7FD69
S31500003A2000F03CFF60B1300003D04FF6F8718E42D3
S31500003A3006DB0DF008FC21684A8890420646F8D05D
S31500003A40304608F075FC288908F07AFC06208DF8C7
S31500003A500800DFF80C192068027B8B5C8DF80930B2
S31500003A600021019100910223408802AA01210FF052
S31500003A7094FEFF28064604D11820FFF7AAFC18205A
S31500003A80FEBD20689F4D418830460FF055FC2878D2
S31500003A9002281CBF3046FFF793FF00F063F8074685
S31500003AA030460AF0B6FBCFB19420E873022001F04D
S31500003AB0B5FC2068017B042908D1C82105F118004E
S31500003AC003F0CAFD032028740020FEBD4FF41671D2
S31500003AD005F1180003F0C0FD0020F4E79420FFF77D
S31500003AE078FC0120FEBD78B587B00C4616461D460B
S31500003AF030B9204610F040F803A90EF05AFE03A88C
S31500003B00019007230C998DF8096001208DF8083083
S31500003B108DF80B100090360A8DF80A60042302AA6D
S31500003B20012120460FF039FEFF28064618D021460F
S31500003B300FF002FC15B93046FFF742FF0D9808B9A1
S31500003B4030460DE020460EF06FFE18B1304610F0FC
S31500003B5041F801E000F006F830460AF05AFBFF2073
S31500003B6008B070BD00220021304610F075BB2DE96B
S31500003B70F34F824685B014469DF818001D4603A9EA
S31500003B800FF046FE0027002C14BF4FF0010BBB467A
S31500003B900026BBF1000F4FF6FF79B84607D008B1F3
S31500003BA00DF10C086678760806F0010604E09DF82B
S31500003BB018000FF02AFC804600F0F5FB087B03286E
S31500003BC018BF042800F09B806D1C9DF81800E9B210
S31500003BD00AF0C0FC0546400800F001008DF8090017
S31500003BE08DF808A0280600F0DEFB4A7B58BF45F09A
S31500003BF08005022A04D1434A107D50EA0A0101D108
S31500003C00022729E0404608F01BFBADF8000003211F
S31500003C109DF818000FF049FB814608B94FF00109DD
S31500003C2030000CBF4FF0050A4FF0010ABBF1000F40
S31500003C3003D0201D0FF05CFC01E0BDF8000001463A
S31500003C40CDF8009053462A4640460EF0CDFC00F0D3
S31500003C50EBFC814608BF0127DCB19DF8080018B9C6
S31500003C60484600F0E1FC02D1201D0FF041FC012185
S31500003C7001910097014633464A464046FFF733FF17
S31500003C809DF8090050B94FF6FF71404610F0C1FD8E
S31500003C9004E03A46494640460FF0AEF97FBB9DF830
S31500003CA0090028B14146484610F0D7FD10F024FE21
S31500003CB030001EBF48464FF6FF7188420DD00FF008
S31500003CC05BFFFF2809D0DFF8E4190A6832F81030E4
S31500003CD04BF6FF710B4022F8103084B108F024FB3C
S31500003CE00EB1002405E09DF80810002914BF032436
S31500003CF00124014643464A46204610F0A3FF07B07A
S31500003D00BDE8F08F20F80320E4F80320EC4600001D
S31500003D1058F803205AFA03202DE9FF4705460C46BA
S31500003D20904602A920460FF073FD814601AA0020A5
S31500003D30106020460FF0C9FA29000646DFF87079B0
S31500003D4008D0B9F1000F18BF0DF108090FF055FDA5
S31500003D50824604E020460FF058FB8146BA46002012
S31500003D60009004234246214601A80AF0F1FA0DF11B
S31500003D7005000FF0BDFB80469DF80740280006D0E1
S31500003D80082239465046FDF773FD002871D1DFF849
S31500003D9024793968C87E10B17078820712D5280058
S31500003DA010D0487B022808BF002C0BD1404608F0F3
S31500003DB0BFFA0CF0E6FD992300F0BDFB992001F057
S31500003DC09EFB56E000F06AFD002818BF002C03D0C9
S31500003DD09420FFF7FEFA4CE000F060FD002848D082
S31500003DE0484610F0A7FBFF2801D0290004D1386807
S31500003DF04088494610F031FD10F07EFD3868DFF846
S31500003E00B84841884A46404600F0ACFADFF8AC08AC
S31500003E1090F90210090261853868417B012916BFB5
S31500003E203129112143214173022001F0F7FADFF80D
S31500003E3090080168FFF79DFC0FF0D3F9002020746D
S31500003E403968C87E20B904F1180003F0FBFB0EE0C8
S31500003E502DB17078820702D5FFF73CFA07E0087BA0
S31500003E60042804D10521FFF784FC09202074AD2124
S31500003E70E17301F09AFABDE8FF870000EBD4032056
S31500003E8007D5032004D503202DE9F04F8DB08146D8
S31500003E900FF01BFA07460FF063FA019048460FF041
S31500003EA0B4FA824602AB052205A9484611F0FCF990
S31500003EB00228804621D048460FF0FDF901999DF869
S31500003EC00820DFF8F06708188518681C8DF80000D0
S31500003ED000F0F8F8EC1C01284FF6FF7B0ED0022804
S31500003EE013D0042800F0C88006281CD0072876D0F6
S31500003EF0082829D07C2800F08980DDE0EBB200227A
S31500003F0049460020FFF733FED6E03068417B0129A1
S31500003F1002BFDFF8A4271078002803D1EAB2494689
S31500003F20FFF7FAFEC8E050460EF029FC0146584558
S31500003F301CBF50460FF02CF83068417B022902D195
S31500003F4050460FF081F9B7E09DF8001048460AF098
S31500003F50B5FB0746E1B248460AF0B0FB0446AD1D84
S31500003F60E9B248460AF0AAFB58450546EBD00FF0E1
S31500003F7038F93068417B132908D100F078FA4846B1
S31500003F800FF043FA0146204610F067FC3068407B8C
S31500003F90022818BF13281CD1284608F0C9F938464C
S31500003FA008F0CEF90021002000F000FA5146204624
S31500003FB000F01DFBDFF80407DFF80817C0780F28AC
S31500003FC0B4BF401C0F20087000F0BCF83068417B7D
S31500003FD0132971D12322427306F0F6FF6CE0019893
S31500003FE0012138440AF098F90446002300222146AC
S31500003FF001200FF034F9002820465BD00AF009F9B9
S3150000400005AA414648460BF051FD55E09DF80010C3
S3150000401000F059F80746AD1C00F054F8652F08BFAC
S315000040206D2849D1DFF8A0160A6812F80970E0B2C7
S31500004030B84241D20822514603A8FDF7CBFB6B4696
S315000040400022E1B248460FF083FAA8BB9DF80000B3
S31500004050FF2831D0DFF874460120207001F0E3F923
S315000040609DF8001003A80FF0E3F801F0E2F9002034
S3150000407020709DF800001DE048460FF0E4F9044664
S315000040800FF278600088ADF80A00002101910091D6
S3150000409002230DF10A02012120460FF07EFBFF28C4
S315000040A0054609D021460FF047F9002128460AF0B7
S315000040B075FD28460AF0ADF80DB0BDE8F08F00009A
S315000040C000F8FF07E9B248460AF044BA38B50220BC
S315000040D001F0A5F901F0ACF9DFF8DC45DFF8D455BD
S315000040E00020207608F02EFA28B12968C87E10B97B
S315000040F0FFF7F0F820E008F025FA10B900F0CEFB43
S3150000410048B1207C38B1FFF733FB207C411E217477
S315000041100AF033FE10E02868417B132909D000F02D
S31500004120BDFB30B92868407B11281CBF43284128B5
S3150000413002D1E07BFFF74DF9F8E1DFF87C150020AE
S315000041400874704710B501F08BF9FF28DFF8684551
S3150000415003D0207D10B1012000E000200EF020FEEB
S31500004160002060800822201DBDE810400021FDF7D8
S3150000417078BB2DE9F8438946DFF83C45DFF83C85F6
S3150000418001210546617384B0174640460BF031FCA9
S3150000419004F06CFC00281ED1012D01D028001BD193
S315000041A000974B46262297A103200DF014F801F044
S315000041B03AF9DFF81C0504683CB1012D08BF07F089
S315000041C0AFF839464846A04703E03946484603F06B
S315000041D054F901F02EF95FE0DFF8D8643068407BCF
S315000041E023280DD100F0AFFA044600F0B0FA2146BC
S315000041F002F043FC022000F0B2FA0BF0ADFA4BE0FD
S31500004200002F49D121281CBF0428532802D104F0CD
S31500004210B9FE41E000F042FBF0B10BF02DFC28B9ED
S31500004220207B00280CBFAB2094202AE011F027FD4C
S3150000423040460BF0DEFB28B140F2C1610FF2AC4004
S3150000424003F086FB20780028404602D1FFF75DFA8E
S3150000425022E0FFF7C9FB1FE03068417B132916D126
S3150000426000F0E6F8BDF8000008F06AF800F0FFF884
S315000042703068017B032918BF042905D13321417316
S315000042809620FFF7A6F807E0FFF780F804E0042D74
S3150000429004BF484612F038FB4FF400600EF0EEF80B
S315000042A010B910F037F808B10AF0ACFC05B0BDE85B
S315000042B0F08338B5DFF8FC5304462868017BA14239
S315000042C003D00473204601F013F904F0D6FA40B186
S315000042D01CB9002004F0CDFA0EE0012004F0C9FA62
S315000042E000E01CB12868017B042905D101F06AF8B9
S315000042F0FF2808BF012000D00020BDE832400AF0A8
S3150000430069BF000005D5032038B50C460546E07A9E
S3150000431011F03EFAFF2801D18A2032BD94F90A0035
S3150000432000F0C8FA08B18B2032BDDFF888030268B6
S31500004330E17A91730068A17AC173284607F0F8FF05
S315000043404FF6FE7085420CBF4FF6FF70208907F0CE
S31500004350F7FF2089DFF860134880002032BD000097
S31500004360702A010038B50C46154607F0E1FF0CF03F
S3150000437039FF2946204600F03AF90BF07DFB38B1AB
S31500004380DFF83803C0780F28ACBF0F20401C06E0CA
S3150000439000F009F80A7B012A0CBF00200120DFF893
S315000043A02413087031BDC348016870477FB50446C1
S315000043B00D4600F03DF8BF4E94B1424A0021284612
S315000043C00CF0BCFD306801788DF804100822007BE3
S315000043D08DF80500214602A8FDF7FCF912F011FC44
S315000043E03068817B8DF80310C17B8DF8021007F0D1
S315000043F0A3FFADF8000007F097FFADF8060000F048
S3150000440019F87FBD424242001FB5044600F010F87D
S315000044101CB100208DF8050007E007F085FFADF818
S31500004420060007F089FFADF8000000F003F81FBD95
S31500004430684649E010230722694600200CF09EBC1E
S3150000444080B58AB0FFF7F4FFBDF80000ADF818009C
S3150000445004A99DF803008DF81B009DF802008DF855
S315000044601A00BDF80600FFF74FFF0BB000BD70B590
S3150000447086B0012000F0DCF80FF284210400D1E9B7
S315000044800023CDE900234FF6FF752E4607D0894855
S3150000449000684688011D08226846FDF79BF912F060
S315000044A0BBFB02A800F010F8002C0EBF00226A46E3
S315000044B03546BDF80E002946FFF754FF07F0D5FB39
S315000044C006B070BD00F8FF07014610230722012041
S315000044D00CF054BC38B5082000F0A1FF054600F0EA
S315000044E0A7FF744C7B4822680178917300F09EFF09
S315000044F0A84208BF00F02EFF00210020FFF756FF5C
S315000045002068007B032818BF042802D10EF0C1FAE8
S3150000451001E00EF060FA9B2300F00DF89B2000F0FE
S31500004520EEFF2068002120F8441F4180BDE831409D
S3150000453000F07FBFE37B13225BA103200CF04BBE90
S3150000454010B5044611F024F9FF2801D18A2010BDC8
S31500004550FFF729FF487B022818BF032801D07020E7
S3150000456010BD5C480470082000F058FF5A480178D6
S315000045700B2901D03D2010BD58480AF0C6FA08B9EB
S31500004580A12010BD002010BD53490A780B2A01D086
S315000045903D20704747490A68907300F0DBBE1FB59F
S315000045A004466846FFF790FF9DF8050040B10428D1
S315000045B006DC40490A689DF8041013788B4201D046
S315000045C0932001E02070002004B010BD1FB5044602
S315000045D06846FFF779FF082202A92046FDF7FAF898
S315000045E01FBD34493E480A68137BC05C704710B54E
S315000045F0304C2368588029B9BDE810400822181DA0
S31500004600FDF72FB90822181DFDF7E4F82168488840
S315000046104FF6FF72904204D0BDE81040091D0EF01F
S3150000462026BE10BDBDF808004FF6FF7188427047E0
S315000046301FB50446204890F82810C80707D500F093
S3150000464016F8FFF7EFFF02D000F00CF808B10020D3
S3150000465006E024B1BDF808006946FFF7C8FF01204F
S3150000466004B010BD0822FF21684600F005B90A23F0
S315000046700A22694601200CF081BB1A4A10700028F4
S315000046801EBF19490988002905D04FF47A704143A5
S31500004690101D02F0E1BF70471248007870471148BC
S315000046A0002101710170704742420000C0D1032011
S315000046B0ECF80320E4F8032020F8032058F8032040
S315000046C070D20320E7FF0320ACD103208CF803202F
S315000046D0C0F80320D6FF032007D50320D5440000E9
S315000046E0702A01004CF80320B6D403206173736F5F
S315000046F063696174696F6E2E6300000004600000D8
S31500004700FFFFFFFFFFFFFFFF20B500217BA2CBB21B
S31500004710D35C834205D0491CCDB2082DF7D30020C7
S3150000472020BD012020BD000020B5002175A2CBB21E
S31500004730D35C834205D0491CCDB2082DF7D30020A7
S3150000474020BD012020BD6A48016848887047684836
S315000047500168081D704766480168C87E704738B50D
S31500004760634C644D216848730228634915D120685B
S31500004770027B042A1CBF084602F064FF2068007B07
S3150000478003281EBF0428284602F05CFF2068416902
S31500004790C80054BF9024BC2410E000200870287084
S315000047A012F0F3FC2068007B032818BF042802D10E
S315000047B00EF06FF901E00EF00EF99124204603F099
S315000047C01BFE50B92346132248A103200CF003FD1B
S315000047D02046BDE8324000F092BE31BD4448016833
S315000047E0487B00F00F007047414801684A7B02F0A1
S315000047F00F02022A01D1012070470020704738B508
S315000048000446FFF7F1FF3A4D28B92868417B032992
S3150000481001D0932032BD07F08FFD20812868C17B2F
S31500004820A1722868817BE1722046FFF7CFFE002047
S31500004830207304F1140104F110000CF057FBE08121
S31500004840002032BD70B52A4D2E680C46FFF7CCFF0E
S3150000485020B9707B032801D0932070BDF07B2070B7
S315000048602968887B10F0EAFD60702868817B01F07A
S315000048701F01A170002070BD10B5002300E05B1C75
S31500004880DCB28C4205D210F8014B9442F7D00020DE
S3150000489010BD012010BD082112F079BC1448016832
S315000048A0487B01281CBF3128332801D101207047DD
S315000048B00020704710B5044610F02AFF010002D10F
S315000048C00B490A68D47310BD0948016891F90F00B5
S315000048D0704707480168887B704701207047044885
S315000048E001688A7B500918BF0120704742420000C8
S315000048F0E4F803200CFC032004FC0320000102035F
S3150000490004051D200203040508090A0B704701204F
S31500004910704701207047012070477047B5207047E7
S31500004920704770470020704700207047002070478E
S315000049300020704700207047002070470020704715
S31500004940002070470120704701207047B52070474E
S3150000495000207047002070470020704700207047F5
S315000049607047002070470020704700207047842061
S31500004970704770477047704770470120704770470F
S31500004980704770477047012070470020704700202D
S315000049907047034801680878012808BF022070475D
S315000049A09CD803207047704770470020704700204E
S315000049B07047002070470020704700207047002095
S315000049C0704700207047002070477047B520704739
S315000049D00020704700207047704770477047704747
S315000049E07047B52070477047704770470020704782
S315000049F0704770474FF6FF729042014608D0000A92
S31500004A0001D0002070473A48027811EA020000D02F
S31500004A1001207047020A07D1354A1378002914BFCE
S31500004A20184323EA00001070704710B5830800EBA6
S31500004A305374C108E4080122A0EBC40002FA00F096
S31500004A4000EB012080B210BDF8B504460D461646AF
S31500004A501F46FFF7CFFF58B13A463146202012F0E5
S31500004A60F5FC1DB11FA1202012F0E8FC21480480AE
S31500004A70F1BD0CB480B50A4602AB012104E00CB4CA
S31500004A8080B50A4602AB0021FFF7DEFF01BC5DF8E8
S31500004A900CFB2DE9FC410024174DDFF8608012A7BE
S31500004AA012A6A0B2FFF7C1FFFFF7A4FF002814BFAC
S31500004AB0304638460090224658F8243029462020B1
S31500004AC012F0A9FC202012F00CFD641C052CE8DB7A
S31500004AD0BDE8F3810122FF2101E001220021044803
S31500004AE0FCF7BFBE0D0A00006E6F0000594553006B
S31500004AF0D4D4032058FF0320AC610300B4CA0320BA
S31500004B0080B5FFF792FFBDE80440012182E780B53A
S31500004B10FFF78BFFBDE8044000217BE7F0B50A46AE
S31500004B203F4C3F49B0FBF4F401FB14004FF46165C0
S31500004B30B0FBF5F515714FF4616115794D43411BD5
S31500004B403C26B1FBF6F656713C21577911FB075509
S31500004B50401B907101234FF4FA6010809370D3705C
S31500004B6000262E4D03E0002300E00123761CA6421A
S31500004B7035D29078190003D0022808BF1D2102D033
S31500004B80291811F8011CD778B94203BF401C907050
S31500004B9001277F1C9078D7700D28E7D113885B1CFE
S31500004BA01380012090709BB25F0803EB977080081A
S31500004BB0B3EB8001D7D1642093FBF0F0642101FBB5
S31500004BC010300028D1D14FF4C87093FBF0F04FF4A9
S31500004BD0C87101FB10335B1E9B41DB0FC6E7F0BDBE
S31500004BE018B587B0044605A9FFF798FF9DF81A0087
S31500004BF09DF819109DF817309DF816200390029124
S31500004C0004949DF81800BDF8141001900091054811
S31500004C1005490088FFF72DFF08B010BD706403003A
S31500004C208051010058FF03204C640300FFF7D8BEF3
S31500004C30FFF78EBE2DE9F04104460D46164698460E
S31500004C40FFF7D8FE50B1002705E02A5C4146204612
S31500004C50FFF715FF7F1CB8B2B042F6D3BDE8F0816E
S31500004C60002B14BF3FA340A3E4E738B504460D4626
S31500004C702846FCF7BBF80246691C07E038B504462F
S31500004C800D462846FCF7B7F80246A91C204601B097
S31500004C90BDE8304035A3CDE718B587B001783A4C6A
S31500004CA006914278059281780491C278039201793F
S31500004CB00291427901923E2281790091C37920883E
S31500004CC03049FFF7DCFE08B010BD01460022022085
S31500004CD0FFE72DE9F84F88469246002625A726A429
S31500004CE00FF28C09284D8DF800009DF800B05E4546
S31500004CF015DA28880123082208EBC601FFF7B0FF62
S31500004D005FEA0A0004D1701C584518BF4A4600D114
S31500004D10224628883946FFF7B2FE761CE5E7BDE84D
S31500004D20F18F2DE9F041184D04462888FFF762FE01
S31500004D30B0B10120002611A70FF24408E1070AD5F9
S31500004D4018B928884146FFF79AFE2888F2B23946F4
S31500004D50FFF795FE0020761C6408F1B21B29EDDBF7
S31500004D60BDE8F08125782000257800002563000045
S31500004D7000000000202570000D0A000025640000D8
S31500004D802C2000003C61030058FF03201CB504469C
S31500004D9021684879FBF712FB88B920684188032906
S31500004DA00DD0E27C0192009143790A4A0A4901201A
S31500004DB0FFF75FFE01212046FBF7E7FD07E02046EF
S31500004DC012F0B3FB01001CBF2046FBF7DEFD0120FD
S31500004DD016BD00BFE8610300BC6103000098002116
S31500004DE000E0491C8AB28242FBD370472DE9F04F9E
S31500004DF0044687B02168E07CB1F802900490607D9B
S31500004E00D4F80880A689277D002807BF40228DF8A0
S31500004E100C2080238DF80C304879FBF7CFFA88B93F
S31500004E200498002818BF02280CD003281CBF0528A8
S31500004E30B9F1030F06D0DFF830140120FFF719FE91
S31500004E400121E5E1E07B18B1218A002900F02D81DE
S31500004E50DFF8183400221A80617D00290CBF082172
S31500004E60002108B141F004010846FBF730FFE07B62
S31500004E7010B1208AFBF73AFFA07CDFF8F4B3FBF70A
S31500004E8026FF049AF51B791C162A88B208EB070A36
S31500004E9000F20781DFE812F0170011017B003400F1
S31500004EA03C017B00000141010B0146014B01500111
S31500004EB0C80067010501050105017801A101780116
S31500004EC0AE01C80067010120FBF701FF9DF80CA0A9
S31500004ED0DFF89853B8B2801C8642C0F2A2803246F0
S31500004EE0B9B24046FBF760FF834600F0E3F900F0F5
S31500004EF0E5FB18B900F0DEF905F05FF8BF1CE9E73D
S31500004F000420FBF7E4FE0025ADF80E901EE00598A0
S31500004F10CDF808A001904A46218A9DF80C300091F0
S31500004F202068BDF80E10407904F05FFF824650B14C
S31500004F305046FBF7CCFE4846FBF7D8FE6D1CBAF18F
S31500004F40800F00F070815F44FF1CBFB2F01E8742E5
S31500004F5080F2698100F0A9F9814608F1020008F1A2
S31500004F60030110F807A039440591504612F08CFE53
S31500004F7083465046FBF79FFF0028C8D0F01BC01E93
S31500004F808345C4DA4FF0800AD2E7B8490880042086
S31500004F90FBF79DFE0025ADF80E90CDF81880AA46C9
S31500004FA005960598FA1C824280F2518182B20698D3
S31500004FB03946FBF7F9FE80460698811CCE5DC11C7A
S31500004FC001EB070B5946304612F05EFE0599C91BE8
S31500004FD08146C91E681C49458DF80D00C0F22F8117
S31500004FE00296CDF804B04246208A9DF80C30BDF8F2
S31500004FF00E1000902068407904F0A0FE010007D052
S315000050009DF80D50FBF763FE4046FBF76FFE01E08F
S315000050100AF1010A4F44FF1CBFB2C2E70020FBF7AA
S3150000502056FEFBF76EFCF6E00C2A0CBF0D20162090
S31500005030FBF74DFE00F039F9054608F10200049928
S3150000504010F807800C2905D1B8F11A0F09DB4FF0CB
S31500005050190806E0152904D1B8F1140FA8BF4FF0BE
S315000050601308824801880BEB01070020FBF72FFE8F
S3150000507004989DF80C30CDF8048015280CBF01204B
S31500005080002002902A46208A0090494624686079CA
S3150000509004F0C6FE3870C4E72046FFF745FC00283A
S315000050A0C1D1E07B002800F0BC808421B0E020461E
S315000050B0FFF787FC0028B6D1F3E7B9F10A0F22D132
S315000050C0DFF8B0B19BF80000E8B1E07B002804BF30
S315000050D0F01B082817D100F0E8F8002802BF08F1F5
S315000050E00201C85D002804BF9AF80300E2280AD12D
S315000050F03F1D3246B9B24046FBF752FEFFF796FD1A
S3150000510000208BF8000000F0C4F800F0EAFA7DE019
S3150000511000F0BFF8FFF76AFC78E000F0BAF8FFF796
S3150000512005FC73E000F0B5F8FFF74DFC6EE000F00B
S31500005130B0F800F0D8FA69E089B29AF8007018F869
S315000051400150208A9DF80C10019000912B4624688E
S3150000515060793A464946FBF7CAFE2A46394648462A
S31500005160FFF7E6FB57E09AF8001001B10121162A75
S315000051700CBF012200220092361A08EB0002B3B2DD
S315000051804846FFF7D7FB41E09AF800809AF801708D
S31500005190112A04D11220FBF79AFD002003E0142007
S315000051A0FBF795FD0120314D298803970E46CDF872
S315000051B00880C1F15101019589B200914A460BEB75
S315000051C006014B1C2146FCF78CFA00B101200BF8B6
S315000051D006002888401C288023E700F04DF81EDBD7
S315000051E000F05BF80020FFF7F9FD00F04BF8FFF741
S315000051F0A5FB0BE000F040F811DB00F04EF80120B3
S31500005200FFF7ECFD00F03EF8FFF796FB18B900211A
S315000052102046FBF7BAFB012007B0BDE8F08F00205F
S31500005220FAE78221F4E7EDB2BDF80E90002DD3D156
S31500005230E07B277D002814BF04200220A5E69DF808
S315000052400D508720FBF743FD4046FBF74FFD0498C2
S315000052500528E0D0002DBFD15FFA8AF000287FF440
S31500005260DDAE8021D4E70000F061030054FF032087
S3150000527048D8032088FF03209AF8007007B1012759
S3150000528086427047B6B200964346218A3A46484659
S315000052907047AAB25146484670478044361AB0B2A3
S315000052A0009043463A46494670473246394640469C
S315000052B0FBF77ABD2888C0F1520080B201905346B0
S315000052C0218A00915A46D4F800C09CF80500494648
S315000052D0704700200021704738B57848784C006840
S315000052E02060606048220021FCF7BBFA754A2168FD
S315000052F0107808704FF6FF71206800224180027313
S3150000530023685A730B222068827314232268D3738E
S315000053104FF6FE7320680382418212F0E7FC216893
S31500005320087612F0E3FC2168487612F0DFFC21686B
S31500005330654B8876654821680278CA766449206894
S315000053400A6840F8282F1D780571624822680168AE
S31500005350116331BD10B510F0C8F9594C6168897BED
S31500005360884203D0084610F0C5F850B910F0C1F9CC
S31500005370616891F90F10884205D0084610F0C8F907
S3150000538008B1012010BD6068008A10F0F0FD606869
S31500005390408A10F00AFE6068017B01290CBF0120DB
S315000053A0002010F0D1FD002010BD10B54A4C0020A1
S315000053B0207009F028FF20B92046BDE8104002F011
S315000053C041B970E080B5002000F015F828B1002042
S315000053D000F005F808B1002002BDFF2002BD3848E4
S315000053E00168487B02281CBF1128432801D10120EF
S315000053F070470020704732480168087B01281CBFAF
S315000054000228032801D101207047002070470020A0
S315000054107047002070473149087070477047002078
S315000054207047012070477047002070470020704782
S31500005430704770470020704780B50020FFF7CFFF08
S3150000544020B10020FFF7D7FF00B1012002BD80B5D3
S315000054500020FFF7C4FF08B1002002BDFF2002BDF7
S3150000546080B50020FFF7BBFF30B1154801680A7B05
S31500005470032A01DA002002BDFF2002BD10B5040098
S3150000548000F0058040F27D1151A002F061FA134947
S31500005490087808B9702010BD0849094B0A684820E9
S315000054A0444310195860BDE8104053E7044841686A
S315000054B0088A704702484168488A7047E4D1032049
S315000054C0E4F80320F9D40320ECD40320FAD4032013
S315000054D0E8D10320ECD10320D4F803200AD5032019
S315000054E07047002070470020704709F046BC70479F
S315000054F0002818BF12F01EBC704701F0EDBF01F086
S3150000550099BE82B08DF80010DDE9002311461A46D7
S3150000551002B0FDF7FCBD33B585B005468DF8042015
S31500005520FFF7F2F804462846FFF7FEF87CB100289C
S31500005530BDF818000FD1FFF7D2F98DF80000FF284B
S3150000554004BF00218DF80010CDF808D016E0A8B1F0
S3150000555006A8029012E0FFF7C2F98DF80000FF28B6
S3150000556004BF00218DF800109DF80000BDF818104A
S315000055708DF80C0003AAADF80E100292DDE90101C8
S315000055800A4601462846FDF7C2FD07B030BD0000B9
S3150000559073B582B004461546FFF7B6F806462046B0
S315000055A0FFF7C2F82EB120B903A98DF8005001917A
S315000055B005E04FF4057100BF05A002F0C9F9DDE969
S315000055C000010A4601462046FDF7A1FD7FBD000009
S315000055D0656D6265722D6D756C74692D6E65747777
S315000055E06F726B2D737475622E63000062B38B0746
S315000055F008D0521E11F8013B00F8013B00F0248050
S315000056008B07F6D1830740F0208000BF103A07D3FE
S3150000561030B4B1E83810103AA0E83810F9D230BCEE
S31500005620530724BFB1E80810A0E8081044BF51F89A
S31500005630043B40F8043BD20724BF31F8022B20F884
S31500005640022B44BF0B7803707047121F17D35B0001
