S00F00006E6F6465746573742E7333377F
S31500004000A05D01201DDB0100C9B5000061D90100DA
S31500004010A70A0A010042000004180FAC306A290101
S31500004020000000000000000000000000000000008A
S3150000403000000000EC0B0200000000000000000081
S315000040400000000000000000FFFFFFFFFFFFFFFF72
S31500004050FFFFFFFF00400F0000000000000000000F
S31500004060FFFFFFFFFFFFFFFF8000000000000000D2
S31500004070000000000000000000000000000000003A
S315000040800000000000000000587C0120587C012040
S31500004090A05D012085400200A2DB01004054012002
S311000040A0E410002000E00F00000000000B
S31500004200A05D01201DDB0100C9B5000061D90100D8
S31500004210E5E1000065D9010069D901000000000050
S315000042200000000000000000000000003353000002
S315000042306DD90100AF4E00006F95000087AA0000FF
S3150000424071DA010071DA010071DA010071DA010038
S3150000425071DA0100F1E30000BB0B010071DA010025
S3150000426071DA010071DA01003F69010071DA0100BB
S3150000427071DA0100BFAD000071DA010071DA0100E8
S3150000428071DA010071DA010071DA010067B5000028
S3150000429071DA01002F62010071DA010071DA0100A2
S315000042A071DA0100BF640100B164010071DA010036
S315000042B071DA010071DA010071DA0100AB880100E0
S315000042C0738801007188010029830100A988010013
S315000042D075880100798801007788010009A5010029
S315000042E0E188010071DA010071DA01009D570000D2
S315000042F071DA01007949010071DA01006FB5000039
S3150000430071DA010071DA010071DA010071DA010077
S3150000431071DA010071DA010071DA010071DA010067
S3150000432071DA010071DA010071DA010071DA010057
S3150000433071DA0100102B70B54A4A4A4B4B4C24687F
S3150000434065070CD4C60701D41C4209D100EA04054E
S315000043508D4208D0521EF1D16FF0020070BD2EE0E2
S315000043606FF00108301D1C42FAD1002070BD70B5F7
S315000043703F4D6860E8680E46410700D51FE056F8D5
S31500004380040B141F0208101D241FA86044B1082145
S315000043900820FFF7CFFF0100F4D00421296070BD8B
S315000043A0042028600021211612C4162304D10C20F3
S315000043B00ABDE87040BCE770BD4FF0FF30563013C1
S315000043C041F67131284C0122284BE568E1621A60FA
S315000043D0606002262636300B2D0CFFF7A8FF05F08D
S315000043E001050100033C201CFFF7A0FF01211F4A25
S315000043F011600DB10021E16270BD2DE9F843184F3F
S315000044003D68894614464A200A80462D0C396201C9
S3150000441022154B00203A10251A6002E0B044B14440
S31500004420A41B7CB108F50056760B7603A6EB0806AE
S31500004430B4424946404638BF26463246FFF7919E6B
S315000044405003EBD00121085A10133962BDE8F283FC
S31500004450000080969800020001001C000340100432
S31500004460130C1004000120034000000070472DE9E2
S31500004470FC470546DFF82C462078DFF82C9649469F
S3150000448000F008FD0FF2E06000279AA600900FF2F8
S31500004490C06ADFF8188611E0314600F0FBFC0BE03D
S315000044A0936812680FF2B86100F0F4FC00F06CF942
S315000044B0F2D0009900F0EEFC7F1CBFB2286800EB3A
S315000044C007122078516849B14145E9D1516900295F
S315000044D018BF4145F0D012685146EBE709F17C015F
S315000044E000F0D8FC207809F1A40100F0D3FC207874
S315000044F009F1D40100F0CEFC207809F5807100F0B6
S31500004500C9FC31462078BDE8FC4700F0C3BCA0F1E9
S3150000451041011A293CBF2030C0B270472DE9F84F3F
S315000045200646B1680024A0460D68DFF87875EDB23E
S31500004530284600F04CFD5FFA80F9B9F1200F07DD3F
S3150000454038782022DFF86815BDE8F84F00F0A2BCE5
S31500004550284600F024FD8246002506E01AF80500EC
S31500004560FFF7D5FF0AF805006D1C4D45F6DB4A46F8
S315000045700FF2FC51504600F0CDFE40B94FF0010855
S3150000458005E038785A460FF2F05100F083FC3268A5
S315000045902101101D4058002840D0641CDFF80C553E
S315000045A0A4B2A842F3D152F801B0B8F1000FE8D195
S315000045B0584600F0BFFE4845E9D14A46514658469E
S315000045C000F0A8FE0028E2D1A2466CA40FF298588B
S315000045D00FF2AC5918E0214600F05CFC10E001EB4C
S315000045E00B00836802683878494600F053FC30684F
S315000045F05844C2683878002AEDD0414600F04AFC9B
S315000046000AF101001FFA80FA31684FEA0A1B081DF9
S3150000461050F80B00002818BFA842E0D1BDE8F18F82
S31500004620F8B588B00446A068016801B10121DFF839
S3150000463084542970406800B10120DFF87C64307032
S31500004640DFF87874384601F07CF8A068C16801B1DB
S315000046500121006900B10120DFF864241170DFF840
S3150000466064341870C0B207900FF23450C9B2069085
S3150000467005910FF2245142A330780491029301224E
S315000046800FF20C512B780392019000910FF2F84231
S3150000469004F1110107F1280001F053F809B0F0BD4B
S315000046A0007CDFF80034DFF8201451F82020187859
S315000046B00FF2F44100F0EEBB38B5DFF8E84300F046
S315000046C0E4F92078DFF8041400F0E4FB00F002FAC5
S315000046D020780FF2E44100F0DDFB207829A100F0FC
S315000046E0D9FB00F0CDF920780FF2E441BDE8344063
S315000046F000F0D0BB0D0A00002DE9F24F05469246A8
S315000047002E6B002714E01DA100F0C4FB0DE08B68A2
S315000047100FF24C41DFF88C4300F0BCFB00F034F89C
S31500004720F1D00FF2444100F0B5FB7F1CBFB210364A
S31500004730706808B3D6F80080DDF8009000240BE01E
S3150000474019F8010BFFF7E3FE834618F8010BFFF794
S31500004750DEFE8345E9D1641CA0B25045F0D328683B
S31500004760D04B00EB07111878D04B4C680A689C4276
S31500004770CDD10FF2DC31D6E7BDE8F18F0D0A00008E
S31500004780746167002C200000286800EB0710C268DF
S315000047902078002A704700002DE9F043ADF5017D31
S315000047A0CB4F01A839464FF4807200F0EBFF4FF073
S315000047B000098DF80190A52001F01AF801F068F8BB
S315000047C000F076FB00F051F9002001F0A5F95FEA50
S315000047D0000805D000F044F9002001F09DF980465C
S315000047E000F043F9012001F097F9060005D000F02A
S315000047F037F9012001F090F9064600F036F902205B
S3150000480001F08AF9050005D000F02AF9022001F02E
S3150000481083F9054601F006FAA24CB8F1000F0CD058
S31500004820002E00F08280002D00F0838040F20721E8
S315000048300FF2A43001F0FCF904E0002E18BF002DA1
S3150000484000F07B8084F80090201D01F024FB00F02E
S315000048501CF9207807F580710FF28C3600F01AFBF0
S31500004860207829460FF22C2800F014FB20780FF24E
S31500004870483141AF00F00EFB207887A100F00AFB1B
S3150000488000F0FEF820780FF2483100F003FB00F04C
S3150000489025F920789BA100F0FDFA00F023F9201DF0
S315000048A001F038FE00F01AF994F8000098A100F023
S315000048B0F1FA00F017F9201D03F024FB00F00EF9C1
S315000048C094F8000095A100F0E5FA00F00BF9201D20
S315000048D003F036FB00F002F994F8000092A100F014
S315000048E0D9FA00F0FFF8201D03F04CFB00F0F6F8B3
S315000048F094F800008FA100F0CDFA00F0F3F8201D27
S3150000490003F055FB2078314664A600F0C3FA207800
S315000049108BA100F0BFFA207841460FF2D42800F0B0
S31500004920B9FA201D04F06AFA3EE035B10120207084
S315000049308AE70221217087E725702078FF28FAD1BF
S3150000494000256946E8B201F034F938B99DF800004F
S315000049500D2818BF0A2818BF2A28EDD06D1CE9B209
S315000049600329EEDBE9E78DF800109DF80020B85C1E
S31500004970511C0A2818BF0D2818BF0028F3D10D2096
S31500004980B8548DF800109DF8002041A9201D01F0B3
S315000049908DFA9DF8002041A901A800F0F3FE002041
S315000049A09DF800908DF8010000F09CF820780DF13C
S315000049B00103FF2241A901F001F9002846D000F0C9
S315000049C014FF01F06CF803F095FE9DF8010010B39A
S315000049D041A9084410F8011C09291CD100F07AF8F5
S315000049E09DF80100411E8DF801109DF8012041A996
S315000049F0201DFFF781FE9DF801100020785400F07D
S31500004A0071F8002004E000F035F89DF80000401C25
S31500004A1000F01EF8F7D39DF804012128C6D100F056
S31500004A2059F84A4601A941A800F0ACFEA9F10100D7
S31500004A308DF8010000F056F8002000F009F8B5D214
S31500004A4000F018F89DF80000401CF6E700218AE700
S31500004A508DF800009DF800009DF80110884270470F
S31500004A60012300224FF416417047012300224FF420
S31500004A70E13170473A5C2078314600F00BBA00000D
S31500004A8094F800004FA100F005BA207804A5294645
S31500004A9000F000BA5D0D0A002C200000256300001E
S31500004AA00D0A0000E45E012078EF01006D4400006D
S31500004AB0A4F00100EC630120ED630120E8F00100A1
S31500004AC0EE630120EF630120D86001204CF2010063
S31500004AD04CF101002078294600F0DCB920783146F7
S31500004AE000F0D8B92078414600F0D4B980B504F07A
S31500004AF0A4FA0020BDE802404EE60020704704F00C
S31500004B000DBE0000696E6974546F6B656E730000AC
S31500004B106372617368696E666F0000007265736523
S31500004B2074737472696E6700696E69745261646940
S31500004B306F00000073656564506E726700000000C8
S31500004B407365745065725465737454780000000080
S31500004B502D2D2D2D202570202D2D2D2D0D0A0000FB
S31500004B602020257020257000202D2025700D0A009C
S31500004B706D6F64756C65730025700D0A000000008A
S31500004B80257020257000000068656164657200006C
S31500004B90636F6D6D616E640064656C696D00000025
S31500004BA074657874000000004349204572726F7284
S31500004BB03A2025700D0A00004F63742020382032F9
S31500004BC03032310031393A35343A3434000000009D
S31500004BD00D0A0D0A00000000706C6174666F726D3C
S31500004BE0746573742E6300005B494E4954200000BF
S31500004BF00D0A3E200000000070B5134610440BE07D
S31500004C0001F00F060909451E0A2E2846ACBF3724B7
S31500004C103024A4192C705B1EDCB2002CF0D1104499
S31500004C2070BDF0B5002341B1002806D52D231370C1
S31500004C300123B0F1004F18BF404200210024944DDB
S31500004C40002655F8247001E0C01B761CB842FBD242
S31500004C50F7B20FB90F0004D03036D9B256545B1CE8
S31500004C600121641C092CEBDB3030D9B250545B1C9B
S31500004C70D8B2F0BD2DE9F84F804696B014A8894603
S31500004C8015469B4604AF4FF0000A0024019020E031
S31500004C90012405460DE03429FAD15BF8046B0422A1
S31500004CA03846310CFFF7A8FF0422B1B2FFF7A4FF84
S31500004CB0074601998F420BD39DF8000004A93F1ABD
S31500004CC0FAB24846C047002853D15AFA87FA04AFC9
S31500004CD06D1C04A88DF800009DF800002978381A8C
S31500004CE000290BD0252903D014B907F8011BE0E7EA
S31500004CF0002C14BF00246D1C29780A0000F09E8049
S31500004D00B1F1250216D00B3A092A40F28580283ADD
S31500004D107CD00A3A12D0521E42D0521E5ED0083AB9
S31500004D205CD0121F3FD0D21E3DD0921E56D0D21E4E
S31500004D306CD0BEE7252007F8010BBAE704A8DBF81C
S31500004D400010DBF804208DF8000038460BF1080B44
S31500004D50039102920027029A9742A9D2039902224E
S31500004D60C95DFFF749FF0199884206D300F074F840
S31500004D7000286DD15AFA86FA04A80299491E8F4274
S31500004D803CBF202200F8012B0199884206D300F08F
S31500004D9063F800285CD15AFA86FA04A87F1CDAE781
S31500004DA05BF8040BC7E707465BF8046BFAB204A985
S31500004DB04846C04700284BD15AFA87FA04AF00226A
S31500004DC0314600E0521CD6B2885D0028FAD1D2B234
S31500004DD04846C04700283BD1B2446AE76C290AD14D
S31500004DE06A785BF8040B752A0EBF00210121642A3C
S31500004DF007D16D1C05E075295BF8040B0CBF00217B
S31500004E0001213A46FFF70DFF074452E75BF8041B02
S31500004E1002223846C9B249E768780124782818BFC3
S31500004E205828F2D16D1C0024681E32297FF433AF56
S31500004E305BF8040B042281B2384637E70546EAB22E
S31500004E4004A94846C04718B9AA445FFA8AF000E0A8
S31500004E50002017B0BDE8F08F9DF8002004A9861A3F
S31500004E60F2B24846404709A114E00CB438B50446EE
S31500004E7004AA00F017F8054604A1204600F00AF837
S31500004E80284632BC5DF80CFB000000000D0A00004D
S31500004E90901D02000CB480B502AA00F003F802BC13
S31500004EA05DF80CFB80B506F02DFAC0B202BD704766
S31500004EB010B5DFF838040068DFF82C14DFF830246A
S31500004EC0C860136848615B0800EB43040C6118B1C5
S31500004ED000F00AF8652806D2B0210FF22440BDE89A
S31500004EE0104000F0A5BE10BD10B5DFF8FC432069E8
S31500004EF06269904202D2C62100F0CDF8206962694B
S31500004F0000E0E2684FF6FE71801A084010BDDFF837
S31500004F10D813CA68904203D34969884200F05CB945
S31500004F200020704780B510B1FFF7F1FF00B10120F6
S31500004F3002BD30B1DFF8B023D168401A4010401CE2
S31500004F4080B27047010001D100207047DFF8981346
S31500004F50CA6802EB4000801E70474088C0F30C0010
S31500004F60C01C80084000001D80B2704710B5044682
S31500004F70FFF7F3FF04EB4000DFF86C134A694FF6C6
S31500004F80FF7400E0801C904202D20388A342F9D04D
S31500004F9010BD80B5FFF7D6FFBDE80240C2E710B5E9
S31500004FA0040012D0FFF7F5FF18B940F27A4100F07D
S31500004FB072F82046FFF7C6FF38B101880A0402D509
S31500004FC0D0F80A0010BD083010BD002010BD10B585
S31500004FD0010013D0FFF7B6FF0446FFF7A3FF18B989
S31500004FE040F2944100F057F844B12088010401D5FD
S31500004FF0208910BD6088C0F30C0010BD002010BDD4
S315000050002DE9F04100F044F804003FD00FF2F027FC
S31500005010FFF788FF18B940F2A74100F078F8284654
S31500005020FFF7D5FF80462046FFF7A0FF0546464519
S315000050302CD003DB40F2AF4100F069F82088010470
S3150000504048BF268122D466802046FFF786FF04EB00
S31500005050400406F076FADFF890124A692E1BB6B2C3
S31500005060954204BF4C61002606F071FA082E06D25E
S3150000507031462046FF22BDE8F04106F06BBA082112
S31500005080204606F071FAA6F108006080BDE8F081BE
S3150000509005460E4656E70FF2682000F0C9BD38B542
S315000050A00D46FFF74FFF04000AD0FFF73BFF18B984
S315000050B040F2EC41FFF7EFFF04EB4500808832BD7C
S315000050C0002032BDF8B50D461646FFF73BFF04003B
S315000050D00FF22C2714D0FFF725FF18B940F2F7413D
S315000050E000F015F83046FFF72DFFFFF71BFF18B944
S315000050F04FF49F6100F00BF804EB45008680F1BD8C
S31500005100384640F2FB41BDE8F44000F091BD384618
S3150000511000F08EBD2DE9F84F8846C11C890849006C
S31500005120091D0027DFF8C05104461FFA81F92E69D0
S315000051300FF2CC1AB0F5005F04D340F22751504667
S3150000514000F076FD06F0FDF98346E869696908B95D
S31500005150711A03E05FEA080202D0411A4E1009E014
S31500005160301A4010064680B220B940F24D515046E2
S3150000517000F05EFDB6B24E4514DB6F6907EB4900E1
S315000051806861E86928B1B8F1000F04BF00EB490077
S31500005190E86100207C80B880F8803880298908344E
S315000051A064182C81584606F0D2F93846BDE8F24F0D
S315000051B0BFE670B504460D4611462846FFF7AAFF1E
S315000051C006463CB1300005D0FFF7E9FE2A462146E7
S315000051D006F0CEF9304670BD8041C00F70472DE90C
S315000051E0FE4F04462088884616469B46FFF7AAFED1
S315000051F00746FFF797FE18B940F29161FFF74BFF9C
S3150000520038883546010403D538892D183D8167E075
S3150000521000F074F8019000F06DF8814606F091F9FF
S3150000522000968246304E706981451DD1FFF75CFEBF
S31500005230A84203D2504606F08AF921E001982D18BB
S315000052407D80BBF1000F08D02088FFF7A8FE019BE8
S31500005250009A4146184400F095FA00F04BF8706148
S31500005260504606F074F93BE0504606F070F900F03F
S3150000527045F82D180021A8B2FFF74CFF070001D111
S315000052801A202EE000F03AF805462088FFF787FE40
S3150000529006463846FFF783FE2A46314600F072FA84
S315000052A0BBF1000F384609D0FFF779FE00F025F86C
S315000052B0009A4146284400F065FA07E0FFF76FFEC2
S315000052C000F01BF80099284406F04EF920880121C9
S315000052D0FFF7E5FE024601213846FFF7F3FE278079
S315000052E00020BDE8FE8F000034740120A45F012079
S315000052F0A85F01203846FFF739BE0546208866E6D6
S315000053006275666665722D6D616E6167656D656E47
S31500005310742E630003000020521E22BF13F8010BF7
S3150000532011F801CBB0EB0C00F6D0521C08BF1046AA
S315000053307047FEE700F1010310F8011B11B110F8E8
S31500005340011BFBE7C01A704738B50446206A651D85
S315000053502368451B2079EAB2611D984708B10020F1
S3150000536032BD94F82900611D21622D1884F8295058
S31500005370012032BD38B50446002500E06D1CE8B2B8
S31500005380085C0028FAD120792368EAB2984710B958
S3150000539094F82900E9E7002032BD2DE9FE4F0546C5
S315000053A0681D0E46286205F11501002091466962C6
S315000053B085F829000EE02A621CB1296A7D2000F0DA
S315000053C09DF9286A696A884203D300F0A6F9002885
S315000053D06ED0761C3178002900F085812529DFF80A
S315000053E09403407818BF262917D07B291CBF7D2936
S315000053F0232907D10028E4D0286A401C286200F837
S31500005400011DDEE7DFF86C2390780028D9D02A6AE0
S31500005410521C2A6202F8011DD3E716F8013F252B1C
S3150000542018BF262B05D1296A491C296201F8013DBE
S31500005430C7E726290AD148B101246E2B18BF4E2B87
S3150000544011D0296A7B2000F059F900E00024307859
S315000054504FF0000A4E2806D0542826D06E2802D0D7
S31500005460742822D034E0DFF80C13087859F8047B4E
S315000054700028A6D0200006D0286A7B210170821C55
S315000054802A622823437000F048F9002810D000F063
S3150000549032F900280CD0002C93D0286A29210170FB
S315000054A0821C2A627D2343708BE700F034F90028C2
S315000054B074D000F020F9002870D000F02EF90028F2
S315000054C06CD0296A3A204FF0010A00F017F9761CD1
S315000054D030787378A0F13001C9B2881E05282DD224
S315000054E0642B18BF752B29D159F8040B002201270C
S315000054F080B28046642B05D1030403D5C043401C0B
S31500005500012280B238B10A2390FBF3F0521C80B21C
S315000055100028F8D100E0521CD2B2D5F820B0881A83
S3150000552000908A4206DA00992022584606F012F8C0
S3150000553000988344C5F820B0761C00E00027317837
S31500005540701E0A0000F0C480322918BF342900F00A
S315000055509D80482906D058290FD0632910D0642988
S315000055601FD0682900F087806C2956D0702918BF93
S3150000557073290CD0752914D0782900F07E80ACE010
S31500005580286A411C296259F8041B017014E700F0CF
S31500005590C2F818B100F0AFF80028F7D10020BDE836
S315000055A0FE8F002FD5F820E012BF1FFA88F059F8B9
S315000055B0040B80B2724628B930200EF101028EF833
S315000055C00000F8E6002364290CD101040AD52D2732
S315000055D00EF101028EF80070B0F5004F02D0404285
S315000055E080B268B14FF00A0E90FBFEFE0A2101FB65
S315000055F01E00D9B25B1C0DF801001FFA8EF0F0E711
S315000056001846431EC0B200281FBFD8B21DF80000BE
S31500005610303002F8010BF3D1CDE6296A59F8040BB4
S315000056200A4618B930204A1C0870C4E60023002830
S3150000563007D54A1C2D270F70B0F1004F01D040420C
S3150000564060B14FF00A0EB0FBFEFE0A2101FB1E0000
S31500005650D9B25B1C0DF801007046F1E71846431EEF
S31500005660C0B200281FBFD8B21DF80000303002F8C3
S31500005670010BF3D19FE600F046F859F8041B02220D
S31500005680286AC9B2FFF7B8FA286295E616F8010F3C
S31500005690682818BF48280BD100F035F816F8011C09
S315000056A0286A32290AD159F8041B042289B2E9E78B
S315000056B0782818BF5828F1D0761E7DE659F8047B65
S315000056C00422390CFFF798FA28620422B9B2D9E706
S315000056D0BAF1000F01D106466EE6BAF1000FFBD013
S315000056E0691D2962F7E700F018F800283FF456AF65
S315000056F095F8290053E7394628463BE6491C2962B6
S3150000570001F8010D7047286A30210170821C2A6257
S3150000571078234370704759F8047B284614E60EB484
S315000057200146154A10B510788BB0002440B1134AD3
S31500005730137800F018F8FFF730FE00B90124204670
S315000057400DE00EB40D4A10B5014613788BB000F08B
S315000057500AF80024FFF721FE00B9012420460BB009
S3150000576010BC5DF810FB064800908DF804300DAAB9
S3150000577068467047ED630120EC630120E45E01207A
S3150000578035B300004AB1000011F8013B521E00F883
S31500005790013B1CBF11F8013BF8E7704705F014BF49
S315000057A07FB500BF37A191E81C006846032180E859
S315000057B01C0001250D268DF807108DF800508DF878
S315000057C006600821242006F043F86946254806F0BD
S315000057D02FFB4FF40060244908600222234B1A6015
S315000057E0234C206023490A607FBD1E4806F00FBB8C
S315000057F0A52803D100211B4806F0F8BA70471E48B9
S3150000580000682BE01D4908680028FCD1704738B5B0
S3150000581004460D4600F017F804F00F010346240570
S315000058202A46200E01B0BDE8304006F08EBB0000CF
S3150000583001460B051B0E30204343114A01F00F01B0
S31500005840D018406909E001460B051B0E3020434382
S315000058500B4A01F00F01D0180069C84000F00100A2
S31500005860704700000080014A84E200E018A0014A67
S3150000587004E100E01C90014A0480014A2480014AA8
S3150000588000C003400100000000000F0000000000FF
S3150000589010B501218A4A1160002006F027FB01237A
S315000058A004220321002006F050FB012006F096FB9F
S315000058B000F011F806F095FB824C0120207006F0EE
S315000058C083FC01234022211D8FA006F048FC7E495F
S315000058D00860C00F10BD70B57C4801687C4C7D4DDA
S315000058E041F001010160C26800217B4E42F08072E6
S315000058F0C2607A48206029603160022378490B60D3
S315000059000C2005F065FE77490818774AB0FBF2F0DF
S31500005910764B0021401E186029647548206575493C
S3150000592031604FF48072744802602B6843F48073D0
S315000059302B6070BD38B505F004FE624D2978002451
S31500005940022912BF01240321297005F000FEDCB9EB
S3150000595061480168CA070ED568490B6823F440639D
S315000059600B60016849084900016002681102FCD415
S31500005970642006F046FC0020594908605E4B18601A
S315000059805249086001222A7031BD5048006800B1B2
S315000059900120C0B27047D12202704170090A81709D
S315000059A057490A78C270521C0A70042070472DE9C4
S315000059B0F24F84B0074608780024052868DB401DAE
S315000059C08DF8000006F0ACFC02909DF80000002661
S315000059D04FF6FF780190DFF82C91DFF8F8A03B4DE9
S315000059E003971DE003984146801910F8027C38465B
S315000059F006F0C4FC80465E4637480168CA070FD5E4
S31500005A00E86840F08070E860DAF8001041F48071D0
S31500005A10CAF80010D9F800000028F1D089F8007003
S31500005A20296879B39DF80010F0B288422AD206F0B0
S31500005A3077FC029940F2F512401A80B2904226DABB
S31500005A40F0B210B95B270126D6E7012804D19DF8EC
S31500005A5000000226471FCFE7019806F1010BF6B2B8
S31500005A60C01E864208BF4746C5D00198801E8642A2
S31500005A7008BF4FEA1827BED00198401E8642B1D112
S31500005A805D27B8E79DF80000F6B2864200D00124F3
S31500005A90049904200870204605B0BDE8F08F0A4B33
S31500005AA080B5186890B04022694606F03EFB20B1EA
S31500005AB0C2B26946122006F049FD11B000BD0000D1
S31500005AC044D40340D0730120A05F0120F0ED00E034
S31500005AD0B00F00E0000E00E0800E00E055CEACC531
S31500005AE0F00004E0FCAC0600F8590D00100004E0DC
S31500005AF0FF0300400D000100040304E0001000E075
S31500005B00527C0120200000E073696C616273767537
S31500005B10617274646F776E002DE9F8410446904611
S31500005B20012593B00F461E46220006D0022C1DD03A
S31500005B30102C02D0212C19D028E0002105F0D7F92D
S31500005B400546012C18BF202C08D0022C18BF212C8A
S31500005B5004D0032C1CBF222C232C24D10197ADF892
S31500005B601080012E14D14FF4805015E00AA82B495D
S31500005B702422FFF707FE68460AA92422FFF702FE41
S31500005B801021ADF82410ADF82610DAE701200BE05D
S31500005B90022E03D14FF44050ADF80E006946204660
S31500005BA005F0A5F90546E8B214B0BDE8F08105F0A8
S31500005BB061BA80B505F069FAC0B202BD80B505F0DC
S31500005BC0ADFAC0B202BD7CB5044600200D461646AD
S31500005BD08DF8000001E0FFF708FE6B4632462946C5
S31500005BE02046FFF7EBFF0028F5D176BD80B505F01E
S31500005BF01FFBC0B202BD80B505F03AFCC0B202BDC3
S31500005C000CB40A4680B5014602AB0548FFF732F8E8
S31500005C10002002BC5DF80CFB000000006C1D0200B9
S31500005C2001B40000002080F31188704742DE7047FF
S31500005C3038B504460D46FFF7D8FD06F0E7FC2946C1
S31500005C40204606F0ADFB2B464FEA040275A1012063
S31500005C50FFF7D6FF29462046BDE83440E6E7684808
S31500005C602DE9F8430168674E4FF42068B165026A72
S31500005C706549F2650B68336649687166426AB266C1
S31500005C80816AF166C26A3267016B7167806B96F84A
S31500005C903810B06748074CBF346CF46B06F0D6FC7E
S31500005CA05A4B0022844201463265A14624BFA3F125
S31500005CB02007A742716506F19002DFF854C1DFF8AC
S31500005CC054E118D3A0697064E469B464B56DC5F392
S31500005CD00805062D13D1704511D360450FD20088F3
S31500005CE04DF64264A0420AD17068B46840F2017869
S31500005CF05060946003E000247464B46481464648AE
S31500005D00814202D2014600E0091D0846984203D2AC
S31500005D100C68B4F1CD3FF7D04049081AF064002072
S31500005D20002106F17C04C5B2401CC7B244F8251018
S31500005D30062FF8D3002099452CD253F8041D71453F
S31500005D40F9D36145F7D2CC07F5D5002406F17C05D9
S31500005D5055F824708F4202D0641C062CF8D3062C0A
S31500005D60E9D1C4B2002C06F17C040CBF0520401E0C
S31500005D70C5B244F82510DEE7F16F002306F17C0575
S31500005D8006EB8304D4F8804045F823405B1C042BC3
S31500005D90F6D911600146481EC9B20029ECD1B06D92
S31500005DA0C0F30800032810D0042811D0052812D00B
S31500005DB0062813D00C2817D03B2818D1184802689B
S31500005DC0910719D540F2025816E040F6012813E073
S31500005DD040F6022810E040F603280DE0B8F5206FE3
S31500005DE00AD140F6042807E040F6052804E018B179
S31500005DF04D2838BF40F607284046BDE8F28300002C
S31500005E0004ED00E00000002000E300E0A05D0120BA
S31500005E10A2DB01006C4400009C000020A05D012074
S31500005E201880014A0D0A5B4153534552543A257076
S31500005E303A25645D0D0A00002DE9F14181B0FFF7B6
S31500005E40C6F8C4B200250026E00748BF002020D4CB
S31500005E500027DFF8B08314E0160111E0BDF8040056
S31500005E60F9B206F044FC18F80020F80702F00F0219
S31500005E70F2D5BDF804003243E9B206F050FC6D1CC1
S31500005E807F1CF8B2A042E9DBE9B201A806F0E8FB04
S31500005E900120BDE8F68100F1240100224A80C27388
S31500005EA0C2830A7082730068C86070472DE9F74F95
S31500005EB0054682B000208DF8010005F1240608E0B1
S31500005EC0687B01227072EA739DF80000294600F093
S31500005ED0B0F903980027002460BB9DF810006946BE
S31500005EE0FFF767FE002839D0262826D0012128464C
S31500005EF000F091F978208DF80000A04610270021C7
S31500005F008DF80110E97B0829E3D8DFE811F00A00D3
S31500005F104A008D00EA00EA0041014D01AC009D00F7
S31500005F20D7E7102FCCD09DF80000232835D10821C3
S31500005F30E973CEE79DF8100020B99DF8010005B081
S31500005F40BDE8F08F0398401C039010F8011D9DF8E2
S31500005F5010008DF80010411E8DF810109DF80000FD
S31500005F60A04667280ED29DF80010A648405C00F0B7
S31500005F70300700F00F08400607D5717A884504DA25
S31500005F80012402E07B2838BF10279DF800000A286C
S31500005F9018BF0D28B3D10121B2E7202F99D00320D5
S31500005FA02AE1102F1CBF9DF800005F2800D01CB10D
S31500005FB030780C28F3DA87E7202F18BF302F3FD12F
S31500005FC03278002005F111018854F0684FF000097D
S31500005FD001900DE01AF8010B00F024F91BF8011BE3
S31500005FE081420CD0019809F1010900F110010191DB
S31500005FF00199486820B3D1F800A005F1110B9BF870
S3150000600000000028E6D19AF800100029EAD1A5F888
S315000060101E90F068E98B00EB011200219068A973CD
S31500006020022228623170EA73687B002C70722FD0CE
S315000060302B203072C6F80480687B0421707277E7E3
S315000060400321284600F0E7F89DF80100002809D052
S31500006050287C20B16968284688470020287428468D
S31500006060FFF719FF35E79DF8010018B1284600F043
S31500006070ECF8F4E79DF80000232805D1284600F047
S31500006080E4F80820E87324E7202FFCD00420B3E0CE
S315000060909DF800002D2818BF2B2805D1002130724D
S315000060A07160687B0321C9E722280AD100210020FC
S315000060B0FFF730F8708000280BD000F0A7F8052015
S315000060C0E0E77B28CFD100210020FFF723F870807E
S315000060D0002800F0908000F099F8102070720621D8
S315000060E026E744B17068717A0422EA7301FB0088DE
S315000060F0C6F80480EDE69DF80000782818BF5828F9
S3150000610004D1706810B910217172E2E69DF80000A2
S31500006110742818BF542803D1706808B90A21F3E718
S31500006120032956D0202F18BF302F52D1296A337A2F
S3150000613008784A7871682D2B08BF4942752808D11E
S31500006140342A1AD00020312A14BF4FF6FF72FF22DC
S315000061500FE0732808D1312A07BF6FF07F007F2236
S31500006160294847F6FF7204E00421284600F053F858
S315000061706AE78142A8BF8A4208DB0222284600F06D
S3150000618083F80028F4D00220E8734DE70621ECE7F7
S315000061909DF8000022281ED10021284600F08CF828
S315000061A00028B2D002206DE79DF800007D280DD1B1
S315000061B07088FFF741FE04460121284600F07CF86E
S315000061C008B10220E873002C9FD102E0202F9CD05A
S315000061D00CB9072010E07088FEF7F9FEFF2808BF0B
S315000061E0082009D001230122694605F12600FEF7A1
S315000061F0F6FF002889D002208DF800009DF80010D7
S315000062001FE70000A41E02000080FFFF002105F129
S31500006210260006F025BA027C1AB90823C373017456
S315000062205FE07047A0F141011A293CBF2030C0B29F
S31500006230704738B50C4694F82450FFF7F3FF611900
S3150000624048746D1C84F8245031BD10B50446216A8B
S31500006250087830B162280CBF01200220085C2A2889
S3150000626007D1216BE28B204601EB02135968884760
S3150000627006E00420616820742046884700202074C8
S315000062802046BDE810402CE010B5837B047BA3427A
S3150000629004D10521FFF7BFFF002010BD846844F834
S315000062A02310817B491C8173016A8B5C2A2B1CBFDE
S315000062B089180162012010BD80B5026A1378622B2D
S315000062C004D00421FFF7A7FF002002BDC38C0022E3
S315000062D0C28403F0FF0303EB01210122BDE808405D
S315000062E0D2E70021837B00E0491CCAB29A42FBD365
S315000062F0C18C0022827301B1C28470474EF2231111
S31500006300401A56D0401E69D0401E6AD0401E6BD03F
S31500006310401E6CD0401E6DD0401E6ED0393854D011
S31500006320AE386DD0401E6ED0401E6FD0401E70D06D
S31500006330401E71D0401E72D00B3873D0401E74D0F0
S31500006340373800F08A80401E00F08A80401E00F038
S315000063508D80401E00F08780401E00F08A80C01F9E
S315000063602DD0113864D04FF4F171401A66D01F3821
S3150000637022D08B3865D0401E69D0401E6AD0401EA0
S3150000638062D04D3878D0401E79D012381AD040F2FB
S315000063901661401A1CD040F2EB21401A1BD041F284
S315000063A09D01401A02D00C3845D06BE0DFF8840717
S315000063B07047DFF884077047DFF880077047DFF81B
S315000063C080077047DFF87C077047DFF87C07704767
S315000063D0DFF878077047DFF878077047DFF874074B
S315000063E07047DFF874077047DFF870077047DFF80B
S315000063F070077047DFF86C077047DFF86C07704767
S315000064004FF480307047DFF864077047DFF86007A5
S315000064107047DFF8600770474FF481307047DFF848
S3150000642058077047DFF854077047DFF8540770477E
S31500006430DFF850077047DFF8500770474FF4833096
S315000064407047DFF848077047DFF844077047DFF802
S3150000645044077047DFF840077047DFF8400770478A
S31500006460DFF83C077047DFF83C0770474FF482308F
S315000064707047DFF8340770474FF484307047DFF811
S315000064802C0770474FF6FF707047000010B5DFF815
S315000064902047207804A1FEF7FDFC2078DFF81417CA
S315000064A0BDE81040FEF7F6BC286C6974746C652074
S315000064B0656E6469616E000001460878A0F13003DC
S315000064C00A2B38BF30380AD3A0F14103062B38BF58
S315000064D0373804D3A0F16102062A02D257380001E8
S315000064E000E000204978A1F130030A2B38BF30398B
S315000064F00AD3A1F14103062B38BF373904D3A1F1E2
S315000065006102062A02D25739081801E00006000F78
S31500006510C0B2704738B506F033F902001FD0DFF875
S315000065209856042ADFF88846207808BF294608D0FE
S31500006530062A08BF05F14C0103D0072A04D105F14C
S315000065409001FEF7A7FC03E005F1D801FEF7A2FCD7
S3150000655005F586712078BDE83440FEF79BBC31BD59
S315000065602DE9F84FC0B080684FF6FF76DFF8407629
S315000065700568FFF78BFFA8B206F04FFA8246A8B26D
S3150000658006F04BFB8046A8B206F0CEFB8346ACB2C3
S31500006590B24526D100F0C3FA034638782246DFF822
S315000065A01C16FEF777FC00F0BAFA06F029FC8246C4
S315000065B03878524625A1FEF76DFC00F0B0FA06F0D9
S315000065C0BEFC80463878424624A1FEF763FC00F004
S315000065D0A6FA06F02DFD834638785A4623A1FEF723
S315000065E059FCB8F1000F387814BFB2450FF20051CC
S315000065F02AD0434622460FF24C21FEF74BFC0024DC
S315000066000FF2F829BEA509E01DF8002038784946A2
S3150000661000F0B9F8F0B24045F6DB641CE0B258452C
S3150000662010DABBF1010F434603D17F2201F0D6F900
S3150000663006E0E2B201F0D2F938782946FEF72AFCE4
S315000066400026E7E72946387880E000004164647256
S31500006650657373203D202564200D0A0053697A6511
S31500006660203D202564200D0A000000004172726161
S31500006670792073697A65203D202564200D0A000083
S315000066802DE9F84FC0B00546A9684FF6FF760F68AA
S3150000669000F03AF900F06EF88046B8B206F044FB16
S315000066A08346B0450DD100F033F906F0A9FB00F0A2
S315000066B02EF906F044FC044600F02AF906F0B8FC70
S315000066C08346DFF8EC74DFF8F8A48EA02CB905F148
S315000066D01101FFF736F8514637E0B04505F11101D3
S315000066E004D1FFF72EF80AF124012EE0FFF729F86E
S315000066F03878224618A1FEF7CDFB00250FF2FC19CB
S315000067000FF2FC1A09E01DF800203878494600F01F
S315000067103AF8F0B2A042F6DB6D1CE8B2584512DA40
S31500006720BBF1010F234604D17F22414601F057F900
S3150000673007E0EAB2414601F052F938785146FEF7D1
S31500006740A9FB0026E5E700BF08A13878FEF7A2FB03
S3150000675041B0BDE8F08F00007B73697A653A256425
S315000067607D7B76616C75653A000000007D7D0D0AC3
S31500006770000000000446B8B206F04FB9F1B228781E
S315000067801DF801205146761CFEF784BB2DE9F04723
S31500006790C0B0806807684FF6FF794468FFF776FE59
S315000067A000F0B2F88046FFF7E6FF00F0B6F80546BF
S315000067B0CA450CD100F0ACF806F022FB00F0AAF8AE
S315000067C006F0BDFB00F0A3F806F032FC0546B8F172
S315000067D0000FDFF8DC63307814BFCA450FF21031C2
S315000067E02BD0A5F1010915B1E1B2894506DA00F011
S315000067F099F930784B4600F08DF920E04346BAB25D
S3150000680010A1FEF747FB012D4346514608BF7F24E2
S31500006810E2B201F0E4F8307839A52946FEF73AFBF2
S31500006820002436A704E01DF80120394601F0F6F8E9
S31500006830E1B230784145F6DB2946FEF72BFB40B046
S31500006840BDE8F0875B2532785D28256429203D0068
S315000068502DE9F847C1B080684FF6FF750768FFF766
S3150000686015FE00F051F8FFF785FF00F056F8814657
S31500006870AA450DD100F04CF806F0C2FA00F04AF82D
S3150000688006F05DFB044600F043F806F0D1FB8146B6
S31500006890002CC74F18BFAA4505D138780FF25021F2
S315000068A0FEF7F8FA28E000250FF2502820E019FB41
S315000068B004F304FB056238785B1E4146FEF7EAFAEC
S315000068C0387803226946FFF77EF96846FFF7F4FD3C
S315000068D001A98855761CA642E9DBB9F1010F2346CA
S315000068E001AA14BFE9B27F21504606F05CF86D1C80
S315000068F04D45B8BF0026EEDBF6E000002025580027
S315000069000D0A00007B264E00B8B206F086B9804616
S31500006910B8B2F3E48246B8B2F0E48246B8B206F002
S3150000692003BA00002DE9F84FC2B00646B0684168C8
S315000069300768C9B2ADF804100846FEF748FB0446DE
S31500006940FFF7E2FF0546FFF716FFFFF7E6FF4FF6F4
S31500006950FF7181468A450DD1FFF7DAFF06F050FA3E
S31500006960FFF7D8FF06F0EBFA0546FFF7D1FF06F072
S315000069705FFB81468E4FDFF848B20FF2B41828004D
S3150000698003D100F049F8594637E04FF6FF718A45C2
S3150000699004D100F041F80BF124012EE0EA2D05DDCB
S315000069A000F03AF8EA220BF14C0106E0AC4208D0BE
S315000069B000F032F82A460BF198013878FEF76AFAA9
S315000069C01EE00020BDF8041000902B46002202A80D
S315000069D005F060FE00240AE0B9F1010F2B4602AA79
S315000069E014BFE1B27F21504605F0DDFF641CE0B222
S315000069F04845F1DB00F010F803A13878FEF74AFAB3
S31500006A0043B0BDE8F08F00007B72657475726E3A14
S31500006A10307D7D0D0A00000006F111014046FEF7AB
S31500006A2090BE00002DE9F847C1B0806805684FF6B2
S31500006A30FF774668FFF72AFDA8B206F0EEF804468F
S31500006A40A8B205F0EAFF8246A8B206F06DF98146C3
S31500006A50BA450ED100F063F806F0D2F9824600F08E
S31500006A605EF806F06CFA044600F059F806F0E0FA13
S31500006A708146002C4E4D287818BFBA4504D100BF78
S31500006A801BA1FEF707FA2FE0A9F10107B9F1000FE4
S31500006A9002D0F1B28F4206DA00F044F828783B467D
S31500006AA000F038F820E000270FF2500810E02878B0
S31500006AB0631E3A464146FEF7EDF9287803226946F9
S31500006AC0FFF781F86846FFF7F7FC01A9C8557F1C58
S31500006AD0A742ECDBB9F1010F234601AA08BF7F26C6
S31500006AE0F1B2504605F05FFF42B0BDE8F087000006
S31500006AF06E6F7420666F756E640D0A006461746152
S31500006B0020627974655B2564206F662025645D3A92
S31500006B1000000000002204F13801FEF7BBB9A8B25C
S31500006B20FFF7ECBBDFF8384D2146FEF7B3B900009E
S31500006B307B264E0001FF010023E1010075E4010000
S31500006B4063E2010063E5010062E1010079EB010007
S31500006B5064EE010024E1010025E1010026E10100C7
S31500006B6027E1010028E1010029E101008000010080
S31500006B7000010100800101008002010020E2010005
S31500006B8000030100000501008005010080060100E8
S31500006B900007010001E5010002E5010058E20100DD
S31500006BA080030100800401008007010080080100C5
S31500006BB0E45E012010040200380402007C05020095
S31500006BC0B00502002DE9F847DFF8985CA5B0FFF79D
S31500006BD05DFC2878DFF8909C4EF2455200F010FFDD
S31500006BE02878DFF8881C0FF28C3AFEF7FFFFDFF8F3
S31500006BF0800C0188082300F0F7FE002400F009FF4E
S31500006C00E0B20828FAD328780FF26C3800F014FFA7
S31500006C1028784EF2453200F0F3FE2878DFF8541C4F
S31500006C200024FEF7E3FFDFF8500C0188082300F08C
S31500006C30DBFE00F0EEFEE0B20828FAD300F0F6FE26
S31500006C4028784CF2563200F0DBFE2878DFF82C1C50
S31500006C50FEF7CCFFDFF8280C00F0C4FE00F0D3FEF0
S31500006C609DF8012000F0D1FE641EF3D100F0E3FE92
S31500006C7028784EF6735200F0C3FE2878DFF8041C1D
S31500006C80FEF7B4FFDFF8000C0188102300F0ACFE1D
S31500006C9000F0BFFEE0B21028FAD300F0D0FE28784C
S31500006CA04CF24E2200F0ACFE28780FF6FC31FEF7CF
S31500006CB09DFFDFF8D80B0188102300F095FE00F049
S31500006CC0A8FEE0B21028FAD300F0B0FE28784CF601
S31500006CD0441200F095FE28780FF6DC31FEF786FFA9
S31500006CE0DFF8AC0B00F07EFE00F08DFE9DF8012073
S31500006CF000F08BFE641EF3D100F098FE28784DF26A
S31500006D00430200F07DFE28780FF6BC31FEF76EFFD9
S31500006D10DFF8800B00F066FE00F075FE9DF801209E
S31500006D2000F073FE641EF3D100F085FE28784CF265
S31500006D30431200F065FE28780FF69C31FEF756FFE9
S31500006D40DFF8540B01880223E2B200F048FE9DF8FA
S31500006D500020287800F061FE9DF8012000F055FE25
S31500006D6060B21428ECDB00F061FE28784DF2463262
S31500006D7000F046FE28780FF67031FEF737FFDFF891
S31500006D801C0B00F02FFE00F03EFE9DF8012000F0E7
S31500006D903CFE641EF3D100F049FE28784CF24332E3
S31500006DA000F02EFE28780FF65831FEF71FFFDFF8A9
S31500006DB0F00A00F017FE00F026FE9DF8012000F014
S31500006DC024FE641EF3D100F036FE28784CF65352AA
S31500006DD000F016FE28780FF63C31FEF707FFDFF8C5
S31500006DE0C40A0188082300F0FFFD00F012FEE0B29D
S31500006DF00828FAD300F01AFE28784DF6540200F05F
S31500006E00FFFD28780FF62031FEF7F0FEDFF8380C8C
S31500006E1000F0E8FD00F0F7FD9DF8012000F0F5FD1B
S31500006E20641EF3D100F007FE28784DF6432200F0E9
S31500006E30E7FD28780FF6FC21FEF7D8FEDFF80C0CEC
S31500006E400188012300F0D0FD00F0DDFD00F0F3FD28
S31500006E5028784DF6482200F0D3FD28780FF6EC216D
S31500006E60FEF7C4FEDFF8E80B0188012300F0BCFD45
S31500006E7000F0C9FD00F0DFFD28784DF6522200F043
S31500006E80BFFD28780FF6DC21FEF7B0FEDFF8C40B55
S31500006E900188102300F0A8FD00F0BBFDE0B2102829
S31500006EA0FAD300F0CCFD28784DF24E3200F0A8FD62
S31500006EB028780FF6D021FEF799FEDFF89C0B0188A3
S31500006EC0102300F091FD00F0A4FDE0B21028FAD3E3
S31500006ED000F0ACFD28784CF6544200F091FD28787D
S31500006EE00FF6B421FEF782FEDFF8700B018801234E
S31500006EF000F07AFD00F087FD00F09DFD28784CF249
S31500006F00543200F07DFD28780FF69C21FEF76EFEC8
S31500006F10DFF84C0B00F066FD00F075FD9DF80120D2
S31500006F2000F073FD641EF3D100F085FD28784CF661
S31500006F30533200F065FD28780FF67821FEF756FEED
S31500006F40DFF8200B0188042300F04EFD00F061FD00
S31500006F50E0B20428FAD300F072FD28784DF2570209
S31500006F6000F04EFD28780FF66021FEF73FFEDFF8B1
S31500006F70F80A03E0202558000D0A000001881023B6
S31500006F8000F032FD00F045FDE0B21028FAD300F023
S31500006F9056FD28784CF2573200F032FD28780FF66D
S31500006FA02031FEF723FEDFF8C40A0188042300F02F
S31500006FB01BFD00F02EFDE0B20428FAD300F03FFDE1
S31500006FC028784CF6575200F01BFD28780FF604314E
S31500006FD0FEF70CFEDFF8980A0188042300F004FD92
S31500006FE000F017FDE0B20428FAD300F028FD287857
S31500006FF04DF2575200F004FD28780FF6EC21FEF70B
S31500007000F5FDDFF8700A0188042300F0EDFC00F0BE
S3150000701000FDE0B20428FAD300F011FD28784CF206
S31500007020574200F0EDFC28780FF6D021FEF7DEFD82
S31500007030DFF8440A0188042300F0D6FC00F0E9FCDE
S31500007040E0B20428FAD300F0FAFC28784CF2423277
S3150000705000F0D6FC28780FF6B821FEF7C7FDDFF85A
S315000070601C0A01885C2300F0BFFC00F0D2FCE0B2F1
S315000070705C28FAD300F0DAFC28784DF2433200F0AF
S31500007080BFFC28780FF69821FEF7B0FDDFF8F0096F
S3150000709000F0A8FC00F0B7FC9DF8012000F0B5FC5C
S315000070A0641EF3D100F0C7FC28784CF6431200F0BA
S315000070B0A7FC28780FF67C21FEF798FDDFF8C409B7
S315000070C00188142300F090FC00F0A3FCE0B2142821
S315000070D0FAD300F0B4FC28784DF2423200F090FC6E
S315000070E028780FF66821FEF781FDDFF89C090188F4
S315000070F0102300F079FC00F08CFCE0B21028FAD3E3
S3150000710000F09DFC28784CF2453200F079FC287896
S315000071100FF65421FEF76AFDDFF870090188942303
S3150000712000F062FC00F075FCE0B29428FAD300F09F
S3150000713086FC28784CF24B2200F062FC28780FF689
S315000071403C21FEF753FDDFF848090188102300F0C3
S315000071504BFC00F05EFCE0B21028FAD300F06FFCA6
S3150000716028784DF2583200F04BFC28780FF624218F
S31500007170FEF73CFDDFF81C090188202300F034FCF3
S3150000718000F047FCE0B22028FAD300F058FC28783B
S315000071904DF2593200F034FC28780FF61421FEF730
S315000071A025FDDFF8F4080188202300F01DFC00F01F
S315000071B030FCE0B22028FAD300F041FC28784CF6E7
S315000071C04B2200F01DFC28780FF60021FEF70EFD7D
S315000071D0DFF8C8080188222300F006FC00F019FC3D
S315000071E0E0B22228FAD300F02AFC28784CF64B624B
S315000071F000F006FC28780FF6E811FEF7F7FCDFF83A
S31500007200A0080188102300F0EFFB00F002FCE0B2BA
S315000072101028FAD300F013FC28784DF6502200F01F
S31500007220EFFB28780FF6CC11FEF7E0FCDFF87408C8
S315000072300188202300F0D8FB00F0EBFBE0B2202809
S31500007240FAD300F0FCFB28784DF6552200F0D8FB67
S3150000725028780FF6AC11FEF7C9FCDFF84C08018858
S31500007260202300F0C1FB00F0D4FBE0B22028FAD3C3
S3150000727000F0E5FB28784DF6512200F0C1FB287896
S315000072800FF68811FEF7B2FCDFF8200801885A23B2
S3150000729000F0AAFB00F0BDFBE0B25A28FAD300F0DA
S315000072A0CEFB28784DF6492200F0AAFB28780FF687
S315000072B06C11FEF79BFCDFF8F8070188012300F04C
S315000072C093FB00F0A0FB00F0B6FB28784DF64522B4
S315000072D000F096FB28780FF65811FEF787FCDFF8CA
S315000072E0D40701885A2300F07FFB00F092FBE0B23E
S315000072F05A28FAD300F0A3FB28784BF2346200F048
S315000073007FFB28780FF63C11FEF770FCDFF8A80724
S315000073100188082300F068FB00F07BFBE0B2082838
S31500007320FAD300F083FB28784FF6017200F068FB71
S3150000733028780FF61C11FEF759FC02237F22002144
S3150000734000F04DFB00F05FFB9DF8012000F05DFBB7
S31500007350641EF2D100F06FFB28784EF2231200F083
S315000073604FFB28780FF60011FEF740FC04237F221E
S31500007370012100F034FB00F04CFBE0B20428FAD304
S3150000738000F05DFB28784EF2754200F039FB287854
S315000073900FF6EC01FEF72AFC11237F22022100F0F2
S315000073A01EFB00F036FBE0B21028FAD900F047FBCE
S315000073B028784EF2632200F023FB28780FF6D401DA
S315000073C0FEF714FC04237F22032100F008FB00F0E3
S315000073D020FBE0B20428FAD300F031FB28784EF205
S315000073E0635200F00DFB28780FF6BC01FEF7FEFB9A
S315000073F004237F22042100F0F2FA00F00AFBE0B237
S315000074000428FAD300F012FB28784EF2621200F03C
S31500007410F7FA28780FF6A401FEF7E8FB02237F228D
S31500007420052100F0DCFA00F0EEFA9DF8012000F0EC
S31500007430ECFA641EF2D100F0FEFA28784EF67932A4
S3150000744000F0DEFA28780FF68C01FEF7CFFB112349
S315000074507F22062100F0C3FA00F0DBFAE0B2102822
S31500007460FAD900F0ECFA28784EF6646200F0C8FA11
S3150000747028780FF66C01FEF7B9FB10237F2207214F
S3150000748000F0ADFA00F0C5FAE0B21028FAD300F029
S31500007490D6FA28784EF2241200F0B2FA28780FF6BF
S315000074A05001FEF7A3FB1A237F22082100F097FA6A
S315000074B000F0AFFAE0B21A28FAD300F0C0FA287842
S315000074C04EF2251200F09CFA28780FF63801FEF7E6
S315000074D08DFB08237F22092100F081FA00F099FA3A
S315000074E0E0B20828FAD300F0AAFA28784EF226125B
S315000074F000F086FA28780FF62801FEF777FB0A23B4
S315000075007F220A2100F06BFA00F083FAE0B20A2823
S31500007510FAD300F08BFA28784EF2271200F070FAB0
S3150000752028780FF61001FEF761FB02237F220B215C
S3150000753000F055FA00F067FA9DF8012000F065FAB0
S31500007540641EF2D100F077FA28784EF2281200F085
S3150000755057FA28780FF2FC71FEF748FB18237F22B2
S315000075600C2100F03CFA00F054FAE0B21828FAD3E5
S3150000757028784146DFF84445FDF78CFC28784EF222
S31500007580291200F03DFA28780FF2E4710026FEF782
S315000075902DFB01237F220D2100F021FA00F033FAA2
S315000075A000F049FA28784EF2102200F029FA2878DD
S315000075B00FF2D471FEF71AFB00F03DFA28784EF26E
S315000075C0112200F01DFA28780FF2D871FEF70EFB93
S315000075D000F031FA28784EF2122200F011FA2878DB
S315000075E02146FEF703FB00F026FA28784EF2132216
S315000075F000F006FA287804F12401FEF7F7FA00F005
S315000076001AFA28784EF2142200F0FAF9287804F1D2
S315000076104801FEF7EBFA00F00EFA28784EF2152232
S3150000762000F0EEF928780FF29C71FEF7DFFA00F011
S3150000763002FA28784EF2202200F0E2F9287804F1C6
S315000076407001FEF7D3FA04237F22142100F0C7F954
S31500007650FFF794F8F0B20428FAD300F0E2F928789C
S315000076604EF2212200F0CCF9287804F19401FEF7BD
S31500007670BDFA00F0E0F928784EF2742200F0C0F965
S3150000768028780FF26071FEF7B1FA00F0D4F9287885
S315000076904FF60D7200F0B4F928780FF25C71FEF720
S315000076A0A5FA0B23F2B2172100F099F9002700F092
S315000076B09FF9F8B20A28FAD9761C71B20529F0DDCD
S315000076C000F0AFF928784EF2564200F099F9287882
S315000076D00FF23871FEF78AFA00F0ADF928784FF408
S315000076E0654200F08DF928780FF23071FEF77EFAC8
S315000076F000F0A1F928784EF2035200F081F92878BB
S315000077000FF23071FEF772FA0123F2B21A2100F07D
S3150000771066F99DF800202878FFF734F870B205283E
S31500007720F2DD00F07EF928784EF2015200F068F999
S3150000773028780FF21C71FEF759FA10237F221B21BD
S3150000774000F04DF9FFF71AF8F0B21028FAD300F05E
S3150000775068F928784EF2025200F052F928780FF2B2
S315000077600071FEF743FA28237F221C2100F037F927
S31500007770FFF704F8F0B22828FAD300F052F9287877
S315000077804EF2582200F03CF928780FF2E861FEF735
S315000077902DFA12237F221D2100F021F9FEF7EEFFBC
S315000077A0F0B21128FAD900F03CF928784EF25922A5
S315000077B000F026F928780FF2CC61FEF717FA342389
S315000077C0F2B21E2100F00BF9002700F011F9F8B211
S315000077D03428FAD3761C71B20529F0DB00F02BF9B8
S315000077E028784EF25B2200F00BF928780FF2AC6194
S315000077F0FEF7FCF900F01FF928784EF25A2200F045
S31500007800FFF828780FF2AC61FEF7F0F900F013F9F3
S3150000781028784EF25C2200F0F3F828780FF2A8617F
S31500007820FEF7E4F900F007F928784EF2505200F01E
S31500007830E7F828780FF2B061FEF7D8F900F0FBF808
S3150000784028784EF2515200F0DBF8287804F1C00196
S31500007850FEF7CCF900F0EFF826B0BDE8F08700009F
S3150000786094060200E45E0120D8070200E007020049
S31500007870C23E0200F4070200C43E020008080200ED
S31500007880C63E02001C080200C83E0200CA3E0200B4
S31500007890CC3E0200CE3E0200D03E0200D23E0200A6
S315000078A0D43E0200D63E02004D46475F424F41524B
S315000078B0445F4E414D4500004D46475F4D414E5594
S315000078C0465F4944000000004D46475F5048595FF7
S315000078D0434F4E46494700004D46475F4153485F78
S315000078E0434F4E46494700004D46475F53594E5455
S315000078F0485F465245515F4F464653455400000087
S315000079004D46475F4343415F5448524553484F4CA9
S31500007910440000004D46475F455A53505F53544F4D
S3150000792052414745000000004D46475F584F5F549F
S31500007930554E45004D46475F5A574156455F434FA2
S31500007940554E5452595F4652455100004D46475FC9
S315000079505A574156455F48575F56455253494F4E11
S31500007960000000004D46475F5A574156455F505349
S315000079704555444F5F52414E444F4D5F4E554D4223
S31500007980455200004D46475F53455249414C5F4EB4
S31500007990554D4245520000004D46475F4C46584FF4
S315000079A05F54554E450000004D46475F4354554EC3
S315000079B0450000004D46475F4B49545F5349474ECB
S315000079C041545552450000004D46475F4C4F434BCE
S315000079D0424954535F504C570000000051466846D8
S315000079E004F0B0BF018802237F22684604F0AABFD4
S315000079F0F9B228781DF8012051467F1CFDF74ABAD6
S31500007A004946FDF747BA9DF8002028785146FDF70C
S31500007A1041BAE1B228781DF801205146641CFDF7F1
S31500007A2039BA287841460026FDF734BA2878414607
S31500007A300124FDF72FBA28784146FDF72BBA28789E
S31500007A4041460024FDF726BAD83E0200DA3E02007F
S31500007A50DC3E0200DE3E0200E03E0200E23E0200A4
S31500007A60E43E0200E63E0200E83E0200EA3E020074
S31500007A70EC3E0200EE3E0200F03E0200F23E020044
S31500007A80F43E0200F63E0200F83E0200FA3E020014
S31500007A90FC3E0200FE3E0200003F0200023F0200E2
S31500007AA0043F0200063F0200083F02000A3F0200B0
S31500007AB00C3F02000E3F0200103F0200F0060200DB
S31500007AC04D46475F4C4F434B424954535F434C57D7
S31500007AD0300000004D46475F4C4F434B42495453DC
S31500007AE05F4D4C57000000004D46475F4C4F434BDF
S31500007AF0424954535F554C57000000004D46475FBE
S31500007B004C4F434B424954535F444C5700000000CE
S31500007B104D46475F43424B455F4441544100000098
S31500007B204D46475F53454355524954595F434F4E5F
S31500007B30464947004D46475F494E5354414C4C41D8
S31500007B4054494F4E5F434F44450000004D46475F42
S31500007B505345435552455F424F4F544C4F41444560
S31500007B60525F4B45590000004D46475F43424B4527
S31500007B705F3238334B315F44415441004D46475FD5
S31500007B80424F4F544C4F41445F4145535F4B45591B
S31500007B90000000004D46475F5349474E45445F424B
S31500007BA04F4F544C4F414445525F4B45595F580027
S31500007BB04D46475F5349474E45445F424F4F544CED
S31500007BC04F414445525F4B45595F59004D46475F0B
S31500007BD05448524541445F4A4F494E5F4B45590010
S31500007BE04D46475F4E564D335F43525950544F5F93
S31500007BF04B4559004D46475F5A575F50524B000060
S31500007C004D46475F5A575F50554B00004D46475FFC
S31500007C105A575F51525F434F444500004D46475FF8
S31500007C205A575F494E495449414C495A4544000008
S31500007C304D46475F5A575F51525F434F44455F4534
S31500007C40585400004D46475F4555495F363400009D
S31500007C50535441434B5F4E56444154415F5645523F
S31500007C6053494F4E00000000535441434B5F41506F
S31500007C70535F4652414D455F434F554E5445520062
S31500007C80535441434B5F414C5445524E4154455F1A
S31500007C904B455900535441434B5F424F4F545F434A
S31500007CA04F554E5445520000535441434B5F4E4F7F
S31500007CB04E43455F434F554E54455200535441433E
S31500007CC04B5F414E414C595349535F5245424F4FCA
S31500007CD054000000535441434B5F4B455953000039
S31500007CE0535441434B5F4E4F44455F44415441001A
S31500007CF0535441434B5F54525553545F43454E547E
S31500007D0045520000535441434B5F4E4554574F5222
S31500007D104B5F4D414E4147454D454E5400000000D6
S31500007D20535441434B5F504152454E545F494E4672
S31500007D304F000000535441434B5F504152454E544F
S31500007D405F4144444954494F4E414C5F494E464F6A
S31500007D5000000000535441434B5F4D554C54495F5E
S31500007D605048595F4E574B5F494E464F0000000042
S31500007D70535441434B5F4D494E5F52454345495627
S31500007D8045445F52535349004D554C54495F4E4547
S31500007D9054574F524B5F535441434B5F4B455953D6
S31500007DA0000000004D554C54495F4E4554574F5204
S31500007DB04B5F535441434B5F4E4F44455F444154E0
S31500007DC0410000004D554C54495F4E4554574F52A3
S31500007DD04B5F535441434B5F504152454E545F49AC
S31500007DE04E464F00535441434B5F42494E44494E21
S31500007DF0475F5441424C4500535441434B5F43480F
S31500007E00494C445F5441424C4500000053544143A1
S31500007E104B5F4B45595F5441424C450053544143D7
S31500007E204B5F43455254494649434154455F54418B
S31500007E30424C4500535441434B5F414444495449E5
S31500007E404F4E414C5F4348494C445F4441544100C6
S31500007E50535441434B5F5A4C4C5F444154410000DC
S31500007E60535441434B5F5A4C4C5F5345435552491B
S31500007E7054590000535441434B5F47505F444154AB
S31500007E8041000000535441434B5F47505F50524FEF
S31500007E9058595F5441424C45000000005354414339
S31500007EA04B5F47505F494E434F4D494E475F4643F0
S31500007EB000000000535441434B5F47505F53494E07
S31500007EC04B5F5441424C4500535441434B5F47502E
S31500007ED05F494E434F4D494E475F46435F494E5FAC
S31500007EE053494E4B000000004D554C54495F5041DC
S31500007EF04E5F535441434B5F4348494C445F5441A2
S31500007F00424C450010B540F2A17405F075F9C44025
S31500007F10E0070BD5064C207805F08CF9207805F0A3
S31500007F2031FA2078BDE8104005F0F9BA10BD00BF5F
S31500007F30E45E01205FF02A010AA0FDF779BE000089
S31500007F4010B501F0EAFA044601F0DDFA02460448EB
S31500007F500078234607A1BDE81040FCF79BBF000050
S31500007F60E45E012072657365742D746573742E6307
S31500007F700000000052455345543A25702D25700DDA
S31500007F800A00000010B50446002002F00EF9002099
S31500007F9002F02AF905F08CFB012002F079F8204660
S31500007FA005F020FE2046BDE8104000F031BF80B548
S31500007FB0022100F031F9009805F008FF01BD806844
S31500007FC00068C1B20229A8BF0FF20C5305DA0029D6
S31500007FD014BF0FF210530FF21453DFF8AC140870ED
S31500007FE0DFF8A804D0F810130FF2DC42FFE70FF217
S31500007FF0CC40FDF7A6BB0000F8B501F0ACFFDFF8FA
S31500008000904404EB8000C368DFF88004D0F8501376
S315000080100FF26C520FF24C50FDF793FBDFF874042D
S31500008020006805F01CFF0546052814D8DFE800F0B7
S3150000803003100E090C060FF200520EE00FF2EC428E
S315000080400BE00FF2DC4208E079A206E079A204E038
S315000080500FF2C44201E00FF2EC420FF200510FF2B0
S31500008060F440FDF76EFB00260FF2E047F0B254F83D
S31500008070201005F001023846FDF763FB761C6D08FB
S31500008080F0B20228F2D96CA0BDE8F240FDF759BB68
S3150000809038B50446A068DFF8F423D2F86013056803
S315000080A00FF2E840FDF74DFBEDB215B1012D07D0FB
S315000080B00CE00FF2E040FDF744FB01F07BFE05E02B
S315000080C00FF2E440FDF73DFB01F043FF0FF2E840FD
S315000080D0FDF737FB2046BDE832408DE7F8B5074689
S315000080E00D4684B0284601F00BFB0446284601F0F5
S315000080F0ACFC06460FF23C523CB92B4607F1110187
S315000081000FF21850FDF71DFB10E00FF238500290E9
S3150000811005F01F000FF224510190009103942B46A5
S3150000812007F11101DFF87003FDF70BFB0FF2BC44FA
S31500008130AE4205D032460FF214512046FDF701FB40
S31500008140284601F069FC0FF278430FF27C4110F1EA
S31500008150010F02D10FF2784202E018B90FF278420D
S3150000816018460BE0DFF83423B0FBF2F2DFF82C13ED
S3150000817001FB120129B90FF27C412046FDF7E1FA15
S3150000818013E0DFF81C2313784FF47A74B0FBF4F293
S31500008190214601FB120100290EBF0FF26041024683
S315000081A00FF268411846FCF775FE05B022A0BDE83F
S315000081B0F040FDF7C6BA10B5044601F0EBFB0146E8
S315000081C02046BDE8104089E738B5054601F0C3FEF4
S315000081D00400DFF8B802D0F8301318BF0124DFF826
S315000081E0C402FDF7AEFA01F0B4FEA8680068C0B29A
S315000081F001F0E8FA02460FF218310FF25840FDF787
S31500008200A0FA0CB101F0D6FD01F0C4FB01462846E8
S31500008210BDE8344062E70121684601F0C8B910B5EF
S31500008220044602F08CF800F002F98AA23CE1000054
S3150000823054780000527800007D0D0A002DE9F04FB9
S3150000824085B006460C4615461F4601F084FE010021
S3150000825018BF01218DF8031001F0A1FE8DF8020070
S31500008260002D16D10125022001F09CFE642003F0AA
S31500008270C8FF01F08FFB8DF801000290049603976A
S315000082805CB9029E0120002106F01F0400FA04F4E6
S3150000829009E0E8D56D420020E6E7E00E4601F6B2B9
S315000082A024F078440121019115E0049833464A46AA
S315000082B000F111010FF2D430FDF743FA04E0FDF7A7
S315000082C040FA6EA0FDF73DFA9DF8000001218140BD
S315000082D0641A761CF6B2002C69D006F01F008DF8E1
S315000082E0000024FA00F2D007F3D501F053FB0FF299
S315000082F04C39864204D0F0B201F064FA0028D4D199
S315000083004FF07F0A6FF07F080027AB460DE0802014
S3150000831003F077FF01F03AFFC7198045ABF1010B77
S31500008320B8BF80465045B8BF8246BBF1000FEEDCB1
S315000083309DF8400097FBF5F758B1504601F0A8FBB1
S31500008340824678B201F0A4FB0746404601F0A0FB46
S315000083508046049800F1110149A0FDF7F2F9019851
S3150000836028B1324649460FF2E410FDF7EAF90398C0
S315000083700FF2F42920B1014652464846FDF7E1F9CD
S315000083800E9820B101463AB24846FDF7DAF90F9841
S3150000839020B1014642464846FDF7D3F99DF8400014
S315000083A0002814BF0FF2C8200FF2D82087E70298E2
S315000083B086421CBF9DF8010001F004FA9DF80200F8
S315000083C001F0F0FD9DF8030020B105B0BDE8F04FC7
S315000083D001F0F0BC05B0BDE8F08FE0B500210291D8
S315000083E0019100910FF2C423012208E0E0B50121BA
S315000083F0002202910192009222A301220021FFF79E
S315000084001DFF07BD3EB5847B00218368022C1A68D8
S315000084100FF2B0240FF2A425A8BF596800230293D7
S31500008420019400950FF28C23FFF708FF37BD034632
S3150000843004F11101704780B501F0F6FF03461348B9
S31500008440D0F8B0130FF294220FF28020BDE800504E
S31500008450FDF777B9434341000C4A10B5D2F8C01373
S3150000846004460FF28820FDF76CF9A068016848B24F
S3150000847001F0AAFF2046BDE81040DCE77D0D0A00AA
S315000084807B264E0045440000F063012070F2010097
S315000084901C5F0120206501206008020040420F0099
S315000084A0E45E0120840802006CA0BDE81040FDF7E0
S315000084B048B981680968C9B210E600007B264E20DB
S315000084C02674737D0D0A000050455220546573745E
S315000084D0204D6F6465000000656E61626C65642DF9
S315000084E06E657700656E61626C65640064697361D0
S315000084F0626C65640000000061736C656570000065
S315000085006177616B65000000656E657267790000D2
S31500008510737461747573000049646C650000000033
S3150000852052784163746976650000000054784163AF
S315000085307469766500000000496E6163746976654A
S3150000854000000000556E6B6E6F776E002026746813
S315000085500000000020267473000000005266537469
S31500008560617465007B264E20526164696F20706FCE
S315000085707765722073746174652026747300000039
S31500008580706F776572207374617465007B264E2068
S3150000859000000000536C656570696E672072616447
S315000085A0696F2E2E2E00000057616B696E67207270
S315000085B06164696F2E2E2E00646F6E657D0D0A0054
S315000085C020267470000000006672657100000000CD
S315000085D0696C6C6567616C0050657252616D5261C1
S315000085E064696F436F6E66696700000020267475C4
S315000085F000000000667265714D487A00207B667245
S3150000860065714B487A3A256C7D000000207B6672C6
S315000086106571487A3A256C7D000000007B264E2065
S31500008620526164696F206368616E6E656C202674A2
S31500008630680000006368616E6E656C006368616E59
S315000086400000000070616765000000005074694317
S3150000865068616E002674687D0D0A00007B264E2038
S315000086602674647D0D0A0000202674640000000054
S31500008670205B3830322E31352E3420756E69747396
S315000086805D000000205B64426D5D00007B264E208D
S31500008690267468205B696E76616C69642063686124
S315000086A06E6E656C5D7D0D0A0000000052535349E5
S315000086B0000000006D696E5253534900617667529F
S315000086C0535349006D617852535349007B264E201F
S315000086D02674642064426D7D0D0A000043434120E8
S315000086E05468726573686F6C640000007B264E7D6B
S315000086F00D0A000080B5002001F049FFBDE80140E9
S3150000870005F0E6BA10B5DFF8CC40607DDFF8C8307A
S3150000871001221871E0694FF47A7105F090FC0100AE
S315000087201CBF0121217510BDDFF8A810C861887D26
S31500008730DFF8A4104871E5E770B58EB00C460CA8BA
S3150000874005F074FC054605F0A9FC064605F06AFC32
S31500008750BDF836100FF24C020A920B91BDF8341098
S315000087600FF2480208920991BDF83210BDF8303078
S315000087700FF240020791069205930FF2400103950E
S315000087800FF24002049102920FF240050346019651
S315000087900095DFF848202146DFF84400FCF7D1FFBA
S315000087A00EB070BD7375737000000000637269745B
S315000087B0000000006C696D690000000074616C6B5C
S315000087C00000000075736564000000006163636566
S315000087D06C000000385F01204C650120E487000032
S315000087E0D00902006D6F6465000000002DE9F047B6
S315000087F006468846924605F042FCDFF86C72F87031
S315000088000409387818BF641E28B1386B07EB80005E
S31500008810416A491C4162BE700FF24419DFF84052AA
S315000088208C2E43D001F0A8FB66B1402E22D0882EB4
S3150000883018BF892E4DD08C2E38D08D2E34D08F2E49
S315000088400CD03BE03869396A401C386164183C62D8
S31500008850287D00283DD040F23A5137E0B869396AA0
S31500008860401CB86164183C62287D002831D040F273
S315000088703F512BE0F869396A401CF8613878641872
S315000088803C6260B105F01DFC032806D1786B401CE4
S315000088907863386B80F00100386305F014FC287D9E
S315000088A0B8B140F24B5111E005F0E6FB7869401C87
S315000088B07861287D68B140F2525107E03246DFF810
S315000088C090150120FDF79CF940F263514846FDF7EB
S315000088D0AFF987F801A0C7F83C80402E19D1387946
S315000088E0012811DD3989491C3981411E3971C9B206
S315000088F02A2005F0F4FBE86900224FF47A7105F0AE
S315000089009EFB064628B929E000212A2005F0E7FB50
S3150000891003E0002E18BF8F2E1ED0787901281BDDAC
S315000089207989401E7871491C7981DFF8280501781C
S3150000893001290ADDE969DFF82005814205D10278BF
S31500008940082A02DDC178491CC170688B03F059FC06
S31500008950BDE8F047FFF7D6BE01202875BDE8F087D1
S315000089607068792D636F6D6D6F6E2D74782D7465DB
S3150000897073742E630000000080B501F00FF8034603
S31500008980DFF8DC04D0F8A01408E0000080B501F0A0
S315000089901AF80346DFF8C804D0F8C0140FF20C0228
S315000089A005A0BDE80050FCF7CCBE000061637475FD
S315000089B0616C506F776572007B264E202674646466
S315000089C0426D7D003EB50446A1680D6868B200F0B0
S315000089D0F6FF00F028F8D0F8B0146BB200F01DF8DE
S315000089E020A0FCF7AEFE2046BDE83E40C4E70000EE
S315000089F03EB50446A1680D6828B200F0F1FF00F00C
S31500008A0012F8D0F8D0142BB200F007F815A0FCF736
S31500008A1098FE2046BDE83E40B8E70FF298420FF2B6
S31500008A208440FCF78EBE01900FF270410091DFF892
S31500008A3030047047E0B5DFF82C140B8B0FF2B04210
S31500008A40009200F1110101930FF28C420FF2744073
S31500008A5038E18168DFF80C340A681A83EAE7000017
S31500008A60385F01200D0A00004C6501202DE9F14F09
S31500008A7084B081684FF0010A0A88511E8941C90FE6
S31500008A800192029101F067FA00B101208DF8010010
S31500008A90DFF8C85368694FF0000BD846ADF80200FE
S31500008AA00198DFF8C063DFF8C073012811D000F029
S31500008AB000F90299387821B10FF25441FCF7EAF92E
S31500008AC003E0019A74A1FCF7E5F900F0ECF800F078
S31500008AD0E5F8DFF88443DFF8949380224946204680
S31500008AE0FCF750FEDFF86C0301780129C4BF20783B
S31500008AF0082819DD99F80110D04601F0200141F04F
S31500008B00C10161701821A1702118029818B101F8ED
S31500008B1005BC002004E0019801F8050C019800123C
S31500008B202178611801F8040CD94661E000208DF81F
S31500008B300000387800F0E6F800F0C0F85ED09DF846
S31500008B4000103878642906D100F09EF8049800F1E8
S31500008B501101002007E0442907D100F095F8049898
S31500008B6000F111010120FFF7E7FD09F101001FFAED
S31500008B7080F9DFF8FC12087820B100F027FD08B173
S31500008B8005F0B3FA00F085F8DFF8C8120878A0B14E
S31500008B90B8F1000F18BF84F803A0207803280CDD75
S31500008BA0201800F803AC21784FEA2A20611801F852
S31500008BB0020C0AF101001FFA80FA0020307501212B
S31500008BC0A9702046FFF7B0FD8346B8B903F0A8FBAD
S31500008BD08346307D50B9FFF78DFD03F0A1FBA0EB76
S31500008BE00B0080B240F2D1718842F2D395F802B000
S31500008BF0029800289AD10198814597DB387800F0D1
S31500008C0043F8707BDFF86C4238B1AA8ABDF80200DF
S31500008C102146121A3878FCF73DF938785A460FF291
S31500008C203031FCF737F9DFF85002028838780FF256
S31500008C303C31FCF72FF938780FF25031FCF72AF95E
S31500008C4069783878002914BF0FF25C310FF2603171
S31500008C50FCF720F901F0A6FB28B1AA6B387804F1DD
S31500008C602401FCF717F9EA6B387804F15001FCF798
S31500008C7011F9642003F0C5FA9DF8010008B101F06E
S31500008C8099F805B0BDE8F08F4A460FF2A821FCF727
S31500008C9001B9308B03F0B5BA2575000038780FF2AC
S31500008CA0F011FCF7F7B8328B38780FF27021FCF729
S31500008CB0F1B838780FF25021FCF7ECB89DF80000B7
S31500008CC065287047FCF73DFD07BD38B500F03BF859
S31500008CD00400DFF89451287818BF01240FF2B01170
S31500008CE0FCF7D8F801F035F901F0EAFA02E0287845
S31500008CF000F008F8FFF7E2FFF9D101F0F0FA1EE004
S31500008D009AF800006946FCF754BF38B500F01BF826
S31500008D100400DFF85451287818BF01240FF27011AF
S31500008D20FCF7B8F801F015F901F0E8FA02E0287846
S31500008D30FFF7E8FFFFF7C2FFF9D101F0FFFA0CB128
S31500008D4001F038F831BD00208DF8000001F003B9BC
S31500008D502DE9F041DFF8104120780FF25C21002662
S31500008D60FCF798F80FF260250FF25428DFF8FC7034
S31500008D7015E0BA5D20784146FCF78CF8711006EBD9
S31500008D8091729210B6EB820007D139788E4204DADE
S31500008D90207832462946FCF77DF8761CF6B23878FC
S31500008DA0401C8642E5DBBDE8F0818068DFF8BC2028
S31500008DB00168117070472DE9F8430446A068DFF892
S31500008DC0A850DFF8B89006680020DFF8A070761C7F
S31500008DD0F6B200F10108802E05DAA16801EB8000E9
S31500008DE04368BB5505E028784346721E4946FCF7A2
S31500008DF051F840460428EADBBDE8F1831B481421FC
S31500008E00017001214A1E4254491C8029FAD3704739
S31500008E1010B512480021016141618161C1610162A1
S31500008E20174B1960174C216001814181164A116068
S31500008E3010BD80680B49007828B101224A730228C8
S31500008E4002D1012001E048730020104908707047E4
S31500008E50180A0200F0630120C46901204C65012054
S31500008E6070F20100385F0120E45E012044690120B0
S31500008E70F16301204C0A0200AA770120CC0A020005
S31500008E800877012004770120D47701200D650120A1
S31500008E902765276E642E2E2E000000007374617401
S31500008EA0757300007B264E2026746464426D20266E
S31500008EB074647D00726571756573746564506F774F
S31500008EC0657200007B264E20267464757320267416
S31500008ED0327875737D0000007472616E736D69740B
S31500008EE02064656C617920286465632900000000B0
S31500008EF07472616E736D69742064656C6179202883
S31500008F0068657829000000005478696E67200000C3
S31500008F10696E66696E6974650000000020706163A1
S31500008F206B6574732025752075732061706172748A
S31500008F302E2000000D0A2575207061636B65747321
S31500008F40207472616E736D69747465642E0D0A0007
S31500008F504C617374207061636B6574207374617403
S31500008F6075733A2030782532780D0A004C61737497
S31500008F70207061636B6574206261636B6F66663A2D
S31500008F802030782532780D0A000000004672616DA7
S31500008F90652070656E64696E6720696E206C61730A
S31500008FA0742041434B3A20005965732E0D0A000088
S31500008FB04E6F2E0D0A000000206C656E3A200000F0
S31500008FC030782578200000000D0A307825783A2080
S31500008FD000000000130018BF01231A46FFF706BC65
S31500008FE00901020003D4DFF8500581547047DFF809
S31500008FF04C3502F00F021A4402F8041C704730B5D3
S3150000900000F007000123C0F10704052C2EBF0F2432
S3150000901003FA04F4641E051D072D34BF0020C01E8C
S315000090202140814003FA00F0401E1040084330BD45
S31500009030002070470020704770471CB572B603F0D9
S31500009040E5FADFF8FC044169DFF8F8440022216004
S3150000905000F043FA01466FF00B00FFF7C1FF00F086
S315000090603BFA01466FF00A00FFF7BAFF00F034FA48
S3150000907001466FF00900FFF7B3FF00F025FA01463D
S315000090806FF00800FFF7ACFF00F01EFA01466FF024
S315000090900700FFF7A5FF00F017FA01466FF006007C
S315000090A0FFF79EFF00F010FA01466FF00500FFF78C
S315000090B097FF0022022100F009FA01466FF0040032
S315000090C0FFF78EFF00F00CFA01466FF00300FFF782
S315000090D087FF00F0F9F901466FF00200FFF780FF05
S315000090E00022072100F0F2F901466FF00100FFF7B8
S315000090F077FF00F0F5F901464FF0FF30FFF770FFFC
S3150000910000F0EEF901460020FFF76AFF00F0E8F9EB
S3150000911001460120FFF764FF00F0E2F90146022054
S31500009120FFF75EFF00F0DCF901460320FFF758FF6A
S3150000913000F0D6F901460420FFF752FF00F0D0F9FF
S3150000914001460520FFF74CFF00F0CAF9014606204C
S31500009150FFF746FF00F0C4F901460720FFF740FF7E
S3150000916000F0BEF901460820FFF73AFF00F0B8F913
S3150000917001460920FFF734FF00F0B2F901460A2044
S31500009180FFF72EFF00F0ACF901460B20FFF728FF92
S3150000919000F0A6F901460C20FFF722FF00F0A0F927
S315000091A001460D20FFF71CFF00F09AF901460E203C
S315000091B0FFF716FF00F094F901460F20FFF710FFA6
S315000091C000F08EF901461020FFF70AFF00F088F93B
S315000091D001461120FFF704FF00F082F90146122034
S315000091E0FFF7FEFE00F07CF901461320FFF7F8FEBC
S315000091F000F076F901461420FFF7F2FE00F070F950
S3150000920001461520FFF7ECFE00F06AF9014616202C
S31500009210FFF7E6FE00F064F901461720FFF7E0FECF
S3150000922000F05EF901461820FFF7DAFE00F058F963
S3150000923001461920FFF7D4FE00F052F901461A2024
S31500009240FFF7CEFE00F04CF901461B20FFF7C8FEE3
S3150000925000F046F901461C20FFF7C2FE00F040F977
S3150000926001461D20FFF7BCFE00F03AF901461E201C
S31500009270FFF7B6FE00F034F901461F20FFF7B0FEF7
S3150000928000F02EF901462020FFF7AAFE0022032156
S3150000929000F01CF901462120FFF7A2FE00F020F99C
S315000092A001462220FFF79CFE00F01AF90146232012
S315000092B0FFF796FE00F014F901462420FFF790FE12
S315000092C000F00EF901462520FFF78AFE00F008F9A6
S315000092D001462620FFF784FE00F002F9014627200A
S315000092E0FFF77EFE00F0FCF801462820FFF778FE27
S315000092F000F0F6F801462920FFF772FE00F0F0F8BC
S3150000930001462A20FFF76CFE00F0E2F801462B200A
S31500009310FFF766FE00F0DCF801462C20FFF760FE42
S3150000932000F0DEF801462D20FFF75AFE00F0D8F8CF
S3150000933001462E20FFF754FE00F0D2F801462F20FA
S31500009340FFF74EFE00F0CCF801463020FFF748FE4E
S3150000935000F0C6F801463120FFF742FE00F0C0F8E3
S3150000936001463220FFF73CFE00F0BAF801463320F2
S31500009370FFF736FE00F0B4F801463420FFF730FE62
S3150000938000F0AEF801463520FFF72AFE00F0A8F8F7
S3150000939001463620FFF724FE00F0A2F801463720EA
S315000093A0FFF71EFE00F09CF801463820FFF718FE76
S315000093B000F096F801463920FFF712FE00F090F80B
S315000093C001463A20FFF70CFE00F08AF801463B20E2
S315000093D0FFF706FE00F084F801463C20FFF700FE8A
S315000093E061684FF6FF00014041F0BF6141F4013171
S315000093F06160E0684FF4E02140F01000E060E16158
S3150000940004F0ABFE03F0B6FEEFF30880001F4E49F2
S315000094104FF0CD3201E040F804298842FBD24B4997
S3150000942089B24B4802F0A0F862B6684604F0DCFE4A
S315000094304848816ACA0311D441686FF3162141F482
S31500009440B81141F405414160016821F4704141F4CD
S3150000945040410160026842F4E06202609DF801004A
S31500009460012804BF9DF80000002807D14FF00051E5
S3150000947006200A6801F58041401EFAD13648016887
S3150000948041F00301016004F0BDFE0220334908608B
S3150000949004F014FF05F02CF80521684605F08EF857
S315000094A001208DF80300684605F0C9F805F0E8F8D4
S315000094B002F04EFF04F0A8FE05F000F905F00AFBE5
S315000094C0274805F049FB13BDFF22FF21042096E53E
S315000094D000220121042092E50022002104208EE5CD
S315000094E00022042104208AE505F044BB05F043BBB5
S315000094F004F0F9BD80B500210B2004F0F0FDBDE8B5
S31500009500014004F0F1BD80B503F076FE0146154832
S315000095100C2938BF00EB810002BD80B503F070FE58
S3150000952002041149120E51F8223000F0FF0003EB3D
S31500009530800002BD0000000000E400E018ED00E03D
S315000095400040000008ED00E04054012044100000F7
S31500009550A000002030C000408080004070400040E5
S3150000956078200200FC1B02003C1D02007047FEE74B
S3150000957038B5044604F0B3FD0546DFF8CC0A837817
S315000095800178994211D000F041F8641E07D0641E9C
S3150000959008D0A41E06D0A41E032C03D905E0002281
S315000095A0194600E0002204F058FC284632BDDFF8D8
S315000095B09C3A10B54C000146986A224604F05BFCC2
S315000095C0A04201D0002010BD012010BD80B500F0E2
S315000095D01DF805F006FB00B10120C0B202BDDFF8A0
S315000095E06C0AC07D00B1012070470146DFF85C2A95
S315000095F0107B002800D1704780B5906A05F020FBEB
S3150000960018B140F29D1100F021BE01BDDFF83C0A01
S31500009610806A704780B5FFF7F9FF04F020FC00F080
S315000096200300032801D1012002BD002002BD80B540
S31500009630B0F5004F08D1DFF84C1A4FF6FF700988D5
S3150000964000F007F8BDF80000DFF8FC194883002099
S3150000965002BDADF8000002237F22684605F0E8BB94
