S01200006E63702D756172742D68772E733337AC
S31500000000E8E6032051CD0200E96C000061C9020058
S31500000010A70A02020002000004180FAC606747013D
S3150000002000000000000000000000000000000000CA
S3150000003000000000B8D2020000000000000000002E
S315000000400000000000000000FFFFFFFFFFFFFFFFB2
S31500000050FFFFFFFFFFFFFFFFFFFFFFFFFFFFFFFFAA
S3150000006000700F000000000000000000FFFFFFFF0F
S31500000070FFFFFFFF0100000000000000000000007D
S31500000080000000000000000004FF032004FF03201E
S31500000090E8E60320B0F102006ACD020088DD032005
S311000000A0F4120020000010000000000018
S31500000200E8E6032051CD0200E96C000061C9020056
S3150000021051B2000065C9020069C902000000000071
S31500000220000000000000000000000000BB05000008
S315000002306DC90200D304000097190000E71C0000F6
S3150000024001B4000003740200852D000075C9020088
S31500000250C96E02003F740200097402000B740200AA
S3150000026005740200EF0601005D0901005B7E0000D7
S315000002700F40000075C9020075C902003FCB02009D
S3150000028075C9020075C902006B09010075C9020033
S3150000029075C9020075C9020075C9020075C9020058
S315000002A075C9020075C9020075C9020075C9020048
S315000002B04174020007740200990001007174020083
S315000002C075C90200B5CC020075C9020075C90200E5
S315000002D075C9020075C9020075C9020075C9020018
S315000002E075C9020075C9020075C9020075C9020008
S315000002F075C9020075C9020075C9020075C90200F8
S3150000030075C9020075C9020000000000504103488B
S31500000310016830BF41F000410160704700BF4C31B9
S315000003200E401248816B89B201B1012141F671324A
S31500000330826346F21A32036843F001030360C26423
S315000003404FF4807343604269D307FCD44FF40072C4
S31500000350420C00180022C264C9B203685B085B0045
S31500000360036001B182630020704708000E40000060
S315000003702DE9F84F8046DFF87C902222FF2148467F
S3150000038000F08FF8DFF870B04FF49372FF215846F3
S3150000039000F087F819481A4F1A4C00904FF0220ABD
S315000003A00026A25D1849BD5D885D521C02EBD27223
S315000003B0521000B11932154830F816100098D21CA8
S315000003C06A4300F08AF8012D1CBF2BF816A0AA4438
S315000003D0761C222EE5DB22234FF4805240F27C511C
S315000003E00B4800F07AF849464046BDE8F44F00F065
S315000003F0D4BB00BFFCEC0320ECED03206CCD020067
S31500000400C0CF02009CCF020078CF020034CF02009A
S3150000041088CD020070B5814224D210441144401E9A
S31500000420491E10E011F8013900F80139121F11F8C0
S31500000430014900F8014911F8015900F8015911F86C
S31500000440016900F8016993B2042BEBDA93B2002B31
S315000004501EBF11F8013900F80139521EF6D170BDE0
S3150000046000F00DF893B2042BFADA93B2002B1EBFFC
S3150000047011F8013B00F8013B521EF6D170BD11F890
S31500000480013B00F8013B121F11F8014B00F8014B2C
S3150000049011F8015B00F8015B11F8016B00F8016BC4
S315000004A07047130003D00A46194601F041BA704757
S315000004B010B5034600E0521E90B218B100F003F8E2
S315000004C0F9D0001B10BD13F8010B11F8014BA04227
S315000004D0704770472F49087070470EB430B52D49E4
S315000004E00446087820B301F0AFFA08B301F0FAFB2E
S315000004F0012001F004FCFF28054619D001F0F4FBA9
S31500000500022101F0A7FA0146284601F0F3FB03ABEE
S3150000051022462946204801F0DEFF30B1284601F088
S315000005200DFB10B1042000F00BF8284601F051FC39
S3150000053030BC5DF810FB0C2200211848FFF7B1BF54
S31500000540164931F81020521C21F8102070470CB4BF
S3150000055080B502AA02F01CF901BC5DF80CFB0D4A3D
S315000005601178A1B9010018BF012810D0042818BFBE
S3150000057005280CD0312818BF332808D037281EBFCD
S315000005803B284FF6FF71884201D0012070470020BA
S3150000059070470000DFFE0320F11F000084F50320F2
S315000005A0302818BF322806D034281CBF36283828F1
S315000005B001D00020704701207047FEE730B5DFF814
S315000005C0485ADFF8484A2B882468C01A04EB4004CE
S315000005D0002004E034F8103021F81030401C90421E
S315000005E0F8DB002030BDDFF8203ADFF8201A1A8841
S315000005F00968801A01EB4001022002F0E3B9F8B560
S3150000060004460F461646DFF8045AF0B208B34FF612
S31500000610FF70ADF80000002017F8011BC3B2401CA4
S315000006200DF80310761EC1B2022902DAF1B20029D2
S31500000630F2D1DFF8D4E92868BEF800301FFA84FC4E
S31500000640ACEB030300F01CFF641C0100DDD000F0DE
S31500000650EBBB0120F2BDF8B504460D461646F0B2D6
S3150000066088B1012200F010F8641C0020C2B2401CC0
S315000006701DF80230761EC7B2022F05F8013BEEDAEE
S31500000680F1B20029F2D1F1BD6946A0B296E7014662
S31500000690DFF87C09DFF87C29405C525CDFF8C03B60
S315000006A0595C09B102F5997240EAC21080B27047EE
S315000006B010B5DFF85C39DFF8AC2B1C5C012C1CBFD5
S315000006C032F81000081802EB400010BD70B590B06B
S315000006D005460C464FF6FF7604E0A8B2FFF783FF07
S315000006E0203D2035A9B28C420DD3202201F00AF814
S315000006F0002082B23DF81230B342EED1401C81B2E6
S315000007002029F6DBEDE710B070BD10B50446618810
S315000007102088FFF7DBFF0121DFF84C2BDFF84C3B8D
S31500000720A171208811784118188801EB4001891DB4
S31500000730A18010BD10B5DFF8384B00F087F800F047
S3150000074040F900F03BF9DFF8840C04F1080144603D
S3150000075004F110028160C26010BD2DE9F043044629
S31500000760DFF8040B0778B946B9F1060F85B003DD4B
S315000007704FF4377100F010FB0021A1717A1C20881C
S3150000078092B201A9FFF71AFFBDF804104FF6FF76E3
S31500000790B14218BF002910D00DF10408711A38F8BB
S315000007A01900884209D101254D454BDA38F8150064
S315000007B040B1BDF80410884214D000F047F805B0E7
S315000007C0BDE8F083DFF8081C0A88208812FB0521A3
S315000007D041186A437118101889B280B2FFF776FF84
S315000007E00221A1716D1CDFE72088381800F08EFF0A
S315000007F0BDF80200000B4845DFD120883818401D9F
S3150000080000F085FFBDF80210BDF80200711A000A5B
S3150000081001F0FF018842D0D10320A0710122208877
S315000008203F187F1C6946B8B2FFF7C8FEBDF8000046
S31500000830FF2802D10421A171C1E7B042BFD0002830
S31500000840BBD1BCE7A0790228CED1B8E720465CE749
S31500000850F8B5DFF81C4ADFF8745B002004F10801E4
S3150000086004F11002A071A073A075A960EA606C6023
S315000008702046FFF772FF04F10800FFF76EFF04F150
S315000008801000FFF76AFFA179A07BDFF880670429D3
S3150000089008D100220428ADF8002046D1FFF74AFF10
S315000008A00120F2BDA17D04282BD100200429ADF83A
S315000008B00000F3D0FFF7CAFF00F080F83068DFF8D9
S315000008C0A869238900F080F8060040D10320A073B0
S315000008D0A07903284AD1A07B032802D1A07D012854
S315000008E063D0A07901284AD1A07B032854D1A07DEA
S315000008F0012818BF0328D1D104F1080004F1100122
S3150000090057E004292BD10020ADF80000FFF79EFF29
S3150000091000F057F83068DFF85069238A00F054F881
S31500000920060014D10320A07519E0A07D0428B5D0D7
S3150000093000F047F800F042F83068DFF82C692388A9
S3150000094000F042F8060002D10320A0710AE030460A
S3150000095002F0BCF81EB14FF4747100F01DFAA079D4
S315000009600328B5D1A07B0128B5D1B7E70228B8D1B5
S31500000970A07B032804BFA07D01288FD1BCE70328F4
S3150000098004BFA07B012889D1A07D03280BD104F1E7
S315000009901000214608340CE0022812BF0128A07D71
S315000009A00328F0D1F3E70228EDD1204604F108012F
S315000009B010346860EC60A9600020F2BD04F11000FC
S315000009C0A3E604F10800A0E63778DFF83C66FF18D6
S315000009D033887F1CFF1A0122694600EB470002F0AC
S315000009E01CB82DE9FE4F0646DFF87C08DFF8888A3A
S315000009F0DFF8889A0F460178ADF80810012234888E
S31500000A000C19641DFFF740FEDFF86018BDF8000002
S31500000A10B1F800A0641C000AADF8000050451CBFE8
S31500000A200121397000251AE0401CC1B2514514D28B
S31500000A305FFA80FB39F81B10BDF806209142F3D10E
S31500000A40C0B2FFF724FEBDF804304FF680721040A6
S31500000A501340984208BF08F80B506D1CADB2BDF8A4
S31500000A600000854206DA022201A9FFF70EFEA41C49
S31500000A700020DAE70020D14601E0401C80B248455C
S31500000A8017DA18F800108142F7D00120387010E00C
S31500000A9021F815A00DE00128DFF8C817F8D0BBF142
S31500000AA07F0F31F8150008BF4FF0000B584421F8AE
S31500000AB010A0A1B27088C01E88424FF6FF7A28DBCC
S31500000AC000F066F8BDF80200FF25504521D0601CF5
S31500000AD000F0D4FDBDF80200BDF80610AAEB000236
S31500000AE0914213D104F1030A040A00F07F0BBDF80A
S31500000AF0000084420ADA002000E0401C484518DA6B
S31500000B0018F80010A142F8D1C5B212E001203870E1
S31500000B100DE0B4807088A1B2884208D300F038F89E
S31500000B20BDF80200641C5045F4D001213970BDE8BF
S31500000B30F78F3088BDF80830181800EB4400801D88
S31500000B40012201A980B2FFF739FDBDF80400C0F308
S31500000B50C710401C00EBD0700AEB60047088A1B28D
S31500000B608842D3D3FF2DA4D0DFF8A404405DBBF1A7
S31500000B707F0F14BF59460021814286DABDF8021064
S31500000B80DFF8DC26535D0906C90F994283D07CE75E
S31500000B9001220DF10201A0B210E5F8B58DF80000B2
S31500000BA0DFF8AC1BDFF86004DFF8C0460288DFF828
S31500000BB0C00602800B884380DFF8AC361D7821889A
S31500000BC0DFF8903BDFF8904BAA1802EB4102921D2A
S31500000BD08280002282711A880281AA1802EB4102E1
S31500000BE02388DFF8784B4381921D8281002282732D
S31500000BF0DFF86C3B1A880282AA1802EB4101891DB4
S31500000C002388DFF8C847818243820021817501F07D
S31500000C10B1FF002853D12070FFF71AFE9DF800108F
S31500000C20084318BF01208DF8000001226068008883
S31500000C302818801CA11C80B2FFF7C0FC9DF800009C
S31500000C4000283FD16068DFF81C766946FFF7C9FEC9
S31500000C50DFF8880B0688A0688179032924D16946C4
S31500000C60FFF7BFFE6168DFF8A823002012E0DFF877
S31500000C70FC351B88984202DA135C012B09D137F840
S31500000C801030B1F800C0634524BFB1F802E09E45BC
S31500000C900AD2401CB042EADB02208871A168606873
S31500000CA0E2686160A260E06000204FF6FF7200E03B
S31500000CB0401CB04206DA37F810109142F8D10120F4
S31500000CC08DF80000607828B1012100208DF8001011
S31500000CD0607018E09DF8000090B960680388ED1810
S31500000CE0ED1C01220DF10201A8B2FFF767FCBDF869
S31500000CF00200C0F30310012808BF8DF8000002D0DF
S31500000D009DF80000B8B14D2001F0E0FE6088401C5F
S31500000D106080E068FFF7F9FC9DF8000000F051F8EC
S31500000D2038B100F085F820B19DF8000000F0A2FA75
S31500000D3008B90120F2BD0020F2BDF8B50D46DFF876
S31500000D402C1517467F2F0A8808BF00271E46954296
S31500000D503EBFAF4B595D8F42044604D2AD4A535D48
S31500000D609E4200D11CB940F2646100F015F8394684
S31500000D702846FFF79DFCDFF8641B0388485D28B111
S31500000D801946284600F0C9FC2060F1BD32462146CE
S31500000D901846BDE8F8405EE40FF67C3001F0F4BE7C
S31500000DA038B5044608461146FFF782FC964D03887F
S31500000DB0DFF82C1B28880A681B1A02EB4302226004
S31500000DC031BDF8B5DFF80416904CDFF8B0560028B0
S31500000DD014BFC8688868DFF8901400880A788618F7
S31500000DE0B61DB6B2002701E0B61C7F1CDFF87C04F6
S31500000DF001888F4216DAF8B2FFF749FCADF8000019
S31500000E00B3B235F81700DFF8DCCABCF800E0ADF87D
S31500000E100200A3EB0E032068022200F032FB010061
S31500000E20E2D001E00120F2BD01F050FE0020F2BD4B
S31500000E302DE9F84FDFF83404DFF890250188D068F3
S31500000E40DFF82424714C137884B00025ADF808101F
S31500000E500188BDF80800CE1806EB4006B61DB6B2EE
S31500000E6000E06D1CBDF80800854280F2C2804FF09C
S31500000E70000A78E0BDF802105FFA8AF00143ADF887
S31500000E8002104FF6FF72BDF802005F490F88BDF8E9
S31500000E900010121AADF804204FF6FF732068F21BFB
S31500000EA0761C994200EB4200B6B21DD100F0BBF8A9
S31500000EB001002BD12068F71B012201A900EB470096
S31500000EC001F0ABFD010021D1B61CB6B25148DFF8E6
S31500000ED0181AA8F80060425D51F825103046FFF751
S31500000EE08EFB002838D18DE04A49495D491C01EB4B
S31500000EF0D1714FEAC15900F096F8010006D1206879
S31500000F00F31B012201A900F0BDFA010077D1B61C3E
S31500000F10B6B2D349A8F80060485D002843D0DFF890
S31500000F20AC2410780021039128B103AA6946A8B21F
S31500000F3001F024FE05E0BDF80010E8B200F0EDFB7C
S31500000F400390F71B20684FEA196203A900EB4700DC
S31500000F5001F063FD010052D1DFF89009415D76187A
S31500000F60B6B20AF1010A2A48475D5FFA8AF1B94228
S31500000F70BFF477AFE8B2FFF79BFB8046B849B8F8F5
S31500000F800000ADF80000485DC00140EA0520012FD1
S31500000F90ADF802007FF46EAFBDF8020040F07F00AE
S31500000FA0ADF802006DE74FF000085FFA88FBBBEB77
S31500000FB0196FD1DADFF8141408780028BDF800009C
S31500000FC004D100F029F8FFF7F9FA03E000F024F85D
S31500000FD001F0D2FD2068B344ABEB070301220DF10B
S31500000FE0060100F04FFA010008BF08F10108DCD045
S31500000FF005E0DFF8D803C1688E80012002E001F029
S3150000100065FD00202FE3000092D502004CE7032087
S31500001010C0CF02009CCF0200411CADF80010012297
S315000010200DF10601704701220DF1020101F0F5BC38
S315000010302DE9F34F85B000218DF803104FF00C0910
S31500001040DFF8AC58BDF81810DFF8A868DFF89C3850
S315000010505B5C298835684C0891FBF9F9A1444D453C
S31500001060039302D3DB18039309E0182691FBF6F1EC
S31500001070641AA54203D303EB530189B203910025F9
S31500001080D24CADF806008DF8042000E06D1C7748C0
S3150000109001888D4280F2CF80002687E0012202A9D6
S315000010A01FFA88F0FFF78AFAA3680498DFF834E895
S315000010B0B3F804C0BEF800300068DC44ACEB0303B0
S315000010C0012202A900F0DEF9010008F1010858D159
S315000010D00AF1010A5FFA8AFBBBEB176FDEDB38E029
S315000010E01A468DF80220BDF806309A18ADF806208B
S315000010F001235B4A8DF80330505DC30143EA0523A3
S31500001100BAF1010FADF8003040F08B80BDF8002039
S3150000111042F07F02ADF800208A88D21C8A8000281F
S31500001120DFF8BC17049100F083804146E8B200F076
S31500001130F4FAA368DFF8ACE702903A0E04989F88A9
S31500001140BEF800300068FB1A02A900F09BF9010006
S3150000115017D1BDF80000A368DFF884774FF6FF715A
S31500001160091AADF808100122DFF878179B88B1F844
S31500001170008038689B1EA3EB080302A900F082F9E1
S31500001180010066D1A3689B883868DB1EA3EB0803C1
S3150000119000F076F901005CD1A0688188A9F80010FA
S315000011A082889DF8021051188180761CF1B2DFF812
S315000011B0480710F805A05145BFF468AFE8B2FFF73D
S315000011C077FA8146DFF83407475DBDF81800B9F8AD
S315000011D000807F1C07EBD777FF05854202BF9DF88D
S315000011E00410F0B28842E0D060680188884524BFC8
S315000011F040884045D9D3BDF806100398814226DAC7
S31500001200DFF8E826A168535DB1F804C048889C441D
S315000012100CF103029042BFF663AF012060704520D7
S3150000122017E0BDF80030F2B21343ADF8003073E7B3
S315000012304FF0000A4EE79DF8030040B960680221AE
S3150000124081716068A168E2686160A260E060012067
S3150000125002E001F03BFC002007B0BDE8F08F000083
S3150000126078CF0200ECED032001F00200D4EF02007B
S3150000127088EA03202DE9FE4F5FEA0009534DDFF8A7
S31500001280607614BFE868A86801220188DFF8700656
S3150000129000880291C0F1FF0101F0FF0141EA00213F
S315000012A0ADF80210DFF85C06029990F800A0DFF8AE
S315000012B034060688386801EB0A04631D9B1B0DF192
S315000012C0020100F0DFF8010059D140F6227040EA31
S315000012D00A30ADF80200E31C38689B1B01220DF1B1
S315000012E0020100F0CFF8010049D13868A31C9B1B0E
S315000012F00122A91C00EB430001F08FFB01003ED147
S31500001300601CA0EB06085FEA09004FF6FE7B07D0DB
S31500001310FF21ADF8021000F05DF801002FD109E0C1
S315000013206868008801226946FFF748F9BDF80000A1
S31500001330012802D1ADF800B002E0411EADF8001060
S315000013404FF6FF72BDF80000121AADF80420A41B78
S315000013503868012201A900EB440001F05EFB0100A0
S315000013600DD1029C5046A0F1010A80B288B13868BE
S3150000137014FA8AF39B1B00F083F80100F2D001F007
S31500001380A5FB0020BDE8FE8FA96803208871012017
S31500001390F8E7B9F1000FF7D0E968032088716868AB
S315000013A0FFF7B3F9A868FFF7B0F9EA686868A968B3
S315000013B0AA60A8606960E8606A600020ADF8020073
S315000013C0E96000F007F80100D9D1E0E790F50320C5
S315000013D08ED50200012238680DF1020100EB4800AB
S315000013E001F01BBBFEB50446DFF80005455CA0888E
S315000013F0134662882E18F61CB24205DADFF8082575
S3150000140001215170452033E0C01CDFF8F024A08094
S3150000141080B2525C1946FFF7F2F860B3DFF8C404F5
S31500001420DFF8BC740688A3883868DB1E9B1B012284
S3150000143002A900F027F801001AD1BDF808004FF6FE
S31500001440FF71091AADF800100122A38838689B1EA7
S315000014509E1B694600EB460001F0DFFA010007D14A
S315000014600898A1880180A0884019A0800120FEBDAF
S3150000147001F02CFB0020FEBDFCEC032034CF020063
S315000014800122694600EB430001F0C7BA2DE9F84F87
S3150000149084B00546894690461C4601F0A5FCDFF857
S315000014A0602413888DF804500127ADF80830B8F190
S315000014B07F0F9DF80410BDF80800039508BF4FF094
S315000014C000088DF8054081423FBFDFF82C14039ACF
S315000014D08B5C984507D2DFF824148B5C9C4202D1C2
S315000014E0B9F1000F03D140F6D901FFF755FC9DF87D
S315000014F004004146FFF7DCF801250646DFF80C0438
S315000015008179B6F800A002291FBF817B0229807D60
S31500001510022802D1432001F0D9FA039ADFF8BC135E
S31500001520885C002833D09DF80400514600F0F5F899
S31500001530D9F80010814257D0AAF1030000F09EF8B6
S31500001540DFF8C453DDF80CC06C68DFF8A03362889E
S3150000155013F80C10A088D21E521A824207DB30B153
S31500001560A86801888A45A4BF4088504572DBE868B0
S315000015708179AC68022938D1442001F0A7FAE868DD
S315000015808179012931D0452001F0A0FA53E09DF878
S3150000159005404FF0000B21E00BEBDB700AEB60001F
S315000015A000F05DF909EB0B0019F80B10407801EB20
S315000015B00020611E8B4507D1BDF8001001F0FF0128
S315000015C000F0FF00ADF8001080B2BDF800108842B0
S315000015D00BF1020018BF00255FFA80FBA345DBDB99
S315000015E0002D8DF80540A7D03DE0A8688179012936
S315000015F015D10020FFF7E5FB002834D00020FFF7C7
S3150000160039FE00282FD0BF48BDF8085003789DF852
S31500001610041003EB4500C01D424680B205E00329D5
S315000016200FD19DF8041042460020FFF701FD10B1CE
S3150000163000F01CF8B8B93846471EC0B2002810D1D1
S3150000164011E002290CBF40F6C81140F6CA11FFF797
S31500001650A3FB08E000F00AF828B93846471EC0B2D6
S3150000166000287FF444AF05B0BDE8F08F0096BDF8C2
S3150000167006309DF804104A462046B3E601220DF1D5
S31500001680060180B2FEF79ABFF8B505469E489D4F03
S3150000169043681C883B78E01800F038F8BDF8020073
S315000016A00026C0F30310012811D1192400F029F8EF
S315000016B0BDF800006D1C30B14FF47F41401A17D0C1
S315000016C0FF3813D016E0B61C641EEFD10EE01924C5
S315000016D000F017F8BDF800006D1C20B14FF6FF7141
S315000016E0884203D00BE0761C641EF1D170B2F2BDC5
S315000016F0761CFBE7BDF80000C0B200B9761CF643C5
S31500001700F4E701226946A8B2FEF758BFC01C0122C1
S315000017100DF1020180B2FEF751BF38B50C4600212B
S31500001720764B009169461D5C2A4620466D1CFEF7E5
S3150000173092FF05EBD57504EB6504A0B2FFF7A4FF95
S315000017400028009948BFC04341FA80F032BD00002E
S3150000175096D50200CCEF0200CEEF0200D2EF0200D7
S31500001760D0EF0200F8B5664A138804466848254655
S3150000177030F815609C4202D25849485D18B940F6C7
S315000017808321FFF709FB5D494D5D681C00EBD070B6
S3150000179006EB6007B8B2FFF777FF0346192B0FD2A7
S315000017A00020DFF840C1DFF838E1ADF8000013FA99
S315000017B087F7BCF80030DEF80000FFF70BF960B1E0
S315000017C031462046FFF7A9FF00902B46401C0090AB
S315000017D07F2269462046FFF759FEF1BDD6EF02008B
S315000017E07CB5054647480678344621464C1EC9B2A4
S315000017F02888022925DB50FA84F000F030F8BDF87D
S3150000180000000028F1D0434829880288E6B27243D6
S31500001810521890B2FEF7E7FE0020ADF80000012254
S315000018202D882F48006875192E4E3388ED1A6946A3
S3150000183000EB450001F0F1F801000ED001F046F989
S315000018400BE0FEF7D0FE0120A8712D4A29881088EA
S31500001850891901EB4001891DA980E0B276BD0122FC
S31500001860694680B2FEF7AABE28488179022908D0C7
S31500001870817B022908BF083003D0817D022901D16E
S315000018801030ADE7002070477CB504461D48067849
S3150000189000250CE0208850FA86F0FFF7E0FFBDF83F
S315000018A0000000281EBF4FF6FF7188426D1C3046AF
S315000018B0461EC0B20028EDD1E8B276BD1348817944
S315000018C0022908D0817B022908BF083003D0817D18
S315000018D0022901D11030D7E70020704778CF0200E7
S315000018E04CE7032092D5020028D20200BCCD0200AC
S315000018F08AD50200B8CD0200C0CF02009CCF0200FC
S31500001900D4EF020001F0020090F5032088EA0320DC
S31500001910ECED03208ED5020073696D2D656570723E
S315000019206F6D322D696E7465726E616C2E63000088
S3150000193062F30F2262F31F42401810F0030308D02F
S31500001940C91A1FD3DB0748BF00F8012D28BF20F8AE
S31500001950022D130030B414461546103928BF20E96D
S315000019603C00FAD8490728BF20E90C0048BF40F8D8
S31500001970042D890028BF20F8022D48BF00F8012D4C
S3150000198030BC7047C91818BF00F8012DCB0728BF17
S3150000199000F8012D7047FEE780B50121794801F076
S315000019A013FB794801210160002001F032FF012379
S315000019B004220221052001F070FF0120FEF78AFDB6
S315000019C000F00EF8FEF7B7FD02F05DF801234022A5
S315000019D06E496F4802F022F86E490860C00F02BDDA
S315000019E070B501220121042001F0A8FD6A486B4C64
S315000019F001686B4D6B4E41F0010101600021C26828
S31500001A0042F08072C260022267482060296031601D
S31500001A10664867490A6001F007FB6649664A674BF4
S31500001A200818B0FBF2F0401E1860002129644FF43C
S31500001A3080726348634920653160634802602B68A1
S31500001A4043F480732B6070BD5348006800B10120D9
S31500001A50C0B27047D12202704170090A81705B4999
S31500001A600A78C2700420521C0A7070472DE9F14FA3
S31500001A705749DFF860A10A68DFF82481464E82B034
S31500001A80002500904FF6FF79145C02F02BF8641DD8
S31500001A90E4B201901FE0A91E9DF80800C9B200F04B
S31500001AA039FB0746494602F095F881465D463D48B2
S31500001AB00168CA070FD5F06840F08070F060D8F86A
S31500001AC0001041F48071C8F80010DAF80000002810
S31500001AD0F1D08AF800703168EFB249B3A74227DA2D
S31500001AE002F000F80199401A80B240F2F5129042D5
S31500001AF01EDAE8B210B95B270125D8E7012805D11F
S31500001B003348009A01688F5C0225D0E7E01E8742C1
S31500001B1005F1010B08BF4F46C8D0A11E8F4208BF72
S31500001B204FEA1927C2D0601E8742B4D15D27BDE7B0
S31500001B30A7420CBF00200120BDE8FE8F10B5244946
S31500001B400A68145C042C01DA012010BDBDE81040BF
S31500001B508CE710B50F4B186890B04022694601F02B
S31500001B6048FF58B1C1B2684600F0B6F904462146AE
S31500001B70122000F0B5FE204600F02BF910B010BD83
S31500001B800000000000350A001088144204F4032007
S31500001B90F0D30200E0E80320F0ED00E0B00F00E033
S31500001BA0000E00E0800E00E055CEACC506000E002B
S31500001BB0F00004E0FCAC0600F8590D00100004E04B
S31500001BC0FF0300400D000100040304E0DAFE0320D9
S31500001BD054E80320200000E02DE9F0410446904639
S31500001BE0012522008AB00F461E4606D0012C1DD0C4
S31500001BF0102C02D0202C19D01EE0002102F08FFA02
S31500001C000546012C18BF202C08D0022C18BF212C09
S31500001C1004D0032C1CBF222C232C1AD1012E019791
S31500001C20ADF80C800AD14FF480500BE068462A4983
S31500001C30282202F09DFCE4E701200BE0022E03D1EE
S31500001C404FF44050ADF80A006946204602F067FAA4
S31500001C500546E8B20AB0BDE8F08180B502F021FB86
S31500001C60C0B202BD80B502F07FFBC0B202BD2DE955
S31500001C70F84380460F4614461D46184E02E030686B
S31500001C80C75D203CE0B22028F9DAE8B2B0B1C4F171
S31500001C9020005FFA85F9C0B2814588BF8146384683
S31500001CA000F022F8E4B201194A464046FFF7DAFF8F
S31500001CB03068C75DA5EB09050024E6E7BDE8F283B9
S31500001CC00CB480B50A46014602AB054800F003FC99
S31500001CD002BC00205DF80CFBE0CD02005CE80320AE
S31500001CE0334400007047FEE7DFF840170A6802EB4E
S31500001CF040107047DFF838271368195470472DE9EC
S31500001D00F0415FEA000831D002F075FCDFF82427C5
S31500001D10DFF824171678DFF82457FF23FE2E19D193
S31500001D200027DFF81C67DFF81CC7177034782C70A3
S31500001D3007E07C1C0EF80740DCF800E00EF80730E0
S31500001D40E7B23478D1F800E0A742F2DB0EEB0406E6
S31500001D5006F8013C2E7846450AD202F052FC0520D0
S31500001D60FEF7EEFB00211B2002F073FDFF2020E0B2
S31500001D70A6EB08062E701578DFF8CC661778D6F82D
S31500001D8000E001240EF80740A8F10108D1F800C0D0
S31500001D901CF8074014705FFA88F4002CEED1DFF8C7
S31500001DA090260CF8073000211368595502F029FCDB
S31500001DB02846BDE8F08110B5044602F01CFCDFF8A9
S31500001DC0881609680A5D521C0A55BDE8104002F0E3
S31500001DD018BCF8B5044600F031F8054602F00BFCD5
S31500001DE0DFF85036DFF85476DFF84CC6DFF858E6F1
S31500001DF001E02C46FF25FF2C1CD022460FE0DCF824
S31500001E000010895C0026A6543C78641C3C70FF29AF
S31500001E10DCF800601C78B4541A70EAD00A46DEF882
S31500001E2000108C5C661E8E54DEF80040A15C11F03A
S31500001E307F0FE4D0BDE8F24002F0E3BB10B5DFF857
S31500001E4008160A68145C210605D5DFF8E025136834
S31500001E504001185C10BDFF2010BDB0B504460D460C
S31500001E60FFF7ECFFFF2818BFFFF7B3FF2846FF2850
S31500001E70DFF8D47504D13868015D01F07F0105E013
S31500001E80FFF799FF3868015D41F080010155640153
S31500001E90DFF8980501680D55B0BD0EB430B504469F
S31500001EA00120FFF72CFFDFF884150A68FF2802EBF4
S31500001EB040110ED0DFF8782513681C5403AA0023BE
S31500001EC004E052F8045B01F8015B5B1CDDB2A5423D
S31500001ED0F7D330BC5DF810FB7CB504460D4605F122
S31500001EE01F000004400DC0B2FFF709FFFF28064699
S31500001EF00DD0DFF83C0501688D553CB101200090FE
S31500001F002B4600223146204600F002F8304676BDC8
S31500001F10F3B5054681B0DFF81805016817469DF848
S31500001F2008201E468B5CF419A34203DA4FF4B771FE
S31500001F3000F0E0F830000CD0089C394602A800F00A
S31500001F40DDF802469DF8081000943346284600F056
S31500001F5001F8F7BD2DE9F047089DDFF8DC64DFF8EE
S31500001F60CCA48046894614461F460DE02900224629
S31500001F7012BF414601464046FEF74CFA30683F1B09
S31500001F80A04410F809900024F8B270B1DAF8000005
S31500001F90214600EB4913581851FA87F12029B2BFA0
S31500001FA0FCB2C4F12004E4B2E0E7BDE8F0872DE915
S31500001FB0FC410746DFF8780488460168CC5D154683
S31500001FC01E462919CBB2A34206DB28000DD0C9B2A2
S31500001FD0384600F05BF808B1182007E000962B465B
S31500001FE0224639464046FFF793FF0020BDE8F681BA
S31500001FF00123DCE70A4600E0521C1378002BFBD1D4
S31500002000521A0123D2B2D2E72DE9F041804601F1FE
S315000020101F0402F11F00E404C004240E000E04B9DC
S31500002020012400B9012084422AD0DFF80C5419DAC1
S31500002030001BC0B2FFF763FE0746FF2808BF00205B
S315000020401FD0641E00F01FF82E68305CFF2804D0F5
S3150000205000F019F8305CFFF7BCFE00F014F82968B0
S315000020600F540DE08A420BD2411EC9B200F00CF8A3
S3150000207004462868005DFFF7ACFE2968FF20085576
S315000020800120BDE8F081E1B2404610E070B5DFF80E
S31500002090A063336805460C46595D2246FFF7B4FF38
S315000020A018B130684455002070BD182070BD04E09A
S315000020B0DFF884231368185C491ECAB2002AF7D1D8
S315000020C0704731B50C46DFF868130A68155CAC42F8
S315000020D003D340F2052100F00DF82146684600F0D2
S315000020E00DF8DFF848139DF800300A6802EB43113B
S315000020F0084432BD0FF2543000F046BD38B50446F0
S315000021000D46C9042078090EFFF7D1FF207005F0AF
S315000021101F0032BD80B5FFF7D4FF007802BD10B5B1
S315000021201446FFF7CEFF047010BDF8B5DFF8005374
S3150000213004462868065DFF2C03D140F22521FFF7EF
S31500002140D9FF06F11F01C904080EFFF7D8FDFF28C5
S31500002150074609D02868C655009600232246002166
S31500002160384600F0C2F83846F2BDF8B505460E46C8
S3150000217017460120FFF7C3FDFF28044610D0DFF8FD
S31500002180AC023246066806EB44163B46202170191F
S3150000219000F01FF82D18DFF8980201680D5520464B
S315000021A0F2BD1CB504AC009400F001F816BD10B5E4
S315000021B014461A46029B2044091BBDE81040C9B2CA
S315000021C007E00CB480B502AAFFF7CFFF02BC5DF8AA
S315000021D00CFB2DE9F04781464F46002488461546FC
S315000021E09A460CE0F6B23419444542DA324638468D
S315000021F0FEF710F9BF19641E641C6D1CE4B2444559
S3150000220037DA2878A8B3312818BF32280ED15AF801
S31500002210041B07F8011B3228EED1641CE4B2A0456A
S31500002220A4BF091207F8011BE6DA22E034280ED112
S31500002230211D5AF8040B88451BDB3870020A010C75
S31500002240000E7A70B970F8703F1DE41CD4E7A0F157
S3150000225033035AF8041B072B38BFA0F13006C1D34D
S31500002260A0F14103072B34BFA0F137065AF8046BDF
S31500002270B8E7A7EB0901C8B2BDE8F0876D49FE20B3
S315000022800870704770B500F02BF800F003F83018AE
S3150000229080B270BD0602294620463BE7E0B58DF8C0
S315000022A004200123120A8DF8052000930A460146F0
S315000022B0022301A8FFF72CFE07BDF8B500F010F8C1
S315000022C0FFF7E8FF8619E91CC9B2FFF7E5FF070229
S315000022D0AD1CE9B2FFF7E0FFC01906EB0040F2BD06
S315000022E00D46691C0446C9B214E7FDB5089C2000DA
S315000022F00D461E461BD1F7BD4C4B9DF804001B68CE
S3150000230003EB4010C2F12002D2B2BA42B8BF174660
S3150000231081199DF8000003EB40133A465819FEF761
S3150000232079F8E41B7D19BE19A0B200B9F7BDA9B2B0
S315000023306846FFF7E3FE0546B1B201A8FFF7DEFEE9
S315000023400646B542A7B2B4BF32462A46D4E770B5B0
S3150000235004460D4602F04FF93A4A23781268FF2BDD
S3150000236008BF555503D013441E7856551D70257069
S31500002370BDE8704002F045B938B5044602F03BF9B5
S315000023802178FF22FF2908BFFF2507D02D4B1B68A8
S315000023905D5C8D420EBF22705A5D5A5402F031F9CF
S315000023A0284632BDF8B504460D4602F024F92178D8
S315000023B00026FF2913D0234B1B680A46012603E09B
S315000023C08F420CD03A46761C9F5CAF42F8D1DF5D57
S315000023D09F54A94203D18A4208BFFF22227002F00D
S315000023E010F9F0B2F2BD0078FF2801D10120704744
S315000023F00020704710B5044602E0FFF7EAFC2046CD
S31500002400FFF7BAFFFF28F8D110BD30B50D4B0078A5
S315000024101C68255C954203D02846255C9542FBD175
S3150000242021541868425430BD0000000050E80320D3
S3150000243054E80320C6EB03205CE80320A5EB032049
S31500002440A4EB032060E8032058E803207061636B67
S3150000245065742D6275666665722E630070B51346E7
S315000024601044DCB264B101F00F060909451E0A2EBC
S31500002470ACBF37243024A41928462C705B1EF0E725
S31500002480104470BDF0B5002341B1002806D52D23B8
S3150000249013700123B0F1004F18BF40420021002401
S315000024A08A4D002601E0C01B761C55F82470B84200
S315000024B0F9D2F7B20FB90F0004D0D9B2303656545C
S315000024C05B1C0121641C092CEBDBD9B23030505463
S315000024D05B1CD8B2F0BD2DE9F84F824696B04FF09E
S315000024E0000914A8884617461D4604ACCB46019041
S315000024F012E04FF0010B074600E0044601988442C3
S3150000250009D39DF80020A41A00F0D4F8002851D170
S3150000251059FA84F904AC7F1C04A88DF800009DF8D4
S3150000252000003978201A00290FD0252905D05FEA46
S315000025300B0208BF04F8011BE0D05FEA0B0114BFD1
S315000025404FF0000B7F1C39780A0000F0A680B1F12D
S31500002550250216D00B3A092A40F28080283A75D017
S315000025600A3A12D0521E3CD0521E57D0083A55D0C5
S31500002570121F39D0D21E37D0921E4FD0D21E65D030
S31500002580BCE7252004F8010BB8E729686A680391BF
S315000025902046083502920024029A9442ADD203994D
S315000025A0095D0222FFF75AFF0199884206D300F01F
S315000025B085F800287AD159FA86F904A80299491EA5
S315000025C08C423CBF202200F8012B0199884206D399
S315000025D000F074F8002869D159FA86F904A8641C39
S315000025E0DAE755F8040BCDE755F8046B044600F01E
S315000025F061F800285AD159FA84F9314604AC0646E6
S3150000260000E0761CF0B2085C0028FAD1F2B240462F
S31500002610D04700284AD159FA86F96FE76C290AD1C2
S315000026207A7855F8040B752A0EBF00210121642A19
S3150000263007D17F1C05E0752955F8040B0CBF002156
S3150000264001212246FFF71EFF241857E755F8041B01
S315000026500222C9B22046FFF701FF4EE778787828B4
S3150000266018BF58284FF0010BEFD17F1C781E322976
S315000026704FF0000B04D155F8040B81B20422E9E7B0
S3150000268034297FF436AF55F8046B0422310C20460A
S31500002690FFF7E4FE0422B1B2DDE70546EAB200F038
S315000026A00AF818B9A9445FFA89F000E0002017B0CB
S315000026B0BDE8F08FE2B204A9404650479DF80020DD
S315000026C0861AF2B204A9404650470000CCD3020055
S315000026D070B5FFF73EFAAB4C2046FFF784FED8B93B
S315000026E02046FFF749FEFF28044615D0A648016894
S315000026F0085D851EE9B22046FFF7C4FD0646E9B22D
S315000027002046FFF7C3FC2146304600F0E9F8204694
S31500002710BDE87040FFF75DBB70BD03460A4697A152
S315000027200420FFE70CB480B502AA00F031F801BC22
S315000027305DF80CFB0A00034602D091A11120F1E7D7
S315000027407047000080B586B002F048FB6022049214
S3150000275000218E4A0092672305910393029101910D
S31500002760024600238DA10120FFF7DCFF884881790E
S31500002770028843790391029201930179C3788278A2
S315000027800091422088A1FFF7CDFF07B000BD0000F1
S315000027902DE9F04F85B005460F469046FDF7DFFE62
S315000027A00024F0B9FFF750F9D8B10120FFF7A7FAD6
S315000027B0FF28824615D00021FFF79CFA294601A87A
S315000027C0FFF748F9054687BB00F083F830B9504655
S315000027D0FFF7B4F910B10420FDF7B2FE5046FFF73B
S315000027E0F8FA05B0BDE8F08F8DF8041001251BE05E
S315000027F0654858F8046B006810F80A90F2B2FF2A90
S3150000280012D0F1B210F801B00BEB0901C9B2504673
S31500002810FFF73CFC0028E1D1CDF800B00023F2B26E
S3150000282049465046FFF761FD7F1C38780028CBD01B
S31500002830A0F130010A2904D20A2101FB0404303C2C
S31500002840F2E700F046F80028C8D139780025422979
S3150000285001A80ED044291AD0462925D057290DD0D3
S315000028606229C5D066292AD06C2925D0702926D0A0
S31500002870BAE758F8040B8DF80400B7E758F8041BBC
S315000028808DF8041002250904090E4170CCE758F8AA
S31500002890041B8DF804100B0A0A0C090E4370827093
S315000028A08DF807100425BFE758F8041B5046FFF7BC
S315000028B0A1FB0028B8D091E758F8044BB4E758F8C4
S315000028C0041BE2B25046FFF793FB002808BF002422
S315000028D0F0E72A4601A95046FFF78ABB0000000030
S315000028E02DE9F043122885B080460D4609D03A28D6
S315000028F01ED04FF6FE71884204BF284600F0DDF870
S3150000290034E02148234F01684E5D2846FF282DD02C
S31500002910212EB4BF34462024FFF7E6F901462246AD
S31500002920002001F0B4FB3868455D203EF6B2ECE7C6
S3150000293002F000FB814603F018FA064602F09DFD00
S31500002940074602F096FD044603F00BFA12490B689F
S3150000295017A1CDF8109002460C48039058880290B3
S315000029600196009723463B20FFF7DCFE29464046AA
S3150000297005B0BDE8F043FDF713BE00005746000062
S315000029806C700000C7EB032054E8032070FA0320A4
S31500002990BCD502005CE8032068FA03204242387086
S315000029A0424242425742420042424242574200009D
S315000029B0574242575738704200000000DFF800F0D7
S315000029C0FDE6032038B504460D4603F067FD012CED
S315000029D002D1FFF7F3FF02E0284603F0EDFD18B140
S315000029E003F068FD012032BD03F064FD002032BD16
S315000029F080B58308800705D54FF6FF7242EA01428B
S31500002A00009204E041F07F4141F47F0100910422ED
S31500002A106946980003F011FE02BDF8B506460D465C
S31500002A2005F0010106F001000143144601D0012022
S31500002A30F2BD9CB132462B46611C4FF6FF7C01E08D
S31500002A40921C9B1C491E0BD0178867451CBF188813
S31500002A500028F5D04B20F2BD03F02CFD0020F2BD7E
S31500002A6003F01CFD012C01D0B00707D535F8021B79
S31500002A703046FFF7BDFFC0B9B61C641E022C0CD34E
S31500002A8067087F007A002946304603F0D6FD60B914
S31500002A9006EB470605EB4705E41B002CDCD029882E
S31500002AA03046FFF7A5FF0028D6D003F003FDD1E797
S31500002AB070470020704700207047704701987047A4
S31500002AC0704770477047702003F0DCBD70B5044650
S31500002AD043381F4D08D0401E012809D9801E012801
S31500002AE00ED9C01F32D02AE0BDE87040FEF7BCBE4A
S31500002AF0FEF7E4FE20B1FEF7B7FE0028FBD170BD5D
S31500002B00144E307810BB01213170FDF731FC442C96
S31500002B1012D00CD3462C05D00ED3472C07D140F645
S31500002B20010001E040F6020004F0ACF804E04FF4C6
S31500002B309671284600F028F80020307070BD2846AF
S31500002B40BDE870404FF49F7100F01EB870BD0000E4
S31500002B5080D40200DEFE032070470020704700206C
S31500002B60704701207047012070470020704770476A
S31500002B7002F02DBB002070470120704770470020EF
S31500002B800021704742DE704738B504460D4602F014
S31500002B9067FE00F029F904F0A3F829462046FFF75E
S31500002BA0BCFD2B4622466D490120FFF789F82946D0
S31500002BB02046BDE83440E5E769482DE9F843694E0B
S31500002BC00168B1654FF42068026A6749F2650B68CF
S31500002BD0336649687166426AB266816AF166C26A9C
S31500002BE03267016B7167806B96F83810B0674807DB
S31500002BF04CBF346CF46B04F061F8002232658442F9
S31500002C00DFF868E1014624BFAEF12007A742A146DE
S31500002C10716506F19002564BDFF858C118D3A069CA
S31500002C207064E469B464B56DC5F30805062D13D167
S31500002C30604511D398420FD200884DF64264A042F7
S31500002C400AD17068B4685060946040F2017803E07D
S31500002C5000247464B46481464748814238BF014603
S31500002C60084670456AD20C68B4F1CD3F08BF091D0D
S31500002C70F6D063E0062C09D1C4B2002C0CBF0520A7
S31500002C80401E06F17C04C5B244F82510F14520D259
S31500002C905EF8041D6145F9D39942F7D2CC07F5D504
S31500002CA0002406F17C0555F824708F42E2D0641C9E
S31500002CB0062CF8D3DEE7F16F002306F17C0506EB60
S31500002CC08304D4F8804045F823405B1C042BF6D9D6
S31500002CD011600146481EC9B20029ECD1B06DC0F39F
S31500002CE00800032810D0042811D0052812D0062881
S31500002CF013D00C2817D0122818D120480268910743
S31500002D0019D540F2025816E040F6012813E040F6C5
S31500002D10022810E040F603280DE0B8F5206F0AD12E
S31500002D2040F6042807E040F6052804E018B14328D9
S31500002D3038BF40F607284046BDE8F2831049081A16
S31500002D40F0640021002006F17C04C5B2401CC7B225
S31500002D5044F82510062FF8D3002097E76CCE020022
S31500002D6004ED00E00000002000E300E0E8E60320B8
S31500002D706ACD0200700300009C0000201C20054064
S31500002D80E8E6032003F0B0BF7FB50121204800F03C
S31500002D901BF901220121012000F0D0FB04210720AC
S31500002DA003F0A4FF1B4A92E838006946032281E833
S31500002DB038000D218DF8081001268DF809208DF8B0
S31500002DC000608DF807606946134C204603F0FCFF4F
S31500002DD01249042008600222114962620860A26A50
S31500002DE042F00202A2627FBD0B4803F0E1BFA528B4
S31500002DF003D10021084803F0C2BF704706480068A7
S31500002E0000F001007047074908680028FCD17047A8
S31500002E1030253E0000CF02000020054080E200E0A1
S31500002E2000E100E008200540890001EB401101F1B6
S31500002E3084410A607047890001EB401101F1844129
S31500002E400868704710B5DFF84446A06B420605D403
S31500002E5012212046FFF7EFFF0028F9D110BD80B5FB
S31500002E60FFF7F0FFDFF824060068000C00F003000F
S31500002E7002BD0122DFF8041610B5884232BF0022D7
S31500002E80DFF8FC15884201D2144600E00224102126
S31500002E90DFF8F005FFF7C8FFDFF80406016821F048
S31500002EA0807141EA0461016010BDF0B5DFF8D825F4
S31500002EB0DFF8F0451368002304EBC305CFB22E7983
S31500002EC0BE4203D154F83350854202D25B1C052B17
S31500002ED0F2D3052B0EBF032004EBC3004079116823
S31500002EE021F0407141EA00611160F0BD38B500F093
S31500002EF013F841F67130286003F0B9FF002105E0B0
S31500002F0038B500F009F841F671322A60FFF7CDFFB7
S31500002F100CB10020286031BDDFF88C552C6804B157
S31500002F2001247047C01C0F2801D2000770474FF0DC
S31500002F307040704738B50446002500F079F9DFF88F
S31500002F405025DFF85015944208D0DFF84C259442FE
S31500002F5006D0DFF84825944204D006E0086802E06F
S31500002F60486800E0886800F00700401E03281BD868
S31500002F70DFE800F002050C0803F0B0FF04E003F000
S31500002F80B3FF01E003F0ADFF05460DE003F072FF6D
S31500002F90DFF80C150968090E01F001010122491C30
S31500002FA002FA01F1B0FBF1F5284632BDDFF8FC1458
S31500002FB04A68D30702D40A680242FCD1704780B53A
S31500002FC000F0E4F8401C02BD70B50C460246110A3A
S31500002FD001F00F010020491E0929DFF85C5513D8BE
S31500002FE0DFE801F005131212071518121B1FDFF890
S31500002FF09454C2F3043608B1FFF7D8FF224631468F
S315000030002846BDE870400FE770BD1035F1E7303552
S315000030100120EEE738351020EBE740354FF48030DD
S31500003020E7E7DFF83057E4E7F8B50646DFF880044F
S31500003030DFF85C140768DFF86004DFF86024DFF867
S315000030406044012516F478137AD0B3F5003F31D0E9
S31500003050B3F5802F2AD0B3F5202F71D0B3F5402FCA
S315000030602ED0B3F5602F63D0B3F5801F30D0B3F503
S31500003070A01F30D0B3F5B01F35D0B3F5D01F42D066
S31500003080B3F5F01F25D0B3F5001F4ED0B3F5101FD2
S315000030904AD0B3F5381F2DD0B3F5401F39D0B3F55C
S315000030A0481F50D0B3F5781F64D06CE003F0E2FE01
S315000030B0E16802E003F0DEFEA168C1F3082104E046
S315000030C003F0D8FE6169C1F30421491CB0FBF1F796
S315000030D05AE0084629E01046FFF72CFF0746206B0A
S315000030E000F003000DE00846FFF724FF216A01F017
S315000030F00F0115E00846FFF71DFF0746206AC0F3DB
S315000031000110C74040E0FFF715FFA16AC1F30111A6
S3150000311006E0FFF70FFFA16A090A01F00301091D86
S315000031208D40B0FBF5F72FE01046FFF703FF1FE0D9
S31500003130DFF8440600F07CF8072825D0092822D1BC
S3150000314003F098FE14E0DFF8340600F071F8042866
S315000031500CD0072818D0082815D103F08BFE074697
S315000031602068C0F30420401C47430DE003F09FFE97
S31500003170074609E003F07EFE04463046FFF71FFFD0
S31500003180B4FBF0F700E000273846F2BD01460B0914
S3150000319003F00F0301205B1E092BDFF8042344D83C
S315000031A0DFE803F005070B1143431317263B1068AE
S315000031B000E05069C0F3042070471168090E01F061
S315000031C00101491C26E0D06800E09068C0F30820A1
S315000031D07047DFF8AC35994204D0DFF8A83599423C
S315000031E004D022E0116A01F00F0113E0116A09E030
S315000031F0DFF89435994204D0DFF89035994204D02F
S3150000320013E0916AC1F3011104E0916A090A01F021
S315000032100301091D8840401E7047DFF8740581428E
S3150000322003D1106B00F003007047002070470000C8
S31500003230014601F00F010120491E0729DFF8542538
S315000032404FD8DFE801F00415194E26344E3C506A7B
S3150000325000F00700801E052808D8DFE800F03E24AD
S315000032600B0307050B2070470C207047052070479D
S3150000327011690FE002207047516901F00701491EEC
S3150000328003292FD8DFE801F00F020311F2E7062029
S315000032907047916901F00701012904D00229E9D09C
S315000032A0042902D07047032070470A20704711682E
S315000032B011F001010FD0012914D109207047DFF860
S315000032C0D8140A6802F03002102A04D0202A04D04A
S315000032D0302A04D070470720704704207047082022
S315000032E070470020704700002DE9F8430746002488
S315000032F00326112F0D46B04612D1042D02D103F03C
S31500003300D6FD08E0052D0BD1DFF89004DFF8901408
S315000033100068884204D304001CBF002103F04BFF61
S3150000332007F00F077F1E072FDFF8689414D8DFE831
S3150000333007F004464C9649789684022D4F480CD0E7
S31500003340032D2ED0042D2FD0052D32D00A2D03D0DB
S315000033500B2D30D00C2D30D081E004264FF0000824
S3150000336001220121404600F0E9F8FFF7BFFD0CB14C
S31500003370FFF768FDC9F8046003F06CFD054603F02D
S3150000338079FDFFF776FDFFF76AFD01462846FFF750
S31500003390B7FD002C63D1BDE8F4430121002003F002
S315000033A00ABF4FF00108DBE70226B046FFF761FDD2
S315000033B0D6E70126FAE70526D2E70726D5E709F17B
S315000033C0100404E009F1180401E009F11404012DC8
S315000033D008D0022D09D0032D0ED0062D13D00A2DAC
S315000033E01DD03CE00020206039E0012201210020B0
S315000033F000F0A4F80220F6E701220121012000F0E6
S315000034009DF80120EFE703F035FDFFF732FD0122BD
S315000034100221DFF82401FFF707FD0320E3E704207C
S31500003420E1E7072D05D0092D04BF0121C9F80010D9
S3150000343015E00020C9F8000011E0012D06D0042D8A
S3150000344016D0072D0DD0082D16D008E00020DFF885
S3150000345048130A6822F0300242EA00120A60BDE808
S31500003460F18301220121042000F068F80120EEE733
S3150000347000F020F80220EAE70320E8E70148E80127
S315000034800190D00300400E4004000E4004300E4070
S3150000349002001E0080400E400300200005002400AC
S315000034A000410E40F8D2020040000E4040410E405E
S315000034B0CCE803200122012102203FE070B504463A
S315000034C000F037F801220021022000F037F8217CB5
S315000034D0DFF8DC5200200229296808BF01204908CC
S315000034E040EA41002860082122782846FFF79CFC24
S315000034F0A088617A41EAC021A960EE68207AFFF7C8
S3150000350011FDE288A17A06F07F6646EAC226227A93
S315000035100E4346EAC2160643EE60A17B607B227B21
S31500003520090141EA0031E07B014341EA0241296198
S3150000353070BD11207CE60000B0400E402DE9F84F2A
S315000035400428834692466CD8DFE800F04E493F03D4
S31500003550440001270220012500260029DFF82081EA
S31500003560934C60D0BBF1020F02BF2068C0F301107C
S3150000357000284FF000090CD18E4801682268D00758
S315000035804FF0010905D5216821F0300141F0100105
S315000035902160E763314600F056F80028FAD0BAF108
S315000035A0000F3ED000F04EF80028FBD0BBF1020F12
S315000035B037D1B9F1000F34D02068C1071BD50122DD
S315000035C02021022000F0C8F819E00427082003256E
S315000035D00226C2E71027202005250426BDE740273E
S315000035E0802007250626B8E74FF480774FF4007051
S315000035F009250826B1E70021022000F089F80220FB
S3150000360000F024F80646012200210220FFF796FF6B
S315000036103146022000F036F8E76300F013F8002880
S31500003620FBD0BDE8F18FE063D8F80000F040C10799
S31500003630FAD4BAF1000FF4D0D8F80000E840C10778
S31500003640FAD4EEE729464046FFF7F5BB401E0328AD
S31500003650544912D8DFE800F0020C06080869C0F3E6
S3150000366008007047086800E0886800F07F0070472F
S3150000367051480068C0F30A007047002070470000F8
S3150000368090400E40F8B5401E0D46032805F07F0613
S31500003690444C464F3BD8DFE800F00228101CC5F327
S315000036A008051A213846FFF7C6FB0028F9D120691C
S315000036B0400A45EA40252561F1BD18213846FFF745
S315000036C0BAFB0028F9D12068C00946EAC016266070
S315000036D0F1BD19213846FFF7AEFB0028F9D1A068E5
S315000036E0C00946EAC016A660F1BD2F4801686269A6
S315000036F022F0300242F010026261C5F3C310FFF7F8
S3150000370011FC226A2D490A40154305432562F1BD85
S31500003710274A1068C0F30110002818BF002911D0ED
S31500003720202902D030290DD00FE04FF40000D16ED1
S3150000373001408142FBD1400209D5D06F800A00F0DA
S31500003740010070474FF44000F1E71D48EFE7012004
S315000037507047000050410E4002280BD1080004D0EB
S3150000376018484FF4806343640160002A1CBF02209E
S31500003770FFF7CEBF0120704706000E00B8003200EA
S315000037808006160080162E0090171A00902730002B
S31500003790A009140070400E405C410E40DCE8032096
S315000037A0012D310110400E4090400E4040410E4028
S315000037B024400E403C300E409C400E4000F8FF0F67
S315000037C0FF33E10764400E40890001EB401101F12F
S315000037D084410A60704700F1806300F1C06019609F
S315000037E00260704710B500F00DF804F1806404E043
S315000037F010B500F007F804F1C064012303FA01F1E3
S31500003800216010BD3022404B5043184400F10C0497
S3150000381070473E490A68920840EA8200086070478D
S315000038202DE9F04101F00305164603240F21082E69
S3150000383098460CD2B70000FA07F2B9403448FFF7B1
S31500003840CAFF05FA07F204FA07F132480DE0A6F1BD
S315000038500802970000FA07F2B9402F48FFF7BBFFAE
S3150000386005FA07F204FA07F12C482D4FFFF7B3FFCC
S31500003870079C069D2B4842463146FFF7A5FF2A4680
S3150000388031463846FFF7A0FF224631460120B040B8
S315000038903861BDE8F041244896E7F8B50546174675
S315000038A038000E461C4607D0002C284602D0FFF7EB
S315000038B09FFF01E0FFF796FF2A4630201249424358
S315000038C088180F22082E05D2B300416800F015F8BB
S315000038D0416006E0A6F108039B00816800F00DF840
S315000038E081604FB9002C3146284602D0BDE8F4402D
S315000038F07EE7BDE8F44075E7F1BD9A4021EA020291
S3150000390007FA03F11143704700A0004044A40040A9
S3150000391000A4004008A4004004A400400CA40040F9
S3150000392014A4004010A4004028A4004010B5DFF8FD
S315000039305841DFF85811E1610320206160611022CF
S31500003940DFF84C01A06122620021A162E1622066DB
S315000039500022DFF84001626210216066A1662267DC
S31500003960E2662DA16267E31D0868DFF82C11186076
S315000039700722204600F0FCFD2023A37110BD2DE98F
S31500003980F843DFF80451044628788846914608B97A
S31500003990FFF7CCFF18204443281900F160060024E5
S315000039A03769F568BD4212D2B4687068E41B4C45AD
S315000039B088BF4C46C1192246404600F0C9FDB16891
S315000039C0E7198F42A044A9EB040908BF0027ED1BA5
S315000039D04D4588BF4D463DB17068C1192A464046DF
S315000039E000F0B6FD2C19EF1904B137612046BDE889
S315000039F0F283F8B504460D46164600F0FCFD074670
S31500003A00324629462046FFF7BAFFFFE70446384606
S31500003A1000F0F7FD2046F2BD525454002DE9F8435C
S31500003A2000F02AF808B9FFF781FF00F0E4FD72699B
S31500003A3001460027182306F1640C03FB07FE5CF819
S31500003A400E0010B17F1C9742F7DB97420BDA7B43DF
S31500003A50F018002204664566C0F868800267C266F0
S31500003A60C0F8749001E04FF0FF37FFE7084600F01A
S31500003A70C8FD3846BDE8F283034E044630780D464D
S31500003A8090469946704751E700EC032044F4032022
S31500003A9000D4020054F403200CD402007FB500F0D9
S31500003AA011F818B900F015F803F001FF04B070BD65
S31500003AB07FB500F007F818B900F00BF803F012FF15
S31500003AC004B070BD0446084615461E4602A903F01A
S31500003AD0C5BF0899099800910190334602992A4674
S31500003AE02046704780B500F00DF880B202BD80B563
S31500003AF000F008F8FA21B0FBF1F080B202BD000038
S31500003B0000BF0000E0B503F091FF6A4603F0D8FF5E
S31500003B1018B147212BA0FFF737F8DDE9000103B004
S31500003B2000BD000080B504F016F901211748FFF723
S31500003B304BFA03F091FE20B15FF0520121A0FFF78E
S31500003B4023F8002002BD1249012008707047FEB517
S31500003B5004460025216801B91EE000F00CF808B102
S31500003B6000F002F801201BE0019500950023216872
S31500003B703A46301D92E7064E064F357000230093F5
S31500003B8001953A46301D93E70000000030253E00BF
S31500003B90A0F50320473B000004F09CF90020FEBD81
S31500003BA004F048FA307840B92146301D03F006FF8C
S31500003BB0206803F068FF852501E000203070206052
S31500003BC02846FEBD73797374656D2D74696D6572D3
S31500003BD02E6300000A0A42EA01225040C0F3031194
S31500003BE0484080EA003041010206C9B2D20E41EADD
S31500003BF00221484080B27047010008D4012200F03B
S31500003C001F01DFF854378A40400943F820207047E7
S31500003C1001000CD4012200F01F01DFF840378A4072
S31500003C20400943F82020BFF34F8FBFF36F8F7047D3
S31500003C30010008D4012200F01F01DFF824378A4072
S31500003C40400943F82020704710B5DFF8184730B117
S31500003C50012807D0102802D0202803D004E0002035
S31500003C60204410BD1C20FBE740F28311DFF8080852
S31500003C70FEF78AFF204610BD426893884089411AA4
S31500003C808B4201DA01207047002070477FB501287A
S31500003C90044604D9B0F1100101D010393BD10128F6
S31500003CA018BF202832D1FFF7CFFF054600F0A3FC4E
S31500003CB00646A86901AB6A4602A905F014FC0099FC
S31500003CC02A89286889B200F027F8304600F099FC66
S31500003CD0A86905F083FC012818D12A6829899088EB
S31500003CE02A8A091A914211DBA86990F83110022933
S31500003CF003D105F0F6FB022804DAA86990F8311022
S31500003D00012903D1A869002105F03EFC200014BF5B
S31500003D10102CFDF71EFF7FBD70B504460E461546F6
S31500003D2000F069FCE288B2420CD221888B1A9919FC
S31500003D3091FBF5FC05FB1C152580A388F3189A1A40
S31500003D40A280E68000F0CDBBF8B5012818BF202878
S31500003D500C46154616D1FFF777FF0646307B10B1A5
S31500003D6001217173F1BD707B18B13046BDE8F24098
S31500003D70AFE00FF2C51700F006F818B100F003F82F
S31500003D800028FBD1F1BDB0693B462A46214605F025
S31500003D9003BD70B505460E46FFF756FF012D18BF49
S31500003DA0202D044640D1A069016890F83200E8B998
S31500003DB004228A6400F05AF9A0690068C16C002EDA
S31500003DC007D041F00401C1640C20FFF715FF05215F
S31500003DD006E021F00401C1640C20FFF719FF002161
S31500003DE0A0690068BDE8704005F062BD0420486324
S31500003DF000F03CF9A0690068816B002E07D041F005
S31500003E00040181630C20FFF7F7FE052106E021F08F
S31500003E10040181630C20FFF7FBFE0021A069006806
S31500003E20BDE8704005F0D3BD70BDF8B50446DFF8B7
S31500003E304C0681421D462AD00026F2B21C20DFF82D
S31500003E40241542438F18BB69A3421CD13A893868AE
S31500003E50A9B2FFF761FF38680021C18002E0384649
S31500003E6000F016F8204605F03CFB02280BDC3889EA
S31500003E70F9893A68A0EB410091888842EFDA01217E
S31500003E80204605F081FB761CF0B20228D5DBF1BD99
S31500003E9070B50446DFF8E835E089668A256802468B
S31500003EA070432E18A06906F1080105F031FCA069DF
S31500003EB005F017FB012803DDA069002105F064FB6E
S31500003EC0608AA18A401C90FBF1F201FB120060821D
S31500003ED070BDFEB50446207B68BB60680FF25906CC
S31500003EE04188084400F10807A0696B4601AA02A9A7
S31500003EF005F01AFB61688A880098019D121A551B05
S31500003F004A88088890420ED26189A0698A1A334687
S31500003F10394605F041FC70B96268618950886D1AAE
S31500003F20451902F10807A0693346EAB2394605F099
S31500003F3033FC00B96073F7BD2DE9F041054698469C
S31500003F400027F9B21C22DFF81C0451434418A36968
S31500003F50AB4218D160688188414534BF86884646A1
S31500003F6000F049FB61684A8812FA86F1628991FB82
S31500003F70F2F302FB13116268518061688A88961B0E
S31500003F808E8000F03EFB7F1CF8B20228D9DBBDE82C
S31500003F90F08138B51129054609D1A869002105F037
S31500003FA000FB002129732846BDE8324091E713291A
S31500003FB006D1A869012105F0F4FA0120287331BD64
S31500003FC028682A898488141BA4B25CB100F108020F
S31500003FD0008811542868018800F0ABF901808188B7
S31500003FE0491C8180A86905F0F9FA20B9E989A1423E
S31500003FF0A8BF012105DA012808D1288A844205DBF9
S315000040000021A869BDE8344005F0BEBA31BD10B53F
S315000040102020FFF719FE0446DFF86804A16991F82D
S315000040203120012A09D101690A060AD505F0BCFC2E
S3150000403001462046BDE81040ABE7C16C21F0040103
S31500004040C16410BD10B5DFF83C4428B92046BDE870
S315000040501040002105F02CBC00F008F80C20FFF7FA
S31500004060CBFDE06C40F00400E06410BD0C20DFE501
S3150000407080B530B9BDE804400521DFF8080405F035
S3150000408017BCFFF7F3FFBDE802400C20C0E5F8B50A
S315000040900C461546FFF7D8FD0646306881883289FA
S315000040A0E8B2121A914201DB0120F2BD00270EE0B0
S315000040B000F0A1FA316814F8012B01F10803098810
S315000040C05A547F1C31680A88338900F039F9AF42A7
S315000040D0EED30020F2BD10B5012818BF20281CD150
S315000040E0FFF7B2FD0446A06905F0D3F9800414D5A4
S315000040F06168888888B9A06905F012FA002802BFAD
S31500004100A06990F83210002907D105F0C2F900F431
S315000041104030401E8041C00F10BD002010BDF8B5D4
S31500004120012804460D4603D9103801D0103852D163
S31500004130204600F0DDF910B9204600F085F820464B
S31500004140FFF782FD06462046FFF77EFD21000FD0D1
S31500004150012C03D0102C0BD0202C3CD1DFF82813D7
S31500004160DFF828230160802342600381438109E050
S31500004170DFF81C23DFF81C13026041604023802116
S3150000418003814181200018BF102C03D1BDE8F14006
S31500004190FDF702BC012C18BF202C53D1012C16BFF1
S315000041A0202CDFF8F4020020012C18BF202CB0616F
S315000041B011D1DFF8E812DFF8E802E961A861A98CFD
S315000041C0F181EB8C33828B4207D21C21304605F0FD
S315000041D03DFC0220F2BD0120F2BDB26992F8310029
S315000041E001280CD0308990FBF1F701FB170000285D
S315000041F002BF93FBF1F001FB10310029E5D12946FE
S31500004200104604F09BFFF0B9B069017F007E0123E0
S315000042100222FFF742FB287C012808D10121204613
S31500004220FFF7B7FDB069002105F0AEF90AE00020FE
S3150000423070823189F08991FBF0F0B08200F055F977
S3150000424000F053F90020F2BD58B50128044603D901
S31500004250103801D0103813D1204600F049F9F0B9D2
S31500004260204600F01FF92046FFF7EEFC012C18BF90
S31500004270202C06460FD1B06905F03FF810B152BDAB
S31500004280012052BDB06990F83110012903D10021F7
S315000042902046FFF77EFD1C21304605F0D7FB0020A7
S315000042A052BDF8B5074601280E463C4603D91038DC
S315000042B001D010380BD13846FFF7C6FC0546384604
S315000042C0FFF7E4FC2968888818B92620F2BD01208A
S315000042D0F2BD00F090F90746286800F10801408811
S315000042E00A5C32702868418800F023F84180818892
S315000042F04A1E012C18BF202C828004D1A86990F890
S31500004300311001290FD1384600F07BF90020F2BDAB
S315000043102889E9892A68A0EB410091888842F2DB66
S315000043202846FFF7B5FDA86905F0DBF80228EFDBA4
S31500004330E9E72A89491C91FBF2F302FB1311704746
S31500004340521C92FBF3FC03FB1C220A808A88521C37
S315000043508A8000F056B9000000E100E080E100E04C
S3150000436080E200E0F4F003202DE9F84F01288046B2
S3150000437004D9B0F1100301D0103B10D1002818BFAA
S315000043801028894692460CD0FFF75EFC06460024AC
S3150000439070680188084400F1080B00253BE0012005
S315000043A00EE051464846FEF7C5F908E0544506DAE0
S315000043B0AAEB040082B259464046FFF7C5FC00202E
S315000043C0BDE8F28F00F017F971680B8819F8012B18
S315000043D019440A7271680A887389521C92FBF3FCAD
S315000043E003FB1C220A808A88521C8A8009884F1E79
S315000043F0BF4100F006F9FF0F67B1EFB27F1C3F1B0C
S31500004400FAB259464046FFF79FFC70683C19E4B281
S3150000441000F1080B6D1CE8B25045C7D200213046AA
S31500004420FFF72AFC0028CDD1307B0028F6D02220C9
S31500004430C6E7F8B50124012807460E46154603D9F6
S31500004440103801D0103815D1380018BF102F04D1FC
S3150000445029463046FEF76EF900243846FFF7F4FB8E
S31500004460012F18BF202F05D180692A46314605F055
S31500004470B7F804462046F2BD08CE0200097000F0E7
S315000044802B3E000000000140E4EF03206CF0032007
S3150000449014EF03205CEF03202CF10320D0E7032068
S315000044A050E7032070B50546FFF7CEFB0646012D03
S315000044B0346818BF202D0DD1B06990F8311001294C
S315000044C008D0022104F05BFF0020708200F00DF896
S315000044D000F00BF800F08FF80021A18021806180A8
S315000044E0E180BDE8704000F08CB83046FFF7D0BCE4
S315000044F080B5012804D9B0F1100101D0103906D1D8
S31500004500FFF7A2FB00281CBF0068002801D101208C
S3150000451002BD002002BD30B4002513E050F8042B84
S31500004520D30744BFA9F101039A18091F042942F8C9
S31500004530045BFAD213468C0744BF15809B1CC9073F
S3150000454048BF1D7050F8041B0029E7D130BC7047E6
S3150000455062B38B0708D0521E11F8013B00F8013BED
S3150000456000F024808B07F6D1830740F0208000BF3F
S31500004570103A07D330B4B1E83810103AA0E8381032
S31500004580F9D230BC530724BFB1E80810A0E80810E0
S3150000459044BF51F8043B40F8043BD20724BF31F82E
S315000045A0022B20F8022B44BF0B7803707047121FB2
S315000045B017D35B0009D151F8043B20F8023B1B0CD2
S315000045C0121F20F8023BF6D20BE051F8043B00F82C
S315000045D0013B1B0A20F8023B1B0C121F00F8013B93
S315000045E0F3D238BF121D521E24BF11F8013B00F84A
S315000045F0013BF8D87047EFF31180602181F31188F1
S31500004600704780F31188704738B58048804C006841
S315000046102060606048220021FBF743FF7D4A216845
S31500004620107808704FF6FF712068002241800273EF
S3150000463023685A730B222068827314232268D3736B
S315000046404FF6FE7320680382418205F019FA21684D
S31500004650087605F015FA2168487605F011FA216802
S315000046606D4B88766D4821680278CA766C49206859
S315000046700A6840F8282F1D7805716A482268016883
S31500004680116331BD10B500F0F4FE614C6168897BA1
S31500004690884203D0084600F0F1FD50B900F0EDFE67
S315000046A0616891F90F10884205D0084600F0F4FEC3
S315000046B008B1012010BD6068008A01F03CFB60680B
S315000046C0408A01F056FB6068017B01290CBF01207E
S315000046D0002001F01DFB002010BD10B5524C00203B
S315000046E0207005F098FE20B92046BDE8104005F080
S315000046F0D1BE72E080B5002000F015F828B1002088
S3150000470000F005F808B1002002BDFF2002BD4048B8
S315000047100168487B02281CBF1128432801D10120CB
S315000047207047002070473A480168087B01281CBF83
S315000047300228032801D1012070470020704700207D
S3150000474070477020704700207047384908707047DE
S31500004750704700207047012070477047002070475F
S3150000476000207047704770470020704780B50020D2
S31500004770FFF7CDFF20B10020FFF7D5FF00B10120E4
S3150000478002BD80B50020FFF7C2FF08B1002002BDC0
S31500004790FF2002BD80B50020FFF7B9FF30B11C48ED
S315000047A001680A7B032A01DA002002BDFF2002BD50
S315000047B010B5040000F0058040F27D1158A0FEF708
S315000047C0E3F91A49087808B9702010BD0F49104B53
S315000047D00A684820444310195860BDE8104051E764
S315000047E00B484168088A704709484168488A7047FB
S315000047F0074909684A690260C97E01717047044920
S31500004800096802684A610079C87670478CE8032017
S3150000481068FA0320CBFE0320ADEB0320BBEB03209D
S3150000482090E8032094E8032058FA0320E8EB0320DD
S315000048307047002070470020704705F0A6BB704700
S31500004840002818BF05F048BF704706F0F2B906F019
S315000048501ABB82B08DF80010DDE9002311461A4616
S3150000486002B006F07BBB33B585B005468DF8042053
S3150000487000F0F2FA0446284600F0FEFA7CB1002861
S31500004880BDF818000FD100F0D6FB8DF80000FF2808
S3150000489004BF00218DF80010CDF808D016E0A8B1AD
S315000048A006A8029012E000F0C6FB8DF80000FF2873
S315000048B004BF00218DF800109DF80000BDF8181007
S315000048C08DF80C0003AAADF80E100292DDE9010185
S315000048D00A460146284606F041FB07B030BD0000F7
S315000048E073B582B00446154600F0B6FA0646204671
S315000048F000F0C2FA2EB120B903A98DF8005001913B
S3150000490005E04FF4057100BF05A0FEF73DF9DDE9AE
S3150000491000010A460146204606F020FB7FBD000046
S31500004920656D6265722D6D756C74692D6E65747733
S315000049306F726B2D737475622E630000490102005D
S3150000494003D4DFF8DC0481547047DFF8D83402F072
S315000049500F021A4402F8041C704700F0070010B555
S31500004960C0F10703042B28BF0323C41C072C34BF44
S315000049700020001F012404FA03F35B1E1940814046
S3150000498004FA00F0401E1040084310BD0020704796
S315000049900020704770471CB572B602F0A1F9DFF827
S315000049A08804DFF888444169216000F0FDF901467A
S315000049B06FF00B00FFF7C2FF00F0F6F901466FF04B
S315000049C00A00FFF7BBFF00F0EFF901466FF00900A0
S315000049D0FFF7B4FF00F0E0F901466FF00800FFF7BB
S315000049E0ADFF00F0D9F901466FF00700FFF7A6FF0B
S315000049F000F0D2F901466FF00600FFF79FFF00F0C6
S31500004A00CBF901466FF00500FFF798FF002202215F
S31500004A1000F0C4F901466FF00400FFF78FFF00F0C5
S31500004A20C7F901466FF00300FFF788FF00F0B4F9FD
S31500004A3001466FF00200FFF781FF0022072100F018
S31500004A40ADF901466FF00100FFF778FF00F0B0F90D
S31500004A5001464FF0FF30FFF771FF00F0A9F901465C
S31500004A600020FFF76BFF0022032100F097F90146B3
S31500004A700120FFF763FF00F093F901460220FFF7DC
S31500004A805DFF00F08DF901460320FFF757FF00F0A8
S31500004A908FF901460420FFF751FF00F089F901461E
S31500004AA00520FFF74BFF00F083F901460620FFF7CC
S31500004AB045FF00F07DF901460720FFF73FFF00F0B4
S31500004AC077F901460820FFF739FF00F071F9014632
S31500004AD00920FFF733FF00F06BF901460A20FFF7C4
S31500004AE02DFF00F065F901460B20FFF727FF00F0C8
S31500004AF05FF901460C20FFF721FF00F059F9014646
S31500004B000D20FFF71BFF00F053F901460E20FFF7BB
S31500004B1015FF00F04DF901460F20FFF70FFF00F0DB
S31500004B2047F901461020FFF709FF00F041F9014659
S31500004B301120FFF703FF00F03BF901461220FFF7B3
S31500004B40FDFE00F035F901461320FFF7F7FE00F0F1
S31500004B502FF901461420FFF7F1FE00F029F901466E
S31500004B601520FFF7EBFE00F023F901461620FFF7AC
S31500004B70E5FE00F01DF901461720FFF7DFFE00F005
S31500004B8017F901461820FFF7D9FE00F011F9014682
S31500004B901920FFF7D3FE00F00BF901461A20FFF7A4
S31500004BA0CDFE00F005F901461B20FFF7C7FE00F019
S31500004BB0FFF801461C20FFF7C1FE00F0F9F8014698
S31500004BC01D20FFF7BBFE00F0F3F801461E20FFF79D
S31500004BD0B5FE00F0EDF801461F20FFF7AFFE00F02E
S31500004BE0E7F801462020FFF7A9FE00F0E1F80146AC
S31500004BF02120FFF7A3FE00F0D3F801462220FFF79D
S31500004C009DFE00F0D5F801462320FFF797FE00F041
S31500004C10CFF801462420FFF791FE00F0C9F80146BF
S31500004C202520FFF78BFE00F0C3F801462620FFF78C
S31500004C3085FE00F0BDF801462720FFF77FFE00F055
S31500004C40B7F801462820FFF779FE00F0B1F80146D3
S31500004C502920FFF773FE00F0ABF801462A20FFF784
S31500004C606DFE00F0A5F801462B20FFF767FE00F069
S31500004C709FF801462C20FFF761FE00F099F80146E7
S31500004C802D20FFF75BFE00F093F801462E20FFF77C
S31500004C9055FE00F08DF801462F20FFF74FFE00F07D
S31500004CA087F801463020FFF749FE00F081F80146FB
S31500004CB03120FFF743FE00F06FF801463220FFF780
S31500004CC03DFE61684FF6FF00014041F0BF6141F4CF
S31500004CD0013161604FF4E021E06840F40070E0606B
S31500004CE0E06840F01000E060E16106F01CFA06F0B2
S31500004CF0B1FAEFF30880001F4D494FF0CD3201E0C5
S31500004D0040F804298842FBD24A4A4B4892B2002115
S31500004D10FBF7C7FB62B64949494A01204864106857
S31500004D20484A000E09D14AF6E850D0620020536B7B
S31500004D3043F004035363D06201E0012803D81068EE
S31500004D4040F40050106001243F48036823F44013E8
S31500004D5043F488130360086840F4807008600120FB
S31500004D60116C41F4F84111643849086006F0C4FA40
S31500004D7006F0BEFB36496846D1E90023CDE900239B
S31500004D808DF8034002F060FA03F0A8F8FEF7CAFEB9
S31500004D90304806F01FFC13BDFF22FF210420DCE58E
S31500004DA0002201210420D8E5002200210420D4E5B8
S31500004DB0002204210420D0E540F2016001F062BF28
S31500004DC006F02ABC80B500210B2006F01DFCBDE8CC
S31500004DD0014006F022BC032006F099BC10B506F08F
S31500004DE079FA044606F07AFAC0B208B9012C07D15E
S31500004DF0072C11D8DFE804F004100608080A0C0E88
S31500004E00002010BD092010BD022010BD032010BDDA
S31500004E100B2010BD062010BD44F0800010BD000020
S31500004E2000E400E018ED00E00000000008ED00E0FE
S31500004E3088DD032054120000A000002000000E4070
S31500004E40FC81E00F64310E4020400E4010300E40D1
S31500004E500CCF020068D5020020B500217DA2CBB29E
S31500004E60D35C834205D0491CCDB2082DF7D3002070
S31500004E7020BD012020BD000020B5002177A2CBB2C5
S31500004E80D35C834205D0491CCDB2082DF7D3002050
S31500004E9020BD012020BD6C480168488870476A48DB
S31500004EA00168081D704768480168C87E70476649F2
S31500004EB00A68D076704738B5634C644D21684873EC
S31500004EC00228634915D12068027B042A1CBF0846C4
S31500004ED005F0E0FA2068007B03281EBF0428284658
S31500004EE005F0D8FA20684169C80054BF9024BC2454
S31500004EF010E000200870287006F061FC2068007B36
S31500004F00032818BF042802D106F06BFC01E006F066
S31500004F10C0FF9124204607F013F850B92346132208
S31500004F2048A10320FBF713FB2046BDE83240FFF7FC
S31500004F308EBC31BD44480168487B00F00F007047C5
S31500004F40414801684A7B02F00F02022A01D1012082
S31500004F5070470020704738B50446FFF7F1FF3A4D19
S31500004F6028B92868417B032901D0932032BD07F078
S31500004F70CFFE20812868C17BA1722868817BE172FF
S31500004F80204609F075F90020207304F1140104F19C
S31500004F90100009F01FFAE081002032BD70B52A4DDD
S31500004FA02E680C46FFF7CCFF20B9707B032801D092
S31500004FB0932070BDF07B20702968887B00F002F991
S31500004FC060702868817B01F01F01A170002070BD10
S31500004FD010B5002300E05B1CDCB28C4205D210F851
S31500004FE0014B9442F7D0002010BD012010BD0821CE
S31500004FF009F064BB14480168487B01281CBF3128AE
S31500005000332801D1012070470020704710B50446AF
S3150000501000F042FA010002D10B490A68D47310BDB0
S315000050200948016891F90F00704707480168887BB5
S31500005030704701207047044801688A7B500918BFF1
S31500005040012070474242000068FA032048FC032012
S3150000505088F703200001020304051D20020304054E
S3150000506008090A0B38B5044606F0CEFA0546DFF8FD
S31500005070580A83780178994211D000F043F8641EEB
S3150000508007D0641E08D0A41E06D0A41E032C03D984
S3150000509005E00022194600E0002209F035FB28460B
S315000050A032BD09F0C5BB10B5DFF8203A4C00014609
S315000050B0986A224609F031FBA04201D0002010BDBB
S315000050C0012010BDDFF8042A0146107B002800D11C
S315000050D0704780B5906A09F0B0FB28B1BDE804407E
S315000050E040F29B1100F0B3BB01BD80B500F00AF899
S315000050F009F00CFB00F00300032801D1012002BDDA
S31500005100002002BDDFF8C409806A704780B5B0F59B
S31500005110004F08D14FF6FF70DFF8F419098800F048
S31500005120B3FEBDF80000DFF8A0194883002002BDD9
S315000051302DE9F04F4FEA501C0C4600F01F000026E8
S31500005140DFF8008A2FE00EF1010EEF7E5FFA8EF097
S31500005150B84226D2E8695FFA8EF9142717FB09F9D7
S315000051604844077A07F007076745ECD1477AB94202
S31500005170E9DB90F801B090F8009007EB0B0AAAEB78
S31500005180090A8A45DFDB14B1C91B494421700AB1FB
S31500005190017A117003B11860284600E00020BDE8CE
S315000051A0F08F0846761C98F80650F1B2A942F5D25F
S315000051B0D8F808105FFA86FE51F82E504FF0000E10
S315000051C00146C2E7400918BF40F01800704738B5DD
S315000051D0DFF8F848A06A09F0EBFB0546E80744BF8C
S315000051E0A06A09F0EAFBE8031ED5E16ADFF8B05AC7
S315000051F0086A18B940F2662100F021FDE06A016AEA
S31500005200486818B94FF41A7100F019FDE26A136A7A
S31500005210A06A5A680021904730B12846BDE834405C
S3150000522040F26921FDF7B0BC31BD3EB568460021AC
S315000052300022002380E80E00DFF88C48A07A25784B
S315000052408DF80050002818BF022810D1DFF87C58CE
S3150000525000F00EF858B1A86A0122002109F058FAA8
S3150000526000F006F818B140F29E2100F02AFC37BD86
S315000052702179A86A6A4609F0B1BA00002DE9F0431F
S31500005280FF2889B006460AD1DFF8B80881680A689F
S31500005290D069467A017A06F01F0646EA4116F5B24B
S315000052A005F01F001B2847D20021019101AB6A4679
S315000052B0F0B2FFF73DFF5FEA00081CBF0198002827
S315000052C03AD0DFF80448DFF804782179F0B2884252
S315000052D031D00B3D102D39BFDFF8040A0568DFF821
S315000052E0041A0D68002D1CBF2878032824D0786C7A
S315000052F0854214D002A829460622FFF729F9B86A82
S315000053007D6402A909F0FBFAB0B9B86A04A909F0EC
S315000053100AFBB4F91810B86A09F0B7FA60B9386B25
S315000053200199C7F82C80884208D19DF8000078734F
S315000053302671FFF77AFF80E08A2086E0A57ADFF8FB
S31500005340609900F08DFA386B38B1B86A09F093FBB2
S3150000535018B140F2D32100F089F801980199386319
S31500005360C868786318B94FF4367100F07FF8D8F83A
S315000053702000B96C814219D018B940F2DF2100F043
S3150000538075F8D8F82010086818B940F2E12100F045
S315000053906DF8D8F82010B86A0A68904718B140F23C
S315000053A0E22100F063F8D8F82000B8645FF01C0230
S315000053B09DF8000026A17873267102A8FFF7D8F899
S315000053C0786B418A0901C039ADF80E10417C09019C
S315000053D01439ADF8161002A9407C0001ADF81A0088
S315000053E0E079401E8041C00F8DF82100787C8DF851
S315000053F02200B86A09F00CFB18B140F20D3100F03A
S3150000540035F8B86A0122012109F0C0FB18B140F253
S31500005410323100F02BF800F067FCA08B00F08BFC1B
S31500005420E08B00F0A6FC207A00F03CFC00F033FD97
S3150000543000F0FAFC284600F07DFA97F90E10B86ADB
S31500005440C905091409F0C0FD002000F085BE000062
S3150000545000000000010000000101010164000000DD
S3150000546064000000000000000B0000004846FDF745
S315000054708BBBDFF8D00700797047DFF8C807B0F9B3
S315000054801800002854BF05216FF0040108180A21EE
S3150000549090FBF1F040B270470A2110FB01F0FFE7E4
S315000054A0F8B500F5D77140F27722914201D38B20EF
S315000054B0F2BDDFF81856DFF88C472A6B0A26002A59
S315000054C01EBFA17E01F0C001802911D0E97B79B908
S315000054D092F902100F4617FB06F7B842A1BF92F9E0
S315000054E003100A4612FB06F28242B8BF11FB06F011
S315000054F0297B61B10146A86A09F0C7F918B140F2E3
S31500005500853100F0DEFAA86A09F0E2F901E010FB45
S3150000551006F020830020F2BD38B504460B3810286B
S3150000552039BFDFF8BC070068DFF8B817086888B12C
S315000055300023002200212046FFF7FAFD50B104F0B7
S315000055401F051B2D06D22046FFF73CFE10B9284644
S315000055500B2800DAFF2032BDDFF8BC194008085CD2
S3150000556070477047C0B2704711F1630F01DA00202F
S31500005570704711F1240F01DBFF20704764310902E7
S31500005580481101EB90618904080E704770B5DFF889
S315000055903C45DFF8F8590020E064687830B109F03E
S315000055A01BFD0246012A18BF032A01D1002070BD47
S315000055B0606BDFF83039DFF8106500281FBF216BFC
S315000055C009690029022A17D1E364706900F5FA70A7
S315000055D07061607D18B100200021642203E0E87844
S315000055E029794FF4A0722070A28061708021A8787A
S315000055F0A070E180002031E0DFF820597269A942ED
S3150000560014D1DFF8AC19E16402F57A727261617D3A
S3150000561091B90179217001258278037990F90310F7
S315000056209540EB18CB185B1E63700DE0E36402F542
S31500005630FA727261617D19B100222280642105E04F
S31500005640417821708278627001780901A1804179E0
S31500005650A17002891201E280C0880001A06000F0FA
