S00F00006E6F6465746573742E7333377F
S31500006000785D0020D5FE0100A9DA0000E9FC010058
S31500006010A70A0A010062000004180FAC306A2901C1
S31500006020000000000000000000000000000000006A
S3150000603000000000A42F0200000000000000000085
S315000060400000000000000000FFFFFFFFFFFFFFFF52
S31500006050FFFFFFFF004007000000000000000000F7
S31500006060FFFFFFFFFFFFFFFF010000000000000031
S31500006070000000000000000000000000000000001A
S3150000608000000000000000004C7C00204C7C00203A
S31500006090785D0020A27D02005AFF010018540020FE
S311000060A0E410002000E0070000000000F3
S31500006200785D0020D5FE0100A9DA0000E9FC010056
S3150000621099250100EDFC0100F1FC010000000000E1
S315000062200000000000000000000000008373000072
S31500006230F5FC0100FF6E0000E78700004FBA000082
S31500006240F9FD0100F9FD0100F9FD0100F9FD01006C
S31500006250F9FD0100F9FD0100A9270100E94E010041
S31500006260F9FD0100F9FD0100F9FD0100F9FD01004C
S31500006270E9C10100F9FD0100F9FD01009FD200000E
S31500006280F9FD0100F9FD0100F9FD010067CF0000ED
S31500006290F9FD0100E7B90100F9FD0100F9FD010072
S315000062A0F9FD010047BD010039BD0100F9FD0100FE
S315000062B0F9FD010023660100F9FD0100436C0100B0
S315000062C01B6C0100196C0100D9660100416C0100CC
S315000062D01D6C0100216C01001F6C0100896C01001E
S315000062E0FDFD0100CD890100776C0100ED7700000E
S315000062F079A80100F9FD0100F9FD0100F9FD010091
S31500006300F9FD0100F9FD0100F9FD0100F9FD0100AB
S31500006310F9FD0100F9FD0100F9FD0100F9FD01009B
S31500006320F9FD0100F9FD0100F9FD0100F9FD01008B
S31500006330F9FD0100F9FD0100F9FD0100F9FD01007B
S31500006340104F81B030BF06480168CA0707D5002044
S3150000635001E00098401C009000980628F9DB01B087
S315000063607047F0ED00E070B54E4A4E4B4F4C246836
S3150000637065070CD4C60701D41C4209D100EA0405FE
S315000063808D4208D0521EF1D16FF0020070BD2EE092
S315000063906FF00108301D1C42FAD1002070BD70B5A7
S315000063A0434D6860E8680E46410700D51FE056F881
S315000063B0040B141F0208101D241FA86044B10821F5
S315000063C00820FFF7CFFF0100F4D00421296070BD3B
S315000063D0042028600021211612C4162304D10C20A3
S315000063E00ABDE87040BCE770BD4FF0FF305630176D
S315000063F000F04FF841F671312B4C01222B4BE5682A
S31500006400E1621A6060600226263A300B2D0CFFF717
S31500006410A6FF05F00105010003402020FFF79EFFBF
S315000064200121224A11600DB10021E16270BD2DE902
S31500006430F8438946144600F02AF8194F3D684E2065
S315000064400A80462D0C39620122174B00203E10258A
S315000064501A6002E0B044B144A41B7CB108F50056B2
S31500006460760B7603A6EB0806B4424946404638BF8B
S3150000647026463246FFF78DA65003EBD001210A5E71
S3150000648010093962BDE8F2834FF400310712100D8E
S31500006490704780969800020001001C00034010041B
S315000064A0130C100400052003406890004000000013
S315000064B070472DE9FC470546DFF834462078DFF8BB
S315000064C03496494600F00EFD0FF2EC6000279AA6BE
S315000064D000900FF2CC6ADFF8208611E0314600F01A
S315000064E001FD0BE0936812680FF2C46100F0FAFC3C
S315000064F000F06CF9F2D0009900F0F4FC7F1CBFB2FA
S31500006500286800EB07122078516849B14145E9D166
S315000065105169002918BF4145F0D012685146EBE792
S3150000652009F17C0100F0DEFC207809F1A40100F0FD
S31500006530D9FC207809F1D40100F0D4FC207809F5C3
S31500006540807100F0CFFC31462078BDE8FC4700F0B2
S31500006550C9BCA0F141011A293CBF2030C0B2704726
S315000065602DE9F84F0646B1680024A0460D68DFF80D
S315000065708075EDB2284600F052FD5FFA80F9B9F158
S31500006580200F07DD38782022DFF87015BDE8F84FB8
S3150000659000F0A8BC284600F02AFD8246002506E049
S315000065A01AF80500FFF7D5FF0AF805006D1C4D45E2
S315000065B0F6DB4A460FF20861504600F0D3FE40B9BA
S315000065C04FF0010805E038785A460FF2FC5100F00A
S315000065D089FC32682101101D4058002840D0641CF7
S315000065E0DFF81455A4B2A842F3D152F801B0B8F1BD
S315000065F0000FE8D1584600F0C5FE4845E9D14A46A5
S315000066005146584600F0AEFE0028E2D1A2466CA4E0
S315000066100FF2A4580FF2B85918E0214600F062FCB8
S3150000662010E001EB0B00836802683878494600F0F9
S3150000663059FC30685844C2683878002AEDD0414683
S3150000664000F050FC0AF101001FFA80FA31684FEAA7
S315000066500A1B081D50F80B00002818BFA842E0D1FD
S31500006660BDE8F18FF8B588B00446A068016801B1AD
S315000066700121DFF88C542970406800B10120DFF851
S3150000668084643070DFF88074384601F082F8A068C0
S31500006690C16801B10121006900B10120DFF86C2455
S315000066A01170DFF86C341870C0B207900FF24050CA
S315000066B0C9B2069005910FF2305142A33078049189
S315000066C0029301220FF218512B7803920190009148
S315000066D00FF2045204F1110107F1280001F059F8F4
S315000066E009B0F0BD007CDFF80834DFF8281451F853
S315000066F0202018780FF2005100F0F4BB38B5DFF80F
S31500006700F04300F0E8F92078DFF80C1400F0EAFB1B
S3150000671000F008FA20780FF2F04100F0E3FB207851
S3150000672029A100F0DFFB00F0D1F920780FF2F0414B
S31500006730BDE8344000F0D6BB0D0A00002DE9F24F4B
S31500006740054692462E6B002714E01DA100F0CAFBF9
S315000067500DE08B680FF25841DFF8944300F0C2FB5E
S3150000676000F034F8F1D00FF2504100F0BBFB7F1C73
S31500006770BFB21036706808B3D6F80080DDF8009016
S3150000678000240BE019F8010BFFF7E3FE834618F827
S31500006790010BFFF7DEFE8345E9D1641CA0B250452C
S315000067A0F0D32868D24B00EB07111878D24B4C680F
S315000067B00A689C42CDD10FF2E831D6E7BDE8F18FE9
S315000067C00D0A0000746167002C200000286800EBA9
S315000067D00710C2682078002A704700002DE9F043B0
S315000067E0ADF5017DCD4F01A839464FF4807200F01A
S315000067F0F1FF4FF000098DF80190A52001F024F873
S3150000680001F072F800F07CFB00F055F9002001F071
S31500006810AFF95FEA000805D000F048F9002001F062
S31500006820A7F9804600F047F9012001F0A1F906001A
S3150000683005D000F03BF9012001F09AF9064600F078
S315000068403AF9022001F094F9050005D000F02EF97E
S31500006850022001F08DF9054601F010FAA44CB8F1BA
S31500006860000F0CD0002E00F08680002D00F08780EF
S3150000687040F207210FF2B03001F006FA04E0002ED4
S3150000688018BF002D00F07F8084F80090201D01F0D5
S315000068902EFB00F020F9207807F580710FF298366C
S315000068A000F020FB207829460FF2342800F01AFB6E
S315000068B020780FF2543141AF00F014FB207889A103
S315000068C000F010FB00F002F920780FF2543100F0CE
S315000068D009FB934801F042FD00F028F994F8000006
S315000068E09CA100F0FFFA00F025F9201D02F088F8BF
S315000068F000F01CF994F8000099A100F0F3FA00F0FA
S3150000690019F9201D03F074FD00F010F994F8000049
S3150000691096A100F0E7FA00F00DF9201D03F086FDC0
S3150000692000F004F994F8000093A100F0DBFA00F0FF
S3150000693001F9201D03F09CFD00F0F8F894F8000022
S3150000694090A100F0CFFA00F0F5F8201D03F0A5FDA8
S315000069502078314664A600F0C5FA20788CA100F0B4
S31500006960C1FA207841460FF2D82800F0BBFA201D64
S3150000697004F0BAFC3EE035B10120207086E7022122
S31500006980217083E725702078FF28FAD10025694613
S31500006990E8B201F03AF938B99DF800000D2818BFA1
S315000069A00A2818BF2A28EDD06D1CE9B20329EEDBB0
S315000069B0E9E78DF800109DF80020B85C511C0A2804
S315000069C018BF0D2818BF0028F3D10D20B8548DF834
S315000069D000109DF8002041A9201D01F093FA9DF8B2
S315000069E0002041A901A800F0F5FE00209DF80090C6
S315000069F08DF8010000F09EF820780DF10103FF22CA
S31500006A0041A901F007F9002846D000F01AFF01F06D
S31500006A1073F804F0E5F89DF8010010B341A90844A5
S31500006A2010F8011C09291CD100F07CF89DF8010022
S31500006A30411E8DF801109DF8012041A9201DFFF788
S31500006A407DFE9DF801100020785400F073F80020B8
S31500006A5004E000F035F89DF80000401C00F01EF838
S31500006A60F7D39DF804012128C6D100F05BF84A4609
S31500006A7001A941A800F0AEFEA9F101008DF80100C0
S31500006A8000F058F8002000F009F8B5D200F018F828
S31500006A909DF80000401CF6E700218AE78DF800000B
S31500006AA09DF800009DF801108842704701230022DE
S31500006AB04FF416417047012300224FF4E13170472D
S31500006AC03A5C2078314600F00DBA000094F80000D8
S31500006AD050A100F007BA207804A5294600F002BAB2
S31500006AE05D0D0A002C200000256300000D0A000041
S31500006AF0F45E002030130200B16400005C14020052
S31500006B00F0630020F1630020A0140200F26300206D
S31500006B10F3630020E860002004160200041502005A
S31500006B2017C712F32078294600F0DCB920783146E1
S31500006B3000F0D8B92078414600F0D4B980B504F009
S31500006B40F2FC0020BDE8024048E60020704705F050
S31500006B5055B80000696E6974546F6B656E730000FA
S31500006B606372617368696E666F00000072657365B3
S31500006B7074737472696E6700696E697452616469D0
S31500006B806F00000073656564506E72670000000058
S31500006B907365745065725465737454780000000010
S31500006BA02D2D2D2D202570202D2D2D2D0D0A00008B
S31500006BB02020257020257000202D2025700D0A002C
S31500006BC06D6F64756C65730025700D0A000000001A
S31500006BD025702025700000006865616465720000FC
S31500006BE0636F6D6D616E640064656C696D000000B5
S31500006BF074657874000000004349204572726F7214
S31500006C003A2025700D0A00004F6374202038203288
S31500006C103032310032303A30333A35370000000036
S31500006C200D0A0D0A00000000706C6174666F726DCB
S31500006C30746573742E6300005B494E49542000004E
S31500006C400D0A3E200000000070B5134610440BE00C
S31500006C5001F00F060909451E0A2E2846ACBF372447
S31500006C603024A4192C705B1EDCB2002CF0D1104429
S31500006C7070BDF0B5002341B1002806D52D23137051
S31500006C800123B0F1004F18BF404200210024944D6B
S31500006C90002655F8247001E0C01B761CB842FBD2D2
S31500006CA0F7B20FB90F0004D03036D9B256545B1C78
S31500006CB00121641C092CEBDB3030D9B250545B1C2B
S31500006CC0D8B2F0BD2DE9F84F804696B014A8894693
S31500006CD015469B4604AF4FF0000A0024019020E0C1
S31500006CE0012405460DE03429FAD15BF8046B042231
S31500006CF03846310CFFF7A8FF0422B1B2FFF7A4FF14
S31500006D00074601998F420BD39DF8000004A93F1A4C
S31500006D10FAB24846C047002853D15AFA87FA04AF58
S31500006D206D1C04A88DF800009DF800002978381A1B
S31500006D3000290BD0252903D014B907F8011BE0E779
S31500006D40002C14BF00246D1C29780A0000F09E80D8
S31500006D50B1F1250216D00B3A092A40F28580283A6D
S31500006D607CD00A3A12D0521E42D0521E5ED0083A49
S31500006D705CD0121F3FD0D21E3DD0921E56D0D21EDE
S31500006D806CD0BEE7252007F8010BBAE704A8DBF8AC
S31500006D900010DBF804208DF8000038460BF1080BD4
S31500006DA0039102920027029A9742A9D203990222DE
S31500006DB0C95DFFF749FF0199884206D300F074F8D0
S31500006DC000286DD15AFA86FA04A80299491E8F4204
S31500006DD03CBF202200F8012B0199884206D300F01F
S31500006DE063F800285CD15AFA86FA04A87F1CDAE711
S31500006DF05BF8040BC7E707465BF8046BFAB204A915
S31500006E004846C04700284BD15AFA87FA04AF0022F9
S31500006E10314600E0521CD6B2885D0028FAD1D2B2C3
S31500006E204846C04700283BD1B2446AE76C290AD1DC
S31500006E306A785BF8040B752A0EBF00210121642ACB
S31500006E4007D16D1C05E075295BF8040B0CBF00210A
S31500006E5001213A46FFF70DFF074452E75BF8041B92
S31500006E6002223846C9B249E768780124782818BF53
S31500006E705828F2D16D1C0024681E32297FF433AFE6
S31500006E805BF8040B042281B2384637E70546EAB2BE
S31500006E9004A94846C04718B9AA445FFA8AF000E038
S31500006EA0002017B0BDE8F08F9DF8002004A9861ACF
S31500006EB0F2B24846404709A114E00CB438B504467E
S31500006EC004AA00F017F8054604A1204600F00AF8C7
S31500006ED0284632BC5DF80CFB000000000D0A0000DD
S31500006EE0844102000CB480B502AA00F003F802BC8B
S31500006EF05DF80CFB80B506F075FCC0B202BD7047AC
S31500006F0010B5DFF838040068DFF82C14DFF83024F9
S31500006F10C860136848615B0800EB43040C6118B154
S31500006F2000F00AF8652806D2B0210FF22440BDE829
S31500006F30104000F0A9BE10BD10B5DFF8FC43206973
S31500006F406269904202D2C62100F0CDF820696269DA
S31500006F5000E0E2684FF6FE71801A084010BDDFF8C7
S31500006F60D813CA68904203D34969884200F05CB9D5
S31500006F700020704780B510B1FFF7F1FF00B1012086
S31500006F8002BD30B1DFF8B023D168401A4010401C72
S31500006F9080B27047010001D100207047DFF89813D6
S31500006FA0CA6802EB4000801E70474088C0F30C00A0
S31500006FB0C01C80084000001D80B2704710B5044612
S31500006FC0FFF7F3FF04EB4000DFF86C134A694FF656
S31500006FD0FF7400E0801C904202D20388A342F9D0DD
S31500006FE010BD80B5FFF7D6FFBDE80240C2E710B579
S31500006FF0040012D0FFF7F5FF18B940F27A4100F00D
S3150000700072F82046FFF7C6FF38B101880A0402D598
S31500007010D0F80A0010BD083010BD002010BD10B514
S31500007020010013D0FFF7B6FF0446FFF7A3FF18B918
S3150000703040F2944100F057F844B12088010401D58C
S31500007040208910BD6088C0F30C0010BD002010BD63
S315000070502DE9F04100F044F804003FD00FF2F0278C
S31500007060FFF788FF18B940F2A74100F078F82846E4
S31500007070FFF7D5FF80462046FFF7A0FF05464645A9
S315000070802CD003DB40F2AF4100F069F82088010400
S3150000709048BF268122D466802046FFF786FF04EB90
S315000070A0400406F0BEFCDFF890124A692E1BB6B209
S315000070B0954204BF4C61002606F0B9FC082E06D2A4
S315000070C031462046FF22BDE8F04106F0B3BC082158
S315000070D0204606F0D5FCA6F108006080BDE8F081E8
S315000070E005460E4656E70FF2682000F0CDBD38B5CE
S315000070F00D46FFF74FFF04000AD0FFF73BFF18B914
S3150000710040F2EC41FFF7EFFF04EB4500808832BD0B
S31500007110002032BDF8B50D461646FFF73BFF0400CA
S315000071200FF22C2714D0FFF725FF18B940F2F741CC
S3150000713000F015F83046FFF72DFFFFF71BFF18B9D3
S315000071404FF49F6100F00BF804EB45008680F1BD1B
S31500007150384640F2FB41BDE8F44000F095BD3846A4
S3150000716000F092BD2DE9F84F8846C11C89084900F8
S31500007170091D0027DFF8C05104461FFA81F92E6960
S315000071800FF2CC1AB0F5005F04D340F227515046F7
S3150000719000F07AFD06F045FC8346E869696908B99E
S315000071A0711A03E05FEA080202D0411A4E1009E0A4
S315000071B0301A4010064680B220B940F24D51504672
S315000071C000F062FDB6B24E4514DB6F6907EB49006D
S315000071D06861E86928B1B8F1000F04BF00EB490007
S315000071E0E86100207C80B880F880388029890834DE
S315000071F064182C81584606F01AFC3846BDE8F24F52
S31500007200BFE670B504460D4611462846FFF7AAFFAD
S3150000721006463CB1300005D0FFF7E9FE2A46214676
S3150000722006F032FC304670BD8041C00F70472DE934
S31500007230FE4F04462088884616469B46FFF7AAFE60
S315000072400746FFF797FE18B940F29161FFF74BFF2B
S3150000725038883546010403D538892D183D8167E005
S3150000726000F074F8019000F06DF8814606F0D9FB45
S3150000727000968246304E706981451DD1FFF75CFE4F
S31500007280A84203D2504606F0D2FB21E001982D1801
S315000072907D80BBF1000F08D02088FFF7A8FE019B78
S315000072A0009A4146184400F095FA00F04BF87061D8
S315000072B0504606F0BCFB3BE0504606F0B8FB00F03B
S315000072C045F82D180021A8B2FFF74CFF070001D1A1
S315000072D01A202EE000F03AF805462088FFF787FED0
S315000072E006463846FFF783FE2A46314600F072FA14
S315000072F0BBF1000F384609D0FFF779FE00F025F8FC
S31500007300009A4146284400F065FA07E0FFF76FFE51
S3150000731000F01BF80099284406F0B2FB20880121F2
S31500007320FFF7E5FE024601213846FFF7F3FE278008
S315000073300020BDE8FE8F000024740020B45F00200A
S31500007340B85F00203846FFF739BE0546208866E656
S315000073506275666665722D6D616E6167656D656ED7
S31500007360742E630003000020521E22BF13F8010B87
S3150000737011F801CBB0EB0C00F6D0521C08BF10463A
S315000073807047FEE700F1010310F8011B11B110F878
S31500007390011BFBE7C01A704738B50446206A651D15
S315000073A02368451B2079EAB2611D984708B1002081
S315000073B032BD94F82900611D21622D1884F82950E8
S315000073C0012032BD38B50446002500E06D1CE8B248
S315000073D0085C0028FAD120792368EAB2984710B9E8
S315000073E094F82900E9E7002032BD2DE9FE4F054655
S315000073F0681D0E46286205F1150100209146696256
S3150000740085F829000EE02A621CB1296A7D2000F069
S315000074109DF9286A696A884203D300F0A6F9002814
S315000074206ED0761C3178002900F085812529DFF899
S315000074309403407818BF262917D07B291CBF7D29C5
S31500007440232907D10028E4D0286A401C286200F8C6
S31500007450011DDEE7DFF86C2390780028D9D02A6A70
S31500007460521C2A6202F8011DD3E716F8013F252BAC
S3150000747018BF262B05D1296A491C296201F8013D4E
S31500007480C7E726290AD148B101246E2B18BF4E2B17
S3150000749011D0296A7B2000F059F900E000243078E9
S315000074A04FF0000A4E2806D0542826D06E2802D067
S315000074B0742822D034E0DFF80C13087859F8047BDE
S315000074C00028A6D0200006D0286A7B210170821CE5
S315000074D02A622823437000F048F9002810D000F0F3
S315000074E032F900280CD0002C93D0286A292101708B
S315000074F0821C2A627D2343708BE700F034F9002852
S3150000750074D000F020F9002870D000F02EF9002881
S315000075106CD0296A3A204FF0010A00F017F9761C60
S3150000752030787378A0F13001C9B2881E05282DD2B3
S31500007530642B18BF752B29D159F8040B002201279B
S3150000754080B28046642B05D1030403D5C043401C9A
S31500007550012280B238B10A2390FBF3F0521C80B2AC
S315000075600028F8D100E0521CD2B2D5F820B0881A13
S3150000757000908A4206DA00992022584606F05AFA06
S3150000758000988344C5F820B0761C00E000273178C7
S31500007590701E0A0000F0C480322918BF342900F09A
S315000075A09D80482906D058290FD0632910D0642918
S315000075B01FD0682900F087806C2956D0702918BF23
S315000075C073290CD0752914D0782900F07E80ACE0A0
S315000075D0286A411C296259F8041B017014E700F05F
S315000075E0C2F818B100F0AFF80028F7D10020BDE8C6
S315000075F0FE8F002FD5F820E012BF1FFA88F059F849
S31500007600040B80B2724628B930200EF101028EF8C2
S315000076100000F8E6002364290CD101040AD52D27C1
S315000076200EF101028EF80070B0F5004F02D0404214
S3150000763080B268B14FF00A0E90FBFEFE0A2101FBF4
S315000076401E00D9B25B1C0DF801001FFA8EF0F0E7A0
S315000076501846431EC0B200281FBFD8B21DF800004E
S31500007660303002F8010BF3D1CDE6296A59F8040B44
S315000076700A4618B930204A1C0870C4E600230028C0
S3150000768007D54A1C2D270F70B0F1004F01D040429C
S3150000769060B14FF00A0EB0FBFEFE0A2101FB1E0090
S315000076A0D9B25B1C0DF801007046F1E71846431E7F
S315000076B0C0B200281FBFD8B21DF80000303002F853
S315000076C0010BF3D19FE600F046F859F8041B02229D
S315000076D0286AC9B2FFF7B8FA286295E616F8010FCC
S315000076E0682818BF48280BD100F035F816F8011C99
S315000076F0286A32290AD159F8041B042289B2E9E71B
S31500007700782818BF5828F1D0761E7DE659F8047BF4
S315000077100422390CFFF798FA28620422B9B2D9E795
S31500007720BAF1000F01D106466EE6BAF1000FFBD0A2
S31500007730691D2962F7E700F018F800283FF456AFF4
S3150000774095F8290053E7394628463BE6491C296245
S3150000775001F8010D7047286A30210170821C2A62E7
S3150000776078234370704759F8047B284614E60EB414
S315000077700146154A10B510788BB0002440B1134A63
S31500007780137800F018F8FFF730FE00B90124204600
S315000077900DE00EB40D4A10B5014613788BB000F01B
S315000077A00AF80024FFF721FE00B9012420460BB099
S315000077B010BC5DF810FB064800908DF804300DAA49
S315000077C068467047F1630020F0630020F45E0020F5
S315000077D015D800004AB1000011F8013B521E00F80E
S315000077E0013B1CBF11F8013BF8E7704706F05CB996
S315000077F03EB501212D2006F066F900BF37A090E8BE
S315000078001C006946012581E81C000D218DF8061033
S3150000781003228DF800508DF8072009212D2006F04F
S3150000782057FB6946254806F08AFE4FF40060244956
S3150000783008600222234B1A60234C206023490A6009
S3150000784037BD1E4806F06ABEA52803D100211B4895
S3150000785006F053BE70471E4800682BE01D490868B5
S315000078600028FCD1704738B504460D4600F017F8DD
S3150000787004F00F01034624052A46200E01B0BDE898
S31500007880304006F0F8BE000001460B051B0E302006
S315000078904343114A01F00F01D018406909E001463F
S315000078A00B051B0E302043430B4A01F00F01D01885
S315000078B00069C84000F00100704700000080014ADE
S315000078C084E200E018A0014A04E100E01C90014AAD
S315000078D00480014A2480014A00C0034001000000E0
S315000078E000000F000000000010B501218A4A116057
S315000078F0002006F083FE012304220321002006F067
S31500007900BAFE012006F004FF00F011F806F003FFAE
S31500007910824C0120207006F0F1FF01234022211D38
S315000079208FA006F0B6FF7E490860C00F10BD70B587
S315000079307C4801687C4C7D4D41F001010160C268C4
S3150000794000217B4E42F08072C2607A482060296036
S315000079503160022378490B604FF4607006F0CEF870
S3150000796076490818764AB0FBF2F0764B0021401EA5
S315000079701860296474482065744931604FF4807238
S31500007980734802602B6843F480732B6070BD38B572
S3150000799006F047F8614D29780024022912BF012418
S315000079A00321297006F043F8DCB961480168CA076B
S315000079B00ED568490B6823F440630B6001684908DB
S315000079C04900016002681102FCD4642006F0B3FF8E
S315000079D00020594908605E4B186052490860012230
S315000079E02A7031BD4F48006800B10120C0B270470F
S315000079F0D12202704170090A817057490A78C27013
S31500007A00521C0A70042070472DE9F24F84B00746D5
S31500007A1008780024052868DB401D8DF8000007F073
S31500007A2019F802909DF8000000264FF6FF780190A5
S31500007A30DFF82891DFF8F4A03A4D03971DE003988C
S31500007A404146801910F8027C384607F031F8804626
S31500007A505E4637480168CA070FD5E86840F080706F
S31500007A60E860DAF8001041F48071CAF80010D9F81D
S31500007A7000000028F1D089F80070296879B39DF8D4
S31500007A800010F0B288422AD206F0E4FF029940F2D2
S31500007A90F512401A80B2904226DAF0B210B95B278E
S31500007AA00126D6E7012804D19DF800000226471FCB
S31500007AB0CFE7019806F1010BF6B2C01E864208BF59
S31500007AC04746C5D00198801E864208BF4FEA182750
S31500007AD0BED00198401E8642B1D15D27B8E79DF819
S31500007AE00000F6B2864200D00124049904200870F2
S31500007AF0204605B0BDE8F08F094B80B5186890B0F8
S31500007B004022694606F0ABFE20B1C2B26946122099
S31500007B1007F0B6F811B000BD44D40340C07300208E
S31500007B20B05F0020F0ED00E0B00F00E0000E00E0D6
S31500007B30800E00E055CEACC5F00004E0FCAC0600BB
S31500007B40F8590D00100004E0FF0300400D0001008D
S31500007B50040304E0001000E0457C0020200000E063
S31500007B6073696C6162737675617274646F776E00A7
S31500007B702DE9F84104469046012593B00F461E466E
S31500007B80220006D0022C1DD0102C02D0212C19D098
S31500007B9028E0002105F01BFC0546012C18BF202C0F
S31500007BA008D0022C18BF212C04D0032C1CBF222C79
S31500007BB0232C24D10197ADF81080012E14D14FF457
S31500007BC0805015E00AA82B492422FFF703FE6846D9
S31500007BD00AA92422FFF7FEFD1021ADF82410ADF806
S31500007BE02610DAE701200BE0022E03D14FF44050B5
S31500007BF0ADF80E006946204605F0E9FB0546E8B2F9
S31500007C0014B0BDE8F08105F0A5BC80B505F0ADFC6B
S31500007C10C0B202BD80B505F0F1FCC0B202BD7CB5B4
S31500007C20044600200D4616468DF8000001E0FFF7D9
S31500007C3008FE6B46324629462046FFF7EBFF002832
S31500007C40F5D176BD80B505F063FDC0B202BD80B545
S31500007C5005F07EFEC0B202BD0CB40A4680B50146F0
S31500007C6002AB0548FFF72EF8002002BC5DF80CFBBE
S31500007C700000000060410200E1D80000002080F30F
S31500007C801188704742DE704738B504460D46FFF747
S31500007C90D8FD07F055F82946204606F01BFF2B466F
S31500007CA04FEA040275A10120FFF7D6FF29462046B8
S31500007CB0BDE83440E6E768482DE9F8430168674EB9
S31500007CC04FF42068B165026A6549F2650B68336650
S31500007CD049687166426AB266816AF166C26A32674B
S31500007CE0016B7167806B96F83810B06748074CBF18
S31500007CF0346CF46B07F044F85A4B00228442014678
S31500007D003265A14624BFA3F12007A742716506F19B
S31500007D109002DFF854C1DFF854E118D3A06970640B
S31500007D20E469B464B56DC5F30805062D13D1704535
S31500007D3011D360450FD200884DF64264A0420AD1A5
S31500007D407068B46840F201785060946003E00024E3
S31500007D507464B46481464648814202D2014600E01A
S31500007D60091D0846984203D20C68B4F1CD3FF7D0FE
S31500007D704049081AF0640020002106F17C04C5B2CF
S31500007D80401CC7B244F82510062FF8D300209945A9
S31500007D902CD253F8041D7145F9D36145F7D2CC07AF
S31500007DA0F5D5002406F17C0555F824708F4202D0E3
S31500007DB0641C062CF8D3062CE9D1C4B2002C06F1BB
S31500007DC07C040CBF0520401EC5B244F82510DEE732
S31500007DD0F16F002306F17C0506EB8304D4F880409E
S31500007DE045F823405B1C042BF6D911600146481E5A
S31500007DF0C9B20029ECD1B06DC0F30800032810D039
S31500007E00042811D0052812D0062813D00C2817D024
S31500007E103B2818D118480268910719D540F2025834
S31500007E2016E040F6012813E040F6022810E040F67E
S31500007E3003280DE0B8F5206F0AD140F6042807E0C4
S31500007E4040F6052804E018B1502838BF40F6072848
S31500007E504046BDE8F283000004ED00E0000000208B
S31500007E6000E300E0785D00205AFF0100B0640000E6
S31500007E709C000020785D00201880014A0D0A5B41B5
S31500007E8053534552543A25703A25645D0D0A000055
S31500007E902DE9F14181B0FFF7C2F8C4B200250026F2
S31500007EA0E00748BF002020D40027DFF8B08314E0A5
S31500007EB0160111E0BDF80400F9B206F0B2FF18F899
S31500007EC00020F80702F00F02F2D5BDF80400324395
S31500007ED0E9B206F0BEFF6D1C7F1CF8B2A042E9DBDA
S31500007EE0E9B201A806F056FF0120BDE8F68100F1CF
S31500007EF0240100224A80C273C2830A70827300681A
S31500007F00C86070472DE9F74F054682B000208DF80E
S31500007F10010005F1240608E0687B01227072EA730D
S31500007F209DF80000294600F0B0F9039800270024C8
S31500007F3060BB9DF810006946FFF767FE002839D040
S31500007F40262826D00121284600F091F978208DF8C0
S31500007F500000A046102700218DF80110E97B0829B2
S31500007F60E3D8DFE811F00A004A008D00EA00EA00D3
S31500007F7041014D01AC009D00D7E7102FCCD09DF8F4
S31500007F800000232835D10821E973CEE79DF81000BB
S31500007F9020B99DF8010005B0BDE8F08F0398401C9C
S31500007FA0039010F8011D9DF810008DF80010411E79
S31500007FB08DF810109DF80000A04667280ED29DF897
S31500007FC00010A648405C00F0300700F00F0840069D
S31500007FD007D5717A884504DA012402E07B2838BF88
S31500007FE010279DF800000A2818BF0D28B3D10121DB
S31500007FF0B2E7202F99D003202AE1102F1CBF9DF84D
S3150000800000005F2800D01CB130780C28F3DA87E72F
S31500008010202F18BF302F3FD13278002005F11101F3
S315000080208854F0684FF0000901900DE01AF8010B32
S3150000803000F024F91BF8011B81420CD0019809F1CC
S31500008040010900F1100101910199486820B3D1F8A6
S3150000805000A005F1110B9BF800000028E6D19AF864
S3150000806000100029EAD1A5F81E90F068E98B00EB14
S31500008070011200219068A973022228623170EA7306
S31500008080687B002C70722FD02B203072C6F80480CB
S31500008090687B0421707277E70321284600F0E7F831
S315000080A09DF80100002809D0287C20B1696828467F
S315000080B08847002028742846FFF719FF35E79DF802
S315000080C0010018B1284600F0ECF8F4E79DF800002E
S315000080D0232805D1284600F0E4F80820E87324E7B1
S315000080E0202FFCD00420B3E09DF800002D2818BFF7
S315000080F02B2805D1002130727160687B0321C9E706
S3150000810022280AD100210020FFF72CF870800028D1
S315000081100BD000F0A7F80520E0E77B28CFD100219F
S315000081200020FFF71FF87080002800F0908000F014
S3150000813099F810207072062126E744B17068717AAA
S315000081400422EA7301FB0088C6F80480EDE69DF878
S315000081500000782818BF582804D1706810B910217B
S315000081607172E2E69DF80000742818BF542803D106
S31500008170706808B90A21F3E7032956D0202F18BFE3
S31500008180302F52D1296A337A08784A7871682D2BB4
S3150000819008BF4942752808D1342A1AD00020312A4E
S315000081A014BF4FF6FF72FF220FE0732808D1312A61
S315000081B007BF6FF07F007F22294847F6FF7204E071
S315000081C00421284600F053F86AE78142A8BF8A4294
S315000081D008DB0222284600F083F80028F4D00220AB
S315000081E0E8734DE70621ECE79DF8000022281ED132
S315000081F00021284600F08CF80028B2D002206DE756
S315000082009DF800007D280DD17088FFF741FE0446D9
S315000082100121284600F07CF808B10220E873002C02
S315000082209FD102E0202F9CD00CB9072010E0708867
S31500008230FEF7F5FEFF2808BF082009D0012301221A
S31500008240694605F12600FEF7F2FF002889D00220D4
S315000082508DF800009DF800101FE70000984202000C
S315000082600080FFFF002105F1260006F093BD027C89
S315000082701AB90823C37301745FE07047A0F1410186
S315000082801A293CBF2030C0B2704738B50C4694F866
S315000082902450FFF7F3FF611948746D1C84F82450CD
S315000082A031BD10B50446216A087830B162280CBF8A
S315000082B001200220085C2A2807D1216BE28B204688
S315000082C001EB02135968884706E0042061682074B0
S315000082D020468847002020742046BDE810402CE048
S315000082E010B5837B047BA34204D10521FFF7BFFFB2
S315000082F0002010BD846844F82310817B491C8173DB
S31500008300016A8B5C2A2B1CBF89180162012010BDF3
S3150000831080B5026A1378622B04D00421FFF7A7FF09
S31500008320002002BDC38C0022C28403F0FF0303EBCE
S3150000833001210122BDE80840D2E70021837B00E04D
S31500008340491CCAB29A42FBD3C18C0022827301B186
S31500008350C284704700B10C307047FBE706F0AABD37
S3150000836038B50D460446002103F0DCF829462046C0
S3150000837006F002FF08B1002032BD204632BD70B5BE
S315000083800D0006461CBF286800280AD0006810F1B8
S31500008390010F1CBFE868002803D0A86808B10120B7
S315000083A000E000206822412108F0F2FA284606F093
S315000083B084FD002086F8CC00356770674FF6FF74A1
S315000083C001E0401CC0B2E968884209D21C21AA68B3
S315000083D011FB00F11144C989A142F2DA0C00F0D177
S315000083E0DFF834030021016041602146304600F089
S315000083F0D1F8204670BD704710B5044606F04EFF12
S31500008400002C0CBF002004F10C00C06F0100DFF847
S31500008410081308BFDFF80403886010BD10B500F02C
S31500008420C7F92146BDE8104006F08BBFDFF8E80229
S315000084300068704710B50C4606F09EFF1CB106F0AA
S31500008440EBFF0128FBD1DFF8D82253680021032077
S31500008450BDE81040184710F1010F04D0DFF8C41230
S31500008460884288BF0846704710B5040018BF14F14B
S31500008470010F09D0FFF7EFFF642898BF642403D9E2
S315000084802046FFF7E8FF0446204610BD38B50446EF
S315000084900D462868FFF7E8FF28606868FFF7E4FFE5
S315000084A06860A868FFF7E0FFA860E868FFF7DCFFF0
S315000084B0E8602869FFF7CFFF28616869FFF7CBFFFF
S315000084C06861A869FFF7D0FFA8612046FFF745FF5E
S315000084D02946BDE8344008F031B900002DE9F04BDB
S315000084E0426F1AB103898AB29A4250D0046F002CA7
S315000084F01CBFA268002A01D0E26812B90320BDE8B9
S31500008500F08B00258B46D0F88480A94600270646C6
S31500008510002102E009F101091C37E068814524D2F7
S31500008520A268D019C3891FFA8BF29A4222BF028A27
S315000085301FFA8BFC6245EDD30546B5F912205FEABA
S31500008540080003D0B6F9320182420EDAFF2047F660
S31500008550FF739A4205D096F8C010A6F10C0008F0F9
S3150000856027FA727901469042D4D3894615B901207B
S31500008570BDE8F08B5FEA080004D000232A460021FC
S315000085803046C047A6F808B0756786F8C99000203F
S31500008590BDE8F08BF0B581B004460D4608F070FAE0
S315000085A00646A9B22046FFF799FF070006D1002329
S315000085B00022A9B2204600F01FF80746304608F010
S315000085C063FA384601B0F0BD12B581B0D0F88440E8
S315000085D021000BD1417990F8C9309DF804209942C9
S315000085E088BF194607F034FC02B010BD01AB00226B
S315000085F00021A04702B010BD2DE9F04F81B005461D
S315000086000F4614469A4608F065F9434E4FF00008A7
S31500008610B6F80CB0C14608F07CF918B1C6F804806B
S3150000862008F072F9686F7168884213D190B1B8B2D8
S3150000863058450FD15FFA8AF000281CBFE4B2002C1F
S3150000864064D05FFA8AF12846FFF7BEFF404601B0C4
S31500008650BDE8F08F06F0E0FE012803D001210120DD
S31500008660FFF7E8FE3068E8B12A6F90420BD17168D7
S3150000867049B16B6F994206D1B8B28345E4B218BFCF
S315000086804FF0010917E0016861B11268914209D102
S31500008690696F01240A68716811B1096891420AD0AC
S315000086A0416804E0686F296F01240268096828465A
S315000086B007F060FF80465FFA8AF12846FFF784FFDD
S315000086C05FEA08000ED1286FB9F1000F3060696FBC
S315000086D008BF002C716019D0BFB2F760284607F0BA
S315000086E01BFC804694B1B8F101008041C00F40F2F6
S315000086F0A322332108F04CF95FFA8AF1284607F0E5
S3150000870053FF696FB268A5F10C009047404601B06F
S31500008710BDE8F08F0089704710610020F7830000E4
S315000087203063002040420F0001281CBF04280228A5
S3150000873001D1012070470020704738B500F02DF8B0
S3150000874040B16878FFF7F0FF20B1297868780143D7
S31500008750490701D5012032BD29462046BDE83440EF
S3150000876007F04EBA10B500F023F82146BDE81040D8
S31500008770E3E738B500F011F838B16878FFF7D4FFB1
S3150000878000281CBF6878042801D1012032BD294683
S315000087902046BDE8344007F064BA04460D46287802
S315000087A0C2E710B500F004F82146BDE81040E0E746
S315000087B00C46D2E53EB514461D46FFF7CEFDDDE973
S315000087C00623CDE9002322462B4606F02DFD3EBDAD
S315000087D010B5FFF7EDFF2146BDE8104007F0ADBE2E
S315000087E0084608F065B9FEE74EF22311401A56D046
S315000087F0401E69D0401E6AD0401E6BD0401E6CD011
S31500008800401E6DD0401E6ED0393854D0AE386DD073
S31500008810401E6ED0401E6FD0401E70D0401E71D0DC
S31500008820401E72D00B3873D0401E74D0373800F01B
S315000088308A80401E00F08A80401E00F08D80401E17
S3150000884000F08780401E00F08A80C01F2DD01138AE
S3150000885064D04FF4F171401A66D01F3822D08B389D
S3150000886065D0401E69D0401E6AD0401E62D04D3889
S3150000887078D0401E79D012381AD040F21661401ACC
S315000088801CD040F2EB21401A1BD041F29D01401A48
S3150000889002D00C3845D06BE0DFF884077047DFF86C
S315000088A084077047DFF880077047DFF88007704756
S315000088B0DFF87C077047DFF87C077047DFF878073A
S315000088C07047DFF878077047DFF874077047DFF8FE
S315000088D074077047DFF870077047DFF87007704756
S315000088E0DFF86C077047DFF86C0770474FF480308D
S315000088F07047DFF864077047DFF860077047DFF8F6
S31500008900600770474FF481307047DFF858077047AB
S31500008910DFF854077047DFF854077047DFF8500751
S315000089207047DFF8500770474FF483307047DFF821
S3150000893048077047DFF844077047DFF84407704779
S31500008940DFF840077047DFF840077047DFF83C075D
S315000089507047DFF83C0770474FF482307047DFF806
S31500008960340770474FF484307047DFF82C077047A0
S315000089704FF6FF707047000010B5DFF820472078EB
S3150000898004A1FEF7AFFA2078DFF81417BDE810400F
S31500008990FEF7A8BA286C6974746C6520656E646904
S315000089A0616E000001460878A0F130030A2B38BF3B
S315000089B030380AD3A0F14103062B38BF373804D329
S315000089C0A0F16102062A02D25738000100E0002019
S315000089D04978A1F130030A2B38BF30390AD3A1F107
S315000089E04103062B38BF373904D3A1F16102062AA9
S315000089F002D25739081801E00006000FC0B27047CE
S31500008A0038B508F099F802001FD0DFF89856042A06
S31500008A10DFF88846207808BF294608D0062A08BF0E
S31500008A2005F14C0103D0072A04D105F19001FEF7A8
S31500008A3059FA03E005F1D801FEF754FA05F58671F7
S31500008A402078BDE83440FEF74DBA31BD2DE9F84F28
S31500008A50C0B080684FF6FF76DFF840760568FFF70E
S31500008A608BFFA8B208F0B5F98246A8B208F0B1FAB1
S31500008A708046A8B208F034FB8346ACB2B24526D194
S31500008A8000F0C3FA034638782246DFF81C16FEF7D4
S31500008A9029FA00F0BAFA08F08FFB82463878524677
S31500008AA025A1FEF71FFA00F0B0FA08F024FC804674
S31500008AB03878424624A1FEF715FA00F0A6FA08F027
S31500008AC093FC834638785A4623A1FEF70BFAB8F191
S31500008AD0000F387814BFB2450FF200512AD0434632
S31500008AE022460FF24C21FEF7FDF900240FF2F82979
S31500008AF0BEA509E01DF800203878494600F0B9F80F
S31500008B00F0B24045F6DB641CE0B2584510DABBF122
S31500008B10010F434603D17F2201F0D6F906E0E2B207
S31500008B2001F0D2F938782946FEF7DCF90026E7E7A6
S31500008B302946387880E000004164647265737320CA
S31500008B403D202564200D0A0053697A65203D2025C5
S31500008B5064200D0A00000000417272617920736979
S31500008B607A65203D202564200D0A00002DE9F84F86
S31500008B70C0B00546A9684FF6FF760F6800F03AF9CF
S31500008B8000F06EF88046B8B208F0AAFA8346B045FF
S31500008B900DD100F033F908F00FFB00F02EF908F0C4
S31500008BA0AAFB044600F02AF908F01EFC8346DFF80B
S31500008BB0EC74DFF8F8A48EA02CB905F11101FEF7CC
S31500008BC0E8FD514637E0B04505F1110104D1FEF745
S31500008BD0E0FD0AF124012EE0FEF7DBFD387822469F
S31500008BE018A1FEF77FF900250FF2FC190FF2FC1A07
S31500008BF009E01DF800203878494600F03AF8F0B24E
S31500008C00A042F6DB6D1CE8B2584512DABBF1010F43
S31500008C10234604D17F22414601F057F907E0EAB224
S31500008C20414601F052F938785146FEF75BF90026C5
S31500008C30E5E700BF08A13878FEF754F941B0BDE872
S31500008C40F08F00007B73697A653A25647D7B7661D7
S31500008C506C75653A000000007D7D0D0A000000007D
S31500008C600446B8B208F0B5B8F1B228781DF801206C
S31500008C705146761CFEF736B92DE9F047C0B080683C
S31500008C8007684FF6FF794468FFF776FE00F0B2F802
S31500008C908046FFF7E6FF00F0B6F80546CA450CD158
S31500008CA000F0ACF808F088FA00F0AAF808F023FB08
S31500008CB000F0A3F808F098FB0546B8F1000FDFF8BE
S31500008CC0DC63307814BFCA450FF210312BD0A5F102
S31500008CD0010915B1E1B2894506DA00F099F9307853
S31500008CE04B4600F08DF920E04346BAB210A1FEF7DC
S31500008CF0F9F8012D4346514608BF7F24E2B201F040
S31500008D00E4F8307839A52946FEF7ECF8002436A7B2
S31500008D1004E01DF80120394601F0F6F8E1B230789A
S31500008D204145F6DB2946FEF7DDF840B0BDE8F087A1
S31500008D305B2532785D28256429203D002DE9F8471A
S31500008D40C1B080684FF6FF750768FFF715FE00F0A3
S31500008D5051F8FFF785FF00F056F88146AA450DD178
S31500008D6000F04CF808F028FA00F04AF808F0C3FAC8
S31500008D70044600F043F808F037FB8146002CC74F45
S31500008D8018BFAA4505D138780FF25021FEF7AAF888
S31500008D9028E000250FF2502820E019FB04F304FB1D
S31500008DA0056238785B1E4146FEF79CF83878032248
S31500008DB06946FEF734FF6846FFF7F4FD01A98855BA
S31500008DC0761CA642E9DBB9F1010F234601AA14BFBE
S31500008DD0E9B27F21504607F0C2FF6D1C4D45B8BF72
S31500008DE00026EEDBF6E00000202558000D0A000004
S31500008DF07B264E00B8B208F0ECB88046B8B2F3E471
S31500008E008246B8B2F0E48246B8B208F069B900000A
S31500008E102DE9F84FC2B00646B06841680768C9B286
S31500008E20ADF804100846FEF7FAF80446FFF7E2FF2D
S31500008E300546FFF716FFFFF7E6FF4FF6FF7181467F
S31500008E408A450DD1FFF7DAFF08F0B6F9FFF7D8FF2C
S31500008E5008F051FA0546FFF7D1FF08F0C5FA81463A
S31500008E608E4FDFF848B20FF2B418280003D100F095
S31500008E7049F8594637E04FF6FF718A4504D100F0AC
S31500008E8041F80BF124012EE0EA2D05DD00F03AF859
S31500008E90EA220BF14C0106E0AC4208D000F032F8B1
S31500008EA02A460BF198013878FEF71CF81EE00020E0
S31500008EB0BDF8041000902B46002202A805F084FF9E
S31500008EC000240AE0B9F1010F2B4602AA14BFE1B251
S31500008ED07F21504607F043FF641CE0B24845F1DBB2
S31500008EE000F010F803A13878FDF7FCFF43B0BDE8A9
S31500008EF0F08F00007B72657475726E3A307D7D0D61
S31500008F000A00000006F111014046FEF742BC0000CF
S31500008F102DE9F847C1B0806805684FF6FF774668C7
S31500008F20FFF72AFDA8B208F054F80446A8B207F0E5
S31500008F3050FF8246A8B208F0D3F88146BA450ED152
S31500008F4000F063F808F038F9824600F05EF808F0A1
S31500008F50D2F9044600F059F808F046FA8146002C8A
S31500008F604E4D287818BFBA4504D100BF1BA1FDF7A6
S31500008F70B9FF2FE0A9F10107B9F1000F02D0F1B254
S31500008F808F4206DA00F044F828783B4600F038F8BD
S31500008F9020E000270FF2500810E02878631E3A46BA
S31500008FA04146FDF79FFF287803226946FEF737FE04
S31500008FB06846FFF7F7FC01A9C8557F1CA742ECDB02
S31500008FC0B9F1010F234601AA08BF7F26F1B2504628
S31500008FD007F0C5FE42B0BDE8F08700006E6F742052
S31500008FE0666F756E640D0A0064617461206279743F
S31500008FF0655B2564206F662025645D3A00000000ED
S31500009000002204F13801FDF76DBFA8B2FFF7ECBBF3
S31500009010DFF8384D2146FDF765BF00007B264E0080
S3150000902001FF010023E1010075E4010063E2010094
S3150000903063E5010062E1010079EB010064EE0100E5
S3150000904024E1010025E1010026E1010027E10100FC
S3150000905028E1010029E10100800001000001010072
S31500009060800101008002010020E2010000030100EE
S3150000907000050100800501008006010000070100CF
S3150000908001E5010002E5010058E20100800301004C
S31500009090800401008007010080080100F45E0020C2
S315000090A0C8270200F02702003429020068290200BE
S315000090B02DE9F847DFF8985CA5B0FFF75DFC287846
S315000090C0DFF8909C4EF2455200F010FF2878DFF84A
S315000090D0881C0FF28C3AFEF7B5FDDFF8800C01888C
S315000090E0082300F0F7FE002400F009FFE0B208288C
S315000090F0FAD328780FF26C3800F014FF28784EF275
S31500009100453200F0F3FE2878DFF8541C0024FEF701
S3150000911099FDDFF8500C0188082300F0DBFE00F013
S31500009120EEFEE0B20828FAD300F0F6FE28784CF2FC
S31500009130563200F0DBFE2878DFF82C1CFEF782FDA5
S31500009140DFF8280C00F0C4FE00F0D3FE9DF80120E5
S3150000915000F0D1FE641EF3D100F0E3FE28784EF64F
S31500009160735200F0C3FE2878DFF8041CFEF76AFD90
S31500009170DFF8000C0188102300F0ACFE00F0BFFE03
S31500009180E0B21028FAD300F0D0FE28784CF24E2236
S3150000919000F0ACFE28780FF6FC31FEF753FDDFF841
S315000091A0D80B0188102300F095FE00F0A8FEE0B26F
S315000091B01028FAD300F0B0FE28784CF6441200F0DE
S315000091C095FE28780FF6DC31FEF73CFDDFF8AC0B98
S315000091D000F07EFE00F08DFE9DF8012000F08BFE73
S315000091E0641EF3D100F098FE28784DF2430200F099
S315000091F07DFE28780FF6BC31FEF724FDDFF8800BE4
S3150000920000F066FE00F075FE9DF8012000F073FE8A
S31500009210641EF3D100F085FE28784CF2431200F06C
S3150000922065FE28780FF69C31FEF70CFDDFF8540B2F
S3150000923001880223E2B200F048FE9DF8002028785B
S3150000924000F061FE9DF8012000F055FE60B2142882
S31500009250ECDB00F061FE28784DF2463200F046FE67
S3150000926028780FF67031FEF7EDFCDFF81C0B00F0E6
S315000092702FFE00F03EFE9DF8012000F03CFE641E2D
S31500009280F3D100F049FE28784CF2433200F02EFE6E
S3150000929028780FF65831FEF7D5FCDFF8F00A00F013
S315000092A017FE00F026FE9DF8012000F024FE641E45
S315000092B0F3D100F036FE28784CF6535200F016FE35
S315000092C028780FF63C31FEF7BDFCDFF8C40A0188AA
S315000092D0082300F0FFFD00F012FEE0B20828FAD3E2
S315000092E000F01AFE28784DF6540200F0FFFD2878AB
S315000092F00FF62031FEF7A6FCDFF8380C00F0E8FD8B
S3150000930000F0F7FD9DF8012000F0F5FD641EF3D195
S3150000931000F007FE28784DF6432200F0E7FD287896
S315000093200FF6FC21FEF78EFCDFF80C0C01880123FA
S3150000933000F0D0FD00F0DDFD00F0F3FD28784DF6DD
S31500009340482200F0D3FD28780FF6EC21FEF77AFCD0
S31500009350DFF8E80B0188012300F0BCFD00F0C9FD31
S3150000936000F0DFFD28784DF6522200F0BFFD287888
S315000093700FF6DC21FEF766FCDFF8C40B018810232C
S3150000938000F0A8FD00F0BBFDE0B21028FAD300F013
S31500009390CCFD28784DF24E3200F0A8FD28780FF665
S315000093A0D021FEF74FFCDFF89C0B0188102300F05C
S315000093B091FD00F0A4FDE0B21028FAD300F0ACFD58
S315000093C028784CF6544200F091FD28780FF6B42127
S315000093D0FEF738FCDFF8700B0188012300F07AFDF8
S315000093E000F087FD00F09DFD28784CF2543200F025
S315000093F07DFD28780FF69C21FEF724FCDFF84C0B48
S3150000940000F066FD00F075FD9DF8012000F073FD8B
S31500009410641EF3D100F085FD28784CF6533200F037
S3150000942065FD28780FF67821FEF70CFCDFF8200B97
S315000094300188042300F04EFD00F061FDE0B204282F
S31500009440FAD300F072FD28784DF2570200F04EFD77
S3150000945028780FF66021FEF7F5FBDFF8F80A03E03F
S31500009460202558000D0A00000188102300F032FD67
S3150000947000F045FDE0B21028FAD300F056FD28783A
S315000094804CF2573200F032FD28780FF62031FEF705
S31500009490D9FBDFF8C40A0188042300F01BFD00F0A5
S315000094A02EFDE0B20428FAD300F03FFD28784CF6F2
S315000094B0575200F01BFD28780FF60431FEF7C2FB69
S315000094C0DFF8980A0188042300F004FD00F017FD78
S315000094D0E0B20428FAD300F028FD28784DF257525E
S315000094E000F004FD28780FF6EC21FEF7ABFBDFF861
S315000094F0700A0188042300F0EDFC00F000FDE0B2E4
S315000095000428FAD300F011FD28784CF2574200F0F7
S31500009510EDFC28780FF6D021FEF794FBDFF8440A1D
S315000095200188042300F0D6FC00F0E9FCE0B2042830
S31500009530FAD300F0FAFC28784CF2423200F0D6FC5E
S3150000954028780FF6B821FEF77DFBDFF81C0A0188A4
S315000095505C2300F0BFFC00F0D2FCE0B25C28FAD33A
S3150000956000F0DAFC28784DF2433200F0BFFC287890
S315000095700FF69821FEF766FBDFF8F00900F0A8FC6D
S3150000958000F0B7FC9DF8012000F0B5FC641EF3D195
S3150000959000F0C7FC28784CF6431200F0A7FC2878A8
S315000095A00FF67C21FEF74EFBDFF8C4090188142371
S315000095B000F090FC00F0A3FCE0B21428FAD300F00F
S315000095C0B4FC28784DF2423200F090FC28780FF671
S315000095D06821FEF737FBDFF89C090188102300F0AD
S315000095E079FC00F08CFCE0B21028FAD300F09DFC68
S315000095F028784CF2453200F079FC28780FF6542191
S31500009600FEF720FBDFF870090188942300F062FC66
S3150000961000F075FCE0B29428FAD300F086FC2878B6
S315000096204CF24B2200F062FC28780FF63C21FEF744
S3150000963009FBDFF848090188102300F04BFC00F015
S315000096405EFCE0B21028FAD300F06FFC28784DF2E9
S31500009650583200F04BFC28780FF62421FEF7F2FA78
S31500009660DFF81C090188202300F034FC00F047FCD9
S31500009670E0B22028FAD300F058FC28784DF259328F
S3150000968000F034FC28780FF61421FEF7DBFADFF839
S31500009690F4080188202300F01DFC00F030FCE0B245
S315000096A02028FAD300F041FC28784CF64B2200F033
S315000096B01DFC28780FF60021FEF7C4FADFF8C8086B
S315000096C00188222300F006FC00F019FCE0B22228F3
S315000096D0FAD300F02AFC28784CF64B6200F006FC20
S315000096E028780FF6E811FEF7ADFADFF8A008018832
S315000096F0102300F0EFFB00F002FCE0B21028FAD3D2
S3150000970000F013FC28784DF6502200F0EFFB287885
S315000097100FF6CC11FEF796FADFF8740801882023BD
S3150000972000F0D8FB00F0EBFBE0B22028FAD300F003
S31500009730FCFB28784DF6552200F0D8FB28780FF66A
S31500009740AC11FEF77FFADFF84C080188202300F001
S31500009750C1FB00F0D4FBE0B22028FAD300F0E5FB11
S3150000976028784DF6512200F0C1FB28780FF68811B3
S31500009770FEF768FADFF8200801885A2300F0AAFBF2
S3150000978000F0BDFBE0B25A28FAD300F0CEFB2878F1
S315000097904DF6492200F0AAFB28780FF66C11FEF769
S315000097A051FADFF8F8070188012300F093FB00F077
S315000097B0A0FB00F0B6FB28784DF6452200F096FB9C
S315000097C028780FF65811FEF73DFADFF8D40701881E
S315000097D05A2300F07FFB00F092FBE0B25A28FAD33E
S315000097E000F0A3FB28784BF2346200F07FFB287868
S315000097F00FF63C11FEF726FADFF8A80701880823C2
S3150000980000F068FB00F07BFBE0B20828FAD300F01A
S3150000981083FB28784FF6017200F068FB28780FF674
S315000098201C11FEF70FFA02237F22002100F04DFBE8
S3150000983000F05FFB9DF8012000F05DFB641EF2D195
S3150000984000F06FFB28784EF2231200F04FFB2878C9
S315000098500FF60011FEF7F6F904237F22012100F02E
S3150000986034FB00F04CFBE0B20428FAD300F05DFBB9
S3150000987028784EF2754200F039FB28780FF6EC0195
S31500009880FEF7E0F911237F22022100F01EFB00F013
S3150000989036FBE0B21028FAD900F047FB28784EF2E2
S315000098A0632200F023FB28780FF6D401FEF7CAF9ED
S315000098B004237F22032100F008FB00F020FBE0B226
S315000098C00428FAD300F031FB28784EF2635200F0F8
S315000098D00DFB28780FF6BC01FEF7B4F904237F22AE
S315000098E0042100F0F2FA00F00AFBE0B20428FAD3F1
S315000098F000F012FB28784EF2621200F0F7FA287890
S315000099000FF6A401FEF79EF902237F22052100F03F
S31500009910DCFA00F0EEFA9DF8012000F0ECFA641E85
S31500009920F2D100F0FEFA28784EF6793200F0DEFA2F
S3150000993028780FF68C01FEF785F911237F22062180
S3150000994000F0C3FA00F0DBFAE0B21028FAD900F012
S31500009950ECFA28784EF6646200F0C8FA28780FF61A
S315000099606C01FEF76FF910237F22072100F0ADFA94
S3150000997000F0C5FAE0B21028FAD300F0D6FA28783B
S315000099804EF2241200F0B2FA28780FF65001FEF7D4
S3150000999059F91A237F22082100F097FA00F0AFFA4E
S315000099A0E0B21A28FAD300F0C0FA28784EF225124F
S315000099B000F09CFA28780FF63801FEF743F90823E1
S315000099C07F22092100F081FA00F099FAE0B2082816
S315000099D0FAD300F0AAFA28784EF2261200F086FA98
S315000099E028780FF62801FEF72DF90A237F220A218F
S315000099F000F06BFA00F083FAE0B20A28FAD300F01E
S31500009A008BFA28784EF2271200F070FA28780FF6B3
S31500009A101001FEF717F902237F220B2100F055FAF9
S31500009A2000F067FA9DF8012000F065FA641EF2D195
S31500009A3000F077FA28784EF2281200F057FA2878C4
S31500009A400FF2FC71FEF7FEF818237F220C2100F0BE
S31500009A503CFA00F054FAE0B21828FAD328784146C6
S31500009A60DFF84445FDF73EFA28784EF2291200F059
S31500009A703DFA28780FF2E4710026FEF7E3F8012399
S31500009A807F220D2100F021FA00F033FA00F049FAA6
S31500009A9028784EF2102200F029FA28780FF2D471B5
S31500009AA0FEF7D0F800F03DFA28784EF2112200F0C9
S31500009AB01DFA28780FF2D871FEF7C4F800F031FAD3
S31500009AC028784EF2122200F011FA28782146FEF785
S31500009AD0B9F800F026FA28784EF2132200F006FABA
S31500009AE0287804F12401FEF7ADF800F01AFA287878
S31500009AF04EF2142200F0FAF9287804F14801FEF734
S31500009B00A1F800F00EFA28784EF2152200F0EEF9D0
S31500009B1028780FF29C71FEF795F800F002FA287883
S31500009B204EF2202200F0E2F9287804F17001FEF7E7
S31500009B3089F804237F22142100F0C7F9FFF794F86F
S31500009B40F0B20428FAD300F0E2F928784EF2212286
S31500009B5000F0CCF9287804F19401FEF773F800F0D0
S31500009B60E0F928784EF2742200F0C0F928780FF256
S31500009B706071FEF767F800F0D4F928784FF60D7299
S31500009B8000F0B4F928780FF25C71FEF75BF80B234E
S31500009B90F2B2172100F099F9002700F09FF9F8B208
S31500009BA00A28FAD9761C71B20529F0DD00F0AFF962
S31500009BB028784EF2564200F099F928780FF238715B
S31500009BC0FEF740F800F0ADF928784FF4654200F052
S31500009BD08DF928780FF23071FEF734F800F0A1F90C
S31500009BE028784EF2035200F081F928780FF230718E
S31500009BF0FEF728F80123F2B21A2100F066F99DF863
S31500009C0000202878FFF734F870B20528F2DD00F05E
S31500009C107EF928784EF2015200F068F928780FF2A2
S31500009C201C71FEF70FF810237F221B2100F04DF95F
S31500009C30FFF71AF8F0B21028FAD300F068F928787E
S31500009C404EF2025200F052F928780FF20071FDF739
S31500009C50F9FF28237F221C2100F037F9FFF704F8CB
S31500009C60F0B22828FAD300F052F928784EF258229A
S31500009C7000F03CF928780FF2E861FDF7E3FF1223C4
S31500009C807F221D2100F021F9FEF7EEFFF0B2112828
S31500009C90FAD900F03CF928784EF2592200F026F95C
S31500009CA028780FF2CC61FDF7CDFF3423F2B21E21E6
S31500009CB000F00BF9002700F011F9F8B23428FAD3B6
S31500009CC0761C71B20529F0DB00F02BF928784EF2EC
S31500009CD05B2200F00BF928780FF2AC61FDF7B2FFBA
S31500009CE000F01FF928784EF25A2200F0FFF8287883
S31500009CF00FF2AC61FDF7A6FF00F013F928784EF2DB
S31500009D005C2200F0F3F828780FF2A861FDF79AFFBD
S31500009D1000F007F928784EF2505200F0E7F828785C
S31500009D200FF2B061FDF78EFF00F0FBF828784EF2D7
S31500009D30515200F0DBF8287804F1C001FDF782FFEC
S31500009D4000F0EFF826B0BDE8F08700004C2A0200CC
S31500009D50F45E0020902B0200982B0200E67B0200A6
S31500009D60AC2B0200E87B0200C02B0200EA7B02005B
S31500009D70D42B0200EC7B0200EE7B0200F07B02009B
S31500009D80F27B0200F47B0200F67B0200F87B020005
S31500009D90FA7B02004D46475F424F4152445F4E41B7
S31500009DA04D4500004D46475F4D414E55465F49447F
S31500009DB0000000004D46475F5048595F434F4E46EE
S31500009DC0494700004D46475F4153485F434F4E4663
S31500009DD0494700004D46475F53594E54485F465227
S31500009DE045515F4F46465345540000004D46475F78
S31500009DF04343415F5448524553484F4C440000008A
S31500009E004D46475F455A53505F53544F524147455D
S31500009E10000000004D46475F584F5F54554E4500C1
S31500009E204D46475F5A574156455F434F554E54522C
S31500009E30595F4652455100004D46475F5A574156B5
S31500009E40455F48575F56455253494F4E0000000044
S31500009E504D46475F5A574156455F50534555444F07
S31500009E605F52414E444F4D5F4E554D4245520000A4
S31500009E704D46475F53455249414C5F4E554D42450D
S31500009E80520000004D46475F4C46584F5F54554EB2
S31500009E90450000004D46475F4354554E45000000BF
S31500009EA04D46475F4B49545F5349474E41545552BF
S31500009EB0450000004D46475F4C4F434B42495453C3
S31500009EC05F504C57000000005146684606F016BF2A
S31500009ED0018802237F22684606F010BFF9B228786F
S31500009EE01DF8012051467F1CFCF7FCBF4946FCF7D4
S31500009EF0F9BF9DF8002028785146FCF7F3BFE1B280
S31500009F0028781DF801205146641CFCF7EBBF287821
S31500009F1041460026FCF7E6BF287841460124FCF7B7
S31500009F20E1BF28784146FCF7DDBF2878414600248A
S31500009F30FCF7D8BFFC7B0200FE7B0200007C02001F
S31500009F40027C0200047C0200067C0200087C0200FF
S31500009F500A7C02000C7C02000E7C0200107C0200CF
S31500009F60127C0200147C0200167C0200187C02009F
S31500009F701A7C02001C7C02001E7C0200207C02006F
S31500009F80227C0200247C0200267C0200287C02003F
S31500009F902A7C02002C7C02002E7C0200307C02000F
S31500009FA0327C0200347C0200A82A02004D46475F3C
S31500009FB04C4F434B424954535F434C5730000000CB
S31500009FC04D46475F4C4F434B424954535F4D4C57A8
S31500009FD0000000004D46475F4C4F434B42495453E7
S31500009FE05F554C57000000004D46475F4C4F434BB2
S31500009FF0424954535F444C57000000004D46475FAA
S3150000A00043424B455F444154410000004D46475F83
S3150000A01053454355524954595F434F4E46494700AD
S3150000A0204D46475F494E5354414C4C4154494F4E5F
S3150000A0305F434F44450000004D46475F5345435537
S3150000A04052455F424F4F544C4F414445525F4B453A
S3150000A050590000004D46475F43424B455F32383357
S3150000A0604B315F44415441004D46475F424F4F5488
S3150000A0704C4F41445F4145535F4B4559000000003A
S3150000A0804D46475F5349474E45445F424F4F544CF8
S3150000A0904F414445525F4B45595F58004D46475F17
S3150000A0A05349474E45445F424F4F544C4F414445F8
S3150000A0B0525F4B45595F59004D46475F54485245DC
S3150000A0C041445F4A4F494E5F4B4559004D46475FF5
S3150000A0D04E564D335F43525950544F5F4B455900CE
S3150000A0E04D46475F5A575F50524B00004D46475FFB
S3150000A0F05A575F50554B00004D46475F5A575F51C0
S3150000A100525F434F444500004D46475F5A575F49EB
S3150000A1104E495449414C495A454400004D46475F13
S3150000A1205A575F51525F434F44455F4558540000AC
S3150000A1304D46475F4555495F363400005354414309
S3150000A1404B5F4E56444154415F56455253494F4E1C
S3150000A15000000000535441434B5F4150535F465249
S3150000A160414D455F434F554E54455200535441436C
S3150000A1704B5F414C5445524E4154455F4B45590047
S3150000A180535441434B5F424F4F545F434F554E54D8
S3150000A19045520000535441434B5F4E4F4E43455F7B
S3150000A1A0434F554E54455200535441434B5F414E25
S3150000A1B0414C595349535F5245424F4F540000009A
S3150000A1C0535441434B5F4B4559530000535441434D
S3150000A1D04B5F4E4F44455F44415441005354414305
S3150000A1E04B5F54525553545F43454E5445520000FD
S3150000A1F0535441434B5F4E4554574F524B5F4D416D
S3150000A2004E4147454D454E540000000053544143CE
S3150000A2104B5F504152454E545F494E464F00000039
S3150000A220535441434B5F504152454E545F41444461
S3150000A2304954494F4E414C5F494E464F000000007D
S3150000A240535441434B5F4D554C54495F5048595FF9
S3150000A2504E574B5F494E464F000000005354414352
S3150000A2604B5F4D494E5F52454345495645445F5203
S3150000A270535349004D554C54495F4E4554574F5220
S3150000A2804B5F535441434B5F4B455953000000000D
S3150000A2904D554C54495F4E4554574F524B5F53549E
S3150000A2A041434B5F4E4F44455F44415441000000DB
S3150000A2B04D554C54495F4E4554574F524B5F53547E
S3150000A2C041434B5F504152454E545F494E464F0005
S3150000A2D0535441434B5F42494E44494E475F5441B4
S3150000A2E0424C4500535441434B5F4348494C445FFD
S3150000A2F05441424C45000000535441434B5F4B458B
S3150000A300595F5441424C4500535441434B5F4345CA
S3150000A3105254494649434154455F5441424C4500D5
S3150000A320535441434B5F4144444954494F4E414C79
S3150000A3305F4348494C445F444154410053544143B0
S3150000A3404B5F5A4C4C5F44415441000053544143C7
S3150000A3504B5F5A4C4C5F5345435552495459000084
S3150000A360535441434B5F47505F4441544100000002
S3150000A370535441434B5F47505F50524F58595F54B7
S3150000A38041424C4500000000535441434B5F475047
S3150000A3905F494E434F4D494E475F4643000000001C
S3150000A3A0535441434B5F47505F53494E4B5F5441B3
S3150000A3B0424C4500535441434B5F47505F494E431F
S3150000A3C04F4D494E475F46435F494E5F53494E4B9B
S3150000A3D0000000004D554C54495F50414E5F5354A8
S3150000A3E041434B5F4348494C445F5441424C45000E
S3150000A3F010B540F2A17407F0DBF8C440E0070BD5B6
S3150000A400064C207807F0F2F8207807F097F92078C4
S3150000A410BDE8104007F05FBA10BD00BFF45E002033
S3150000A4205FF02A010AA0FDF72FBC000010B501F06D
S3150000A430DFFA044601F0D2FA0246044800782346C1
S3150000A44007A1BDE81040FCF74DBD0000F45E0020FA
S3150000A45072657365742D746573742E630000000055
S3150000A46052455345543A25702D25700D0A000000BB
S3150000A47010B50446002002F008F9002002F024F985
S3150000A48007F0F2FA012002F073F8204607F086FD85
S3150000A4902046BDE8104000F031BF80B5022100F033
S3150000A4A031F9009807F06EFE01BD80680068C1B200
S3150000A4B00229A8BF0FF20C5305DA002914BF0FF2C8
S3150000A4C010530FF21453DFF8AC140870DFF8A80429
S3150000A4D0D0F810130FF2DC42FFE70FF2CC40FDF785
S3150000A4E058B90000F8B501F0A6FFDFF8904404EB78
S3150000A4F08000C368DFF88004D0F850130FF26C5266
S3150000A5000FF24C50FDF745F9DFF87404006807F0C8
S3150000A51082FE0546052814D8DFE800F003100E0970
S3150000A5200C060FF200520EE00FF2EC420BE00FF2B7
S3150000A530DC4208E079A206E079A204E00FF2C44208
S3150000A54001E00FF2EC420FF200510FF2F440FDF77A
S3150000A55020F900260FF2E047F0B254F8201005F07B
S3150000A56001023846FDF715F9761C6D08F0B202288F
S3150000A570F2D96CA0BDE8F240FDF70BB938B5044638
S3150000A580A068DFF8F423D2F8601305680FF2E840FC
S3150000A590FDF7FFF8EDB215B1012D07D00CE00FF273
S3150000A5A0E040FDF7F6F801F075FE05E00FF2E44035
S3150000A5B0FDF7EFF801F03DFF0FF2E840FDF7E9F88F
S3150000A5C02046BDE832408DE7F8B507460D4684B013
S3150000A5D0284601F005FB0446284601F0A6FC06467F
S3150000A5E00FF23C523CB92B4607F111010FF21850FD
S3150000A5F0FDF7CFF810E00FF23850029005F01F007B
S3150000A6000FF224510190009103942B4607F111019A
S3150000A610DFF87003FDF7BDF80FF2BC44AE4205D07B
S3150000A62032460FF214512046FDF7B3F8284601F0E2
S3150000A63063FC0FF278430FF27C4110F1010F02D157
S3150000A6400FF2784202E018B90FF2784218460BE092
S3150000A650DFF83423B0FBF2F2DFF82C1301FB120112
S3150000A66029B90FF27C412046FDF793F813E0DFF895
S3150000A6701C2313784FF47A74B0FBF4F2214601FBE5
S3150000A680120100290EBF0FF2604102460FF2684127
S3150000A6901846FCF727FC05B022A0BDE8F040FDF700
S3150000A6A078B810B5044601F0E5FB01462046BDE842
S3150000A6B0104089E738B5054601F0BDFE0400DFF815
S3150000A6C0B802D0F8301318BF0124DFF8C402FDF732
S3150000A6D060F801F0AEFEA8680068C0B201F0E2FAC8
S3150000A6E002460FF218310FF25840FDF752F80CB13E
S3150000A6F001F0D0FD01F0BEFB01462846BDE834401E
S3150000A70062E70121684601F0C2B910B5044602F0BD
S3150000A71086F800F002F98AA23CE1000054780000B5
S3150000A720527800007D0D0A002DE9F04F85B00646EF
S3150000A7300C4615461F4601F07EFE010018BF01219A
S3150000A7408DF8031001F09BFE8DF80200002D16D146
S3150000A7500125022001F096FE642004F0ECF801F0D9
S3150000A76089FB8DF801000290049603975CB9029E5E
S3150000A7700120002106F01F0400FA04F409E0E8D5E0
S3150000A7806D420020E6E7E00E4601F6B224F078447A
S3150000A7900121019115E0049833464A4600F1110162
S3150000A7A00FF2D430FCF7F5FF04E0FCF7F2FF6EA0E1
S3150000A7B0FCF7EFFF9DF8000001218140641A761C2A
S3150000A7C0F6B2002C69D006F01F008DF8000024FABE
S3150000A7D000F2D007F3D501F04DFB0FF24C3986425B
S3150000A7E004D0F0B201F05EFA0028D4D14FF07F0A0F
S3150000A7F06FF07F080027AB460DE0802004F09BF841
S3150000A80001F034FFC7198045ABF1010BB8BF804694
S3150000A8105045B8BF8246BBF1000FEEDC9DF8400004
S3150000A82097FBF5F758B1504601F0A2FB824678B285
S3150000A83001F09EFB0746404601F09AFB80460498CD
S3150000A84000F1110149A0FCF7A4FF019828B1324696
S3150000A85049460FF2E410FCF79CFF03980FF2F42927
S3150000A86020B1014652464846FCF793FF0E9820B1A8
S3150000A87001463AB24846FCF78CFF0F9820B10146D4
S3150000A88042464846FCF785FF9DF84000002814BF65
S3150000A8900FF2C8200FF2D82087E7029886421CBF25
S3150000A8A09DF8010001F0FEF99DF8020001F0EAFDB5
S3150000A8B09DF8030020B105B0BDE8F04F01F0EABCF9
S3150000A8C005B0BDE8F08FE0B500210291019100913D
S3150000A8D00FF2C423012208E0E0B501210022029113
S3150000A8E00192009222A301220021FFF71DFF07BD5E
S3150000A8F03EB5847B00218368022C1A680FF2B024CF
S3150000A9000FF2A425A8BF596800230293019400956D
S3150000A9100FF28C23FFF708FF37BD034604F1110140
S3150000A920704780B501F0F0FF03461348D0F8B01326
S3150000A9300FF294220FF28020BDE80050FCF729BFE9
S3150000A940434341000C4A10B5D2F8C01304460FF237
S3150000A9508820FCF71EFFA068016848B201F0A4FF3A
S3150000A9602046BDE81040DCE77D0D0A007B264E0040
S3150000A97045440000F4630020281602002C5F0020E6
S3150000A98020650020182C020040420F00F45E0020D3
S3150000A9903C2C02006CA0BDE81040FCF7FABE8168B2
S3150000A9A00968C9B210E600007B264E202674737D26
S3150000A9B00D0A00005045522054657374204D6F6493
S3150000A9C065000000656E61626C65642D6E657700DA
S3150000A9D0656E61626C65640064697361626C65646E
S3150000A9E00000000061736C65657000006177616B43
S3150000A9F065000000656E65726779000073746174A6
S3150000AA007573000049646C6500000000527841636C
S3150000AA107469766500000000547841637469766550
S3150000AA2000000000496E61637469766500000000ED
S3150000AA30556E6B6E6F776E002026746800000000FE
S3150000AA40202674730000000052665374617465001A
S3150000AA507B264E20526164696F20706F7765722085
S3150000AA60737461746520267473000000706F7765D7
S3150000AA7072207374617465007B264E20000000000E
S3150000AA80536C656570696E6720726164696F2E2EFE
S3150000AA902E00000057616B696E6720726164696FF2
S3150000AAA02E2E2E00646F6E657D0D0A0020267470B2
S3150000AAB0000000006672657100000000696C6C653C
S3150000AAC067616C0050657252616D526164696F43D3
S3150000AAD06F6E66696700000020267475000000002E
S3150000AAE0667265714D487A00207B667265714B48C7
S3150000AAF07A3A256C7D000000207B66726571487A83
S3150000AB003A256C7D000000007B264E205261646968
S3150000AB106F206368616E6E656C20267468000000A5
S3150000AB206368616E6E656C006368616E00000000AC
S3150000AB3070616765000000005074694368616E00CB
S3150000AB402674687D0D0A00007B264E202674647DDF
S3150000AB500D0A00002026746400000000205B3830D7
S3150000AB60322E31352E3420756E6974735D00000007
S3150000AB70205B64426D5D00007B264E2026746820B3
S3150000AB805B696E76616C6964206368616E6E656C84
S3150000AB905D7D0D0A0000000052535349000000007D
S3150000ABA06D696E525353490061766752535349009B
S3150000ABB06D617852535349007B264E2026746420DB
S3150000ABC064426D7D0D0A000043434120546872655E
S3150000ABD073686F6C640000007B264E7D0D0A0000D2
S3150000ABE080B5002001F043FFBDE8014007F04CBAF4
S3150000ABF010B5DFF8CC40607DDFF8C830012218714F
S3150000AC00E0694FF47A7107F0F6FB01001CBF0121E1
S3150000AC10217510BDDFF8A810C861887DDFF8A41083
S3150000AC204871E5E770B58EB00C460CA807F0DAFB64
S3150000AC30054607F00FFC064607F0D0FBBDF83610B8
S3150000AC400FF24C020A920B91BDF834100FF2480233
S3150000AC5008920991BDF83210BDF830300FF240026B
S3150000AC600791069205930FF2400103950FF24002F9
S3150000AC70049102920FF24005034601960095DFF813
S3150000AC8048202146DFF84400FCF783FD0EB070BD76
S3150000AC907375737000000000637269740000000031
S3150000ACA06C696D690000000074616C6B0000000047
S3150000ACB07573656400000000616363656C000000E5
S3150000ACC0485F00204C650020D0AC0000882D0200B3
S3150000ACD06D6F6465000000002DE9F0470646884662
S3150000ACE0924607F0A8FBDFF86C72F8700409387812
S3150000ACF018BF641E28B1386B07EB8000416A491CF7
S3150000AD004162BE700FF24419DFF840528C2E43D0D8
S3150000AD1001F0A2FB66B1402E22D0882E18BF892EE4
S3150000AD204DD08C2E38D08D2E34D08F2E0CD03BE0CB
S3150000AD303869396A401C386164183C62287D0028ED
S3150000AD403DD040F23A5137E0B869396A401CB861E3
S3150000AD5064183C62287D002831D040F23F512BE038
S3150000AD60F869396A401CF861387864183C6260B149
S3150000AD7007F080FB032806D1786B401C7863386B9C
S3150000AD8080F00100386307F077FB287DB8B140F208
S3150000AD904B5111E007F04CFB7869401C7861287D27
S3150000ADA068B140F2525107E03246DFF890150120B3
S3150000ADB0FCF752FF40F263514846FCF765FF87F8FF
S3150000ADC001A0C7F83C80402E19D13879012811DD41
S3150000ADD03989491C3981411E3971C9B22A2007F0C7
S3150000ADE057FBE86900224FF47A7107F004FB064628
S3150000ADF028B929E000212A2007F04AFB03E0002EAB
S3150000AE0018BF8F2E1ED0787901281BDD7989401E48
S3150000AE107871491C7981DFF82805017801290ADD56
S3150000AE20E969DFF82005814205D10278082A02DDAA
S3150000AE30C178491CC170688B03F07DFDBDE8F04701
S3150000AE40FFF7D6BE01202875BDE8F0877068792D1A
S3150000AE50636F6D6D6F6E2D74782D746573742E63CC
S3150000AE600000000080B501F009F80346DFF8DC04B5
S3150000AE70D0F8A01408E0000080B501F014F80346ED
S3150000AE80DFF8C804D0F8C0140FF20C0205A0BDE824
S3150000AE900050FCF77EBC000061637475616C506FF6
S3150000AEA0776572007B264E2026746464426D7D00B1
S3150000AEB03EB50446A1680D6868B200F0F0FF00F0E8
S3150000AEC028F8D0F8B0146BB200F01DF820A0FCF7FB
S3150000AED060FC2046BDE83E40C4E700003EB504469F
S3150000AEE0A1680D6828B200F0EBFF00F012F8D0F868
S3150000AEF0D0142BB200F007F815A0FCF74AFC204648
S3150000AF00BDE83E40B8E70FF298420FF28440FCF7E6
S3150000AF1040BC01900FF270410091DFF83004704799
S3150000AF20E0B5DFF82C140B8B0FF2B042009200F163
S3150000AF30110101930FF28C420FF2744038E18168DF
S3150000AF40DFF80C340A681A83EAE70000485F00203D
S3150000AF500D0A00004C6500202DE9F14F84B0816890
S3150000AF604FF0010A0A88511E8941C90F01920291C8
S3150000AF7001F061FA00B101208DF80100DFF8C85335
S3150000AF8068694FF0000BD846ADF802000198DFF86B
S3150000AF90C063DFF8C073012811D000F000F90299F0
S3150000AFA0387821B10FF25441FBF79CFF03E0019A78
S3150000AFB074A1FBF797FF00F0ECF800F0E5F8DFF876
S3150000AFC08443DFF89493802249462046FCF702FC2E
S3150000AFD0DFF86C0301780129C4BF2078082819DD41
S3150000AFE099F80110D04601F0200141F0C1016170CD
S3150000AFF01821A1702118029818B101F805BC00208B
S3150000B00004E0019801F8050C0198001221786118F6
S3150000B01001F8040CD94661E000208DF8000038786C
S3150000B02000F0E6F800F0C0F85ED09DF80010387821
S3150000B030642906D100F09EF8049800F11101002061
S3150000B04007E0442907D100F095F8049800F11101B2
S3150000B0500120FFF7E7FD09F101001FFA80F9DFF88B
S3150000B060FC12087820B100F021FD08B107F016FAAD
S3150000B07000F085F8DFF8C8120878A0B1B8F1000F23
S3150000B08018BF84F803A0207803280CDD201800F8E8
S3150000B09003AC21784FEA2A20611801F8020C0AF164
S3150000B0A001001FFA80FA002030750121A9702046A0
S3150000B0B0FFF7B0FD8346B8B903F0CCFC8346307D7C
S3150000B0C050B9FFF78DFD03F0C5FCA0EB0B0080B275
S3150000B0D040F2D1718842F2D395F802B00298002866
S3150000B0E09AD10198814597DB387800F043F8707B58
S3150000B0F0DFF86C4238B1AA8ABDF802002146121A5E
S3150000B1003878FBF7EFFE38785A460FF23031FBF706
S3150000B110E9FEDFF85002028838780FF23C31FBF77F
S3150000B120E1FE38780FF25031FBF7DCFE69783878AB
S3150000B130002914BF0FF25C310FF26031FBF7D2FE2B
S3150000B14001F0A0FB28B1AA6B387804F12401FBF7C3
S3150000B150C9FEEA6B387804F15001FBF7C3FE6420A0
S3150000B16003F0E9FB9DF8010008B101F093F805B082
S3150000B170BDE8F08F4A460FF2A821FBF7B3BE308B2D
S3150000B18003F0D9BB2575000038780FF2F011FBF7F4
S3150000B190A9BE328B38780FF27021FBF7A3BE387840
S3150000B1A00FF25021FBF79EBE9DF800006528704700
S3150000B1B0FCF7EFFA07BD38B500F03BF80400DFF8FE
S3150000B1C09451287818BF01240FF2B011FBF78AFEBC
S3150000B1D001F02FF901F0E4FA02E0287800F008F80F
S3150000B1E0FFF7E2FFF9D101F0EAFA1EE09AF8000053
S3150000B1F06946FCF70ABD38B500F01BF80400DFF815
S3150000B2005451287818BF01240FF27011FBF76AFE1B
S3150000B21001F00FF901F0E2FA02E02878FFF7E8FF03
S3150000B220FFF7C2FFF9D101F0F9FA0CB101F032F8DB
S3150000B23031BD00208DF8000001F0FDB82DE9F04188
S3150000B240DFF8104120780FF25C210026FBF74AFE5A
S3150000B2500FF260250FF25428DFF8FC7015E0BA5D96
S3150000B26020784146FBF73EFE711006EB9172921074
S3150000B270B6EB820007D139788E4204DA207832465E
S3150000B2802946FBF72FFE761CF6B23878401C86421C
S3150000B290E5DBBDE8F0818068DFF8BC20016811704D
S3150000B2A070472DE9F8430446A068DFF8A850DFF898
S3150000B2B0B89006680020DFF8A070761CF6B200F1A0
S3150000B2C00108802E05DAA16801EB80004368BB55B2
S3150000B2D005E028784346721E4946FBF703FE4046C2
S3150000B2E00428EADBBDE8F1831B4814210170012123
S3150000B2F04A1E4254491C8029FAD3704710B5124899
S3150000B3000021016141618161C1610162174B1960D0
S3150000B310174C216001814181164A116010BD806879
S3150000B3200B49007828B101224A73022802D1012074
S3150000B33001E048730020104908707047D02D0200C4
S3150000B340F4630020AC6900204C650020281602003A
S3150000B350485F0020F45E00202C690020F563002081
S3150000B360042E02007E6C0020842E0200FC76002053
S3150000B370F8760020C87700200D6500202765276E27
S3150000B380642E2E2E00000000737461747573000025
S3150000B3907B264E2026746464426D202674647D00EC
S3150000B3A0726571756573746564506F7765720000B8
S3150000B3B07B264E2026746475732026743278757346
S3150000B3C07D0000007472616E736D69742064656C33
S3150000B3D06179202864656329000000007472616E3B
S3150000B3E0736D69742064656C6179202868657829B5
S3150000B3F0000000005478696E67200000696E666977
S3150000B4006E69746500000000207061636B6574737B
S3150000B4102025752075732061706172742E200000DE
S3150000B4200D0A2575207061636B65747320747261F3
S3150000B4306E736D69747465642E0D0A004C617374C5
S3150000B440207061636B6574207374617475733A2040
S3150000B45030782532780D0A004C6173742070616370
S3150000B4606B6574206261636B6F66663A203078257F
S3150000B47032780D0A000000004672616D6520706525
S3150000B4806E64696E6720696E206C61737420414337
S3150000B4904B3A20005965732E0D0A00004E6F2E0D93
S3150000B4A00A000000206C656E3A200000307825788E
S3150000B4B0200000000D0A307825783A2000000000B0
S3150000B4C0130018BF01231A46FFF706BC0901020044
S3150000B4D003D4DFF8380581547047DFF8343502F0BD
S3150000B4E00F021A4402F8041C704730B500F007003A
S3150000B4F00123C0F10704052C2EBF0F2403FA04F420
S3150000B500641E051D072D34BF0020C01E214081404A
S3150000B51003FA00F0401E1040084330BD002070477B
S3150000B5200020704770471CB572B603F009FCDFF8BF
S3150000B530E4044169DFF8E0440022216000F038FAB3
S3150000B54001466FF00B00FFF7C1FF00F030FA01462D
S3150000B5506FF00A00FFF7BAFF00F029FA01466FF014
S3150000B5600900FFF7B3FF00F01EFA01466FF008006E
S3150000B570FFF7ACFF00F017FA01466FF00700FFF780
S3150000B580A5FF00F010FA01466FF00600FFF79EFFD8
S3150000B59000F009FA01466FF00500FFF797FF002259
S3150000B5A0022100F002FA01466FF00400FFF78EFF59
S3150000B5B000F001FA01466FF00300FFF787FF00F085
S3150000B5C0F2F901466FF00200FFF780FF0022072123
S3150000B5D000F0EBF901466FF00100FFF777FF00F08E
S3150000B5E0EAF901464FF0FF30FFF770FF00F0E3F98C
S3150000B5F001460020FFF76AFF00F0DDF90146012051
S3150000B600FFF764FF00F0D7F901460220FFF75EFF5F
S3150000B61000F0D1F901460320FFF758FF00F0CBF9FF
S3150000B62001460420FFF752FF00F0C5F90146052048
S3150000B630FFF74CFF00F0BFF901460620FFF746FF73
S3150000B64000F0B9F901460720FFF740FF00F0B3F913
S3150000B65001460820FFF73AFF00F0ADF90146092040
