S03E0000786E63702D636F6D6D736875622D756172742D6475616C5F65667233326D673132703233326631303234676D34385F62726434313930612E73333744
S113000050D50120D97D0300C18200007579030019
S1130010A70A02020002000004180CAC306A29018D
S113002000000000000000000000000000000000CC
S113003000000000B0840300000000000000000085
S11300400000000000000000FFFFFFFFFFFFFFFFB4
S1130050FFFFFFFFFFFFFFFFFFFFFFFFFFFFFFFFAC
S113006000E00F000000000000000000FFFFFFFFA1
S1130070FFFFFFFF1C000000000000000000000064
S1130080000000000000000090FD012090FD012010
S113009050D50120D8B103005E7E0300F0CB0120CF
S10F00A07412002000001000000000009A
S113020050D50120D97D0300C18200007579030017
S1130210291C0100797903007D79030000000000A6
S11302200000000000000000000000001B1F000090
S113023081790300DF110000A32200005380000035
S1130240051E0100FF2903009D0C000089790300AD
S1130250D9240300392A0300052A0300072A0300CE
S1130260012A03005DB50200DDB702005D730100E1
S1130270679D000089790300897903004F7B03009F
S11302808979030089790300EBB7020089790300B7
S11302908979030089790300897903008979030046
S11302A08979030089790300897903008979030036
S11302B03B2A0300032A030099C302006F2A0300A8
S11302C089790300CD7C03008979030089790300CF
S11302D08979030089790300897903008979030006
S11302E089790300897903008979030089790300F6
S11302F089790300897903008979030089790300E6
S11303008979030089790300000000005041034803
S1130310016830BF41F000410160704700BF4C31BB
S11303200E401248816B89B201B1012141F671324C
S1130330826346F21A32036843F001030360C26425
S11303404FF4807343604269D307FCD44FF40072C6
S1130350420C00180022C264C9B203685B085B0047
S1130360036001B182630020704708000E40000062
S11303701521054800F00EF8FEE780B500F01CF9E1
S11303800249086001BD0000607E0300B4D501206D
S113039042DE704738B504460D4600F04DFC00F0CF
S11303A0BAFC00F0DBFC2946204600F0DDFC2B46BD
S11303B022466C49012000F0ACFE29462046BDE8E7
S11303C03440E5E768482DE9F843684E0168B165B3
S11303D04FF42068026A6649F2650B68336649681F
S11303E07166426AB266816AF166C26A3267016BFB
S11303F07167806B96F83810B06748074CBF346C4F
S1130400F46B00F0BFFE002232658442594B014672
S113041024BFA3F12007A742A146716506F190020B
S1130420DFF854C1DFF854E118D3A0697064E469BB
S1130430B464B56DC5F30805062D13D1704511D309
S113044060450FD200884DF64264A0420AD170681C
S1130450B4685060946040F2017803E0002474644E
S1130460B46481464648814202D2014600E0091D37
S11304700846984203D20C68B4F1CD3FF7D0414905
S1130480081AF0640021002006F17C04C5B2401C67
S1130490C7B244F82510062FF8D3002099452CD272
S11304A053F8041D7145F9D36145F7D2CC07F5D54E
S11304B0002406F17C0555F824708F4202D0641C98
S11304C0062CF8D3062CE9D1C4B2002C0CBF0520AD
S11304D0401E06F17C04C5B244F82510DEE7F16F36
S11304E0002306F17C0506EB8304D4F8804045F82C
S11304F023405B1C042BF6D911600146481EC9B287
S11305000029ECD1B06DC0F30800032810D00428F2
S113051011D0052812D0062813D00C2817D0122881
S113052018D119480268910719D540F2025816E00B
S113053040F6012813E040F6022810E040F60328B4
S11305400DE0B8F5206F0AD140F6042807E040F624
S1130550052804E018B1432838BF40F60728404670
S1130560BDE8F2833880030004ED00E000000020C1
S113057000E300E050D501205E7E0300700300001C
S11305809C00002050D501201C20054001468AB261
S11305900AB94BF6EF610F4A1180000C0E4908BFEF
S11305A04FF6CE200880704702461088030448BFE7
S11305B0484041001180704710B562210548FFF79B
S11305C0F3FF044641F20B010348FFF7EDFF6040DF
S11305D010BD000092DB012094DB012038B500F04F
S11305E0C6FA002515725572957215825582FF233D
S11305F015711360BDE8344092E2F8B504460D4627
S1130600200008BF402D1E46DFF8387603D1797AE2
S11306102A2000F0D5FD14204443300018BF0120E7
S1130620391908713D51DFF82006007800F0F6FE14
S1130630DFF81806007800F0F1FEBDE8F14000F0A4
S11306406ABFDAE770B504468D2C1CBF872C8E2C4C
S11306500D46164601D100F082FF00F002FABDE813
S113066070400020EDE770B504468D2C1CBF872C2C
S11306708E2C0D46164601D101F00AFC00F0F1F96A
S1130680BDE870400120DCE72DE9F042054601F0A9
S11306903BFC1422DFF8AC1512FB05F28E1834680B
S11306A0FF2C76D2FF21316001F034FCE0B2002847
S11306B01CBF40288F280AD1280008D0F1680120E7
S11306C000F015F9F16809780D3101F02FFD002CC7
S11306D0307A16BF8F2C01270027022803D040F25E
S11306E02D1100F000F98D2C18BF872C03D08E2C0F
S11306F01CBF0020B072C7B1F06800F032F9A0B19D
S1130700307968B1DFF8480500EBC500012131728A
S1130710002DBDE8F0420CBF2921AC2100F07DBDC5
S1130720284600F045FA3F212FE0284600F040FA21
S1130730402C4FF6FF790BD101F0B1FD707A411EC8
S11307407172F8B100224946042001F017FF15E048
S11307508D2C1CBF872C8E2C14D1002249462020BE
S113076001F00CFFB07A68B1401EB072C0B228B973
S1130770DFF8E01401EB8502536858702846BDE8A1
S1130780F0425EE007B1002421462846BDE8F0426D
S1130790FCE001F0BFFB307A032803D10021284696
S11307A000F0F4F8708A58B101F0AEFB748A0021AD
S11307B0718201F0AFFBE2B229461D2001F01AFF5D
S11307C0284602F003FB040011D001F09DFB318A9E
S11307D04A1E328201F09EFB2146284602F02CFF7D
S11307E0307A20B92846BDE8F04202F017BFBDE8D0
S11307F0F08280B5002003F033F90020FFF744FFB6
S1130800BDE8024001203FE7DFF84C2411780029BD
S113081000D0704780B501231028137003D04FF423
S1130820E07100F060F8DFF8340400214170012326
S1130830DFF81004C168BDE800504FF47A7200205C
S1130840A2E138B50546012003F0B2F9280015D11C
S1130850DFF80414002008702120DFF8041400F0ED
S1130860AFFC040018BF012C07D0022C05D10023D3
S113087000228E210020FFF7C0FE64B92C4614200C
S1130880DFF8C013444308190123C1684FF47A7296
S1130890284600F079F9BDE83240002003F088B919
S11308A0F8B5154604460E461422DFF8981312FBD9
S11308B004F28F18387A18B140F20E2100F013F8C0
S11308C0FE6002203872DFF88C0300EB84014A6872
S11308D0DFF8901355700078787220460A78BA725F
S11308E0BDE8F240ADE70FF29C30FFF753BD38B5D9
S11308F004464D1C284603F061F964B1691D00F4F7
S11309004060B0F5406F0CD0084603F057F9BDE8DD
S1130910324003F03EBAE91D00F44040B0F5404FC8
S1130920F2D1BDE83440002003F005BA02F062BF02
S113093010B50446080008BF0120210002D104F0CC
S1130940DBFB01E006F031FA0246DFF81C13204617
S113095007F09AFB002010BDDFF80C1307F0E2BB90
S1130960704710B5441C204603F028F900F0070036
S1130970032809D109220021204607F007FC205C46
S1130980042801D1012010BD002010BD70B504461B
S113099023461420AB4A43430D46D6180021317236
S11309A0204602F03BFE29462046BDE8704002F096
S11309B0F3BDF8B504460D4616461F4607F07AFC0B
S11309C0C0B13FB12846FFF7CCFF18B1687840F0BA
S11309D0200002E0687800F0DF006870681C03F013
S11309E0EDF8800606D529460020FFF780FF122186
S11309F001F09CFB01223146284602F0B9F90100BE
S1130A001ED0204602F0CAF9224614208D49974E82
S1130A1042438D182B8A5B1C2B823088298A88429A
S1130A2009D2688A401C688205E0204602F0CEF9AB
S1130A30288A411E29823088298A8842F5D3F2E522
S1130A40F1BDF8B500F021F803F024FE217803F09D
S1130A5022FE00F006F8E05501B0BDE8F0400020A9
S1130A60A7E733462A4621467047F8B500F00DF84B
S1130A7007F08AFA217807F088FAFFF7F2FFE055C9
S1130A8001B0BDE8F040012093E70D466F1F044616
S1130A90FFB21646E05D704738B501461423694A33
S1130AA013FB01F3D418257A012D07D1684B0022DA
S1130AB003F8312000F07CF80321217231BD0020BD
S1130AC0EAE70120E8E770B5054661492E460020B3
S1130AD001F83600002401F017FA1421594A4E4354
S1130AE091190B7A012B02D1032201240A7201F01D
S1130AF011FA3CB1284600F05BF82846BDE8704086
S1130B003F2143E770BD0020DDE70120DBE714212E
S1130B104C4A48431044037A581E8041C00F704722
S1130B2080B510B1012805D009E00846BDE80240AF
S1130B3004F02EB80846BDE8024006F033BE4FF478
S1130B406471FFE7FFF7CFFE702002BD02F0AFBF74
S1130B5002F0A1BF10B500F00AF8118A29B902F019
S1130B604BF9401E8041C00F10BD012010BD04464A
S1130B701422344B54431A19704780B5012002F0F3
S1130B8025F90028FAD101BD10B50C4611461A46C4
S1130B9010B1012805D009E02046BDE8104000F05E
S1130BA0C1BC2046BDE8104001F0C0B8702010BDA3
S1130BB010B5044602F0D8FE012804D12046BDE851
S1130BC0104007F071BB10BD1E48017A01291CBFFB
S1130BD0007F012801D101207047002070470428BC
S1130BE001DB022070471F4908700020704707F09E
S1130BF025BB07F02ABB012808BF06F015B903F08E
S1130C00C7BC07F028BB114607F047BB002808BF44
S1130C1004F0D5B806F0A6BC80B510B903F091FF76
S1130C2001E006F053FD401E8041C00F02BD114695
S1130C3007F025BB02F00DBF02F042BF02F047BF30
S1130C4003F0A1BAFCE7012070FD012083FD01201F
S1130C5024E8012000D9012065FD01208CD9012060
S1130C600908000064FD01202D09000098DB012023
S1130C7080B507F0FDFAFF2801D0012002BD002055
S1130C8002BD00006C6F7765722D6D61632D656D1B
S1130C906265722D7068792E6300000007F010BB46
S1130CA0F8B5274C2748226884B001210392012714
S1130CB007F0E0FB01220121012007F095FE042149
S1130CC0072007F0ADFF204A92E868006946032236
S1130CD081E868000D218DF808108DF809208DF841
S1130CE000708DF807706946184D284608F006F81C
S1130CF0174904200860022216496A620860AA6A39
S1130D0042F00202AA6203982168884201D0FFF7E8
S1130D102FFB05B0F0BD0D4807F0E4BFA52803D1B3
S1130D2000210A4807F0C5BF70470848006800F072
S1130D3001007047084908680028FCD1704700008A
S1130D40B4D5012030253E00CC80030000200540AE
S1130D5080E200E000E100E008200540602080F32C
S1130D601188704708F0E7B803460A46AEA104208C
S1130D70FFE70CB41CB5AE4C2368009304AA00F042
S1130D8037F800982168884201D0FFF7F1FA13BCC4
S1130D905DF80CFB0A00034602D0A4A11120E8E789
S1130DA07047000080B586B008F068FB30220492DA
S1130DB00021A04A00926A230591039302910191B4
S1130DC0024600239FA10120FFF7D3FF9A488179AF
S1130DD0028843790391029201930179C37882785E
S1130DE0009142209AA1FFF7C4FF07B000BD0000A4
S1130DF02DE9F04F8E4C0E4687B0216806910546CA
S1130E00904608F0ECFB002700282DD108F009F8E3
S1130E10002825D00021002001F044FF0028ADF86F
S1130E2004001DD0002101A808F00AFC294602A8EC
S1130E3007F0FDFF002E05463FD100F0A3F800287F
S1130E4012D1BDF8040001F08AFE8DF80600BDF849
S1130E50040001F06CFE0DF1060107F0F4FF002818
S1130E6077D0042008F0A3FB73E08DF80810012567
S1130E7022E0BDF8040001F072FE58F804AB81468C
S1130E801FFA8AF0C0B101F06AFE83460BEB090138
S1130E90C9B201A808F0D4FB00285AD15FFA8BFB31
S1130EA05FFA89F9BDF80400CDF800B000231FFAF9
S1130EB08AF2494608F050FC761C30780028BCD0F1
S1130EC0A0F130010A2904D20A2101FB0707303FAF
S1130ED0F2E700F057F800283BD131780025422989
S1130EE002A80ED044291AD0462925D057290DD05E
S1130EF06229BED0662934D06C292FD0702930D015
S1130F00B3E758F8040B8DF80800B0E758F8041B51
S1130F108DF8081002250904090E4170CCE758F831
S1130F20041B8DF808100B0A0A0C090E437082701A
S1130F308DF80B100425BFE758F8049B484608F0C9
S1130F400DFDC2B20123494601A801F05CFF00284F
S1130F50B2D00698216888420FD110E058F8047B7B
S1130F60AAE758F8041B0123FAB201A801F04BFFC9
S1130F70002808BF00279FD0EBE7FFF7F9F907B077
S1130F80BDE8F08F01232A4602A901A801F03BBF66
S1130F902DE9F841122885B004460D46904606D046
S1130FA03A2808D04FF6FE71884227D033E000205B
S1130FB008F058FF2FE009F06CFA06460020FFF70E
S1130FC018FE07460020FFF716FE0346049619484C
S1130FD01A4A1B4992F800C003900022482010FBD3
S1130FE00CFC01EB0C00B0F8E210029101920097A6
S1130FF05FF03B0018A1FFF7BCFE0CE00022414665
S1131000284601F0B5FE074601F022FA384600F002
S113101027FA01F021FA42462946204606B0BDE8E7
S1131020F04108F0FFBA0000574600006C70000061
S1131030B4D5012008F30120AC8803007EFD012013
S113104038F30120424238704242424257000000C5
S11310504242424257420000574242575738704278
S1131060000000002DE9F043354D04468BB0914655
S113107028680A900126220088461F4606D0012CC3
S11310801FD0102C02D0202C1BD02BE00021204696
S113109008F030FF0646012C18BF202C08D0022C83
S11310A018BF212C04D0032C1CBF222C232C19D1B3
S11310B0012FCDF80480ADF80C9008D14FF4805086
S11310C009E068461F49282209F02AFBE3E7022FBA
S11310D003D14FF44050ADF80A006946204608F0A9
S11310E009FF06460A982968884208BFF0B201D071
S11310F0FFF73EF90BB0BDE8F08380B508F0B9FF07
S1131100C0B202BD08F0FDBF80B509F004F8C0B25A
S113111002BD0CB438B50A4C256800950A46014650
S113112004AB094809F047FB00982168884208BFCE
S1131130002001D0FFF71CF932BC5DF80CFB000065
S1131140B4D50120F47E03004BA2000010B5044680
S1131150FFF704FE200A00280E4808BF24024FF2BD
S11311600F0104804180BFF35F8FBFF34F8F0A49A3
S11311700A480A6802F4E06202430A60BFF34F8F30
S113118000BFFDE70648704705482038704705480A
S113119070470000000000200CED00E00400FA0598
S11311A0F0CB0120A00000200020704701207047F0
S11311B001207047002070470120704700207047CD
S11311C000207047012070470020704701207047BD
S11311D07047704700B10220704700207047704785
S11311E038B54478456800F08FFE0C214C43914992
S11311F0914B0A59521B9A4238BF0D51BDE83240F7
S113120000F088BE10B5044609F022FC606004209A
S113121020702046BDE81040E2E738B504460D468C
S113122009F016FC2D186560012020702046BDE8E9
S11312303240D5E710B50446207860B1042806D0C2
S113124009F006FC61687C4B421A9A4201D20020E4
S113125010BD081A10BD4FF0FF3010BD70B5044624
S113126009F0F6FB054600F04FFE064660686FF095
S1131270004100F02DF8451925603046BDE8704066
S113128000F048BEF8B505460E46144609F0E0FBEA
S1131290024600239CB1FF20207010E0087860B162
S11312A0042811D04868644F111AB9420CD3801A2B
S11312B0B04202D2064604B123705B1C083529688B
S11312C00029EBD13046F2BD04B123700020F2BDF9
S11312D00022D7E770B5054609F0BAFB0646574C1D
S11312E010E0017869B1042904D04168524A711AA6
S11312F0914206D204230370206069688847002065
S11313002060083528680028EBD170BD10B504466C
S113131009F09EFB0C225443464A474B1159401A8C
S1131320984207D214446068FFF7D4FF2046BDE812
S1131330104093E710BD000070B5414E414A137848
S113134004467078984204D35FF0F6013FA0FFF79B
S113135021F87578374A691C71702B460C20434379
S1131360D11801264C600E7200E0457054F8080B49
S11313700028FAD10846FFF771FF284670BD000027
S11313802DE9FC41304C2B4E22682D4F01920C2547
S11313904FF0FF3306F108016843009300220A541A
S11313A097F8000030B309F0C7FB20B940F22F11C1
S11313B026A0FEF7EFFF09F04BFB0246002305E0F1
S11313C00098814288BF014600915B1C7978D8B2AD
S11313D0884213D26843DFF860E03158A2EB010C75
S11313E0F44507D306F10808891A18F8000008B96B
S11313F00029E5D109F0ADFB002007E0684600F0C4
S113140088F810B9684609F054FB01200199226854
S1131410914201D0FEF7ACFFBDE8F6810C21054BEB
S11314204843184401220272704704480068704718
S113143000000000FCDC01200100008054F60120C3
S113144081FD0120FDAE0300B4D501206576656EF3
S1131450742D636F6E74726F6C2E630070477047E7
S1131460704701987047704770477047702009F0C3
S113147091BB70B5044643381F4D08D0401E012867
S113148009D9801E01280ED9C01F32D02AE0BDE838
S113149070400AF025BB0AF0F3FA20B10AF020FBF1
S11314A00028FBD170BD154E307810BB012131707E
S11314B00AF09AFB442C12D00CD3462C05D00ED340
S11314C0472C07D140F6010001E040F60200FFF787
S11314D03DFE04E04FF49B712846FEF75BFF0020BD
S11314E0307070BD2846BDE870404FF4A471FEF71B
S11314F051BF70BD000000008086030063FD012021
S11315007047002070470020704701207047012079
S11315107047002070477047FFF790BB002070476A
S11315200020704738B51546104A517804462220E9
S1131530FFF746FE204603F089F904466DB120000A
S11315400BD00B49087818B10A480121017004E056
S1131550002200212046FFF775F8204632BD70476F
S11315607047704704490870704700008CD9012007
S1131570B7DC0120B8DC01207CFD012080B509F036
S113158067FADFF834295178484302BD80B5DFF8A3
S11315902C19096A05280BD8DFE800F003060608B1
S11315A008086FF0004002BD086902BDC86802BDAA
S11315B0E8210FF64410FEF7EDFE002002BD10B541
S11315C00146DFF8F808026A106993685468D26823
S11315D08842B4BF012000208B42B4BF0223002301
S11315E08C42B4BF042400248A42B4BF08210021E1
S11315F0181820180818401CC0B210BDF8B5DFF840
S1131600BC58DFF8B4682C6A002C1ABF3078002864
S1131610002706D061696A7A88188130FFF7CFFF06
S11316200746287AB84214D001226A74002C1ABFE3
S113163094F86400401E05F0F7FB2A7A31783B46A3
S1131640C0B200F037FD002169742F720628B8BFBC
S1131650307005F000FFA0B1287A002450B1286A48
S11316604169687A0F183078FFF790FFFF1DB84280
S1131670B8BF0124E97A2046884202D006F0ACFBC8
S1131680EC72F1BD2DE9F84FDFF83058AC7A06461C
S113169089460CB10020A872286A10B96FF0004086
S11316A083E0FFF76BFFDFF818182A6ADFF81038B9
S11316B0B0FBF1F801FB08F89169A8EB0100B0FB5D
S11316C0F3F04FF00D0CB8FBF3F3E646B3FBFEFE6C
S11316D00CFB1E3E0D28774607D3002050613421B1
S11316E002F11C000AF0FCFA2AE048B3DFF8D077D4
S11316F0B1FBF7F1E246B1FBFAFA0CFB1A1C02F15A
S11317001C030CF1010C5FFA8CF10D2908BF4FF09A
S1131710000C5FFA8CF1576953F821B0A7EB0B0763
S11317205761002743F82170401EEAD16746F8B29A
S1131730704505D040F257110FF2BC70FEF72AFE37
S1131740687A002E02DD801C861902E044BF361A36
S1131750B61E00F0D9FB95F80CA000212973FFB246
S113176000F0D8FB687AC01D10FB0A66286A41693C
S1131770361B7118416100F11C0200F11C0352F880
S11317802710761843F82760C0F81880FFF736FF53
S1131790B9F1060F04BFDFF8200790F8009048461F
S11317A0FFF7F4FE2A6A5169401ABDE8F28F2DE969
S11317B0F041804605F038FBDFF80047074604F1A6
S11317C0340504F13406002195F86400421EBA423F
S11317D015D0002904BF002829466869726990421F
S11317E0B8BF2E46683504F582708542ECD309B142
S11317F00D4604E0682130460AF072FA3546B8F125
S1131800000F05F1500602D1307D002869D1314620
S1131810384605F085FB00285DD17F1C377560884C
S113182008B996216180DFF89036B17B9878DFF8AB
S113183094264143B2FBF1F02860E08840B9307847
S113184008B9012131702868327890FBF2F005E084
S1131850296842F2107391FBF3F35843E860A088BF
S113186040B9707808B9012171702868717890FBCB
S1131870F1F005E02A6842F2107392FBF3F3584347
S1131880E9688142C8BF0146208860B969600A22BC
S1131890B07810FB02F082B202B901202A6880B24B
S11318A092FBF0F005E02B6842F2107793FBF7F718
S11318B07843286142F210732A68608892FBF3F23D
S11318C04243E8689042C8BF1046A860F07B60724B
S11318D0256269600BE0002060722062BDE8F0417F
S11318E08CE6206AA84206D0F17B61722562002151
S11318F0BDE8F041DAE2BDE8F081DFF8CC251178EB
S1131900002904BF0022FEF7AEBEDFF8C015012097
S113191008707047DFF8B805FFF774BC10B50246CD
S1131920DFF89815DFF8AC350120C873186800F0AB
S1131930F5F9017E4069DFF8A0454A43B4FBF0F0B5
S1131940BDE810404243DFF89415012006F09CBB2B
S113195038B5DFF88C150446087808B1002032BD8C
S1131960DFF8581560788A7B1518A0788542A8BFDF
S11319700546FEF721FE012194F90320237801FA9C
S113198005F5A918B0FBF1F201FB1200217940180A
S113199010FB03F080B232BD80B5DFF820250021B2
S11319A0D17300F01FF8BDE802408D20A5E770B5A3
S11319B0DFF808550446686A06F06DF9060008D198
S11319C0002000F00FF8686A00780021FFF75AFE43
S11319D006E0012000F006F814B13046FFF78DFF51
S11319E0304670BDDFF8D4148A7B00F00F0040EA63
S11319F0021088747047DFF8C404407B7047DFF836
S1131A00BC04007A70472DE9FC4D04460020FFF722
S1131A10CEFEDFF8A804056A45B92CB142F2107075
S1131A2020806080A080E08000204AE0407C10B9E3
S1131A300021FFF727FE002C42F210782FD02E68E9
S1131A4006EBD6725210D317CDE900232869C117CB
S1131A50A8FB007B18FB01BBB8184BEB0301324613
S1131A60F3170AF041F92080AA68D317A8FB0201F2
S1131A70DDE9007218FB0311C01951413246F31716
S1131A800AF032F96080DDE9007B686800F01BF839
S1131A90A080DDE9007BE86800F015F8E0802A68A2
S1131AA06C6902EBD270E517A8FB046AC11718FB36
S1131AB005AA16EB60004AEB0101D3170AF014F9EA
S1131AC080B2BDE8F68DC117A8FB002318FB0133D3
S1131AD0D01943EB0B013246F3170AF005B9E0B510
S1131AE0010025D06846082208F01AFEBDF802005D
S1131AF010B99621ADF8021000210022D3B23DF8AE
S1131B00130030B142F21173984211DA88420FDBAC
S1131B100146521CD0B20428F0D3DDE90001DFF8FD
S1131B209C23C2E900010120FFF741FE00200EBD05
S1131B3002200EBD2DE9F047DFF88053DFF87893DB
S1131B406E7B6F6A0FF2B03882460020FFF72FFEDB
S1131B503446062C286A08BF99F80040002818BFAC
S1131B60002C5CD039786A7AB0F85C005718BF1C36
S1131B7008B1B8420ADB31460020FFF783FDB842C2
S1131B8006DA1EB94FF4007100F0CDF802202FE000
S1131B90286A062E50F8546F08BF99F80040002EAA
S1131BA03DD0052C3BDB8088361A012005F03DFA38
S1131BB007464FF47A72DFF82C03DFF81C1302FB9C
S1131BC00606B6FBF1F1CF19FFF7D8FC7F1C3C1ACF
S1131BD0002C24DD6FF000408442D7D0FFF7CEFC08
S1131BE0A96ADFF804232018401A90420AD203207D
S1131BF0FFF7F8FEBAF1000F1CBF8C20FFF77DFE43
S1131C008C2089E0E87B18B140F2733100F08BF846
S1131C10214605F11400FFF700FB00207CE0687BFF
S1131C20062808D199F800100A0003D1AF4B587860
S1131C3000B104216973E87B18B140F2853100F0EA
S1131C4072F8687B042863DB296A00291CBF086ECC
S1131C5000285BD091F85300C10759D50122E87BD5
S1131C606A7348B140F27B2100F05DF8286A18B924
S1131C704FF41F7100F057F8286A046E1CB940F243
S1131C807E2100F050F8686A05F036FE064658B129
S1131C9070280CD00120FFF7A5FEBAF1000F33D055
S1131CA03046FFF72AFE2FE005F0ABFC01E006F01A
S1131CB05FF88848006800F031F8E288017E4069E6
S1131CC04A438549B1FBF0F000F0DDF828630021B8
S1131CD0A97394F9050018B940F2A32100F023F880
S1131CE094F90500010003D549422974002003E05A
S1131CF028742046FFF72CFEA883002620200AF033
S1131D0041F9A88BFFF70AFE304605E0022068730C
S1131D105046BDE8F0474AE6BDE8F08710B974487C
S1131D208168086870474046FEF734BB70B50546C5
S1131D300E46144608F08CFE5F4B604A5978556293
S1131D4001FB006669489662417809B9187808B9B8
S1131D50062000E00120507366480168CB0505D0D9
S1131D6002F11400FFF74EFA002070BD2046BDE8D2
S1131D707040DFE670B5514C5D4DE17B554E00205F
S1131D800329207574D8DFE801F00206173BBDE88B
S1131D9070400120CEE6306808B9A8680068216A5E
S1131DA04D4D0A6E017E128900F069F8E06202204E
S1131DB0E0732B200AF0E6F805F023FC88B9A07B39
S1131DC0217C401CA073C0B2884205D20320E0737A
S1131DD029200AF0D7F821E027200AF0D3F80420BC
S1131DE03CE006F037F9E16A06F036F9B0B10020BC
S1131DF0E07328200AF0C6F8BDE870400120D6E55B
S1131E0005F0FFFB80B906F025F9216B06F024F9F3
S1131E1020B12A200AF0B6F806201FE004F11400CD
S1131E20BDE87040FFF7EEB9206A006EFFF790FD41
S1131E300146306808B9A8680068226AA183156E53
S1131E402A89254D5218017E00F019F8216B06F0FD
S1131E5003F930B12A200AF095F80520BDE8704056
S1131E609AE52C200AF08EF8A08BBDE8704055E569
S1131E70BDE8704040F20C411FA0FEF78BBA4069E8
S1131E804A43B5FBF0F042430021012006F0FCB8C0
S1131E900A494A6A487A1378C3189B1C8B727047A4
S1131EA00648017B491C0173704700210020FFF79D
S1131EB0E9BB0248006A7047F4DB012064F70120A3
S1131EC0E093040000A493D6B7DC01206DF6012052
S1131ED078F7012090F6012040420F001519000008
S1131EE06AF6012020A107000100008094D9012096
S1131EF0E88F030004ED00E0647574792D63796361
S1131F006C652E6300000000EFF31180602181F303
S1131F101188704780F311887047FEE710B50400FC
S1131F2001D1022010BD01F087FD00F0DDF8207022
S1131F30002010BD1FB5C34C2168029120B38388D3
S1131F400188C3B9002904BF418800291CD100229B
S1131F50ADF800200388ADF802304188ADF80410D4
S1131F608188ADF80610684601F068FD0299226880
S1131F7091420BD10CE000291CBF4288002A03D0F7
S1131F809A4238BF9142E2D30220EFE7FEF7F0F91C
S1131F9004B010BD3EB5AB4D0400286802900DD0CE
S1131FA0684601F047FDBDF802002080BDF804102A
S1131FB06180BDF80600A080002000E002200299A4
S1131FC02A68914201D0FEF7D3F93EBD2DE9F04EC7
S1131FD004460D46012006F045F9400908BF70206B
S1131FE065D0002D57D0222C55DA00F015F918BF12
S1131FF004284ED1012C4ED10AF0BFF928800126C5
S1132000002001F017FD688000274FF6FF790FF2DA
S11320105C2AA6424AD0012006F024F9400932D0B5
S113202001F006FD5FEA000B04D14FF4B271504693
S1132030FEF7B0F9F8B201F042FF012823D10021E4
S1132040F8B200F073F8FBB23C207F49DBF80020C3
S113205010FB03F302EBD270CB58401042F2107B1A
S1132060C117CBFB0301D31709F03EFE8346F8B238
S113207001F01AFE484506D025F82600A81C20F8D1
S113208026B0761CF6B27F1CF8B22028C1DBAA1C4D
S113209009E0002CB0D1022009E025F820900021AD
S11320A022F82010761CF0B2A042F6D30020BDE83E
S11320B0F08E000000BF70B5044640091D4611D0E3
S11320C0204601F0C4FC0646284600F00DF80546FB
S11320D000F0BEF92A4604F01F0130460BF0FCF96B
S11320E000F0BAF9062070BD10B560B1401E012899
S11320F00BD9801E01280AD9801E032809D9001F84
S1132100072808D909E000240DE001240BE002248B
S113211009E0032407E0042405E040F2071100BFAE
S113212052A0FEF737F9E0B210BD00002DE9F84FD8
S11321300546884601F0C3FE01286BD100F06CF817
S113214018BF042866D0012006F08CF8400961D03D
S11321502C46202C5EDAFF2D5CD008F079FC3C275D
S11321603A49394D394A7C43B0FBF1FA05EB04098D
S113217001FB0AFAD9F80410AAEB0100B0FBF2F053
S11321800D23BAFBF2F29C46B2FBFCFC03FB1C2CB5
S11321900D28664611D34FF0000B07FB0BF000210E
S11321A0295005F10802342110440BF03FFA0BF1D9
S11321B0010BBBF1200FF0D321E000B3234FB1FB9F
S11321C0F7F19E46B1FBFEFE03FB1E1300265B1CCB
S11321D0D9B20D2908BF0023D9B209EB81012F59C7
S11321E08A68BF1A2F51401E8E60F0D11E46F0B28D
S11321F0604504D040F23B111CA0FEF7CBF82859EF
S113220040442851F6B209EB86008168414481605C
S1132210C9F804A0BDE8F18F0D480E4A016813788F
S113222038204343C8184078032870473C2148436A
S1132230054A002313500244342102F108000BF034
S1132240F5B90000B4D5012028E90120E093040089
S1132250ECD601207EFD012010B50024E0B2FFF78A
S1132260E5FF641CE0B22028F8DB10BD656D6265F3
S1132270722D647574792D6379636C652E63000027
S11322800020704700B102207047012070470120F0
S11322907047012801D100207047022070470120B7
S11322A07047FEE72DE9F0429D4E9E4C00203070B1
S11322B03821206809F014FD9B4933782268087896
S11322C038256B43D0540022307821686843084491
S11322D0427030782168684308448270FEF76CF9D4
S11322E0327821686A430A441072FEF765F932783D
S11322F021686A430A445072317820688B4A6943E2
S1132300014410788A4AC8703378216817686B438F
S1132310C818884947610A7802763078D4F800C032
S1132320854A1268074615FB07F30CEB0301CA61E3
S1132330824AD2F800902C22574309EB07020CF191
S11323403407FA500BF076F93078216801F1340241
S113235015FB00F551594A680968BDE8F04201F0DF
S113236078BE2DE9F84F92B06A460021002000F0B3
S113237067FFB0B9DFF8C8B1724C734D734E744F38
S1132380DFF8D081DFF8D091DFF8D0A100F016F8A3
S113239000F072FE28B96A460021012000F050FFC7
S11323A008B1012007E000F009F8012000F064FE04
S11323B000B10120C0B213B0BDE8F08FCDF824B055
S11323C00A940B950C960D97CDF83880CDF83C9077
S11323D01096CDF844A06A460021704780B50020CD
S11323E000F01AF828B1002000F005F808B1002028
S11323F002BDFF2002BD4B48494A016813783820CA
S11324004343C818807802281CBF1128432801D1EF
S113241001207047002070474248414A0168137800
S113242038204343C818407801281CBF02280328D9
S113243001D10120704700207047002070477020B0
S11324407047002070477047002070470120704794
S1132450704700207047704770470020704780B570
S113246000F020F820B10020FFF7D6FF00B10120D2
S113247002BD80B500F016F808B1002002BDFF20AF
S113248002BD10B5044600F00DF848B100F019F88B
S11324904078012818BF022802D10CB9012010BDD0
S11324A0002010BD0020A6E780B5FFF7FBFF30B188
S11324B000F007F84178032901DA002002BDFF206B
S11324C002BD1848164A0168137838204343C818D7
S11324D0704770B500F01FF838214D432C446668EE
S11324E00660E478047112781B6811FB02F1595CF0
S11324F0417170BD70B500F00EF8066838214D4387
S11325002C4466600579E57012781B68407911FBEC
S113251002F1585470BD024A024B15781C6870478A
S11325207EFD0120ECD6012041FD0120CCDB012001
S1132530F4D60120C1DB0120F8D60120F0D6012019
S11325404B4701009B49010011F2020045D10100F3
S11325500FE302009BD301002BA10100DBB90100B2
S11325600021002000F058BF7047002818BF0BF06E
S1132570C7B870470BF0EDBB0BF08CBC33B585B01E
S113258005468DF8042007F0D3FE0446284607F0DC
S1132590DFFE7CB10028BDF818000FD108F05EF80A
S11325A08DF80000FF2804BF00218DF80010CDF83D
S11325B008D016E0A8B106A8029012E008F04EF880
S11325C08DF80000FF2804BF00218DF800109DF84D
S11325D00000BDF818108DF80C0003AAADF80E1019
S11325E00292DDE901010A46014628460BF006FD88
S11325F007B030BD73B582B00446154607F098FEA7
S11326000646204607F0A4FE2EB120B903A98DF892
S11326100050019105E04FF4DB7100BF05A0FDF708
S1132620B9FEDDE900010A46014620460BF0E6FC4E
S11326307FBD0000656D6265722D6D756C74692DCA
S11326406E6574776F726B2D737475622E63000000
S113265010B5DFF8C008DFF8B8180068DFF8B8284C
S1132660C860136848615B0800EB43040C6118B14F
S113267000F016F8652806D2BDE81040B0210FF628
S1132680BC00FDF787BE10BD10B5DFF88448606953
S1132690E268904202D2C02100F0C5FA60690CE001
S11326A010B5DFF86C4820696269904202D2C621F5
S11326B000F0B9FA2069626900E0E268801A4FF616
S11326C0FE71084010BDDFF84818CA68904203D371
S11326D04969884200F05FBB0020704780B510B1A3
S11326E0FFF7F1FF00B1012002BD30B1DFF820286F
S11326F0D168401A4010401C80B27047010001D1DB
S113270000207047DFF80818CA6802EB4000801EFA
S113271070474088C0F30C00C01C80084000001DB6
S113272080B2704710B50446FFF7F3FFDFF8E017F7
S11327304A6904EB40004FF6FF7400E0801C9042AD
S113274002D20388A342F9D010BD2DE9F843DFF883
S1132750C0478046208998B3B8F8020001042FD4FA
S1132760DFF8B8770FF2C87138680FF2D0790BF040
S113277021FD20B940F28D114846FDF70BFE0025DE
S113278004E00BF017FD88B16D1CADB220898542C1
S113279004DB40F28F114846FDF7FCFDA06939685F
S11327A000EBC50630680028EBD13160B088401CCE
S11327B0B0804046FFF7ADFFF18801EB4000F080A8
S11327C0BDE8F18370B50446DFF8440700780128BA
S11327D01AD12088FFF792FF050024D002262C4648
S11327E02046FFF7B2FF608840F40040608034F870
S11327F01600FFF783FF040002D060880104EFD5C0
S1132800761C042E0FD2EAE702280CD1FFF77CFBDA
S113281005462088FFF772FF18B10088C0F30E0048
S113282020802846CEE270BDDFF8E4160A78022A3A
S113283008BFFFF7C7BF704738B504460D46FFF71A
S113284068FF6188C1F30D0161804004020C2146D8
S11328502846BDE838400BF0D3BC10B50C4601E067
S1132860FFF760FFA04202D241880A04F8D510BDE8
S11328702DE9F14FDFF8A806DFF89456016894B00B
S113288000201291E880FFF73FFB6A88ADF806202C
S11328900121AA88ADF80420297000216A696980A1
S11328A0A9800092FFF736FB2989A869C90009F0BD
S11328B017FA0DF10600FFF785FF01A8FFF782FF65
S11328C0149848B1002401E08047641C1498E1B2D4
S11328D050F821000028F7D1EF6800244FF00108D8
S11328E00DF1080906E00BF1010B5FFA8BF00428E7
S11328F01CD33446009EB74200D38CB324B1641E6B
S1132900E4B259F824A003E000F00CFBBA460746F1
S1132910BAF8020000F44041B1F5004FEAD140F4A6
S11329208040AAF802004FF0020B26465FFA8BF0B3
S11329303AF81000FFF7E2FE0400D4D060880104E6
S1132940D1D440F4004060802046FFF7FEFE102EF4
S1132950BDBF49F82640761CF6B24FF00008C2E726
S1132960B8F1000FB8D0EF68BB46B84615E038465A
S1132970FFF7CFFE0446788801040BD55846FFF7CD
S1132980B4FE398801F40041084338800BEB440B52
S113299007EB440800F0C6FA0746B742E7D3022023
S11329A028700DF10600FFF70DFF01A8FFF70AFFDD
S11329B0149848B10026044601E08047761CF0B222
S11329C054F820000028F8D1EC68274613E04FF0B3
S11329D0020937F81900FFF791FE20B10088C0F30F
S11329E00E0027F8190009F10109B9F1040FF0D319
S11329F000F098FA07464745E9D30AE00446FFF792
S1132A0091FE4146FFF729FFB842F7D34F452FD136
S1132A1054462746474551D22046FFF783FE002CF3
S1132A208246F5D060880104F2D500F076F8A04221
S1132A3004D16088C0F30D006080E9E704D2014648
S1132A402046FFF7F9FEE3E7A14607E05046FFF70B
S1132A5069FE4146FFF701FF54468246C24507D24C
S1132A60BAF80000C0F30E00FFF748FE8245EDD32C
S1132A7034B100F052F801001CBF2046FFF7DCFE21
S1132A8027464846C0E70022414601A812E02046F6
S1132A90FFF73FFE07465846FFF727FE80467A00B9
S1132AA0214658460BF0ACFB022EECD000224146E6
S1132AB00DF106000BF0D2FB0BEB470BFFF724FAEA
S1132AC080460021A81C0BF01FFCFFF717FE01260F
S1132AD0040007D10021281D0BF016FCFFF70EFEA1
S1132AE0022604464CB9BDF80600BDF804106880FF
S1132AF0A9800020C5F814B028704046FFF70AFAF0
S1132B00002CC4D11298DFF818140A68904201D03E
S1132B10FDF72EFC15B0BDE8F08F2088C0F30E0041
S1132B20ECE580B5FFF7EAFDBDE80240D6E510B557
S1132B30040012D0FFF7F5FF18B940F27A4100F013
S1132B4072F82046FFF7DAFD38B101880A0402D58D
S1132B50D0F80A0010BD083010BD002010BD10B51B
S1132B60010013D0FFF7CAFD0446FFF7B7FD18B9FB
S1132B7040F2944100F057F844B12088010401D593
S1132B80208910BD6088C0F30C0010BD002010BD6A
S1132B902DE9F04100F044F804003FD0FFF79EFD1A
S1132BA00FF2983718B940F2A74100F078F8284698
S1132BB0FFF7D5FF80462046FFF7B4FD464505469E
S1132BC02CD003DB40F2AF4100F069F82088010407
S1132BD048BF268122D466802046FFF79AFD04EB85
S1132BE04004FFF791F9DFF828134A692E1BB6B2A7
S1132BF0954204BF4C610026FFF78CF9082E06D2DB
S1132C0031462046BDE8F041FF220BF0D3BB08213A
S1132C1020460AF00BFDA6F108006080BDE8F081B3
S1132C2005460E466AE50FF21430FDF7B3BB38B51E
S1132C300D46FFF763FD04000AD0FFF74FFD18B9F6
S1132C4040F2EC41FFF7EFFF04EB4500808832BD12
S1132C50002032BDF8B50D461646FFF74FFD0400BF
S1132C600FF2D82714D0FFF739FD18B940F2F74115
S1132C7000F015F83046FFF741FDFFF72FFD18B9B6
S1132C804FF49F6100F00BF804EB45008680F1BD22
S1132C903846BDE8F44040F2FB41FDF77BBB3846C3
S1132CA0FDF778BB2DE9F84F8846C11C8908DFF889
S1132CB0605249000027091D2E690FF2802AB0F5E1
S1132CC0005F04461FFA81F904D340F227515046AD
S1132CD0FDF760FBFFF718F983466969E86908B9ED
S1132CE0711A03E05FEA080202D0411A4E1009E0AB
S1132CF0301A4010064680B220B940F24D51504679
S1132D00FDF748FBB6B24E4514DB6F6907EB49008B
S1132D106861E86928B1B8F1000F04BF00EB49000D
S1132D20E86100207C80B880F880388008346989A4
S1132D3064186C815846FFF7EDF83846BDE8F24F49
S1132D40D3E4F8B504460D46164600210A20FFF7E1
S1132D50A9FF0746FFF7D2FC48B10681C0F80A4034
S1132D60018841F400410180C0F80E503846F2BD9C
S1132D7070B504460D4611462846FFF793FF0646F4
S1132D803CB1300005D0FFF7D2FE2A4621460BF0B5
S1132D9037FA304670BD8041C00F704770B50C469D
S1132DA05B4D30B1FFF7B0F8064600222146281DDE
S1132DB005E0FFF7A9F8064600222146A81C0BF0FF
S1132DC04DFA3046BDE87040FFF7A4B838B5504C12
S1132DD028B1FFF799F805460021201D04E0FFF70C
S1132DE093F805460021A01C0BF08EFA04462846F1
S1132DF0FFF790F8204632BD4549002814BF888863
S1132E004888401EC7E72DE9FE4F044688462088BF
S1132E1016469B46FFF772FC0746FFF75FFC18B99E
S1132E2040F29161FFF7FFFE38880104354603D56F
S1132E3038892D183D8167E000F078F8019000F0A2
S1132E4071F88146FFF760F800968246304E70694B
S1132E5081451DD1FFF724FCA84203D25046FFF759
S1132E6059F821E001982D18BBF1000F7D8008D09E
S1132E702088FFF75CFE019B009A4146184407F046
S1132E804FFC00F04FF870615046FFF743F83BE009
S1132E905046FFF73FF800F049F82D180021A8B27A
S1132EA0FFF700FF070001D11A202EE000F03EF8E2
S1132EB005462088FFF73BFE06463846FFF737FEF7
S1132EC02A46314607F02CFCBBF1000F384609D0E6
S1132ED0FFF72DFE00F029F8009A4146284407F038
S1132EE01FFC07E0FFF723FE00F01FF800992844B9
S1132EF00AF09CFB20880121FFF799FE024601217C
S1132F003846FFF7A7FE27800020BDE8FE8F0000AB
S1132F10ACE60120BCD60120C0D60120FCD801209B
S1132F20B4D501203846FFF7FDBB0546208816E6D8
S1132F30756E636C61696D65640000006275666638
S1132F4065722D6D616E6167656D656E742E6300CB
S1132F5070B500244FF4B872DFF8A41A62438D18D8
S1132F6005F5B270FFF72EFC002605E005EBC00066
S1132F708030FFF727FC761C95F8C010F0B2884229
S1132F80F4D3641C012CE5DD70BD2DE9F0418046CD
S1132F9041460129C8BF212053DC00F09FF9551890
S1132FA0002185F87F10002605EBC60000F180079C
S1132FB0082138460AF03AFB761C0020082E388097
S1132FC07860F1DB00274FF6FE76482078432C1812
S1132FD0482104F1D4000AF029FB04F1D6007F1C37
S1132FE04FF6FF710022012F468086810180C27650
S1132FF0EBDD7F2128460AF019FB05F1C000002112
S113300000220170426081600173026105F5B270B3
S11330100180FF218170C17042600172FDF7CCFA1A
S1133020DFF8E0190870FF220221DFF8DC090BF059
S1133030C1F901214046FDF7D1FA404600F0E6F916
S11330400020BDE8F081F0B50246002000231446BC
S11330504FF4B875DFF8A8196C43DEB248270D1990
S11330607E43AF1997F8F11001B1401C5B1CD9B233
S11330700229ECDBC0B2F0BD2DE9F84380461546C9
S113308042468946022ABCBF4E46022E1CDA4FF441
S1133090B870DFF86C39424300219C18482717FBAD
S11330A001F0201800F1D402507F00281EBF687F71
S11330B00028B1420AD1491CC9B20229EFDB2978A0
S11330C04046FDF7D5FD60B9212026E0DFF83C0934
S11330D00178022903DB107829788842EFD0022096
S11330E01BE017FB06F6A01948222946D43007F046
S11330F017FB4046FDF70BFD70B194F86C01484591
S113310004BF404600F07CF84046FFF79CFF0228CD
S1133110A4BF404600F04AF80020BDE8F28310B591
S11331200446FFF790FF0228204602DB00F03EF839
S113313001E000F065F8002010BD70B516460446A5
S113314072880D46FDF75FFDB28829462046FDF7DB
S11331506EFDB21D29462046BDE87040FDF76ABDEC
S113316038B504460D46FDF746FD2978814203D063
S11331702046FDF746FDC0B92046FDF73AFD95F916
S11331800110814203D02046FDF731FD68B9204685
S113319000F0EAFB05462046FDF7B9FC20B12946BC
S11331A02046FDF7BDFC00B9002032BDF8B5044649
S11331B02646022E03DAFFF746FF022801DD01202E
S11331C0F2BD00F025FA00250E444827E8B2784302
S11331D0304400F1D402507F18B1E9B22046FFF721
S11331E0ACFF6D1CE8B20228F0DB96F86C0117FB0B
S11331F000F7F01900F1D4012046BDE8F440AFE730
S11332004FF4B872DFF8F81712FB00F2114438B526
S113321091F86C21482313FB02F302281944B8BF28
S1133220022A044601F1D40501DB012032BD2A46FD
S11332300021FFF782FF29462046BDE834408FE78E
S113324038B50346022BB8BF0229104601DB212002
S113325032BD4FF4B8744822DFF8A4576343EC1826
S113326012FB01F1631803F1D40107F059FA0020AD
S113327032BD38B50346022B0EDA4FF4B874DFF8CA
S113328080576343EC1854F8C43F002B04BF237ADF
S1133290002B01D10B0001D1212032BD21606260DD
S11332A000F0B4F8002032BD10B5044621460229CE
S11332B001DB212010BD00F011F8501800F1C80105
S11332C0002388680B600B7118B18B602046FDF7F2
S11332D043FB2046FFF723FF002010BD4FF4B870D6
S11332E0DFF81C27414370472DE9F0418046DFF8A1
S11332F020274546002102F83510FDF708FC002878
S11333007CD04FF4B870DFF8F81645434E194827BF
S113331096F87F00C10706F5B27520D500F0FE00CF
S113332086F87F000BF06AF8044696F87F00810760
S113333044BF20460BF048F8214640460BF0ACF958
S11333402880AC700020297AE87017FB01F7F11986
S1133350D1F8140168604046BDE8F041BFE006F1D1
S1133360C004207898B106F180073868286078682E
S11333706860404600F0B3F82278D20006F1880174
S113338038460AF03DFF2078411E217036E061681E
S113339008000AD00022626001202073404688475A
S11333A04046BDE8F041002149E096F87F008107DE
S11333B002D40BF03BF828B100F021F94046BDE8F7
S11333C0F04123E0287A02280CDA78433044D0F81C
S11333D0080138B1287A17FB00F7F019D0F8081162
S11333E0884758B9FEF7FAFF0146207B30B9FF2918
S11333F018BF29724046BDE8F04190E6BDE8F0816F
S113340002E0012070E7000000206DE7DFF80016FD
S113341001EBC000FDF7F6BE10B5044608460AF0FD
S1133420D3FF22464FF4B870DFF8D415424388180E
S113343090F87F3043F0020380F87F30F8E04FF4D7
S1133440B871DFF8BC254843104490F87F3003F08E
S1133450FC0380F87F3070472DE9F0418046022854
S1133460B4BF022921200C46154630DA00F031F8A9
S1133470161806F1C007786820B9387B002818BFF1
S1133480022B01D0012022E03A78082A1EDA012B0F
S113349008BF4FEAC20C08D0D20006F1800106F141
S11334A088000AF0ADFE4FF0000C0798069906EB71
S11334B00C0222F8805F9470D07051603878401C00
S11334C038704046FFF7A2FF002000E01C20BDE852
S11334D0F0814FF4B871DFF82825484370472DE98F
S11334E0F04FDFF83065DFF818953268824685B012
S11334F0D0464FF4B87111FB08F8049209EB0803A5
S113350003F5B2770293BD78397AA9421CBF3D72A4
S1133510FFF705FE0298482111FB05F144182846DF
S113352094F9D5208DF80C20B7F800B0029A5946CA
S113353000F07DF9D4F8F840024601279CB103A8B5
S113354001900095534602995846A047DFF8C814E5
S11335500746087838B15046BAF1010F04BF9DF907
S11335600C10FDF744FB19F8080038B90021504647
S113357000F012F85046FFF749FF04E002993A467A
S11335805046FDF78DF904983168884201D0FCF764
S1133590EFFE05B0BDE8F08F2DE9F0410446264664
S11335A0022E884605DB40F291210FF27840FCF7A9
S11335B0F1FE00F02DF80E4406F5B2756F6839007F
S11335C004D0EB782A8841462046B8470021298058
S11335D048202A7A4243B018D0F814118F420CD0F4
S11335E096F87F00810702D40AF020FF28B100F08A
S11335F006F82046BDE8F04108E7BDE8F08196F8FA
S11336007F0000F0FD0040F0010086F87F00704765
S11336104FF4B870DFF8E8134643704710B502283A
S1133620044605DB40F2A7210FF2F830FCF7B2FEA6
S11336302046BDE81040E9E62DE9F14FDFF8D40358
S1133640026888B007929DF82050012D5EDCADF829
S113365000100846FFF76BFA040057D0BDF80000CD
S1133660FFF77DFA6178267801F00701022908BF87
S113367001202AD005A900220023C1E90023C0B2F9
S11336802044A0F108020DF1140B10680860506882
S11336909BF803909BF802A04860ADF81030DFF867
S11336A07C139BF8010000F00F080878CDF80C801B
S11336B000281EBFDFF868130B68002B06D04FFAF2
S11336C08AF2494620469847002085E009220021D5
S11336D0601C04F05BFD0746F61BB01E40B201906F
S11336E00199002912D400F081F8039A4D4305444E
S11336F048204243A81800F1F40102918B693BB1C0
S1133700BDF8000000220121984708B9212063E098
S113371004A80090621C01990398CBB2C1B29DF831
S113372020000BF0FDFAC0B20028009053D1BDF880
S113373010000BF0F3FB00281EBF0298C269002A98
S113374007D0601CC119BDF81000904708B90220C9
S113375042E0BDF810000BF0CFFC0646BDF81000A7
S11337600BF0DCFB38B3601C019AC11900F0C5F8FA
S1133770BDF81000FFF7DBF980F8028080F80890AC
S113378080F809A09DF8141081729DF81A209DF804
S11337901910120242EA01429BF807100A43C26060
S11337A005F1C8021079BDF81010002812BF126884
S11337B0029802680BE00198C7190123FAB2611C50
S11337C004A8FFF720FB0028D2D0192004E0100041
S11337D01CBF08469047009807998E4A136899427F
S11337E001D0FCF7C5FD09B0BDE8F08F4FF4B87106
S11337F08348704770B50446B4F1020F89A504DB11
S113380040F22E312846FCF7C5FD4FF4B8707C4ACF
S113381044431619D6F8D04024B940F23131284631
S1133820FCF7B8FD0020C6F8D000A04770BD2DE914
S1133830F84305468946484614460BF062FC0746A1
S113384048460BF064FB661C042822D148460BF062
S11338507FFB4FF6FF7148F64108884218BF48F6CF
S113386061084820664910FB05F5481900F1D605A2
S1133870F01C29880BF04BFC48460BF069FB014611
S1133880701D0BF044FC6988F01D0BF040FC0936F8
S113389003E0601C00F092F9804648460BF06BFD93
S11338A008B148F010084146601C0BF030FC484653
S11338B00BF022FC00F01FF801214846FFF7B7F98E
S11338C005003E4408D0FFF74AF9C7B22846FFF77F
S11338D02EF900F010F83E444A480178E170361B96
S11338E0491C0170761C26702046BDE8F843092265
S11338F0012104F04BBC01463A46304606F010BFA5
S113390010B54FF4B8733E4C58432318D3F8D00085
S113391008B1022010BDC3F8D0101146BDE8104014
S1133920FDF706B8FEB505460846002B0CBF8821F6
S113393008212F464FF4B873314E5F433E4414467A
S113394096F86C210BF0B3FB010001D10120FEBD00
S1133950089A009200210191024696F86C112346C0
S11339602846FFF779FDFEBD4FF4B871244A484359
S11339701118482291F86C315343CA1892F8F10097
S113398028B991F8CC00401E8041C00F7047002038
S113399070474FF4B8711A4A4843104490F86C01C8
S11339A0704710B500F026F8204490F8CC10F9B90F
S11339B00020FDF7ACF8D8B10120FDF7A8F8B8B1A4
S11339C013490878002804BF087A002810D194F815
S11339D07F00002804BF94F8C000002808D194F8A0
S11339E0EF0128B994F83002401E8041C00F10BD89
S11339F0002010BD4FF4B872014C504370470000D2
S1133A0038F301207DFD01202CFD0120D3DB0120B2
S1133A1018F60120B4D50120EEDB0120B7DC01202B
S1133A20F8E7012075707065722D6D61632E630077
S1133A30FEF73FBAFDF7E7BFFDF7E1BF10B5044657
S1133A40FDF76EFD2046BDE81040FEF748B803F0D0
S1133A50F7B980B501F0F7F9BDE8014003F01EBBEA
S1133A6010B5044601F068FB2046BDE8104003F0A1
S1133A70ADB910B5044601F0B1F92046BDE81040D7
S1133A8003F009BD10B5044601F0C0F92046BDE8B5
S1133A90104003F009BD01F0A4BA10B5044601F0CA
S1133AA0F3F82046BDE8104004F0AEB9000010B5AC
S1133AB0044601F057FA2046BDE8104003F044BE26
S1133AC080B500F05FFFBDE8014003F0EFBE80B5B4
S1133AD000F005FCBDE8014004F059BA10B50446F5
S1133AE000F08CFB2046BDE8104004F057BA38B50E
S1133AF0044600F0CAFD0546204604F040FA85421B
S1133B0088BF0546284632BD1CB5244C244822688B
S1133B100092012104F0AEFC0121224804F0AAFC29
S1133B2000230422042105200BF00FFF00230422AC
S1133B30052105200BF009FF00982168884201D077
S1133B40FCF716FC13BD10B500F00DF803F1C063CB
S1133B5004E010B500F007F803F18063486801241D
S1133B6084401C6010BD104A104B12F830403021C4
S1133B704C43191901F10C0302EBC001704710B555
S1133B80094A0A4B12F83040302102EBC0024C4380
S1133B9019195068012383408B6110BDB4D50120ED
S1133BA04041050000350A00707F030000A000407A
S1133BB000281CBF0020FFF7C6BFCAE74178007881
S1133BC000EB012080B27047F8B5002818BF002927
S1133BD0164601D0412E01DB2120F2BDDFF85055FD
S1133BE0286269620027DFF84C05067011E02A6A32
S1133BF018237B43D41800200021C4E90401D054C5
S1133C00FF22286A18447F1C4180001D08210AF005
S1133C10D1FBB742EBDB686A710009F007FD0020B5
S1133C20F2BDF8B500F05CF909B90220F2BD022832
S1133C3004DADFF800653778BC4201D32120F2BDF5
S1133C4018256C4321440C78844204D10D7CEC0784
S1133C5001D52E20F2BDDDE9064508704A80081D15
S1133C601A6802605A684260002044F00102C1E907
S1133C700425F2BD10B500F034F909B9022010BDD5
S1133C8000F019F901D3212010BD18225043084433
S1133C900024C0E9044404704480FF220821001D6C
S1133CA00BF09CFE002010BD0246DFF88404016A7C
S1133CB000294FF6FF7000D1704730B500F0AFF81F
S1133CC0AA4206D218235A4311440A7CD30748BF98
S1133CD0488830BD10B500F004F951B100F0EBF89C
S1133CE007D2182250430844017CCA0701D5001D9D
S1133CF010BD002010BDF8B50446DFF83404056A91
S1133D00002D18BF002C13D0002600E0761CDFF82D
S1133D1024140B78F0B298420AD21827784300F0A2
S1133D2032F80028F2D1387CC107EFD57888F2BD8B
S1133D304FF6FF70F2BD2DE9F0410646DFF8F003BF
S1133D40056A0C46E5B1DFF8EC0390F800804645BF
S1133D5016D2002CF0B207D1182148432844027C23
S1133D60D00709D4F0B20CE01823584300F00BF844
S1133D7010B9387CC107F5D4761CF0B24045E8D3BD
S1133D80FF20BDE8F0812F1808222146381D0BF0D2
S1133D9043BE70B50246DFF89803016A91B1002072
S1133DA0182600E0401C00F03AF8C3B2AB4209D236
S1133DB073430B445C889442F4D11B7CDC07F1D53B
S1133DC0C0B270BDFF2070BD01460020B3E710B53E
S1133DD00C46FFF7DEFFFF2808D0FFF77BFF28B172
S1133DE00168216041686160012010BD002010BDA0
S1133DF070B500F08EF882B14FF6F874A14204DA7F
S1133E00DFF830532E78B04201D3212070BD00F08A
S1133E100AF802D54180002070BD022070BDDFF891
S1133E20144325787047182358431044027CD30761
S1133E30704710B504460BF07DF8B0F5006F2046CE
S1133E4002D10BF085F802E00BF093F802E0BDE834
S1133E5010409EE7BDE81040B6E730B5B44C216A87
S1133E60B1B1B44B1D78A84210D2182212FB00F253
S1133E701144D1E90423D1070AD5646A34F8100047
S1133E8010F4E26F08BF12F00C0002D0012030BD24
S1133E90002030BD10B500F024F851B100F00BF84B
S1133EA007D200F048F804D50006000F00F0010026
S1133EB010BD002010BD9F4B1C78A042704710B568
S1133EC000F00FF851B1FFF7F6FF07D21822504364
S1133ED00A18137CDA0701D5085C10BDFF2010BD59
S1133EE00C469349096A704730B500F012F85AB18C
S1133EF0FFF795FFA84207D2022905DA1823584391
S1133F0013181C7CE30701D4002030BD1154012098
S1133F1030BD874A126A704710B5FFF7E2FF09B94E
S1133F20002010BDFFF7C7FF02D200F004F801D44F
S1133F300020002110BD182250430844D0E9040198
S1133F40C2077047F0B501467948006A08B90220F3
S1133F50F0BD784D2E78B14201D32120F0BD182454
S1133F606143014401260027D1E90445BB4208BF4F
S1133F70B24203D0E00701D42D20F0BD05980028FB
S1133F8019BF22432B4324EA020225EA0303C1E9B1
S1133F9004230020F0BDF0B5654B1B6A0BB9022069
S1133FA0F0BD002612E018256C431F19D7E904451B
S1133FB004F0030CBCF1010F07D1002A07BF8443AE
S1133FC08D4304430D43C7E90445761C594D2F78AE
S1133FD0F4B2BC42E7D30020F0BD2DE9F042FFF774
S1133FE098FFA2B1534C94F800900023182700E0E6
S1133FF05B1CDCB24C450AD27C431444D4E904561D
S113400005400E4008BF002DF2D0012000E0002042
S1134010BDE8F08210B5FFF7BCFEFF2804460DD0C2
S1134020FFF77AFFC00709D52046FFF775FF0006A2
S1134030400E00F0010080F0010010BD002010BD12
S113404080B5FFF7A6FEFF2801D0012002BD0020A5
S113405002BD022807DA364B43F8301003EBC000E8
S11340604260002070470120704731490B6A0020EC
S1134070C2B251F832209A4205D0401CC2B2022A80
S1134080F6DBFF207047C0B270470000F8B52A4C39
S1134090054694F9000010F1010F04DA40F21E21E4
S11340A026A0FCF777F9FDF72FFF012DDEBF94F969
S11340B00020511C01291BDC1D4B53F8351000292D
S11340C01EBF03EBC5067168002911D0521C57B2FC
S11340D003EBC7011F6A0F615F6A4F6153F8351024
S11340E0196275685D622270FDF714FF0020F2BD4D
S11340F0FDF710FF0120F2BD38B50F4C94F9000014
S1134100002804D54FF411710CA0FCF743F9FDF716
S1134110FBFE94F90010064A02EBC103491E1D6917
S113412015625B6953622170FDF7F4FE002032BD15
S113413010F30120ECDB0120EDDB01206D61632D28
S11341406368696C642E630038B50446FDF738F87B
S11341500546DFF8380A83780178994211D000F0D7
S11341603CF8641E07D0641E08D0A41E06D0A41E0A
S1134170032C03D905E00022194600E000220BF0CD
S11341807CFC284632BD0BF0A4BD10B5DFF81C3A08
S11341904C000146986A22460BF07DFCA04201D0F7
S11341A0002010BD012010BDDFF8000AC07D00B161
S11341B001207047DFF8F4290146107B002800D164
S11341C0704780B5906A0BF0F5FD28B1BDE8044056
S11341D040F29D1100F0C2BC01BDDFF8D009806A35
S11341E0704780B5FFF7F9FF0BF049FC00F00300BE
S11341F0032801D1012002BD002002BD3EB5DFF835
S1134200444A21680191B0F5004F08D14FF6FF7080
S1134210DFF8345A298800F0DDFEBDF80000DFF82D
S11342206C19488300F0C7FD01D100203EBDFCF7A6
S11342309FF800BF2DE9F04F91464FEA501B884686
S11342409A4600F01F004FF0000CDFF8002A01E04E
S11342500CF1010C93795FFA8CF1994237D2916891
S11342605FFA8CFE51F82E304FF0000E01E00EF193
S1134270010EDC7E5FFA8EF1A142E9D2D9695FFAC0
S11342808EF5142414FB05F549190E7A06F0070679
S11342905E45ECD14C7AA042E9DB4F780D78E61903
S11342A0761B8642E3DB5FEA080203D0001B281872
S11342B088F800005FEA09001CBF0A7A89F8002028
S11342C05FEA0A0018BFCAF80010184600E0002090
S11342D0BDE8F08F400918BF40F01800704738B5AA
S11342E0DFF8C848A06A0BF036FE0546E80744BF6D
S11342F0A06A0BF035FEE80320D5E16ADFF88059A7
S1134300086A20B94FF41A712846FCF743F8E06AAA
S1134310016A486820B940F26A212846FCF73AF855
S1134320E26A136AA06A5A680021904730B12846AD
S1134330BDE8344040F26B21FCF72CB831BD7FB5A9
S1134340DFF8004920680390694600220023002515
S113435081E82C00DFF8345828788DF80000A87A1A
S1134360002818BF022810D1DFF8406800F014F8C4
S113437058B1B06A012200210BF083FB00F00CF865
S113438018B14FF4287100F039FC03982168884271
S113439001D0FBF7EDFF7FBD2979B06A6A460BF0C7
S11343A069BC2DE9F047DFF89C98074692B0D9F82C
S11343B000001190FF2F0AD1DFF8900881680A6885
S11343C0D069477A017A07F01F0747EA4117FDB21F
S11343D005F01F001B2847D20021019101AB6A465A
S11343E0F8B2FFF727FF5FEA00081CBF0198002816
S11343F03AD0DFF89867DFF8B4473179F8B28842E9
S113440031D00B3D102D39BFDFF89C090568DFF86A
S11344109C190D68002D1CBF2878032824D0606CDB
S1134420854214D002A82946062206F079F965646B
S113443002A9A06A0BF023FDB0B9A06A04A90BF08D
S113444034FDB6F91810A06A0BF0DEFC60B9C4F8AC
S11344502C80206B0199884208D19DF8000060737C
S11344603771FFF76CFF7EE08A2084E0B57ADFF8CD
S113447010A800F087FA206B38B1A06A0BF0D5FDC4
S113448018B140F2D52100F080F801982063019919
S1134490C868606318B940F2DA2100F076F8D8F8F9
S11344A02000A16C814219D018B940F2E12100F03A
S11344B06CF8D8F82010086818B940F2E32100F02D
S11344C064F8D8F82010A06A0A68904718B14FF42D
S11344D0397100F05AF8D8F82000A0642C229DF815
S11344E00000DFF8B8196073377106A806F018F9F0
S11344F0606B418A0901C039ADF81E10417C090185
S113450014390A9106A9407C00010C90F079401EF0
S11345108041C00F8DF84100607C8DF84200A06A94
S11345200BF048FD18B140F20F3100F02EF8A06AEC
S1134530012201210BF0F9FD18B14FF44D7100F087
S113454024F800F080FCB08B00F091FCF08B00F0BC
S1134550A7FC307A00F05AFC00F043FD00F002FDA5
S1134560284600F077FA94F90E10A06AC9050914D8
S11345700CF038F800201199D9F80020914201D0AC
S1134580FBF7F6FE12B0BDE8F0875046FBF702BF1A
S1134590DFF8F0060079704710B500F012F8044611
S11345A000F00FF8002854BF05206FF00400001934
S11345B00A2190FBF1F040B210BD0A2110FB01F07A
S11345C00CE0DFF8E815087B00281CBF886A0BF0B4
S11345D03FBCDFF8B016B1F918007047F8B50446CF
S11345E004F5D77040F27721884201D38B20F2BDC5
S11345F0DFF8B825DFF88C56116B00291EBFA87EA2
S113460000F0C000802812D0D07B80B991F902005C
S11346100A26074617FB06F7BC42A1BF91F903001F
S1134620014611FB06F1A142B8BF10FB06F4107B52
S113463040B1906A21460BF0E7FB18B140F28A3191
S113464000F0DCFA2C830020F2BD38B504460B38A8
S1134650102839BFDFF850070068DFF850170868E2
S113466088B10023002200212046FFF7E3FD50B16A
S113467004F01F051B2D06D22046FFF72BFE10B9B0
S113468028460B2800DAFF2032BDDFF8C81840089E
S1134690085C70477047C0B2704711F1630F01DACC
S11346A00020704711F1240F01DBFF2070476431B3
S11346B00902481101EB90618904080E70472DE945
S11346C0F0418046DFF8E46498F8005096F916004B
S11346D008B18C20B8E030650021DFF87C48DFF8B1
S11346E0AC74F164607800286AD0FCF717FF0246C6
S11346F0012A18BF032A63D0706BDFF860380028E2
S11347001FBF316B09690029022A38D0DFF850C86D
S11347107A6961451AD1DFF81419F16402F57A72E5
S11347207A61717D19B10022328064211EE0017921
S1134730317001218278037991400B4490F9031080
S1134740CB185B1E7370017809010FE0F36402F566
S1134750FA727A61717D19B100223280642105E018
S1134760417831708278727001780901B1804179A1
S1134770B17002891201F280C088000116E0F3646E
S1134780786900F5FA707861707D18B10020002115
S1134790642203E0E07821794FF4A07230707170E4
S11347A0B2808021A078B070F1800020B06000F069
S11347B018FCF070B07841B2002902D5404200E004
S11347C0002030766B01326D7878387303F580738E
S11347D0A0790028F07B1ABFAD1EEDB242F00202B0
S11347E070B9217861B17B6198F80100810607D521
S11347F06FF0010042F00102B07503F5087302E0A6
S11348004FF0FF30B0757B613265FDF740FD40B17C
S1134810FDF73BFD0128316D0CBF08201020084333
S11348203065032000F016F96A1CB06A4FF48073F7
S113483092B241460BF0E2FE6D1CA84203DA40F24C
S1134840095100F0DBF90020BDE8F0812DE9FC41BD
S1134850DFF8586396F916100025091D04296FF036
S1134860030419D8DFE801F00A0A1C1C0300FFF74F
S113487026FF050014D000F08EFE7FE096F91600A6
S1134880A0420CBF0121002100F086FEB575B06A7C
S11348900BF0FBF88E2072E000F07DFE8C206EE0C1
S11348A0FCF78CFCF0B1F06CDFF8B016884219D13B
S11348B0307EB8B1DFF838180868002812D5DFF860
S11348C03408C168C1600122006800F00F00824012
S11348D0521E114206D100212320FFF735FC64202B
S11348E00BF0D9FEFDF710FB804696F9160010F187
S11348F0010F1CBF96F9160010F1020F2DD196F985
S11349001600DFF888724042B07506F094F83862F9
S11349100022B06A00F00BF9F46CB06A3979326D98
S1134920002C07F10C0306D10BF067F9010005D147
S1134930002125200EE000933346A047D8B1002083
S1134940B0754FF0FF3139628C25B06A0BF09DF8D9
S113495000212620FFF7F8FB0DE096F91600A0428F
S11349600CBF0121002100F017FE0020B0758E2538
S1134970B06A0BF08AF84046FDF7CCFA2846BDE849
S1134980F68100002DE9FC41AE4C804E2068019078
S1134990FDF7BAFA0546B07A012803D12846FDF797
S11349A0B9FA4DE0814FDFF8D487B86A01220121BA
S11349B00BF067F800F0B9F825A00188B86AADF8E3
S11349C0001069460BF0F7FD18B140F2EF5100F00A
S11349D0EFF900F0AFF818B140F2F15100F0E8F946
S11349E0B86A0BF0EEF800212C20FFF7ADFB002194
S11349F00A20FFF7A9FB0120B07297F91610091DD0
S1134A00072914D8DFE801F01717070B040F0F0F5D
S1134A10FCF755F80FE06FF00300B8750BE06FF08A
S1134A200201B97507E0892000F01AFB03E04FF496
S1134A30C36100F0BDF92846FDF76CFA04F00DFDE2
S1134A4000F0B9F901D0FBF793FCBDE8F381000055
S1134A50040100002DE9FC417A4D4C4E04462868BF
S1134A600190B17AA14256D02FA3DFF8148218889E
S1134A704E4FADF80000032949D8DFE801F04102A8
S1134A80362604F0EDFCB86A69460BF094FD18B1C3
S1134A9040F2356100F08CF900F04CF818B140F2A6
S1134AA0376100F085F97079002814BF00220222D2
S1134AB0B86A02210BF04FFE18B140F23C6100F0DD
S1134AC077F90320032CB07225D000F02EF80220D1
S1134AD0B07200223179B86A0BF0CCF818B140F208
S1134AE0496100F065F9022C15D0200018BF032C91
S1134AF011D10020B0720022B86A00F018F80AE060
S1134B00022C08D100F011F80220B07203E040F248
S1134B105F6100F04DF901982968884201D0FBF7E4
S1134B2027FCBDE8F38100000402B86A80228021DA
S1134B300BF011BE02208DF800006946B86A0BF034
S1134B401BBD5048807A7047032805D8DFE800F081
S1134B500302030316E77DE740F27D61DFF81C06DC
S1134B60FBF718BC10B5114CA06A0AF08EFF94F93B
S1134B7016000028434844BF0021A175417A012949
S1134B8002D1BDE81040FDE610BD000050D7012061
S1134B9080B5032801DB012002BD3A494872897AB5
S1134BA0884218BFFFF7D0FF002002BDA8DC012017
S1134BB02DE97C4FDFF8C06503EA010BD6E90889CB
S1134BC029EA010528EA000402EA000A45EA0B057D
S1134BD044EA0A044D4508BF44450DD0CDE90023FD
S1134BE00246B06A0B460BF0EFFC18B140F2A56127
S1134BF000F004F8C6E90845BDE8738F2048FBF7C8
S1134C00C9BBDFF87415087B002800D1704710B5C4
S1134C10087D0022002318B1DFF864250D230AE083
S1134C20C87C00B1402217480178807881421CBFBB
S1134C30DFF850452243BDE81040DFF844050D215C
S1134C40B6E70000B4D50120D8AE03009C88030069
S1134C5038B5DFF854590446287B2C7578B1FFF732
S1134C60D0FF002C14BF00220822A86A08210BF0F0
S1134C7072FD20B1BDE8344040F243716EE731BDAE
S1134C80D055000050D701202DE9FC41DFF8104930
S1134C90DFF8E884054620680190022D03DB40F22A
S1134CA04F7100F085F8DFF80069307B002871D17E
S1134CB0DFF8F078B87A012803D040F2557100F09B
S1134CC077F8002107F124000AF0B9FEB06218B9A0
S1134CD04FF4EB6100F06CF801200AF041FF18B9C1
S1134CE040F25B7100F064F8B06A05210BF0A0FAA1
S1134CF018B14FF4EC6100F05BF84FF0FF30DFF8CF
S1134D00AC2840F242330146FFF752FFB06A4FF03D
S1134D1001110BF031F918B140F27A7100F048F842
S1134D20B06A09224FF0FF310BF015FD18B14FF4B2
S1134D30F06100F03DF8B06ADFF874180BF07CFC09
S1134D40012030730223DFF86C0801887F22684653
S1134D500BF084FDBDF80000C10548BF0020B0730E
S1134D60FCF72CFAFFF774FF788BFFF747FA0BF088
S1134D70F5FD3879FFF715FB18B140F2947100F096
S1134D8017F8FFF73EFFB7F91800FFF727FCB879CB
S1134D9000F0D5F82846FFF7D7FE00F00CF801D054
S1134DA0FBF7E6FABDE8F38128D701202CD70120D0
S1134DB04046FBF7EFBA019821688842704780B5F6
S1134DC0FFF70BFA01210AF062FF10F5007F02D110
S1134DD06FF07F0002BD8005001602BD10B5DFF83C
S1134DE098230446107B50B1611E8941906AC90F13
S1134DF00BF08BF918B140F2CB71FFF7FFFE2000E6
S1134E00DFF8A01718BF0120C87110BD38B50446DB
S1134E10FDF77AF80546DFF88C07DFF85C230472A7
S1134E20D07D38B9107B28B1611E8941906AC90FC1
S1134E300BF0E8FD2846BDE83240FDF76BB8DFF81B
S1134E406407007A7047DFF83033187B002800D1FC
S1134E50704780B5986ADFF8601700220BF046F9B6
S1134E6020B1BDE8044040F2F77177E601BD014688
S1134E70DFF83007DFF830378183187B002800D152
S1134E80704780B5986A00220BF021F920B1BDE883
S1134E90044040F6130161E601BD0000D086030022
S1134EA00146DFF80007DFF80037C183187B0028CC
S1134EB000D1704780B5986A00220BF0F9F820B150
S1134EC0BDE8044040F6290148E601BD10B500F0F4
S1134ED02EF8DFF8D0060179A06A01220AF0BBFEA1
S1134EE020B1BDE8104040F64B0137E610BD80B557
S1134EF0DFF8B416886A0AF0B8FE18B14FF40561F9
S1134F00FFF77CFEBDE80140FFF719BA10B500F0C9
S1134F100EF8DFF890060179A06A00220AF09BFEE1
S1134F2020B1BDE8104040F65B0117E610BDDFF884
S1134F307846A06A012201210AF0A3BDD7E710B583
S1134F408D4A0446906A21460BF06FFDDFF8541633
S1134F508C7110BDF8D801208CD901201BFC0000F5
S1134F60E4550000FEB5DFF8384605462068019098
S1134F707F2D0CD14FF6FF70DFF84066318800F0CA
S1134F8029F8BDF800007E25C10558BF0546FCF789
S1134F90BBFF794F0646F87D68B9284641B27E29A1
S1134FA003D1386B38B190F9040041B27E29BCBFFB
S1134FB040B2FFF7FFF8787B00B10120DFF800165C
S1134FC00D543046FCF7A6FFFFF7F5FE01D0FBF7C2
S1134FD0CFF9F7BDADF8000002237F2268460BF03D
S1134FE03DBC6549487B00B10120DFF8D42510564B
S1134FF07E2805D1086B08B97F20704790F904001A
S1135000704700212320FCF7DBB85B4890F91610A9
S113501003290AD10022DFF88C3582754FF0FF3165
S11350201962816B4020FBF70DBB70472DFC00001B
S113503038B50446DFF8705505F00AFDE863FFF75C
S1135040D0F801462046FFF77FF8062C02D0FCF783
S113505087FA01E00020A874BDE83140FBF72FBDBA
S113506038B50446DFF83C15434D4FF0FF30086275
S113507005F0EEFCE86395F91600012823DBDFF860
S11350804415487808B1E86B286495F9160002289D
S11350900CBF012100210020A8758D2C16BF872C80
S11350A026202720FFF750F8E87B28B1A86A0AF0E9
S11350B0ECFC0120287431BD2046BDE838400022B4
S11350C00021FBF7BFBA31BD80B5FFF78AF801466E
S11350D00120FFF739F8DFF8D014C87C18B1BDE817
S11350E0014000F080BA01BD0FF2EC40FBF752B969
S11350F0044008404C5008400001704710B5DFF8E8
S1135100A404046A002C15D405F095FC041B40F299
S1135110E930A4B284420DD3DFF88C1491F916005F
S1135120032803D1BDE8104000206EE7BDE810401D
S1135130892095E710BD000010B558B9FCF711FAA5
S1135140FCF7E2FE044600210020FEF7FDFFFFF716
S1135150D5FF02E0BDE81040D0E72046BDE810408E
S1135160FCF7D8BEDFF84024D2E90801C80900F0F2
S11351700100704700000000A8DC0120D0550000A9
S1135180400D0300488D01002DE9F84F8046DFF8FB
S1135190100490B09A4601680F915306144648BF14
S11351A0002002D4200602D50120FFF78DFFA002C3
S11351B0DFF8F0B3DFF8F073CDF8048026D50021D2
S11351C0B9749BF8080008B301980BF024FCE8B903
S11351D0019807A90AF0C0FFC0B99DF8240002286D
S11351E008D1BDF81C00FEF7D4FDFF2808D0FEF757
S11351F034FE04E0032809D107A80AF00AF828B10C
S1135200B86A0AF0A7FF08B90120B874A00305D54D
S1135210FEF7E7FF01460320FEF796FF97F9160015
S11352200FF2AC3801284FF0FF3904DBE00139D527
S113523097F9161001297BDB97F91600022877DC11
S1135240B86A07F1380200210AF037FE05F000FCC5
S1135250F863DFF87013487808B1F86B386497F98D
S11352601600012806D0022817D10321B975282079
S113527000215BE00020B875CBF8209000212B20A2
S1135280FEF762FFF87B28B1B86A0AF0FEFB012042
S113529038744DE0B96B002226E04FF41761FFF734
S11352A087FD45E004F080501AF0020108BF002891
S11352B01DD097F9160002280CBF012500250020F7
S11352C0B8750420FCF74EF9CBF82090294600F07D
S11352D063F9F87B0028D7D1FEF766FF002814BFD6
S11352E08E208D2000220021FBF7ACF920E0600124
S11352F048BF892002D4600003D58820FFF7B0FEA0
S113530016E01AF0080118BFFFF77BFE1AF004013B
S113531007D0AD4A1168890B01F001012420FEF782
S113532013FF1AF0010103D000212520FEF70CFF22
S1135330200768D5B86A0AAA03210BF079F902900C
S113534018B940F69431FFF733FD9DF82800BDF8F5
S11353502A5007281CBF9BF80500002840F0B480A1
S1135360062DC0F2B18005F108008B2880F0AC80D6
S113537000200090954E0299B86A2B4632460BF0F5
S113538063F9A84203D040F6AE31FFF711FD30783F
S1135390010600F199800299B86A03AA0BF050F94A
S11353A018B140F6C431FFF703FD707800F0070030
S11353B0022833D1FEF715FF01460920FEF7C4FE8B
S11353C09BF807008DF8000097F91610032920D1E7
S11353D09DF81500E8B10021B975CBF82090B0789C
S11353E000F0300020280FDA062D0DD17078000966
S11353F000F0010B59462920FEF7A6FEB96B5A4668
S11354008F20FBF71FF965E0B96B00224020FBF702
S113541019F99DF8000000285CD105E09DF81500FD
S113542010B10020FFF7F1FD71789BF80700A0B1DF
S11354308A0612D59BF8080078B1B86A0BF0EBFA2B
S113544020B1FEF7CEFE0146062003E0FEF7C9FEBA
S113545001460520FEF778FE0BE001F00701022962
S113546005D0FEF7BEFE01460920FEF76DFE0020C2
S1135470B8743178491CA94203D040F61F41FFF7A4
S113548097FC9BF8040070550020FEF782FA71190E
S113549073194870FF229DF8160088709DF8170054
S11354A0C8701A7172190398000C48710835039872
S11354B0000A8871E9B20398D0713046BA7CFBF7D0
S11354C0C0FA0020B87405E0FEF78BFE0146042004
S11354D0FEF73AFEE00505D5FEF783FE01460420FB
S11354E0FEF732FE14F4863F05D0FEF77AFE01463D
S11354F00220FEF729FEA00144BF0820FFF798FD13
S113550014F0084F1CBF0720FFF792FDA00044BF12
S11355100620FFF78DFDA00744BF0198FFF775FD36
S11355201AF040010CD000210A20FBF749FE019833
S1135530FFF76BFDFFF716FE10B100200BF078FAB1
S11355401AF080011CBF01200BF072FA1AF480716A
S113555012D001980AF08FFA70B1022802D0032801
S113556002D005E0892000E08720FFF779FD03E001
S113557040F6E111FFF71CFC1AF4007118BFFBF7A9
S1135580CBFF0F9806490A68904201D0FAF7F0FE63
S113559011B0BDE8F08F00212620FEF7D5BD000034
S11355A0B4D5012050D70120A8DC01200A0020FF37
S11355B09B460000DCAE030008F30120DEAE0300CE
S11355C096DB01208CD901200440084008E6012024
S11355D07068792E630000006C69627261696C2ED8
S11355E061000000000070477FB5DFF8384B0FF210
S11355F040052268029201AB2E681E608DF80500FA
S11356008DF807106B46012201A904200BF0C6FB9C
S113561018B140F2993101F004FD00F073F808BFAD
S11356209DF8000001D0FAF7A3FE04B070BD00009D
S1135630120001002DE9F043DFF8747A85B03E686A
S113564080460C4615469946049668460FF2580162
S1135650102205F065F88DF803408DF801802C00C8
S11356608DF80250DFF8708B01D00C2C03D340F27C
S1135670A73100F0EDFA2246494601A805F050F89A
S11356802D1D6946E8B20BF01EFB18B140F2AB3198
S113569000F0DEFA04983968884201D0FAF768FE0F
S11356A005B0BDE8F0830000110000000000000018
S11356B00000000000000000FEB5DFF8684A0FF2A9
S11356C03C06236802936D46D6E90073C5E900736E
S11356D08DF801008DF803108DF80420694605202B
S11356E00BF0F1FA18B140F2B73101F09AFC00F076
S11356F009F801D0FAF73CFEF7BD000011000100E3
S11357000000000002982168884270473EB5DFF827
S1135710144A0FF244020346206801906946156852
S11357200D600C22D878C0438DF801005879C0432D
S11357308DF80200D879C0438DF8030004200BF0E3
S11357402DFB18B14FF4717101F06BFC00F035FCC6
S113575001D0FAF70DFE37BD82000000FEB5DFF878
S1135760C449DFF8747B21680191012206468DF853
S113577000200921384606F0B3FA3B46092201F01D
S1135780ABFFDFF8545A18B140F2CD3100F027FDD9
S113579086B10B2107F10C0006F0A2FA10208DF857
S11357A0000007F10C030B2201F096FFA0B14FF4A7
S11357B075710FE0DFF8886B0A21304606F090FA25
S11357C0FE208DF8000033460A2201F085FF18B14F
S11357D040F2DB3100F003FD00F0EFFB01D0FAF7FB
S11357E0C7FDF7BDDFF8F00A407C7047DFF8E81A20
S11357F0487B0A7B897B000440EA026040EA01207E
S11358007047DFF8D41AD1F8130000BA7047DFF8F4
S1135810C80A818803E0DFF8C00AB0F8011048BA6A
S113582080B2704710B5DFF8B04ADFF8141BE07996
S11358300A7A904203D040F20C4101F0F2FBE07985
S113584010BDDFF8200BC06A7047FEB5DFF8D448FE
S11358500FF23802054620680290D2E90037CDE9FC
S113586000370E462F46052F03DB4FF4856101F008
S1135870D8FB69466D1CCE55E8B20BF024FA0299A8
S11358802268914201D0FAF773FDFEBD13000000B7
S113589000000000FEB5DFF8186814461D463268A3
S11358A00FF25C0301926F461B88ADF800300300D1
S11358B014BF022200220B0018BF01231A437A707E
S11358C0DFF8A02A11B100219184916208B100206F
S11358D050846B46022200F014F818B140F24F4194
S11358E001F09FFB14B19DF8000020700DB1787891
S11358F0287001993068814201D0FAF739FDF7BD6B
S11359001500694602200BF049BA10B504466079C7
S1135910E178002808BF002907D001B1012100B1B6
S1135920012000230022FFF7B5FF2046BDE8104008
S1135930ECE670B50446DFF8A05812E0112803D055
S11359404FF48E6100F04BFCA678361D2146F0B270
S11359500BF0B9F918B140F2734100F040FCF6B213
S1135960344420780028E9D170BD2DE9F84FDFF8E0
S11359704087DFF8F099044686B01F46D8F8000047
S11359800590164699F8193099F81A200D469C424C
S113599099F81C0099F81B1008BF954203D18E4258
S11359A008BF87423AD00FF288034FF0000ED3E9C4
S11359B000AB02AB7840CDE900AB7140F246D34670
S11359C083E8004C6A40384031402A408DF80F008B
S11359D08DF80B108DF80D208DF804408DF80560BE
S11359E08DF806508DF8077002A8FFF78FFE694600
S11359F008200BF068F918B140F2B64101F011FB30
S1135A00DFF8680989F81940847589F81A50C57552
S1135A1089F81B60067689F81C7047760598D8F8D3
S1135A200010884201D0FAF7A3FC07B0BDE8F08F5C
S1135A3011630400000000001CB5DFF874460FF287
S1135A40340220680190694612788DF80020012004
S1135A500BF039F918B140F2DD4101F0E2FADFF858
S1135A6004190020087300F0A8FA01D0FAF780FCAA
S1135A7013BD00008C0070B50246DFF8E808816BA6
S1135A8039B10B789A4224BF4878904201D3084632
S1135A9070BDDFF8DC389C79E0B20028F8D0986853
S1135AA0641EE5B250F82500884218BF0028F3D0E0
S1135AB00678B24224BF45789542EDD370BD70B5E7
S1135AC0044619B9FFF7D7FF010011D0CB690022B2
S1135AD000E0521CC87E82420ADA14255543581944
S1135AE0F7D05D5DAC4224BF4678A642F1D370BDC9
S1135AF0002070BD0021222076E52DE9F84381467F
S1135B00B9F5004FDFF8D08603D140F2435100F0DD
S1135B109FF800F0FDFFFFF7EDFF4FF6FF71894599
S1135B200746DFF850480DD1FFF760FEA042C7F3E7
S1135B3083060CD2062E08BF082608D0082E06D1EC
S1135B40062604E00FF2041009F00301465CFFF797
S1135B5062FE44F26541401A0ED0801E04D0401EFD
S1135B6008D0401E08D00DE04FF6FC7000EA090989
S1135B70062620E0062E01D0082E03D1022060F371
S1135B8001090126FFF732FEB500A04206D2062E17
S1135B9008BF202502D0082E08BF182507F03C00B6
S1135BA0E9B2884207D007F0C3072F43FAB20021B5
S1135BB02220FFF781FD0221FFF79DFF012E0746FA
S1135BC018BF022EC7F3811404D0062E04D0082E69
S1135BD008D003E0002405E0032403E040F2BB51B5
S1135BE000F036F807F03F0242EA8412974203D0ED
S1135BF002212220FFF760FDDFF87417CB68002034
S1135C0000E0401CCA79904218DA0C2242431A443C
S1135C101779B742F5D1DFF860070168914211D0D6
S1135C20DFF848470260002194F91C0001F0F2FA01
S1135C3094F91D00012101F0EDFA03E040F23E5118
S1135C4000F006F84846BDE8F283000006080102A9
S1135C504046FAF79FBB38B57F28044604D140F28A
S1135C60226101F0DEF907E07E2805D1DFF8F406B1
S1135C70C06BB0B190F90440DFF8F406DFF8FC56CD
S1135C80017908194004001480F308042878A0421C
S1135C9007D000F03DFFE2B205216020FFF70CFDC4
S1135CA02C7031BD2DE9FE4FDFF804848946D8F805
S1135CB0001001910546FFF7DEFE0027040008BF2F
S1135CC08A2000F0E980DFF89C66DFF8A0A6B06BBC
S1135CD0DFF86CB684423BD0B9F1000F18BFFFF770
S1135CE0ABFE9BF8090010B1206AFFF722FE4FF6C5
S1135CF0FF70ADF802000223DFF8840601887F22DA
S1135D000DF102000AF0AAFDBDF80200010605D457
S1135D1000F07F0200210020FFF7CEFCB06B78B1C9
S1135D2041696269914202BF017E227E914207D19C
S1135D30417E627E914202BF807EA17E884200D075
S1135D400127B463BAF82800FFF7D7FEAAF82800A1
S1135D5021462846FFF7B3FE0400DFF87C9403D104
S1135D6040F2796101F01EF8F06BE568844226D0B8
S1135D70F463206908B1FFF7DCFD9AF91B007E2863
S1135D8004BF94F90400FFF766FF306C854216D017
S1135D90002D18BF00280FD001782A78914202BF45
S1135DA001892A89914207D1418A6A8A914202BFB4
S1135DB0407C697C884201D0356402E03564002F60
S1135DC069D0B06BDFF8A83518B9996809680C4632
S1135DD001E00146044605690A7E6169DFF8A4C54D
S1135DE05543BCFBF1F14D436246B5FBF2F2120A96
S1135DF08DF8002018B9996809680A4601E001463F
S1135E0002460369097E50694B43BCFBF0F04343EF
S1135E106146B3FBF1F18DF801106B4602220521B6
